:100000000C94A9010C94F0010C94F0010C94F001F3
:100010000C94F0010C94F0010C94F0010C94F0019C
:100020000C94F0010C94F0010C94F5190C94B11996
:100030000C94131E0C94F0010C94F0010C94F0013C
:100040000C94F0010C94F0010C94F0010C94F0016C
:100050000C94F0010C94EF1D0C94F0010C94F00141
:100060000C94F0010C943A1E0C945C1E0C94F0015C
:100070000C94F0010C94F0010C94F0010C94F0013C
:100080000C94F0010C94F0010C94F0010C94F0012C
:100090000C94F0010C94F0010C94F0010C94F0011C
:1000A0000C94F0010C94F0010C94F00100080AFF8C
:1000B000B4FF000000000008BFFFB4FF0000000014
:1000C000000101010101010101010202020202021B
:1000D00002020203030303030303030404040404EE
:1000E00004040505050505060606060607070707B5
:1000F0000708080808090909090A0A0A0B0B0B0C6A
:100100000C0C0D0D0D0E0E0E0F0F0F101011111106
:100110001212131314141515161617171818191987
:100120001A1A1B1B1C1D1D1E1E1F202021222223EC
:100130002424252626272829292A2B2C2D2D2E2F2D
:1001400030313232333435363738393A3B3C3D3E44
:100150003F404142434445464748494A4C4D4E4F33
:1001600050515354555658595A5B5D5E5F616264F5
:10017000656668696B6C6D6F7072737577787A7B82
:100180007D7E8082838587888A8C8E8F91939596D9
:10019000989A9C9EA0A2A3A5A7A9ABADAFB1B3B5F9
:1001A000B7BABCBEC0C2C4C6C9CBCDCFD1D4D6D8D5
:1001B000DBDDDFE2E4E7E9EBEEF0F3F5F8FAFDFF73
:1001C00000001150285D0000F400F000F5002B0540
:1001D000F200F100F30051082900FB00FC00295D4A
:1001E000A800AA00A9002A5D00001050285D540054
:1001F0005F006000610055005C005D005E0056001D
:1002000059005A005B005700A800620063005800C4
:10021000B600AC00000005010902A1018502090138
:10022000A10005091901290515002501950575018C
:10023000810295017503810105010930093115819C
:10024000257F95027508810609381581257F95015E
:1002500075088106050C0A38021581257F95017500
:10026000088106C0C005010980A101850319012A82
:10027000B700150126B700950175108100C0050C67
:100280000901A101850419012AA002150126A00275
:10029000950175108100C005010906A10105071926
:1002A000E029E71500250195087501810295017582
:1002B0000881010507190029FF150026FF00950692
:1002C0007508810005081901290595057501910238
:1002D000950175039101C009023B00020100A0FADB
:1002E000090400000103010100092111010001229C
:1002F00040000705810308000A090401000103000A
:10030000000009211101000122810007058203205C
:10031000000A1201100100000008616E6160010016
:10032000010203010403300000000E0354004900E1
:100330004400420049005400000012036E007500A2
:100340006C006C006200690074007300000004031C
:10035000090411241FBECFEFDAE0DEBFCDBF04B623
:1003600003FE27C08091680390916903A0916A03FE
:10037000B0916B038730904BA740B04BD1F41092F3
:1003800068031092690310926A0310926B0314BE03
:1003900084B7877F84BF0FB6F894A89580916000DA
:1003A000886180936000109260000FBEE0E0F8E387
:1003B000099511E0A0E0B1E0E0E7FEE302C005909E
:1003C0000D92A835B107D9F723E0A8E5B1E001C047
:1003D0001D92A836B207E1F70E94D01A0C94FE1EB7
:1003E0000C940000E8EDF0E080818E7F8083109215
:1003F000E2001092DA001092E100A0EEB0E08C91E1
:1004000081608C9380818F77808319BCA7EDB0E0E9
:100410008C918E7F8C9380818F7E8083109251038C
:1004200008952091E4003091E50095E6A90120911E
:10043000EC00822F817020FF06C08091E80080FFD1
:1004400006C080E008952091E80022FD1AC0809146
:100450005E03882389F0853089F08091EB0085FD6B
:100460000FC02091E4003091E50042175307F9F2E4
:100470009150E1F684E0089582E0089583E00895C4
:1004800081E00895EF92FF920F931F93CF937C0129
:100490008B010E941102C82F811117C08091E800C2
:1004A00085FD0BC08091E8008E778093E8000E9464
:1004B0001102882399F3C82F08C0F70181917F01A9
:1004C0008093F1000150110949F78C2FCF911F91B2
:1004D0000F91FF90EF9008958091600387FF13C004
:1004E0008091E80082FF06C08091E8008B778093BE
:1004F000E80004C080915E038111F2CF08958091DD
:100500005E038823D9F38091E80080FFF8CF8091C3
:10051000E8008E77ECCF982F9093E900242F762F68
:1005200050E0891731F07091EC002091ED0050916E
:10053000F00021FD07C09F5F973071F78093E900BD
:1005400081E008953091EB003E7F3093EB003091D5
:10055000ED003D7F3093ED003091EB003160309342
:10056000EB007093EC002093ED005093F00020918D
:10057000EE0027FDE0CF80E00895CF92DF92EF926A
:10058000FF920F931F93CF93DF93C8EDD0E0888144
:100590008F7E8883E7EDF0E080818160808384E056
:1005A00082BF81E08093510388818E7F888302EE31
:1005B00010E0F80110821092DA0081EEC82ED12CE2
:1005C000F601108288818F7788838881806888838C
:1005D00088818F7D888319BC10925E0310925F031F
:1005E00010925D0310925C0390EEE92EF12CF7015E
:1005F00080818B7F808388818160888342E060E096
:1006000080E00E948B02F60180818E7F8083F8015A
:10061000808181608083808188608083F701808110
:100620008E7F8083888180618883DF91CF911F9145
:100630000F91FF90EF90DF90CF900895FC01809193
:1006400066039091670386179707A0F061157105FF
:1006500029F49091E8009E779093E80090E061156E
:10066000710551F4911108C08091E80082FF34C0F7
:1006700080E00895BC01F2CF80915E038823C1F130
:100680008530C1F18091E80083FD30C08091E800A1
:1006900082FDEACF8091E80080FFE1CF8091F300F6
:1006A0002091F200382F6115710519F028303105BD
:1006B00058F091E02830310509F090E02091E800F1
:1006C0002E772093E800CBCF81918093F100615089
:1006D00071092F5F3F4FE7CF80915E03882341F080
:1006E000853041F08091E80083FFBECF81E008951E
:1006F00082E0089583E008958091530308959091D6
:100700004603803F59F48091470387FF0DC0109244
:10071000470391110BC01092410308C0813F81F43F
:100720008091470318169CF3992381F08091480328
:1007300090914903892B09F064C010923E030895FB
:10074000823F49F497FFF0CF109246038091470310
:100750008111ECCFE0CF833F19F41916ACF3E4CF4D
:1007600020914803893F29F41216F4F610924803A9
:10077000DBCF8A3F19F427FFD7CFF8CF2091490369
:100780008B3F29F427FFD0CF10924903CDCF8C3F68
:1007900019F41216CCF3C8CF843F31F4809145038D
:1007A0008E7F80934503C0CF853F21F48091450320
:1007B0008D7FF7CF863F21F4809145038B7FF1CF6A
:1007C000873F21F480914503877FEBCF883F21F459
:1007D000809145038F7EE5CF8D3F31F480911F03DB
:1007E0008E7F80931F03A0CF8E3F21F480911F0343
:1007F0008D7FF7CF8F3F09F097CF80911F038B7FBD
:10080000F0CF089580911F0380FD1CC081FD14C0AE
:1008100082FD14C0809141038823A1F0843180F4CB
:100820002AE0829FC001112464E170E00E94931EBF
:10083000862F672B39F0089585E008958FE7089596
:100840008AE0089581E0089580911F0380FD14C01F
:1008500081FD14C082FD14C080914103882391F072
:100860008F3090F429E1829FC00111246FE070E085
:100870000E94931E862F089581E008958CE00895CC
:100880008FE7089585E0089589E10895803F31F468
:100890000E9424048195809347030895813F19F4B1
:1008A0000E942404F8CF823F31F40E9424048195F1
:1008B000809346030895833F19F40E942404F8CFDF
:1008C000893F29F40E9402048093480308958A3FD7
:1008D00021F40E9402048195F7CF8B3F31F40E94EE
:1008E000020481958093490308958C3F19F40E9476
:1008F0000204F8CF843F31F48091450381608093F6
:1009000045030895853F21F4809145038260F7CF28
:10091000863F21F4809145038460F1CF873F21F425
:10092000809145038860EBCF883F21F48091450397
:100930008061E5CF8D3F31F480911F03816080930A
:100940001F0308958E3F21F480911F038260F7CF2B
:100950008F3FB9F780911F038460F1CF9C014FB79F
:10096000F89480911B0390911C03A0911D03B091FA
:100970001E034FBF821B930B08952FB7F8948091ED
:100980001B0390911C03A0911D03B0911E032FBF68
:1009900008950E94BD049C019091460380914703F5
:1009A000982B21F030934303209342039091480306
:1009B00080914903982B21F03093400320933F030B
:1009C000E0913303F0913403309749F082E0809353
:1009D00044030480F581E02D84E493E009940895B4
:1009E0009C01FC0132969FEF80E04191461751F047
:1009F0009F3F19F4411101C0982F8F5F8630A9F7EE
:100A00009F3F09F40895290F311D97FD3A95F9018B
:100A10006283089580911603811110921603089540
:100A20008091150390911403892B90911303892BC6
:100A30008093580190911603992391F0892B80930C
:100A4000580120E08AE591E0FC013191CF0131119C
:100A50002F5FF1E080369F07B9F721110E940A0548
:100A6000E0913303F0913403309731F00280F38149
:100A7000E02D88E591E009940895990F990F890F69
:100A8000982F977086958695869525E0829FF00130
:100A90001124ED5FFC4F50E040E080E0219130E018
:100AA000092E02C0369527950A94E2F72170332764
:100AB000042E01C0220F0A94EAF7822B4F5F5F4F8A
:100AC0004530510559F70895990F990F890F982FBF
:100AD000977041E001C0440F9A95EAF78695869594
:100AE000869595E0899FF0011124ED5FFC4F30E081
:100AF00020E070E05191DF011197CB01022E02C07E
:100B0000969587950A94E2F78170819585278423CD
:100B100085278C932F5F3F4F2530310559F7089576
:100B2000282F8091250390912603A0912703B0914F
:100B300028030097A105B10521F4822F80958170CB
:100B4000089504C0B695A795979587952A95D2F7ED
:100B5000F6CF809102039091D102981301C00895BD
:100B60008F5F8770FACF882341F0809590911503AD
:100B70008923809315030C9410050895882339F078
:100B800090911503982B909315030C9410050895DC
:100B90002091C4013091C5012817390771F0909355
:100BA000C5018093C401E0913303F0913403309781
:100BB00021F00084F185E02D099408952091C2016F
:100BC0003091C3012817390771F09093C3018093C6
:100BD000C201E0913303F0913403309721F0068095
:100BE000F781E02D099408951092140310921303D5
:100BF0000E94100586E0E4E4F3E0DF011D928A958F
:100C0000E9F71092410310923E0310921F030E94D5
:100C1000C90490E080E00E94DE0590E080E00C9442
:100C2000C80560931703709318038093190390937A
:100C30001A030C94F4058823F1F19CEF980F913A74
:100C400078F4EAE5F1E020E631E09191891303C000
:100C5000DF0111971C922E173F07B9F70C9410056E
:100C600090E2980F983088F4877021E030E0A90175
:100C700002C0440F551F8A95E2F7CA0180959091F2
:100C80001503892380931503E9CF9BE5980F9330D3
:100C900020F490E080E00C94DE0598E5980F973101
:100CA00020F490E080E00C94C805803F20F00E9482
:100CB0007F030C94C9040895CF93C82F882309F4A7
:100CC00056C08CEF8C0F813AF8F4EAE5F1E080E64B
:100CD00091E0DF012D91C21759F08A179B07D1F7D8
:100CE0006C2F88E591E00E94F004CF910C941005E0
:100CF0002191C21303C0DF0111971C928E179F0729
:100D0000B9F70E941005ECCF80E28C0F883068F4B0
:100D1000C77021E030E001C0220FCA95EAF7809148
:100D20001503822B80931503E0CFEBE5EC0FE33046
:100D300040F4F0E0E35FFE4F808190E0CF910C94AF
:100D4000DE05E8E5EC0FE73150F4F0E0EE0FFF1FB1
:100D5000E05FFE4F80819181CF910C94C805C03F28
:100D600030F08C2F0E944604CF910C94C904CF918F
:100D70000895E0913303F0913403309721F001900E
:100D8000F081E02D099480E00895FA01811101C0FD
:100D9000FB01099480912B03982F9E7F39F4809159
:100DA0002B038170826080932B0308958430B8F701
:100DB0000895AF92BF92DF92EF92FF920F931F932D
:100DC000CF93DF93082F162FE901E42FF0E0E054D2
:100DD000FF4F611110C0E4915E2F4E2F4983E883CD
:100DE0005A83DF91CF911F910F91FF90EF90DF9089
:100DF000BF90AF900895E62EF12C4491D42EE42FAD
:100E0000F0E026E0829FC00111242FEF30E0B9010D
:100E10000E947F1E802F90E0880F991F55E5569FF6
:100E2000D001579FB00D11248A1B9B0B982F990F4F
:100E3000890F5901AE18BF08AE9ED001AF9EB00D0C
:100E4000BE9EB00D11245B2F189F80011124012F2D
:100E500011275901A01AB10AAE9E8001AF9E100D54
:100E6000BE9E100D11245901A81AB108AE9CC001F4
:100E7000AF9C900DBE9C900D1124892F9927281BA3
:100E8000390B2E9FC0012F9F900D3E9F900D112476
:100E9000E92F62307105A1F050F46115710509F474
:100EA0009DCF6130710581F0EB2F512F97CF6430CA
:100EB000710569F080F06630710509F48FCFF4CFC9
:100EC000E42F4B2F592F8ACFE42F412F87CFEB2FC1
:100ED000542F492F83CF4B2F5D2DE12F7FCF909142
:100EE000290392FF06C0282F28712830F9F4877F44
:100EF000846093FF06C0282F28712831F1F4877E83
:100F0000846120912A0320FF06C0382F38713830C1
:100F1000D9F4877F816021FF06C0282F28712831EE
:100F2000D1F4877E816194FD877E0895282F2471F6
:100F30002430F9F68B7F8860DCCF282F2471243190
:100F400001F78B7E8861DDCF382F3171313019F791
:100F50008E7F8860E0CF282F2171213121F78E7E8E
:100F60008861E1CFCF93DF9325E0829FC0011124F8
:100F7000FC01E70FF11DEE0FFF1FEE0FFF1FE60F45
:100F8000F11DEE0FFF1FE054FE4FC591D491CE012D
:100F9000C238D105B9F1E8F5C133D10509F499C0DA
:100FA00050F5C932D10509F48DC0CA32D10509F412
:100FB00097C0C11531E5D30708F0BFC0C11520E5C2
:100FC000D20708F016C1C83ED10508F09DC0C13E49
:100FD000D10568F5C83AD10508F089C0C53AD105F0
:100FE00008F0FFC0C130D10511F1209709F443C0CA
:100FF0002497E8F440C0C533D10509F45CC0C93377
:10100000D105B9F620912903237089F080EE90E094
:101010000EC0C33ED10591F168F4C03ED105F9F090
:10102000C23ED10531F62091290322FD20C0DF9177
:10103000CF910895C63ED10561F1C73ED10581F13A
:10104000C43ED10509F0B5CF20912A0321FFEFCF8F
:101050008091290384FD0FC087EE90E0E8CF2091B6
:10106000290320FD12C130912A0330FFE0CF83EE27
:1010700090E024FFDCCF90E080E0D9CF20912903DD
:1010800022FD06C130912A0330FDC0CF24FFCFCF0F
:10109000F2CF2091290323FFCACF24FDECCFDCCF70
:1010A0002091290323FDF7C030912A0331FFEECFB1
:1010B00084EE90E0BCCF2091290325FFB8CF89E2D0
:1010C00090E0B5CF2091290325FFB1CF85E390E0D3
:1010D000AECF2091290326FFAACF8AE290E0A7CFC6
:1010E0002091290326FFA3CF81E390E0A0CFCF3B3F
:1010F000D10508F6C85AD0E0CC0FDD1FC05FDE4F27
:1011000088819981946493CFC11530E2D30760F44C
:10111000C11521E0D20708F08ACFCE019065C03F0B
:10112000D10508F084CFA7CFC11530E4D30708F468
:10113000A2CFCE019F70906A7ACFC11585E5D807FE
:1011400010F5C11524E5D20708F088C0C11533E5B4
:10115000D30708F06FC0C11582E5D80708F465C051
:101160009E012370332781E090E002C0880F991F11
:101170002A95E2F7C695C69520E2C29FE0011124A8
:101180008C2B9D2B50C0C11529E5D207A0F4C115A9
:1011900038E5D30708F067C0C11586E5D80708F021
:1011A0006ACF8C2F0E946F0790E0982F882788279E
:1011B0009F7190623CCFC1152AE5D20708F458C050
:1011C000CE0190568115904208F055CF8D2F8F712A
:1011D0000E946F0790E0982F882788279F718C2B9B
:1011E000E8CFC55AD0E0C35FDE4F888190E09064BD
:1011F0001ECF9E01E4E036952795EA95E1F723702E
:101200008C2F86958695837030E2839FC0011124D0
:10121000922BC37021E030E002C0220F331FCA9529
:10122000E2F7822B932B9C6802CF9C2F8827816F3B
:10123000906AFDCE9E012370332781E090E002C0CA
:10124000880F991F2A95E2F7C695C69530E2C39F8D
:10125000E00111248C2B9D2B9A68E9CE9C2F8827C6
:10126000846F906AE4CE9C2F8827806F906ADFCECF
:101270008C2F8F700E946F0734E0D695C7953A95F2
:10128000E1F7CF709C2F9069D2CE89E390E0CFCE6A
:1012900082EE90E0CCCE86EE90E0C9CEBF92CF92A7
:1012A000DF92EF92FF920F931F93CF93DF938C0106
:1012B000C0902503D0902603E0902703F0902803E8
:1012C0008091170390911803A0911903B0911A030C
:1012D000C82AD92AEA2AFB2ACFE1D0E0BC2ED701BE
:1012E000C6010C2E04C0B695A795979587950A94CC
:1012F000D2F780FD0EC0219788F7B12C8B2DDF919E
:10130000CF911F910F91FF90EF90DF90CF90BF9002
:101310000895B8018C2F0E94B207019761F3EECFB8
:10132000CF93DF93EC010E944E09BE01DF91CF9174
:101330000C94B2070E949009292F2F7092959F70EC
:1013400092509E3078F4E92FF0E0E050F14E0C948A
:10135000A71E803F19F020F4883E20F481E0089514
:10136000843FE1F380E00895883EC0F3813FD1F7E8
:10137000F5CF822F86958695869508950C941B0649
:101380000C945C06CF9384E090E00E94B61EC82FB8
:1013900081E290E00E94B61E982F8C2FCF91089585
:1013A000CF93DF9300D00F92CDB7DEB790915E035D
:1013B000943019F589837B836A8382E08093E90006
:1013C0008FEF9091E800815095FD06C095ED9A95BC
:1013D000F1F700008111F5CF8091E80085FF0DC085
:1013E00050E040E063E070E0CE0101960E944202CE
:1013F0008091E8008E778093E8000F900F900F9017
:10140000DF91CF910895BC0184E00C94D009BC0118
:1014100083E00C94D0099C0182E08093E9009FEF67
:101420008091E800915085FD06C085ED8A95F1F721
:1014300000009111F5CF8091E80085FF0CC050E0CD
:1014400040E066E070E0C9010E9442028091E8003D
:101450008E778093E8000895CF93DF93EC0181E0CD
:101460008093E9008FEF9091E800815095FD06C0D0
:1014700095ED9A95F1F700008111F5CF8091E80084
:1014800085FF14C050E040E068E070E0CE010E94AB
:1014900042028091E8008E778093E80088E0FE01A8
:1014A000A4E5B3E001900D928A95E1F7DF91CF9129
:1014B0000895CF93C82F0E945C06C93349F42FEFDB
:1014C00087EE93E0215080409040E1F700C000009B
:1014D0008C2FCF910C941B060F931F93CF93DF9308
:1014E000C42FD22FFC0182818823A1F04093C9022E
:1014F0000E94BD049093C1018093C001C77081E038
:1015000001C0880FCA95EAF7DF91CF911F910F9123
:101510000C94BE051091C902141335C08091C0010E
:101520009091C1010E94AE04883C910560F5C0E233
:10153000CD0F1D17B9F080E2810F883040F417708D
:1015400081E001C0880F1A95EAF70E94B305C83000
:1015500048F481E09D2F977001C0880F9A95EAF7B3
:101560000E94BE05802F0E94590AC83098F4D77097
:1015700081E001C0880FDA95EAF7DF91CF911F91E2
:101580000F910C94B305C77081E001C0880FCA9514
:10159000EAF7F3CFDF91CF911F910F9108954F920A
:1015A0005F927F928F929F92AF92BF92CF92DF9283
:1015B000EF92FF920F931F93CF93DF930EE311E00F
:1015C00030E020E0C0E0EE24E394F12C55E2A52EBB
:1015D00053E0B52ED8018D918D01E82FE295EF7083
:1015E000F0E091A18F70B70101C0660F8A95EAF70C
:1015F000892F862B81A382A1D62FD0958D2382A3FC
:10160000B0EABA95F1F7A701022E01C0440F0A947F
:10161000EAF7942E409580E2482E83E0582E92E41B
:10162000C92E91E0D92E812CD2017D902D01D601B9
:101630005D916D01852F82958F7090E0DC01909611
:101640008C9190E05F7002C0959587955A95E2F76E
:10165000592D572980FF02C0542F5721751631F09C
:10166000C2010197DC015C9388248394A414B5041F
:10167000D9F681A1D823D1A382A1682B62A3C8295E
:101680002F5F3F4F2430310509F0A4CFCC2341F127
:1016900081E08093A4010E94BD049093A3018093F4
:1016A000A2018091A2019091A3010E94AE0406972D
:1016B000D8F080912003809336038091210380939A
:1016C0003703809122038093380380912303809312
:1016D00039038091240380933A031092A40104C03B
:1016E0008091A4018111DDCF8C2FDF91CF911F91CB
:1016F0000F91FF90EF90DF90CF90BF90AF909F90B1
:101700008F907F905F904F900895CF92DF92EF92ED
:10171000FF926B017C010E94CA06B701A60188E016
:1017200090E0FF90EF90DF90CF900C94DC1E8091C2
:101730002F03882319F0815080932F0360912B038E
:1017400070912C0380912D0390912E030C94850BA6
:1017500080912F03833018F48F5F80932F03609163
:101760002B0370912C0380912D0390912E030C94E8
:10177000850BEBE2F3E083E0808311828FEF8283BD
:101780008383148260817181828193810C94850BA3
:101790006CEE7EEF90E080E00E94E81E60E082E068
:1017A00090E00E94CA1E60E083E090E00E94CA1EA2
:1017B00010921703109218031092190310921A0333
:1017C00060E084E090E00E94CA1E60E081E290E068
:1017D0000E94CA1E60E085E090E00E94CA1E60E0A0
:1017E00086E090E00E94CA1E6FEF87E090E00E94C2
:1017F000CA1E40E050E0BA0188E090E00E94DC1E82
:1018000060E08DE090E00E94CA1E40E050E0BA0126
:1018100088E190E00E94DC1E60E087E190E00E9499
:10182000CA1E40E050E0BA018CE190E00E94DC1E4C
:1018300060E080E290E00E94CA1E40E050E0BA0101
:101840008FE090E00E94DC1E40E050E0BA0183E1AE
:1018500090E00C94DC1E10921503EAE5F1E086E0BE
:10186000DF011D928A95E9F70C94F4051F93CF933D
:10187000DF93CDB7DEB7AA970FB6F894DEBF0FBEE1
:10188000CDBF80E693E02091F100FC012193CF01D0
:10189000F3E088369F07B9F780916103833009F43C
:1018A0006FC0B8F4813009F446C0823009F4B0C08A
:1018B0008091E80083FF87C280916003909161036B
:1018C0009A3008F080C2E92FF0E0E25FF04E0C940D
:1018D000A71E8A3009F48BC08B3009F46EC08930A2
:1018E00039F780916003813219F7809164039091F8
:1018F00065030297E8F68091E800877F8093E8000F
:101900008091E80082FF37C09091F3008091F2004F
:10191000029729F48091F1008B7F813021F480912E
:10192000F100809353038091E8008B778093E80067
:101930000E946C02BDCF80916003813A09F0B8CF5C
:101940008091E800877F8093E80080916403909104
:101950006503892B61F468E084E593E070E00E9400
:101960001E038091E8008B778093E800A1CF60E0B0
:1019700090E080E0F3CF80915E038111C1CF98CFDA
:1019800080916003813A09F093CF80916403909134
:101990006503892B09F08CCF8091E800877F8093C5
:1019A000E8008091E80080FFFCCF80910A018093DD
:1019B000F1008091E8008E77B9CF80916003813289
:1019C00009F076CF8091640390916503892B09F02B
:1019D0006FCF8091E800877F8093E8000E946C02BF
:1019E0008091620380930A010E942B0C61CF809149
:1019F0006003813209F05CCF8091E800877F80939B
:101A0000E8000E946C02809163038093520350CFE0
:101A100080916003813A09F04BCF8091E800877F85
:101A20008093E8008091E80080FFFCCF8091520312
:101A3000BECF803899F0823809F0C5C18091640327
:101A40008F70873008F0BFC18093E9008091EB0070
:101A500085FB882780F91092E90006C080915C031D
:101A600090915D03911182609091E800977F90932F
:101A7000E8008093F1001092F1008091E8008E77E9
:101A80009EC1882309F48CC1823009F09CC18091E9
:101A9000620381118FC1809164038F702FEF280F33
:101AA000263008F090C18093E9002091EB0020FFE0
:101AB00081C1933031F48091EB0080628093EB0020
:101AC00079C19091EB0090619093EB0021E030E0C0
:101AD00001C0220F8A95EAF72093EA001092EA00EB
:101AE0008091EB008860EACF81116DC11091620393
:101AF0001F778091E3008078812B8093E3008091B1
:101B0000E800877F8093E8000E946C028091E800E3
:101B100080FFFCCF8091E30080688093E30082E047
:101B2000111183E080935E034EC18058823008F02B
:101B30004AC180916203909163038C3D23E0920738
:101B4000A1F583E08A838AE289834FB7F894DE01A6
:101B5000139620E03EE051E2E32FF0E0509357006F
:101B6000E49120FF03C0E295EF703F5FEF708E2F8E
:101B700090E0EA30C0F0C7968D939D932F5F24319B
:101B800059F74FBF8091E800877F8093E8006AE2B1
:101B900070E0CE0101960E941E038091E8008B77D1
:101BA0008093E80010C1C096E7CF40916403509144
:101BB0006503292F33272330310509F445C078F513
:101BC0002130310509F47BC08BE390E0E7EDF2E0D2
:101BD0002230310509F0F7C02091E800277F2093DB
:101BE000E80020916603309167038217930708F499
:101BF0009C0140E02115310509F070C041116EC013
:101C00008091E80082FDC9CF80915E03882329F28C
:101C1000853019F28091E80083FFF2CFBECF2132E8
:101C2000310509F440C02232310509F0CCC041151C
:101C3000510509F44EC04130510509F0C4C081E896
:101C400090E0E6E1F2E0C8CF992781309105D9F024
:101C5000009771F082309105F1F0039709F0B3C05D
:101C6000E4E2F3E0E4918E2F90E0E4E2F3E007C0D9
:101C7000EEE4F3E0E4918E2F90E0EEE4F3E00097E1
:101C800009F4A1C0A9CFEAE3F3E0E4918E2F90E03C
:101C9000EAE3F3E0F4CFEAE2F3E0E4918E2F90E0A0
:101CA000EAE2F3E0ECCF4115510571F04130510506
:101CB00009F089C089E090E0E2E0F3E08DCF82E1B5
:101CC00090E0E2E1F3E088CF89E090E0E9EEF2E035
:101CD00083CF80E490E0E7E9F2E07ECF80915E037D
:101CE000882309F45ACF853009F457CF8091E80052
:101CF00083FD53CF8091E80082FD82CF8091E80080
:101D000080FF78CF9091F3008091F200211531058A
:101D100019F08830910550F041E0089709F040E053
:101D20008091E8008E778093E80064CF44914093DF
:101D3000F1003196215031090196E8CF803809F041
:101D400042C08091E800877F8093E80080915F0324
:101D50008093F10092CE811136C01091620312304F
:101D600090F58091E800877F8093E80010935F03EF
:101D70000E946C02112311F084E005C08091E30001
:101D800087FDFACF81E080935E0342E061EC81E061
:101D90000E948B0242E261EC82E00E948B0213C03F
:101DA00080916203813079F481E0933009F080E022
:101DB00080935D031092E9008091E800877F809313
:101DC000E8000E946C028091E80083FF0AC08091C5
:101DD000E800877F8093E8008091EB008062809329
:101DE000EB00AA960FB6F894DEBF0FBECDBFDF9111
:101DF000CF911F9108950E942B0C2FEF84E39CE05C
:101E0000215080409040E1F700C0000081E08093C5
:101E1000E00080E28093D8001092C9008FE19EE438
:101E20000197F1F700C0000087E090EBDC018093A0
:101E3000680390936903A0936A03B0936B0388E1EE
:101E40009CE00FB6F894A895809360000FBE909325
:101E50006000FFCF5F926F927F928F929F92AF92BE
:101E6000BF92CF92DF92EF92FF920F931F93CF9387
:101E7000DF9300D000D00F92CDB7DEB780912B0357
:101E800080FD0AC0E8EAF1E01182108212823396E6
:101E900021E0E03CF207C1F78090310390903203DB
:101EA0008114910409F457C080FF55C0D12CC12C76
:101EB00066246394712C53E0552E8091A701930101
:101EC0000C2C01C0220F0A94EAF7822309F43BC0CC
:101ED000F601EE0FFF1FE80DF91DE590F490E114F7
:101EE000F104C9F145E050E0B701CE0101960E942E
:101EF000AD1E09810F3F39F18A81800F9927991F03
:101F00008930910514F088E090E05C01AA0CBB1CBC
:101F10008A0D9B1DFC01E855FE4F5F01059D800168
:101F2000112408551E4F0A151B0520F0F5E0EF0E91
:101F3000F11CD8CF98014D816C818B810E94D9060C
:101F40000D5F1F4FF0CF2FEFC21AD20A38E0C31631
:101F5000D10409F0B2CF269A35B13F7B25B1206478
:101F60004FB7F89488EA91E0FC015191CF0168E005
:101F700025B9000000C057FF35B9550F000000C05B
:101F800000C000C035B900C06A9591F7F1E0803C0F
:101F90009F0751F74FBF8FE594E00197F1F700C01D
:101FA00000000F900F900F900F900F90DF91CF9146
:101FB0001F910F91FF90EF90DF90CF90BF90AF9067
:101FC0009F908F907F906F905F900895EF92FF9217
:101FD0000F931F93CF93DF9300D00F92CDB7DEB74F
:101FE000F82E062F142FE22E80912B0380FF36C08F
:101FF000E82FE695F0E0E55FFE4F90819093A50114
:102000008E7F8230C9F49E012F5F3F4F8F2D0E943B
:10201000D90680912B0380FF0FC08B8199812A8183
:10202000E8EAF1E0218390838283339631E0E03C5B
:10203000F307C1F70E942A0FF0922C0300932D039F
:1020400010932E03EE2051F060912B0370912C031E
:1020500080912D0390912E030E94850B0F900F907D
:102060000F90DF91CF911F910F91FF90EF90089506
:1020700080912B0380FF19C08170826080932B03B5
:10208000662351F060912B0370912C0380912D03F6
:1020900090912E030E94850B20E040912E036091C9
:1020A0002D0380912C030C94E60F089521E030E07D
:1020B000A90102C0440F551F8A95E2F7CA01209179
:1020C000A701662369F0822B8093A7018091A60166
:1020D000811109C080912B0360E086950C94381023
:1020E00080958223F1CF0895CF92DF92EF92FF92F5
:1020F0006B017C0160E0C114D104E104F10441F002
:10210000DC01C601B695A79597958795682F6170F4
:1021100081E00E94561061E0C114D104E104F10491
:1021200009F06C2D617080E00E945610C701AA274B
:10213000BB2720E10097A105B10519F4D701C6011D
:1021400020E0492F5A2F6B2F772741155105610544
:10215000710519F0285FDB01CA01AC01BD01F4E093
:102160007695679557954795FA95D1F7411551059D
:102170006105710519F02C5FDB01CA01AC01BD01DD
:10218000E2E07695679557954795EA95D1F7411521
:1021900051056105710519F02E5FDB01CA01B69585
:1021A000A79597958795892B8A2B8B2B09F02F5F05
:1021B000223018F483E50E94590AC701B601FF9046
:1021C000EF90DF90CF9008950E94741060932503E4
:1021D0007093260380932703909328030C94F405AF
:1021E0000F931F9341E050E060E070E004C0440FA3
:1021F000551F661F771F8A95D2F7CB01BA016095EC
:10220000709580959095009125031091260320915B
:1022100027033091280360237123822393231F9186
:102220000F910C94E4109091120380958923809370
:102230001203282F277071F4282F082E000C330B5F
:102240009217130639F08595859585950E94F010B3
:102250001092120308950F931F9341E050E060E045
:1022600070E004C0440F551F661F771F8A95D2F790
:102270008091250390912603A0912703B091280314
:102280008A019B01082B192B2A2B3B2BC901B80172
:102290001F910F910C94E4104F925F926F927F9276
:1022A0008F929F92AF92BF92CF92DF92EF92FF9266
:1022B0000F931F93CF93DF9300D000D00F92CDB731
:1022C000DEB77C01FC0183819481892B39F0108178
:1022D0000181812F80238F3F09F053C50F900F900C
:1022E0000F900F900F90DF91CF911F910F91FF9062
:1022F000EF90DF90CF90BF90AF909F908F907F90A6
:102300006F905F904F9008950E944E09D82E682FCD
:1023100089819A810E946405E02FF0E025E0D29E39
:10232000E00DF11D1124EE0FFF1FEE0FFF1FE10F57
:10233000F11DEE0FFF1FE054FE4F0591149109327D
:102340003DE5130709F496C00A328DE5180709F434
:10235000DBC008329DE5190709F473C0033FECE5C3
:102360001E0709F4EFC008F05AC0083D2CE512071B
:1023700009F4E2C0093D3CE5130709F4F5C0073D47
:102380008CE5180709F4CFC0F7019281992309F46D
:1023900009C51092C9020230FCE51F0708F4C8C144
:1023A00006312CE5120738F098012A5F3C452930A8
:1023B000310508F0BDC10E94C20990932A038093A1
:1023C000290300313CE5130709F481C108F00FC16E
:1023D00008309CE5190709F470C108F0DEC004302C
:1023E000FCE51F0709F461C108F0C4C002303CE5F8
:1023F000130709F450C103301C4509F452C1609120
:10240000290310912A0384E090E00E94CA1E612FE4
:1024100081E290E00E94CA1E0E942B0C37C0053F4B
:102420009CE5190709F49AC008F492C0063FFCE540
:102430001F0709F0A9CF07E225EE46EE66EF7CE51F
:1024400077C0F7018281882309F49ECF809888980D
:1024500080912B038E7F80932B03FFEF20E732E0E8
:10246000F15020403040E1F700C000000E942A0FE8
:102470000E94FB0E8091C802F7019281992399F185
:10248000813059F1882321F1823051F1809112037A
:10249000877009F423CFF7018281882309F41ECFC6
:1024A00082E00F900F900F900F900F90DF91CF91DF
:1024B0001F910F91FF90EF90DF90CF90BF90AF9062
:1024C0009F908F907F906F905F904F900C9413111E
:1024D0008DEF90E00E94C009D9CF8EEF90E0FACF47
:1024E0008FEF90E0F7CF813061F0882329F08230C0
:1024F00069F68FEF90E002C08DEF90E00E94BE0978
:10250000C5CF8EEF90E0FACFF70182818111BECF67
:102510008091C8028F5F833018F48093C802B6CFD1
:102520001092C802B3CF06E221EE41EE67ED7CE5E2
:10253000C7010E946C0AAACF07E225EE45EE68EDBE
:102540007CE5F6CF06E221EE40EE63EF7CE5F0CFCE
:1025500007E225EE44EE64EF7CE5EACF06E221EEE9
:1025600042EE65EF7CE5E4CF08E221E045EE69ED5F
:102570007CE5DECF80912903806106309CE5190758
:1025800009F48CC080912903886007301C4508F449
:1025900085C080912903806281C0809129038D7F4D
:1025A0000C30FCE51F0709F479C070F48091290311
:1025B0008C600A303CE5130709F470C008F481C050
:1025C000809129038E7F6AC080912903877F0E3016
:1025D0009CE5190709F462C0809129038B7F0F30B5
:1025E0001C4508F45BC0809129038F7E57C00B3FC8
:1025F000FCE51F0709F45DC030F503313CE5130726
:1026000009F46DC078F401319CE5190709F463C041
:1026100002311C4509F0F3CE0E942B0C8091290356
:102620008F773CC00531FCE51F0709F460C008F452
:1026300074C080912A0381600A3F1C4509F0DFCEF7
:1026400080932A03DCCE0F3F8CE5180709F44BC0BA
:1026500088F480912A038D7F0D3FECE51E0781F3FE
:1026600080912A038E7F0E3F1C4550F380912A03F0
:102670008360E6CF01302DE5120709F457C008F456
:1026800042C060E002301D4509F0B9CE8EE090E016
:102690000E94CA1EB4CE80912903816080932903D1
:1026A000AECE809129038260F9CF809129038460A6
:1026B000F5CF80912A038260C3CF80912903806483
:1026C000EDCF0E942B0C809129038068E7CF809189
:1026D00029038F7DE3CF809129038F7BDFCF80910A
:1026E0002903837FDBCF80912A038C7FA9CF809140
:1026F000290382FB992790F921E0922790FB82F928
:1027000090FB83F9CBCF80912A03982F90959170FD
:102710008E7F892B90FB81F993CF0E942B0C909197
:102720002903892F97FB87F98058B8CF61E0AECF96
:10273000809115030631ECE51E0709F04AC38A7A39
:1027400091E009F490E09093CA0269E2811165E397
:1027500088E591E00E94F0040E94100597CE85E381
:102760002AC380912B0380FF19C08E7F80932B0397
:1027700060912B0370912C0380912D0390912E0377
:102780000E94850BFFEF20E732E0F15020403040FF
:10279000E1F700C000000E942A0F78CE816080938C
:1027A0002B0361E086950E94381070CE42E659E115
:1027B0006BE679E10E94C50669CE4BE659E162E617
:1027C00079E1F8CF4FE959E168EA79E1F3CF48EAD6
:1027D00059E16FE979E1EECF47E859E163E979E141
:1027E000E9CF43E959E167E879E1E4CF4FE659E100
:1027F0006BE779E1DFCF4BE759E16FE679E1DACFBB
:1028000047E95BE068EA7BE0D5CF48EA5BE067E94F
:102810007BE0D0CF61E081E0C6CF01158CE51807E1
:1028200009F426CE0E3D1C4509F443C0F701008192
:102830001181992309F440C0C8010E944E09D82E85
:10284000682FC8010E946405B8018D2D0E94B2074F
:102850008C01882EF701A580A2947FE0A722D28068
:10286000D1101092140380911203877099F0DD202B
:1028700089F0812F807F803421F080E2800F8830C2
:1028800048F082E00E941311809112038770CC24DB
:10289000C3948111C12CB12EB2946FE0B622FBE03B
:1028A000FB1508F443C0EB2DF0E0E85EF04E0C940D
:1028B000A71E0E94C80BEACDC8010E943D05D82E74
:1028C000C3CF212F2F70A22E107F19F0A29450EFAA
:1028D000A522DD20C9F0AA2069F080E2800F8830AF
:1028E00010F081100BC080911503A82AA092150347
:1028F0000E941005802F0E945C0618C0809114036E
:10290000A82AA0921403F4CF802F0E941B06AA20AD
:1029100069F0A094005E083010F0811048C08091EA
:102920001503A822A09215030E941005EB2DE85074
:10293000FF0B349710F40E94B906CC20A9F08091C7
:10294000120380FD11C0F70112828595859585954A
:102950000E942B11C7010E944C1180911203859592
:10296000859585950E94F01085E0F701DE011196AE
:1029700001900D928A95E1F789819A810E943D0527
:10298000EA81F0E025E0829FE00DF11D1124CF01E6
:10299000880F991F880F991FE981E80FF92FF11D02
:1029A000EE0FFF1FE054FE4F8591949197CC8091DC
:1029B0001403A822A0921403B7CF312F3F70932E97
:1029C000107F103219F0929440EF9422882071F019
:1029D00081E0881661F1DD20B9F1AA2071F1F701DB
:1029E000858180FF87CF8F70858327C0DD2091F0A0
:1029F00090911603892D892BA11003C00E94BE055A
:102A000095CFE1E0AE12FACF891709F48FCF80930A
:102A100016038CCFA11006C00E940A05892D0E94C2
:102A2000B30584CFF1E0AF1609F480CFF5CFDD20F8
:102A300031F025E02A1508F479CF892DDFCF34E075
:102A40003A1508F473CFEACFAA2041F3F9E38F12C5
:102A500091C12FEF37EE83E0215030408040E1F705
:102A600000C0000087C1812F86958695837061F034
:102A7000813009F05BCFC8019370D11002C090E0A3
:102A800080E00E94C80552CFC8019370D11002C0E7
:102A900090E080E00E94DE0549CF802FDD2029F004
:102AA0000E9446040E94C90441CF0E947F03FACFCE
:102AB000812F837009F066C0D11038CF802F8295A6
:102AC00086958770880F880F602F6F70462E512C67
:102AD000712C612C082E04C0440C551C661C771CFC
:102AE0000A94D2F740E050E0BA0104FF0FC04FE073
:102AF00050E060E070E004C0440F551F661F771F70
:102B00008A95D2F74095509560957095812F86955E
:102B100086958370823019F1D8F4009117031091D3
:102B200018032091190330911A03813069F0442968
:102B3000552966297729CB01BA01602371238223A5
:102B400093230E941106F2CE402A512A622A732A48
:102B5000CB01BA016429752986299729F2CF442926
:102B600055296629772900911703109118032091A0
:102B7000190330911A03CB01BA016027712782270C
:102B80009327DFCF8695DD2011F0812F8170882378
:102B900009F4CCCE802F829586958770880F880F98
:102BA000602F6F70462E512C712C612C082E04C0A2
:102BB000440C551C661C771C0A94D2F740E050E088
:102BC000BA0104FF0FC04FE050E060E070E004C0C5
:102BD000440F551F661F771F8A95D2F74095509571
:102BE00060957095812F869586958370823019F156
:102BF000D8F40091250310912603209127033091EA
:102C00002803813069F04429552966297729CB01A9
:102C1000BA0160237123822393230E94E41086CE9D
:102C2000402A512A622A732ACB01BA0164297529E4
:102C300086299729F2CF44295529662977290091B9
:102C40002503109126032091270330912803CB01FF
:102C5000BA016027712782279327DFCF1F70DD20FD
:102C600029F0812F0E942B11802FC8CE802F0E9427
:102C7000B305812F0E94F01059CE802F92EF891654
:102C800009F450C0981578F0E0EF8E1619F1F1EFC5
:102C90008F1609F43FC0DD2009F467C0A1102ACEC9
:102CA000812F8F713CC023EF821609F440C034EFAE
:102CB0008312F1CFDD2009F44DC01F71812F0E94D6
:102CC0002B11E8E01E9FC001112483608093120342
:102CD000812F25C0DD20C9F084E08A1508F426CEB6
:102CE0001F7161E070E080E090E004C0660F771F24
:102CF000881F991F1A95D2F700912503109126037A
:102D00002091270330912803A4CF95E09A1508F469
:102D10000DCEE6CF812F8F71DD2009F4ABCF0E945D
:102D20002B1104CE812F8F71DD20C9F3A3CF60E07A
:102D300070E0CB01DD2009F470CF1F7161E070E01D
:102D400080E090E004C0660F771F881F991F1A95D6
:102D5000D2F763CF81E00E941311F1E0FA1508F079
:102D6000E5CD82E00E941311E1CDAA2039F089332C
:102D700009F46FCE802F0E941B06D8CD812F8F7152
:102D800079CF85E0DE01119601900D928A95E1F7E9
:102D9000F701228189819A812111B6CA0E943D05DD
:102DA000D82EBACA06311C4509F040CD8091CA021E
:102DB0008111D5CC89E2EAE5F1E020E631E091919C
:102DC000891303C0DF0111971C922E173F07B9F733
:102DD000C3CC8272F801E25CFC45E431F10508F0F5
:102DE0001CCDEC5DF04E0C94A71E1F93CF93DF9388
:102DF0008091D002807FA9F48091CD02882389F050
:102E000080910203D091D1026091CB027091CC02EB
:102E1000A091CE02B091CF02C62FC72316E0D813DF
:102E200004C0DF91CF911F91089590E0109711F0A9
:102E3000CF3F19F401968770F2CF189F9001199F28
:102E4000300D1124F901EE52FD4F41814713F2CFAD
:102E500040814613EFCF42814111ECCF4381548131
:102E60004A1B5B0B483C510528F78091D0028F70BC
:102E700080618093D002F901E952FD4F80818F700B
:102E8000806180838BEC92E00E944C11DF91CF91A6
:102E90001F910C94A905AF92BF92CF92DF92EF924F
:102EA000FF920F931F93CF93DF93CDB7DEB7619758
:102EB0000FB6F894DEBF0FBECDBF8C0185E0F801E0
:102EC000DE011D9601900D928A95E1F7F80180814F
:102ED0009181E2802BECA22E22E0B22E6091CE02F4
:102EE0007091CF026115710509F43EC13091CB029A
:102EF0004091CC02232F24232F3F09F435C1C380F6
:102F0000D480F090CD02F601E61BF70BFF2009F408
:102F1000FBC02091D002522F507FE83CF10508F011
:102F2000BBC0511178C0FE2C491321C038131FC0FB
:102F3000E1101DC02F7020612093D002C5010E94B6
:102F40004C118091D002F80185838F2D61960FB6C8
:102F5000F894DEBF0FBECDBFDF91CF911F910F91CF
:102F6000FF90EF90DF90CF90BF90AF900895CD2865
:102F700029F0282F29232F3F09F014C120E0F22F38
:102F8000F170DF2E20FF3DC0209102034091D1025D
:102F900056E0241315C08D879E878D859E850E94DF
:102FA0009009292F22952F702230F8F0243020F537
:102FB0009F70F9F0F8019581907FD9F4D12C1FC052
:102FC00030E0529FF001539FF00D1124EE52FD4F5F
:102FD0006181961306C06081861303C06281E61288
:102FE00010C02F5F3F4F2770D4CF9F7011F0882300
:102FF00029F3805E883010F3C8010E944C11FD2C2B
:10300000A4CFEE2009F4A1CF8091D00281608093FB
:10301000D002F12C9ACF491312C0381310C0E1101E
:103020000EC0F8012583C8010E944C1186E0F8010A
:10303000ABECB2E001900D928A95E1F786CF8D87D7
:103040009E878D859E850E949A09882309F1EE202E
:10305000F9F08091D002803270F02091CB02309153
:10306000CC0238872F831986DB86CA868C87CE01EF
:1030700007960E944C1186E0F801ABECB2E001909B
:103080000D928A95E1F70E94F516FF24F3945DCF27
:10309000C8010E944C11F9CF51110AC08BEC92E08B
:1030A0000E944C1186E0F50111928A95E9F7B1CFA3
:1030B00049130FC038130DC0E1100BC0F801258370
:1030C000C8010E944C1186E0F50111928A95E9F73A
:1030D0003CCF8D879E878D859E850E949A09882387
:1030E000B9F2EE20A9F28091D002803220F2209134
:1030F000CB023091CC023A8329831B82DD82CC82C1
:103100008E83CE010196B5CFE83CF105E0F6FE2CAA
:10311000EE2009F4BDCF491316C0381314C08091B6
:10312000D00280FD83CF982F907F09F47FCFF801E4
:103130008583903F09F477CF982F907F905F8F70B1
:10314000892B858370CF8D879E878D859E850E9474
:103150009A09811190CF8091D00281608093D00232
:10316000C8010E944C11F1CEEE2009F491CF8D8759
:103170009E878D859E850E949A09F82E882309F4E2
:1031800087CF86E0F801ABECB2E001900D928A9512
:10319000E1F78091CB029091CC020E9490090E94AD
:1031A000F516D3CE21E02E25EACE1F93CF93DF93E1
:1031B000CDB7DEB767970FB6F894DEBF0FBECDBFB1
:1031C0004B8B5C8B6D8B7E8B8F8B1A8A198A85E07B
:1031D000FE017396DE011D9601900D928A95E1F72E
:1031E00086E0FE013D96DE01179601900D928A95CC
:1031F000E1F7CE0107960E944B17882389F016E06D
:10320000809102039091D102891349C067960FB64D
:10321000F894DEBF0FBECDBFDF91CF911F9108950F
:1032200086E0FE013796DE01119601900D928A9597
:10323000E1F78A859B85892B11F38F8198858923F6
:103240008F3FE9F22091D10230E0C90101968770E9
:103250009927409102034817190671F40E942B0C1C
:103260001092D1021092020386E0EBECF2E0DF0153
:103270001D928A95E9F7C3CF96E0929FD001939F64
:10328000B00D1124AE52BD4FFE01319601900D924A
:103290009A95E1F78093D1020E94A905B0CF819F52
:1032A000C00111248E529D4F0E944B17882309F4B0
:1032B000ADCF8091020390E00196877099278093AB
:1032C00002039ECF80912B038695815009F481E003
:1032D00061E00C94381061E081E00C943810EBE26E
:1032E000F3E0438121E1421B08F440E021E06281E8
:1032F00081810C94E60FEBE2F3E0438121E1420F80
:1033000008F44FEF21E0628181810C94E60FEBE23B
:10331000F3E0628121E1621B08F460E021E0438177
:1033200081810C94E60FEBE2F3E0628121E1620F10
:1033300008F46FEF21E0438181810C94E60FEBE20A
:10334000F3E0818121E04381628188500C94E60F93
:10335000EBE2F3E0818121E043816281885F0C949C
:10336000E60F1F920F920FB60F9211242F933F93E7
:103370004F935F936F937F938F939F93AF93BF937D
:10338000CF93DF93EF93FF93D091E900DF708091AB
:10339000EC00C82FC17080FDC0E81092E900809158
:1033A000F000877F8093F00078940E94360C109292
:1033B000E9008091F00088608093F000CD2BCF7001
:1033C000C093E900FF91EF91DF91CF91BF91AF9151
:1033D0009F918F917F916F915F914F913F912F912D
:1033E0000F900FBE0F901F9018951F920F920FB65F
:1033F0000F9211242F933F934F935F936F937F937B
:103400008F939F93AF93BF93EF93FF938091E100CE
:1034100082FF09C08091E20082FF05C08091E10037
:103420008B7F8093E1008091DA0080FF24C080913F
:10343000D80080FF20C08091DA008E7F8093DA0070
:103440008091D90080FF9FC080E189BD82E189BD64
:1034500009B400FEFDCF81E080935E0380915103AB
:10346000811109C00E94F2010E94BD028091E20018
:1034700084608093E2008091E10080FF17C080911A
:10348000E20080FF13C08091E2008E7F8093E20013
:103490008091E20080618093E2008091D800806298
:1034A0008093D80019BC85E080935E038091E10091
:1034B00084FF2DC08091E20084FF29C080E189BD96
:1034C00082E189BD89B5982F917080FFFBCF8091F3
:1034D000D8008F7D8093D8008091E1008F7E80930B
:1034E000E1008091E2008F7E8093E2008091E20013
:1034F00081608093E20080915F03882309F449C0D2
:1035000084E080935E030E942B0C0E94B906809198
:10351000E10083FF27C08091E20083FF23C08091F8
:10352000E100877F8093E10082E080935E03109248
:103530005F038091E1008E7F8093E1008091E20043
:103540008E7F8093E2008091E20080618093E200B0
:1035500042E060E080E00E948B028091F000886091
:103560008093F000FF91EF91BF91AF919F918F9168
:103570007F916F915F914F913F912F910F900FBE6F
:103580000F901F90189519BC10925E031092510372
:1035900072CF8091E30087FD93E090935E03B3CFF9
:1035A000CDB7DEB760970FB6F894DEBF0FBECDBFC4
:1035B00084B7877F84BF0FB6F894A8958091600088
:1035C000886180936000109260000FBE80E890E0F8
:1035D0000FB6F89480936100909361000FBE85B799
:1035E000806885BF85B7806885BF0E94F2010E9410
:1035F000BD028091E20084608093E2007894809123
:103600005E038823A1F01091E9001F709091EC00F7
:10361000892F817090FD80E8182B1092E90080912D
:10362000E80083FD0E94360C1F701093E90082E0D1
:1036300084BD93E095BD9AEF97BD80936E00AEE395
:10364000B1E022E431E041E050E08D91E82FE295D5
:10365000EF70F0E011A18F70BA0101C0660F8A957A
:10366000EAF7962F9095912391A382A1862B82A3AE
:103670002A173B0751F7A2E4B1E027E431E041E02B
:1036800050E08D91E82FE295EF70F0E011A18F707E
:10369000BA0101C0660F8A95EAF7962F909591239B
:1036A00091A382A1862B82A32A173B0751F7109280
:1036B00020031092360310922103109237031092C8
:1036C00022031092380310922303109239031092B0
:1036D000240310923A0390E080E00E94C41E8C3EC6
:1036E0009E4F59F00E94C80B90E080E00E94C41EDB
:1036F0008C3E9E4F11F00E94C80B82E090E00E9429
:10370000B61E80934B030E94C20990932A038093B4
:10371000290383E090E00E94B61E682F70E090E0DD
:1037200080E00E941106609125037091260380912C
:103730002703909128030E94741080913003811117
:1037400034C090E080E00E94C41E8C3E9E4F21F069
:103750000E94C80B0E94B90B88E090E00E94BE1E38
:1037600060932B0370932C0380932D0390932E036F
:103770006E7F71F40E94B90B88E090E00E94BE1E3B
:1037800060932B0370932C0380932D0390932E034F
:103790000E94CA0680912B0380FF04C060E08695DA
:1037A0000E94381081E08093300353985B9A5298BE
:1037B0005A9A89B183FB882780F94A9982C190E09F
:1037C000892B80933D0380E192E0909332038093B4
:1037D0003103809A889860E070E0CB010E94E41089
:1037E00080E00E942B1120E044EB6FEF8FEB0E94F2
:1037F000E60F80E091E09093340380933303FF243D
:10380000F39499249A9486E393E095E0E92EE80EE8
:1038100020E1822E32E1732E48E1A42EB12C50E437
:10382000652E80915E03853009F44DC10E94CF0A58
:10383000A6E3B3E0ECE4F3E010E000E0302F8D917C
:103840009191981709F478C1292F282790E05524E1
:103850005394422F452109F46AC19F8338878521FB
:1038600091E009F490E099870E94BD048160782F6F
:103870009B878A874F81588569858B850E94D518DB
:10388000F801E45BFC4F808158265082E0913D03B3
:10389000EE0FEE0FE0933D0389B183FBCC24C0F81B
:1038A0004A9960C180E08C29E82BE0933D03EF70DA
:1038B000F0E0E95BFE4F808190913C03890F80939B
:1038C0003C03843074F080913B038F5F80933B0313
:1038D00080E00E949005882309F447C18AEF0E9486
:1038E000590A80913C038D3F74F480913B038150D1
:1038F00080933B0380E00E949005882309F43DC13A
:1039000089EF0E94590A80913C03837887FF03C0A6
:1039100081508C6F8F5F80933C0386E0E4E4F3E09A
:10392000DE01119601900D928A95E1F750904603C1
:1039300040904703109148030091490310924603B9
:10394000109247031092480310924903852D842951
:1039500009F448C080914203909143030E94AE0451
:103960009C0190914103992309F434C1253131051B
:10397000C8F19F3F19F09F5F90934103552059F084
:103980000E9424049FEF15140CF491E0899F802D70
:10399000112480934603442059F00E9424049FEF91
:1039A00014140CF491E0899F802D11248093470317
:1039B000309146033323B1F020914703222391F045
:1039C00045EB3403C0011124992309F4DEC0909320
:1039D000460345EB240390011124332309F4D8C096
:1039E00030934703812F802B09F448C080913F0317
:1039F000909140030E94AE049C0190913E03992354
:103A000009F4E3C023333105C8F19F3F19F09F5FEC
:103A100090933E03112359F00E9402049FEF111668
:103A20000CF491E0899F802D11248093480300239A
:103A300059F00E9402049FEF10160CF491E0899F48
:103A4000802D112480934903309148033323B1F032
:103A500020914903222391F045EB3403C001112446
:103A6000992309F498C09093480345EB24039001EF
:103A70001124332309F492C0309349038091460303
:103A800090914703892B90914803892B909149038A
:103A9000892B11F00E94C90486E0FE013196A4E44E
:103AA000B3E001900D928A95E1F70E94B9069091DA
:103AB0004A03891709F4B5CE0E94B90680934A03D8
:103AC000B0CE92E07DCE80915E03843009F11092F9
:103AD00035030FB6F894A895A09260000FBE6092CF
:103AE000600083B7817F846083BF83B7816083BFB9
:103AF0007894889583B78E7F83BF0FB6F894A89586
:103B000080916000886180936000109260000FBE19
:103B100080915D03882309F484CE0E94CF0AE6E3F6
:103B2000F3E0819181113DC0EE12FBCF7ACE9F5F11
:103B3000550C943009F08DCE0F5F1F4F05301105E5
:103B400009F07CCE9C869D861E860E94BD04816005
:103B5000782F988B8F874C855D856E8588890E942C
:103B6000D51894CE82E090E09ECE81E00E94900530
:103B7000882309F4C8CE8AEAB2CE81E00E9490057B
:103B8000882309F4C0CE89EABCCEF092460321CF47
:103B9000F092470327CFF092480367CFF092490392
:103BA0006DCF89BC79BC09B400FEFDCF8091D800EF
:103BB0008F7D8093D8008091E00082608093E00048
:103BC0008091E00081FDFCCF2CCE2B3A310508F02E
:103BD0001ECF54CF2B3A310508F0CDCE03CF7894C9
:103BE0001F921FB61F9211248F939F93AF93BF9381
:103BF00080911B0390911C03A0911D03B0911E03A3
:103C00000196A11DB11D80931B0390931C03A093EB
:103C10001D03B0931E03BF91AF919F918F911F9091
:103C20001FBE1F9018951F921FB61F9211248F93CD
:103C30009F93AF93BF9380913503811113C08091FF
:103C40001B0390911C03A0911D03B0911E0341968C
:103C5000A11DB11D80931B0390931C03A0931D0312
:103C6000B0931E03BF91AF919F918F911F901FBE84
:103C70001F9018952F932FB72F938F939F93EF93A8
:103C8000FF939091CE008091A1018F5F803408F066
:103C900080E02091A001281739F0E82FF0E0E05AE9
:103CA000FE4F90838093A101FF91EF919F918F919F
:103CB0002F912FBF2F9118958F938FB78F939F932D
:103CC000EF93FF939091C7028091C60298130AC0A8
:103CD00088E98093C900FF91EF919F918F918FBFE9
:103CE0008F9118958091C6028F5FE82FF0E0EA531C
:103CF000FE4F90819093CE008093C602ECCFAA1B1A
:103D0000BB1B51E107C0AA1FBB1FA617B70710F0C6
:103D1000A61BB70B881F991F5A95A9F780959095F8
:103D2000BC01CD01089597FB072E16F4009407D02F
:103D300077FD09D00E947F1E07FC05D03EF49095C8
:103D400081959F4F0895709561957F4F0895EE0F6F
:103D5000FF1F0590F491E02D0994FB01DC0102C0E6
:103D600005900D9241505040D8F70895F999FECF33
:103D700092BD81BDF89A992780B50895A6E1B0E07B
:103D800044E050E00C94F01EA8E1B0E042E050E0C6
:103D90000C94F01E262FF999FECF92BD81BDF89AA2
:103DA000019700B4021639F01FBA20BD0FB6F8947F
:103DB000FA9AF99A0FBE08950396272F0E94CB1EF8
:103DC0000E94CA1E252F0E94CB1E242F0C94CB1EAE
:103DD0000196272F0E94CB1E0C94CA1EDC01CB013A
:103DE000FC01F999FECF06C0F2BDE1BDF89A31960B
:103DF00000B40D9241505040B8F70895F894FFCFA9
:103E0000A909A909B209B209B409B209B209B209EA
:103E1000A909A909B909B209B209B909190D410DD0
:103E2000E30E410DE30E740D950DE30E9E0EAB0EE9
:103E300061146114DD14DD1433154D1596149614B8
:103E400058152E163D163D16B113D613DD13E21389
:103E5000E713EC13F113F613FB13001405140A1403
:103E60004612461246124612461246124612461292
:103E70007C032C0A0B0A070A030A010001818283D2
:103E8000E200E900EA00B500B600B700CD0083010A
:103E9000CC008A019201940121022302240225020E
:103EA000260227022A02B300B4006F007000F4F566
:103EB000F6F731C697669400FF0100010000FFFF8E
:083EC0000000010001FF0000F9
:00000001FF
