:1000000023C200003EC200003CC200003AC2000011
:1000100038C2000036C2000034C2000032C2000004
:1000200030C200002EC200000C9470260C943D27B4
:100030000C94DF2126C2000024C2000022C200006E
:1000400020C200001EC200001CC200001AC2000034
:1000500018C200000C94562214C2000012C2000004
:1000600010C200000EC200000CC200000AC2000054
:1000700008C2000006C2000004C2000002C2000064
:1000800000C20000FEC10000FCC10000FAC1000077
:10009000F8C10000F6C10000F4C10000F2C1000088
:1000A000F0C10000EEC10000ECC100001D01000025
:1000B00000001C0106010000080109011D01005794
:1000C0001C0100001E0F0500047F3F1F64321464F2
:1000D0003214783C1E1E140A052223252628292ABC
:1000E0002C2D2F3032333536383A3B3D3E4042439B
:1000F0004547494A4C4E5051535557595A5C5E60DA
:1001000062646668696B6D6F71737577797B7D7FEB
:1001100081838587898A8C8E90929496989A9C9EEA
:100120009FA1A3A5A7A8AAACAEAFB1B3B4B6B8B906
:10013000BBBCBEBFC1C2C3C5C6C7C9CACBCCCDCE6E
:10014000D0D1D2D2D3D4D5D6D7D7D8D9D9DADADB51
:10015000DBDBDCDCDCDCDCDDDDDDDDDCDCDCDCDCDD
:10016000DBDBDBDADAD9D9D8D7D7D6D5D4D3D2D21C
:10017000D1D0CECDCCCBCAC9C7C6C5C3C2C1BFBE04
:10018000BCBBB9B8B6B4B3B1AFAEACAAA8A7A5A36F
:10019000A19F9E9C9A98969492908E8C8A8987852E
:1001A00083817F7D7B79777573716F6D6B6968660D
:1001B0006462605E5C5A5957555351504E4C4A49DF
:1001C00047454342403E3D3B3A3836353332302F87
:1001D0002D2C2A292826252322FFAA7F55400001FD
:1001E00001010101010101010202020202020202F7
:1001F00002030303030303030304040404040404C9
:10020000050505050506060606060707070707088C
:10021000080808090909090A0A0A0B0B0B0C0C0C3F
:100220000D0D0D0E0E0E0F0F0F10101111111212D9
:1002300013131414151516161717181819191A1A56
:100240001B1B1C1D1D1E1E1F2020212222232424B7
:10025000252626272829292A2B2C2D2D2E2F3031F3
:100260003232333435363738393A3B3C3D3E3F4005
:100270004142434445464748494A4C4D4E4F5051F0
:100280005354555658595A5B5D5E5F6162646566AA
:1002900068696B6C6D6F7072737577787A7B7D7E31
:1002A0008082838587888A8C8E8F91939596989A81
:1002B0009C9EA0A2A3A5A7A9ABADAFB1B3B5B7BA99
:1002C000BCBEC0C2C4C6C9CBCDCFD1D4D6D8DBDD6D
:1002D000DFE2E4E7E9EBEEF0F3F5F8FAFDFF1003F7
:1002E0004C0079006E006500700061006400000041
:1002F0000A03510056004500580000000403090499
:1003000009023B00020100A0FA09040000010301F8
:1003100001000921110100012244000705810308A1
:10032000000109040100010300000009211101007E
:100330000122B6000705820320000112010002001D
:100340000000085651504C0100010200010501094E
:1003500002A10185020901A1000509190129081559
:100360000025019508750181020501093009311543
:1003700081257F95027508810609381581257F95AD
:100380000175088106050C0A38021581257F950143
:1003900075088106C0C005010980A1018503190106
:1003A0002AB700150126B700950175108100C00518
:1003B0000C0901A101850419012AA002150126A03A
:1003C00002950175108100C005010906A10185068D
:1003D000050719E029E71500250195087501810237
:1003E0000507190029EF1500250195F07501810217
:1003F00005081901290595057501910295017503F7
:100400009101C005010906A101050719E029E715B9
:100410000025019508750181029501750881010586
:1004200007190029FF150026FF00950675088100B1
:100430000508190129051500250195057501910289
:10044000950175039101C00011241FBECFEFDAE0C2
:10045000DEBFCDBF12E0A0E0B1E0E4EDF5E502C003
:1004600005900D92AA31B107D9F723E0AAE1B2E0D5
:1004700001C01D92A735B207E1F70E9471120C94DA
:100480009E2ABECD52985A983E98469854985C98A9
:1004900026982E9857985F9824982C980C949A0D2B
:1004A00080911A0190911B0190931901809318017A
:1004B00089B182FB882780F980931A0110921B0171
:1004C000809116019091170190931501809314016A
:1004D00086B186FB882780F9809316011092170158
:1004E000809112019091130190931101809310015A
:1004F00089B18295817080931201109213018091CD
:100500000E0190910F0190930D0180930C0183B126
:1005100086FB882780F980930E0110920F0180914D
:100520000A0190910B01909309018093080189B110
:10053000082E000C990B892F881F8827881F80930D
:100540000A0110920B01809106019091070190938E
:1005500005018093040183B1829581708093060127
:100560001092070122C0FC018281813019F00E94A3
:10057000A517F3C1089588D580E093D50E9413187C
:1005800048E76FEF8FEB0C941815811107C082E5D7
:10059000611101C081E5E7D280E008958130E1F783
:1005A00089ED6111F8CF8AEDF6CF209116013091D7
:1005B000170180911401909115012817390709F04E
:1005C00053C080911201909113012091100130913C
:1005D00011018217930731F018161906B4F182E55C
:1005E00090E0A2D080910E0190910F0120910C011A
:1005F00030910D018217930731F0181619064CF14E
:1006000081E590E091D080910A0190910B012091B9
:100610000801309109018217930731F01816190665
:10062000E4F080E590E080D0809106019091070190
:10063000209104013091050182179307A9F0181643
:1006400019067CF08FE490E06FC082E590E080D0E6
:10065000C9CF81E590E07CD0D6CF80E590E078D01E
:10066000E3CF8FE490E074C00895811111C063302E
:1006700078F4443068F484E0689FF0011124E40FBA
:10068000F11DEE0FFF1FE455FF4F859194910895E2
:1006900081E090E00895E9CF089581E090E0089529
:1006A000892B19F48CE191E0089590E080E00895A1
:1006B000F7CF08959C013A9521153F4150F5FC0173
:1006C000EE27F170BC0166277270AC0144275470AC
:1006D0009C012227387094FF0EC080E1EF2B09F4B3
:1006E00080E0672B09F08062452B09F08064232BA2
:1006F00089F08068089581E0EF2B09F480E0672B92
:1007000009F08260452B09F08460232B19F0886082
:10071000089580E00895CF93DF93EB01CBDFFE01D6
:100720000995DF91CF910895CF93DF93EC01805E1F
:100730009109089720F06DEB77E0209711F46AEBB0
:1007400075E0CE01E8DF8C2F86D1DF91CF9108953F
:10075000CF93DF93EC01C4D1CE01805E910908975D
:1007600020F062EC77E0209711F46FEB75E0CE019A
:10077000D2DFDF91CF91089581E00895FDCF0895F4
:10078000FBCF0895F9CF0895F7CF0895FDCF0895D1
:1007900008950895FDCF089508950895A6E0B0E066
:1007A000E4EDF3E00C946C2949835A839E833091E5
:1007B000210289819A81311117C03E81332389F04A
:1007C000222379F024D5182F682F89819A81FFD4AC
:1007D00069817A81812F0E94580F2696E3E00C945C
:1007E000882905D5182FF4CF12D569817A81F3CFE6
:1007F000FC01262F40815181628173818481958122
:10080000CDCFCF93DF93EC0161E0F2DFBE01B6DF25
:10081000882349F061E0CE01EBDFBE01B1DF8170DA
:10082000DF91CF91089580E0FACF0F931F93CF937C
:10083000DF93EC0160E0DCDF8C01BE01AADFBE01CA
:10084000C801A8DFDF91CF911F910F9108950F93F9
:100850001F93CF93DF93EC0161E0CADF8C01BE01EF
:100860000E94FB1E882321F061E0CE01C1DF8C01D4
:100870008D8181110E94E618BE01C80183DF8111BC
:1008800006C080E0DF91CF911F910F910895BE01C6
:10089000C8017CDF8823A9F3BE01C8010E941F1F85
:1008A000882379F3BE01C8010E94781E882349F38A
:1008B000BE01C8010E94D21A882319F3BE01C801E3
:1008C0000E94AA1A8823E9F2BE01C8010E94871279
:1008D0008823B9F2BE01C8010E945810882389F20A
:1008E000BE01C8010E946A10882359F2BE01C801E6
:1008F0000E948310C7CF21E030E0A90102C0440F5D
:10090000551F8A95E2F7CA019BC3CF93C82F81E098
:1009100090E00C2E02C0880F991F0A94E2F70E9403
:10092000440D8C2FE8DFCF91089581E00895FDCF2D
:100930000895FBCF0895CF93C82F3AD38C2FF7DFBC
:100940008C2FF7DF2FEF84E39CE021508040904014
:10095000E1F700C00000CF91089581E0ECDF0C9436
:100960007A2280E0E8DF0C948B2216DF0E94B72108
:1009700017C018D012DF0C94BB2181E008950895B0
:10098000CF93DF93D82FF9DFC82F882311F08D2F55
:10099000F6DF8C2FDF91CF9108950895F1CF089560
:1009A00080E0FCCF0E94AA1FF9CFCF930E94AA1F1C
:1009B000C82F80911C028C1771F0C0931C020E94FA
:1009C0004A2260931D0270931E0280931F0290932F
:1009D00020028C2FE3DFCF910895ADE0B0E0E3EF8C
:1009E000F4E00C946D29488759876A877B878C8748
:1009F0009D87911131D71F8286E0FE013896DE0176
:100A0000119601900D928A95E1F78D8181110CC0AC
:100A100029813A814B815C816D817E818F8169D68C
:100A20002D96E2E00C948929CE010196EADE81112F
:100A3000EFCFF6CFFC012481213019F48081918120
:100A400017C40895662321F00E942F1C0C94FA1CF1
:100A50000E94811CFBCFCF93C82F882389F08CEF95
:100A60008C0F813A78F48C2F0E945920882321F032
:100A70008C2F0E94FB207ED78C2F0E94E4207AD7F7
:100A8000CF91089580E28C0F883040F4C77081E0E8
:100A900001C0880FCA95EAF7BFD6F1CFEBE5EC0F9E
:100AA000E33040F4F0E0E157FE4F808190E00E9497
:100AB000EA1FE6CFE8E5EC0FEB3150F4F0E0EE0F83
:100AC000FF1FE75AFE4F808191810E941120D8CFED
:100AD00083E38C0F8331A0F661E08C2FB3DFD0CF9E
:100AE000882351F19CEF980F913A18F40E94FB2053
:100AF00041C790E2980F983048F4877091E001C0A8
:100B0000990F8A95EAF7892F8DD6F2CF9BE5980F3A
:100B1000933020F490E080E00C94EA1F98E5980F61
:100B20009B3120F490E080E00C94112093E3980F27
:100B3000933110F460E086CF08951F93CF93DF9335
:100B4000182FEB0188DF209731F4812FC9DFDF9167
:100B5000CF911F9108958FE99FE00197F1F700C0B1
:100B600000002197F0CF70E060E0893311F460E578
:100B700070E0E3CF882311F04FD6FCC60895882398
:100B800011F050D6F7C60895B0E0A0E0EAECF5E029
:100B90000C9466296C01D62FC72FFC0115810681A4
:100BA00002950F702FD6E82E8823E9F0E12E11234D
:100BB000D1F08C2F807F803461F080E28D0F8830FF
:100BC000F8F08C2F807E803221F4D230C8F00023E0
:100BD000B9F080912B0382FF13C082E0EFD612D6CA
:100BE00091E0E82EE926BC2EB2949FE0B922FBE00A
:100BF000FB1580F1EB2DF0E0E056F54D0C942C291F
:100C0000E12CF1CF0C2F0F70C07F11F00295007F07
:100C1000112381F0002349F080E28D0F883010F01D
:100C2000D11105C0802FF8D5A5D68D2F40C0802FBB
:100C300006D6FACF8D2F54DF002361F080E28D0FAE
:100C4000883010F0D11103C0802FECD502C0802F66
:100C5000FCD590D6EB2DE850FF0B349708F04CC133
:100C60000E94AA1F9BDECDB7DEB7E9E00C94822973
:100C70002C2F2F70F22EC07FC03219F0F29480EF2B
:100C8000F822DD2341F0D13081F1112309F439C07C
:100C90000023C9F0CACF80912B0382FD10C011231D
:100CA00041F0FF2019F08F2DB7D564D680E0D3DE58
:100CB000D1CF80E015DFFF2069F28F2DC6CF112341
:100CC00059F0011103C08F2D55DFC4CF013009F059
:100CD000C1CF8F2DD8D5BECF0111BCCF8F2D4FDF07
:100CE0008F2DDCD58F2DC1D5B5CF112321F0063046
:100CF00008F0B0CFE8CF053008F0ACCF8F2D3FDF44
:100D0000A9CF0023D9F3D93349F43FEF87EE93E01D
:100D1000315080409040E1F700C000008D2FE0DEB0
:100D200099CF8C2F86958695837069F0813009F074
:100D300091CF8D2F9C2F9370111102C080E090E015
:100D40000E94112087CF8D2F9C2F9370111102C00C
:100D500080E090E00E94EA1F7DCF612F8D2F72DE30
:100D600079CF8C2F837081F5111174CF4D2F42955F
:100D700046954770440F440F2D2F2F7030E0042EFE
:100D800002C0220F331F0A94E2F790E080E0D4FF04
:100D900009C08FE090E002C0880F991F4A95E2F7E2
:100DA00080959095C695C695C370822B932BC230C3
:100DB00039F040F4C13011F04CD14CCF43D14ACF7F
:100DC0004FD148CF3DD146CF8695112311F08C2FBE
:100DD0008170882309F43ECF4D2F42954695477088
:100DE000440F440F2D2F2F7030E0042E02C0220F2D
:100DF000331F0A94E2F790E080E0D4FF09C08FE04F
:100E000090E002C0880F991F4A95E2F7809590956F
:100E1000C695C695C370822B932BC23039F040F42F
:100E2000C13011F071D116CF68D114CF74D112CF67
:100E300024D110CFCF70112321F08C2F32D18D2FE0
:100E400043CF8D2F9CDE8C2F3AD104CFD23F39F186
:100E500060F4D03FB9F0D13F81F0112309F43CC0D8
:100E60000111E3CE8C2F8F711EC0D33FF1F0D43F20
:100E7000A1F780912B0382FD20C08C2F8F7111234D
:100E800019F311C0112339F0053008F0E3CE8C2F8F
:100E90008F7125D1DFCE063008F0DCCEF8CF8C2F55
:100EA0008F711111D1CFFDD0D5CE112321F08C2F10
:100EB0008F71EDD0CFCEE8D0CDCE112329F063E0F5
:100EC0008C2F8F7164D5C6CE81E078D5023008F4BE
:100ED000C1CE82E073D5BECE002359F0D93309F0DC
:100EE0001DCFEFEFF7EE23E0E150F0402040E1F7B7
:100EF00013CF8C2F8F71A8CFEE2009F4B4CE7ED4FF
:100F000080FDB1CEF601158273D4CBD0C60117D0C7
:100F10006FD4D5D0A8CE0F931F93CF93DF93EC015E
:100F2000688179818D81ADD18C01FCD088D0B801E8
:100F3000CE012ADEDF91CF911F910F910895CF93BB
:100F4000DF93EC018C81882381F0CE0180DC81115C
:100F50000FC058D4882349F08D81882331F08091C7
:100F60002B0382FF02C082E029D5DF91CF91089543
:100F7000CE01D1DFCE0159DCF8CF882311F05FD448
:100F8000F9C40895882311F060D4F4C4089590E062
:100F900080E00E94EA1F90E080E00E9411205CD473
:100FA000E9D40E94131D0C94FA1C0E941221EFCF69
:100FB00040D4FBCF92959F70963091F058F4925F99
:100FC0009F70923058F4803F19F030F4883E30F42E
:100FD00081E008959A5FF4CF843FD1F380E00895D3
:100FE000883EB0F3813FD1F7F3CFFC012481222367
:100FF00021F0808191813CD1DDCF80E00895A6E091
:10100000B0E0E5E0F8E00C946D292696E2E00C945F
:101010008929A7E0B0E0EFE0F8E00C946D2927966D
:10102000E2E00C9489290895FECF0895FDCF08953C
:10103000FADFFCDF90932D0280932C02089508952F
:10104000F7CF089520912C0230912D02822B932B03
:10105000EFCF20912C0230912D0282239323E8CFF1
:1010600020912C0230912D0282279327E1CFDBCFF4
:101070000895FDCF0895D7CF0895FDDFFADF90934F
:101080002B0280932A02089590E080E0F6CF21E0C1
:1010900030E0A90102C0440F551F8A95E2F7CA014A
:1010A000ECCF21E030E002C0220F331F8A95E2F737
:1010B00080912A0290912B02822B932BDECF21E08C
:1010C00030E002C0220F331F8A95E2F72095309559
:1010D00080912A0290912B0282239323CECF21E08C
:1010E00030E002C0220F331F8A95E2F780912A0276
:1010F00090912B0282279327C0CF20912A02309112
:101100002B02822B932BB9CF20912A0230912B02F4
:1011100082239323B2CF20912A0230912B0282277F
:101120009327ABCF0895262F277091E001C0990F28
:101130002A95EAF723E0769567952A95E1F7660FF9
:10114000771F660F771FFA01E60FF71F50E040E0A8
:10115000682F70E08191DF0111979B01042E02C07E
:10116000369527950A94E2F721702195282729239F
:1011700028272C934F5F5F4F4430510559F708954E
:10118000A82FA77023E0969587952A95E1F7880FF9
:10119000991F880F991FFB01E80FF91F50E040E0ED
:1011A00080E0219130E00A2E02C0369527950A94FE
:1011B000E2F721703327042E01C0220F0A94EAF7C8
:1011C000822B4F5F5F4F4430510559F70895262F0A
:1011D000933060F4843050F434E0939FB0011124D4
:1011E000680F711D42E252E0822F9DCF0895933027
:1011F00060F4843050F444E0949F9001112462E242
:1012000072E0820F932F911DBBCF80E00895B0E074
:10121000A0E0EDE0F9E00C9466297C0100912A023F
:1012200010912B0280912C0290912D02082B192BEA
:10123000CFE0D0E0CC24C394D12CBC2EC6010C2E20
:1012400002C0880F991F0A94E2F780239123892B0B
:1012500049F4219790F7B12C8B2DCDB7DEB7E9E09B
:101260000C948229B7018C2F2ED6019791F3F4CFDD
:10127000CF93DF93EC01CBDFBE0125D6DF91CF9179
:1012800008951F93CF93DF93EB019091210299234F
:1012900031F0CB01EDDFDF91CF911F9108958823CD
:1012A00051F0CB01B4DF182F682FCE0190DFBE01C3
:1012B000812F09D6F0CFCB019ADF182FF8CF1F93DB
:1012C000CF93DF93C0912E0217E080912F028C13F1
:1012D00004C0DF91CF911F910895D0E01C9FF001D1
:1012E0001D9FF00D1124E05DFD4F20813181428171
:1012F00053816481758186818CDE2196C770E5CF2C
:10130000209168023091690240916A0250916B020B
:1013100060916C0270916D0280916E027ACECF93D3
:10132000DF9380916E02807F09F04BC080916D0247
:10133000882309F446C0E0912E0250912F02C091FB
:101340006902D091680260916A0270916B0247E075
:101350005E17B9F18E2F90E0E49FF0011124E05D5B
:10136000FD4F2481222381F1489FF001499FF00D18
:101370001124DF01A05DBD4F11962C9111972C1304
:1013800023C02C912D1320C015962C911597211157
:101390001BC012962D913C91261B370B283C310522
:1013A00098F480916E028F70806180936E02EA5C87
:1013B000FD4F80818F708061808388E692E0BFDD81
:1013C0007EDFDF91CF910895FC013196E770C0CFA9
:1013D000482F20912E0290912F0257E0291302C02E
:1013E00080E0089530E0529FF001539FF00D1124EA
:1013F000E05DFD4F8181681306C08081481303C002
:1014000085818111EECF2F5F3F4F2770E7CFA4E199
:10141000B0E0EDE0FAE00C9463298C0186E0F8017D
:10142000DE011F9601900D928A95E1F7F801848103
:10143000E58098E6A92E92E0B92E90916C02911168
:101440001AC08823A9F0EE2089F0C801CEDDF82E5D
:10145000882361F087E0F801D50101900D928A950B
:10146000E1F7C501E7DA5BDF4BDF59C0C80167DD93
:10147000FF24F39454C0C080D18082809380F09088
:101480006D0220916A0230916B02A401421B530B42
:10149000FF2009F4E9C0483C510508F09CC08823AE
:1014A00009F43DC09091690280916E02282F207F3F
:1014B00009F056C09D1114C090916802C91210C065
:1014C000E11048C08F70806180936E0219DF88E65A
:1014D00092E035DD80916E02F8018683F12C1FC009
:1014E000E11038C06D2D8C2D73DF6D2D8C2D70DFCC
:1014F000E82E8111F3CFCF86D88A8F859889B8DE00
:10150000292F22952F70243078F49F702230A0F07C
:101510009923B1F0F8019681907F91F4FE2C8F2DE4
:101520006496ECE00C947F292A5F2F70223060F0E3
:10153000C80105DDEF2CF2CF992311F0882371F358
:10154000805E883058F3F4CF803F40F3815F833072
:1015500078F7E4CF80916E02816080936E02BECFF7
:101560009D1112C090916802C9120EC0E1100CC00A
:101570008683C801E4DC87E0F801A8E6B2E00190C8
:101580000D928A95E1F770CFC8012FDD882309F409
:101590006DCFEE2009F46ACF80916E02803280F028
:1015A0002091680230916902398728879B868A8654
:1015B00090916C029C871D868E87CE010896BFDCB9
:1015C00087E0F801A8E6B2E001900D928A95E1F774
:1015D000A6DE96DE4DCF90916E02292F207F89F4F2
:1015E000682D9A8A898AA6017A899E2D08DD88E667
:1015F00092E0A5DC87E0F50111928A95E9F780DE9B
:101600006DCF882309F48BCF809169028D110FC0B3
:1016100080916802C8120BC0E11009C09683C8010E
:101620008EDC87E0F50111928A95E9F778CFC80141
:10163000DCDC882309F41ACFEE2009F417CF80915F
:101640006E02803208F4BCCF2091680230916902AA
:101650003A8329839C828B8290916C029D831E82A7
:101660008F83CE010196ABCF483C5105A8F5882366
:1016700009F4FECEFE2CEE2009F4F8CE809169022A
:101680008D111EC080916802C8121AC080916E022E
:1016900080FD0DC0982F907F51F08683903F09F414
:1016A00068CF982F907F905F8F70892B61CF87E0F4
:1016B000F801A8E6B2E001900D928A95E1F72FCFEC
:1016C000C80193DC81117CCF80916E028160809390
:1016D0006E02C80134DC23CF682D9A8A898AA6015C
:1016E0007A899E2D8CDC87E0F50111928A95E9F7C5
:1016F000BBCEAEE0B0E0EFE7FBE00C946C292887AE
:1017000039874A875B876C877D878E87CE010896ED
:101710007EDE8823A9F06C85662339F0288539851B
:101720004A855B857D858E8574DC17E080912E026D
:1017300090912F0289133BC02E96E3E00C948829E8
:1017400087E0FE013896DE01119601900D928A9590
:10175000E1F78C85882349F320912F0230E0C901FD
:1017600001968770992740912E024817190691F02B
:1017700097E0929FD001939FB00D1124A05DBD4FC3
:10178000FE01319601900D929A95E1F780932F0218
:1017900096DDCBCF0DDC10922F0210922E0287E047
:1017A000E8E6F2E0DF011D928A95E9F7BECF819F5E
:1017B000C0011124805D9D4F2ADE882309F4BCCF2F
:1017C000E0912E021E9FF0011124E05DFD4F20816B
:1017D0003181428153816481758186811ADC8091D7
:1017E0002E0290E001968770992780932E029ECF5B
:1017F00080919702869586958695089580919702A7
:101800008770089590919702977081E009F480E0C5
:1018100008958091C30208959091C302892B80930B
:10182000C302089580959091C30298239093C302B8
:1018300008951092C30208958091C2020895909174
:10184000C202892B8093C202089580959091C202B2
:1018500098239093C20208951092C2020895809135
:10186000990208950895FECF089590919802292F26
:10187000282329F08095892380939802F4CF089536
:101880000895FECF089590919902292F28232817B3
:1018900021F0982B90939902F4CF0895909199029A
:1018A000292F282329F08095892380939902E9CF55
:1018B000089580919902882321F01092990280E086
:1018C000E0CF0895CF93C091C3028091C202C82B8C
:1018D00080919902882329F0C82B0E943820811119
:1018E000E8DF8C2FCF910895CF93DF93C0912E0125
:1018F000D0912F01E7DF8883C0912E01D0912F0175
:1019000048E050E06FE872E0CE010E942C2A892B5B
:1019100059F088E0FE01AFE8B2E001900D928A959F
:10192000E1F7CE010E94B91FDF91CF910895CF93C7
:10193000DF93C0912C01D0912D01C4DF8983C09128
:101940002C01D0912D0140E250E06FE672E0CE0113
:101950000E942C2A892B59F080E2FE01AFE6B2E00A
:1019600001900D928A95E1F7CE010E94C61FDF918A
:10197000CF9108950E94A31F882329F080912A0304
:1019800087FF01C0D4CFB0CF0895FECF08959091C6
:101990002B0392FF0EC098E0899F90011124622BC7
:1019A000609397027EDB8091970286958695869557
:1019B000ECCF77CB1092970280E0E7CF909197021F
:1019C0008095892380939702282F277059F48917CF
:1019D00049F090912B0392FF05C0869586958695D8
:1019E0006EDBE8CF089590912B0392FB222720F91C
:1019F000281749F080FB92F990932B038AE293E039
:101A000047D082E0DBCF089580912B0382FB8827AB
:101A100080F991E08927E7CF81E0E5CF80E0E3CF4F
:101A200060E070E0CB0137C460E070E0CB012DD402
:101A3000F7CFA3E0B0E0EFE1FDE00C946D297DD39A
:101A400088D31B82CE0103969BD381E090E09093D4
:101A50002D0280932C02A0D31A8219828A8184617C
:101A60008A83CE010196A9D366D6DEDF2396E2E013
:101A70000C948929DECF089572C308955FC3089539
:101A800074C3089583C3089587C308958AC30895CE
:101A900094C3089599C30895D8C3089502C40895BE
:101AA000A6E0B0E0E6E5FDE00C946B290E943E2242
:101AB0008C018091C4029091C5028017910781F03A
:101AC00019821A820E943E22682F49815A81792FF9
:101AD00080E090E00E94ED041093C5020093C402E0
:101AE0002696E4E00C9487290E944A226093D10252
:101AF0007093D2028093D3029093D4026093CD026C
:101B00007093CE028093CF029093D00208950E94EA
:101B10004A226093D1027093D2028093D3029093B1
:101B2000D4026093C9027093CA028093CB0290934F
:101B3000CC020895089508950895FEDF0C944202A2
:101B40000C94BB0208950895FEDFFACF86E590E17C
:101B5000D9D4F1DFF2CF81E00895FDCF0895FBCF16
:101B60000895089508950895FCDFFCDFFCCF86DF1B
:101B7000811101C07FDF85ED92E082DF8AE293E090
:101B800085DF0E94A81A7EDF5BDA80912A0290919D
:101B90002B026FCA0E9435220E94EC1819D4E7DF8D
:101BA0000E94CD040E942318CFCFA6E0B0E0EBED59
:101BB000FDE00C946429D1DF811111C071DF0E9416
:101BC000841F0E94E7180E9460198111A0DF0E9403
:101BD000351D0E94D5042696EBE00C9480290AD48A
:101BE0001091C60280E065D318130CC01091C70293
:101BF00081E05FD3811306C01091C80282E059D3FF
:101C00001817E1F28091D50281FD59D3A8DFC82EC3
:101C100086ECA82E82E0B82E10E099249394812FB0
:101C200048D3082FF50181915F01081729F1F12CA4
:101C3000EE24E394D02ED8268D2D8E21A9F0CC2031
:101C400099F0F9821A830E943E229C838B839D82A5
:101C500091E0802F8E2109F490E049815A816B81B7
:101C60007C818D810E94ED04F394EE0CF4E0FF1270
:101C7000E3CFF501319700831F5F133081F634DF26
:101C80009ECF1F93CF93DF9320D1EC01C11580E548
:101C9000D807F0F5C11580E4D80708F09AC0C03E17
:101CA000D10520F5CD3CD10508F082C0C83AD10558
:101CB00078F4C53AD10508F073C0C130D10519F1E7
:101CC000209709F1C430D105F0F4D0E0C0E01BC08A
:101CD000C33CD105D0F7C85AD0E0CC0FDD1FCE569B
:101CE000DE4F0990D881C02DD4640DC0C11580E2AB
:101CF000D80708F0CDC0C11581E0D80708F05AC058
:101D0000C83ED10510F7CE01DF91CF911F91089504
:101D1000C03682E5D80718F5C03482E5D80708F048
:101D200068C0C03282E5D80708F05CC0C11582E502
:101D3000D80708F493C02C2F2695269580E2289F7B
:101D4000900111248C2F8370C1E0D0E002C0CC0F31
:101D5000DD1F8A95E2F7C22BD32BDD68D4CFC03AC2
:101D600082E5D80760F4C03882E5D80708F456C089
:101D7000CF71D0E0DC2FCC27C46FD06AC4CFC03C79
:101D800082E5D80708F45FC0C03E82E5D80708F0B6
:101D90009CCFDC2FCC27CC27DF71C06FD06AB3CFAC
:101DA000C55AD0E0C853DE4FC881D0E0D064ABCF75
:101DB000D065A9CF8D2F2BD1182FCE01992785D093
:101DC000C12FD0E0DC2FCC27CC27DF71C82BD92B3B
:101DD0009ACFCE01992779D0CC27DF70C82BD92B89
:101DE000D06A91CFCF71D0E0DC2FCC27C16FD06A01
:101DF0008ACF2C2F26952695277080E2289F900168
:101E000011248C2F8370C1E0D0E002C0CC0FDD1F05
:101E10008A95E2F7C22BD32BDC6875CF2C2F269541
:101E20002695277080E2289F900111248C2F8370C3
:101E3000C1E0D0E002C0CC0FDD1F8A95E2F7C22BD3
:101E4000D32BDA6860CF8C2F8F71E1D0C82FD0E010
:101E5000DC2FCC27CC27DF71D06255CF8C2F8F7130
:101E6000D6D055E0D695C7955A95E1F7CF70D0E01A
:101E7000DC2FCC27282F30E084FF06C044E0220F5F
:101E8000331F4A95E1F73327C22BD32BD0693BCFC1
:101E90008D2F8F71BCD0182FCE01992716D0C12F4E
:101EA000D0E0DC2FCC27CC27DF71C82BD92BD4CFA7
:101EB000462F733028F4643018F4672F0C944B03CA
:101EC00090E080E00895F4DFDCCE82389105B9F12E
:101ED000B0F48133910509F47DC048F4893291054D
:101EE00009F46DC08A32910509F47BC008958533E9
:101EF000910509F45FC08933910509F10895833E86
:101F00009105D9F138F4803E910529F1823E910581
:101F100079F10895863E9105D9F1873E910509F43E
:101F20003EC0843E910541F520912B0321FF24C042
:101F300080912A0384FD19C087EE90E008952091D6
:101F40002A03237009F05AC020912B0323FF14C0E9
:101F500089E290E0089520912A0320FD38C0309155
:101F60002B0330FF09C024FF43C090E080E00895B8
:101F700020912A0322FDF7CF089520912A0322FD04
:101F80003AC030912B0330FD39C024FFF5CFEDCF9F
:101F900020912A0323FFF0CF24FDE7CFCDCF20915E
:101FA0002A0323FD2EC030912B0331FFEECF84EEA8
:101FB00090E0089520912A0325FFDECFC9CF20911C
:101FC0002A0325FD21C020912B0323FFD5CF89E3D0
:101FD00090E0D2CF20912A0326FFCECF8AE290E074
:101FE000089520912A0326FFC7CF81E390E008954A
:101FF00083EE90E0089582EE90E0089580EE90E008
:10200000089586EE90E0089585E390E0089590911C
:102010002A0392FF10C041E0282F2471243009F0D8
:1020200040E031E0282F2871283009F030E04317D4
:1020300011F02CE0822793FF10C041E0282F24717B
:10204000243109F040E031E0282F2871283109F0CF
:1020500030E0431711F02CE0822730912B0330FF42
:1020600010C051E0282F2171213009F050E041E0EB
:10207000282F2871283009F040E0541711F029E08A
:10208000822731FF10C041E0282F2171213109F052
:1020900040E031E0282F2871283109F030E0431763
:1020A00011F029E0822794FD877E089580E008954D
:1020B000CF939C01205E3245C1E02032310538F4D7
:1020C000FB01C581C11103C08F710E9485048C2F53
:1020D000CF9108959C01FB018581882391F02B35D8
:1020E000FCE73F0761F02C359CE7390729F02A35DA
:1020F0003C4741F491DC01C087DC80E008958EDC30
:10210000FCCF81E008959C01FB018581882399F033
:102110002130FCE73F0761F023309CE7390739F0B5
:1021200021153C4749F40E94AD0480E00895A4DCE9
:102130000E94B104FACF81E00895089590E080E014
:102140000E944F2A21E0833E9E4F09F020E0822F1B
:10215000089563EE7EEF90E080E00C946E2A6FEFBE
:102160007FEF90E080E00C946E2ACF93DF93EC0138
:1021700082E090E00E94422A8883DF91CF91089507
:10218000FC01608182E090E00C94542A83E090E0AE
:102190000E94422A90E00895682F83E090E00C941A
:1021A000542ACF93DF93EC0184E090E00E944F2A01
:1021B00099838883DF91CF910895FC0160817181BB
:1021C00084E090E00C946E2A4F925F926F927F921F
:1021D0008F929F92AF92BF920F93CF93DF93EC01B8
:1021E00088E090E00E944A2A2B013C0168835982D2
:1021F0008A837B821C821D821E821F8283E290E082
:102200000E94422A282F30E040E050E060E070E079
:1022100080E090E000E20E94942924293529462993
:102220005729288339834A835B836C837D838E831C
:102230009F83DF91CF910F91BF90AF909F908F9030
:102240007F906F905F904F9008950F93CF93DF939F
:10225000EC01488159816A817B8188E090E00E948D
:10226000662A288139814A815B816C817D818E81DA
:102270009F8100E20E94AF29622F83E290E00E94DA
:10228000542ADF91CF910F910895AB01BC018FE0EB
:1022900090E00C94662AAB01BC0183E190E00C94C1
:1022A000662A682F8EE090E00C94542A0895FECFA1
:1022B0000895E82FF0E0E15DFC4F808108950895D6
:1022C00080EA8A95F1F7089500C00895F9CF08953E
:1022D000F894E82FE295EF70F0E031A1282F2F70ED
:1022E00081E090E001C0880F2A95EAF7982F909539
:1022F000932391A392A1892B82A37894089587E6D2
:10230000E7DF87EFE5DF86EFE3DF80EFE1DF81EFF7
:10231000DFDF84EFDDDF85EFDBCFB0E0A0E0E3E9D6
:10232000F1E10C946729EC01D62E062F10E0C801CC
:1023300081539E4F7C01FC0180818F3F09F441C095
:10234000F894E82FE295EF70F0E091A18F7021E012
:1023500030E001C0220F8A95EAF7892F822B81A3F2
:1023600082A12095282322A37894AEDFEBECF1E044
:1023700031E0C12C21912F3F49F1A22FA295AF70DE
:10238000B0E090968C9190E02F7002C09595879563
:102390002A95E2F780FD1AC0832FC82A330F81E007
:1023A000EF3CF80739F7F70180818F3F09F090DFA4
:1023B00061E0C11001C060E08D2D88DFC00FD11F2A
:1023C000C882CDB7DEB7E8E00C94832980E0E5CF82
:1023D00096DF83E0EFE2F3E0DF01982F1D929A95FC
:1023E000E9F7ECE2F3E0DF011D928A95E9F783E07B
:1023F0003CD05DCFA3E0B0E0E0E0F2E10C946C29CA
:1024000019821A821B8260E0CE01019686DF61E0AC
:10241000CE01019682DF62E0CE0101967EDF43E0CD
:1024200050E0BE016F5F7F4F8CE293E00E942C2A48
:1024300021E0009709F420E0892B49F089819A81F5
:10244000AB8180932C0390932D03A0932E0343E044
:102450006FE273E08CE293E009D0182F0E945002E3
:10246000812F2396E3E00C9488290895B0E0A0E042
:10247000ECE3F2E10C9467296C017B01042FC22F7D
:10248000222379F081E08093D8020E943E2290932B
:10249000D7028093D60280E0CDB7DEB7E8E00C9497
:1024A0008329D091D802DD23B1F38091D602909197
:1024B000D7020E94CF21059770F310E0A801B60162
:1024C000C7010E942C2A892B31F0A801B601C7014F
:1024D0000E94392ACD2F1092D8028C2FDDCF65CBE8
:1024E00008950E94D8210E94BE2330DB0E94D6238B
:1024F00051DB0E94DF230E94E223F1DF0E94F823D8
:1025000033DBF9CF90931B0280931A0208950F9347
:102510001F93CF938C01FB01C581CC2309F43BC0F1
:1025200078D98272F801E052F847EB30F10530F4C7
:10253000E455F54D0C942C297ED5C0E08C2FCF911D
:102540001F910F910895882321F069D5F6CF882334
:10255000E1F359D5F2CF882321F034D2EECF88238E
:10256000E1F325D2EACF882321F046D2E6CF8823B3
:10257000E1F335D2E2CF882321F058D2DECF882391
:10258000E1F347D2DACF882321F0FDD0D6CF8823DC
:10259000E1F3EAD0D2CFC1E0D1CFEF92FF920F9317
:1025A0001F93CF93DF939B01682F31110EC04423FB
:1025B00029F0E82FF0E0E252FE4F6491762F862F4B
:1025C000CDB7DEB7E6E00C948529C32FD0E0E82F25
:1025D000F0E0442321F0E252FE4FE491F0E046E0C7
:1025E000249FC00111240FEF10E0B8010E94E328DE
:1025F000AB01822F90E0880F991F25E5249FB00141
:10260000259F700D1124861B970B982F990F980FFB
:10261000B8016C1B7D0B6E9FD0016F9FB00D7E9F2C
:10262000B00D11248B2F939F90011124232F33275A
:10263000B801621B730B6E9F90016F9F300D7E9FE0
:10264000300D11247801E91AF108EC9EB001ED9EDD
:10265000700DFC9E700D1124672F7727061B170B3A
:102660000E9FE0010F9FD00D1E9FD00D11247D2FD6
:102670009E2F4230510599F048F44115510569F0FB
:102680004130510581F07B2F832F07C04430510525
:1026900069F080F046305105B1F7692F91CF9B2F3B
:1026A0008D2F7E2FFACF7E2F932FF7CF9D2F7B2F4D
:1026B0008E2FF3CF732F9B2FFBCF41E06ECF08956A
:1026C000FCCF089590913301291B922FE091FF01D7
:1026D000F0910002242F462F682F892F90E0099552
:1026E0000895CF93DF93762FE901682F842FE8DFD9
:1026F000962F672F9E01482F892FE4DFDF91CF911E
:102700000895413F08F040EFECCF80913203982FBD
:102710009C7F61F4837084608093320380913503E1
:10272000813F18F080EF8093350308958C3AB0F321
:102730008370886AF1CFE2E3F3E085E08083118261
:102740008FEF828380EF83831482CF01A5C990919C
:102750003603933018F49F5F90933603882319F063
:1027600082E393E099C9089581E0F1CF9091360317
:10277000992319F0915090933603882319F082E33E
:1027800093E08AC9089581E0F1CF0F931F93CF930F
:102790008091320380FF09C0E0910302F0910402AE
:1027A0000995CF911F910F910895C0913501009126
:1027B000FF011091000280913601C81768F78091DF
:1027C00033019C2F981B892F20E040E060E090E0CF
:1027D000F8010995CF5FEFCFEF92FF920F931F9310
:1027E000CF93DF93D82F162F042F8091320380FFD1
:1027F0000BC0C0913501E090FF01F0900002809184
:102800003601C81730F0C1DFCDB7DEB7E6E00C9473
:102810008529809133019C2F981B892F202F412FD0
:102820006D2F90E0F7010995CF5FE9CF762F90915A
:10283000320390FF0BC0413F08F040EF682F842F18
:102840003FDF962F672F482F892FC6CF0895CF934C
:10285000DF93EC01EC81F0E0E752FF4F4491E2E3BB
:10286000F3E062818181E2DF8C818F5F8C83DF9175
:10287000CF910895CF93DF93EC01E2E3F3E043813E
:1028800062818C81D3DF8C818F5F8C83DF91CF91CC
:102890000895CF93DF93EC01409135039C81892FFC
:1028A000817090FD842F692F627091FD642F92FFDB
:1028B00040E092DF8C8190E00196877099278C83AD
:1028C000DF91CF910895B0E0A0E0E9E6F4E10C9447
:1028D0006829182FF62ED42FE22E9091320390FF04
:1028E00024C0E92FE695E695AE2FB0E0AE52BE4F7C
:1028F0008C918093F6029C7F9430E1F4842F413FC9
:1029000008F080EF612F7F2DDBDE962F672F482F99
:10291000892F62DF10933303F0923403D093350391
:10292000EE2019F082E393E0B7D8CDB7DEB7E7E049
:102930000C948429823019F4D0913503EBCF863082
:1029400019F410913303E6CF8930D9F3893111F7A7
:10295000E9518E2F8170D82EE695F0E0E752FE4FB8
:10296000C49100E060913701061710F00EDFD2CF5E
:102970000C9FC001112470E00E94E328812FD11028
:102980000BC0860F20913501200F3327331F4D2FA9
:102990006F2DB7DE0F5FE6CF861BF4CFE2E3F3E0E7
:1029A0009181282F4381628188E0890F8CCF81E05B
:1029B000F5CFE2E3F3E09181282F4381628188EF34
:1029C000890F81CF81E0F5CFE2E3F3E0628128E077
:1029D000620F08F46FEF282F4381818174CF81E06B
:1029E000F3CFE2E3F3E0628128E0621B08F460E0E9
:1029F000282F4381818167CF81E0F3CFE2E3F3E0C9
:102A0000438128E0420F08F44FEF282F6281818133
:102A10005ACF81E0F3CFE2E3F3E0438128E0421BA9
:102A200008F440E0282F628181814DCF81E0F3CF0F
:102A300020E049CFEF92FF921F93CF93DF93EC01F9
:102A400010E0EE24EA94F12C60913701161768F03B
:102A50009CDE9A818C8190FF1DC08F5F8C83DF91FB
:102A6000CF911F91FF90EF90089520913501210F94
:102A70003327331F70E0C7010E94F728962F8C81FF
:102A80004091350360913403199F800D112439DE84
:102A90001F5FDACF8150E2CFB0E0A0E0E2E5F5E1E0
:102AA0000C946629FC018281DFEF80FFD1E0C0E059
:102AB0000091FF011091000280913701C81790F03A
:102AC00064DE8091DA02D13009F04CC0811102C07D
:102AD0008091370181508093DA02CDB7DEB7E9E00B
:102AE0000C9482298091350190913301891B8C0FC0
:102AF00020E040E060E090E0F801099594E0E92EE4
:102B0000F12CB12CCC2ED12C8091DA028B0D85309A
:102B10001CF18370082E000C990BC816D906A9F475
:102B2000209135012C0D3D2D311D809135038E9D59
:102B3000A0018F9D500D11245595479555954795AA
:102B40006091340380913303DCDDBD0EF1E0EF1AB8
:102B5000F108D1F6CF5FB0CF87FFDCCF909137017E
:102B6000890FD8CF90E001966091370170E00E9404
:102B7000F728B1CF0F931F93CF93C09135010091E8
:102B8000FF011091000280913601C81748F1C0E0A2
:102B90000091FF011091000260913701C61768F1A2
:102BA000F4DD209131018091D902820F8093D90206
:102BB00090913201920F90933201191654F4082E1D
:102BC000000C990B409137014150550B8417950724
:102BD0001CF0219520933101CF911F910F91089501
:102BE000809133019C2F981B892F20E040E060E00A
:102BF00090E0F8010995CF5FC6CFEC2FF0E070E0D0
:102C0000CF010E94F72820913501820F2091D9022F
:102C1000022E000C330BE217F3079CF020913201D7
:102C2000022E000C330B2E173F075CF0282F30E0EC
:102C300040913503609134038091330362DDCF5FAF
:102C4000ABCF90913301891B20E040E060E090E041
:102C5000F8010995F4CFB0E0A0E0E1E3F6E10C94CF
:102C60006329EC014C81042F10E09801D8010E94E7
:102C700038299B01AC010E944D294B015C01E0E227
:102C8000F0E0E01BF10BA5E5B0E0AC019B010E9478
:102C90004D296B017C019F01DF010E9432299B01BC
:102CA000AC010E9457299B01AC01280D391D4A1D1A
:102CB0005B1DC701B6010E940A29F22E822F90E007
:102CC00039E23F1518F143E0249F90011124359516
:102CD0002795122F109500E085E5E82EEF188091DA
:102CE0003701081718F151DD9C8181E0992319F013
:102CF000903219F48FEF8093300180913001890F69
:102D00008C83CDB7DEB7ECE00C947F2925E530E06D
:102D1000A901481B590BCA019A01220F331F280F22
:102D2000391F37FFD4CF2F5F3F4FD1CF8E2D01FDFD
:102D30008F2D20913501200F3327331F412F6091B4
:102D40003403DFDC0F5FCBCF0F931F93CF93DF9361
:102D50008C01D0E0C0E0909137019C171D0609F06E
:102D60006CF413DDF801848190E00196817099275D
:102D70008483DF91CF911F910F910895F8014481D1
:102D8000209135012C0F3D2F311D6091340380912E
:102D9000330396959C171D0641F03CF0442339F00F
:102DA00040913503AEDC2196D6CF4423C9F340E0F1
:102DB000F9CFB0E0A0E0EFEDF6E10C945F29FC0163
:102DC0006280448081E08483E9EDF0E07490E8E57E
:102DD000F1E0E491C0913503C695C158D0E0CC0F25
:102DE000DD1FCD2FDD27812C25E0922EAA24AA9469
:102DF000B12C55245A94E719EE2EF12C809137010D
:102E0000881630F0C2DCCDB7DEB7E0E10C947B2948
:102E1000C82CD12C82E0861568F09C9CF0019D9C0A
:102E2000F00D1124E552FD4F809133038083809192
:102E30003403818341101BC09C9CF0019D9CF00DCC
:102E40001124E552FD4F13821282209135012C0D81
:102E50003D2D311D9C9CF0019D9CF00D1124E552EF
:102E6000FD4F4281618180814CDC8394C7CF9C9C63
:102E700080019D9C100D112405521D4FF801838186
:102E80008823F1F081508383859DC00111246481E2
:102E900070E00E94E328FB01FF27E752FF4F849177
:102EA000E82FE719E59DC0011124B7010E94E3282E
:102EB00080913503689FB0011124F8017283C5CF5A
:102EC0000E94112AB5010E94F7288C179D070CF06B
:102ED000BCCFF2E0F61598F40E94112AB5010E94C9
:102EE000F728F80180830E94112A20913403269547
:102EF000622F70E00E94F728280FF80121839C9C24
:102F0000F0019D9CF00D1124E552FD4F128280913D
:102F10003503893C58F088EC9C9CF0019D9CF00D99
:102F20001124E552FD4F848383838FCF8431A0F732
:102F300084E1F2CFE2E3F3E080818E7F8083CF01F2
:102F40000E944C0D1092F70220CCE2E3F3E0808166
:102F50008E7F80831092F70218CC609132036695C1
:102F6000669570E04BE050E088E391E00E941F2AF4
:102F7000892B19F481E08093F7020E943E229093FE
:102F8000F0028093EF0208959091320390FF25C0E4
:102F90009370811123C0946090933203662321F0D3
:102FA00082E393E00E944C0D609132036695669532
:102FB00070E04BE050E088E391E00E941F2A892BEB
:102FC000A9F01092F70281E08093F202409135035C
:102FD00060913403809133032BCD08958B3210F030
:102FE000986ADACF880F880F982BD6CFB6DFEBCF51
:102FF000682F909132039695969581E0890F8B32D8
:1030000008F081E0C1CF81E0F3CF682F90913203C7
:10301000969596958FEF890F09F48AE2B5CF81E0F6
:10302000F4CF61E0B1CFE2E3F3E08081816080839F
:1030300086958695F6CF8091320380FF01C07ACFC6
:10304000F2CF60E0A1CF8091F50281111FC082E331
:1030500093E00E944A0D809132038C7F29F46BDB50
:1030600082E393E00E944A0D50DB1092F702E09158
:10307000FD01F091FE0109958091320380FF03C0AC
:1030800086958695DEDF81E08093F50208950F93A3
:103090001F93CF93DF938091F7028823C1F1809132
:1030A000F602E0913203E695E695E81BE093F10223
:1030B000823091F5F0E0EB52FF4FE491CE2FD0E05B
:1030C00007E214E18091F202882361F01092F2028B
:1030D0000E943E229093F0028093EF021092F4023D
:1030E0001092F3020E943E22E091EF02F091F00272
:1030F0008E1B9F0B8F3F9F4750F4EC0FFD1FF093EB
:10310000F002E093EF028FEE92E0F8010995DF9173
:10311000CF911F910F910895863049F4F0E0EE525F
:10312000FF4FE491CE2FD0E00AE314E1CBCF8930FA
:1031300051F4E695F0E0E153FF4FE491CE2FD0E05B
:103140000AE115E1BFCF8F3051F4E695F0E0E4538A
:10315000FF4FE491CE2FD0E00CE415E1B3CF8531E1
:1031600049F4F0E0E753FF4FE491CE2FD0E00AEBB3
:1031700015E1A8CFC8E2D0E00BE216E1883109F4EE
:10318000A1CF833239F4E7ECF0E0C591D49109E4A2
:1031900014E198CFC4EFD1E004EA16E1843209F4D7
:1031A00091CFC0EDD7E00FE513E1853209F08ACF6A
:1031B0008E2F63E00E94D728E92FF0E0EC53FF4FF9
:1031C000E491CE2FD0E009ED16E17CCF08955FCFDA
:1031D00008950C94AB0D0895E9EFF2E088E0DF016B
:1031E0001D928A95E9F709C1FC01228130E02F5F29
:1031F0003F4F23703327938181E09217130609F024
:1032000080E008950F931F93CF93DF93EC01162F67
:10321000042FEADF811117C08A81FE01E80FF11D3A
:103220001F7764816078612B00FB67F964838F5F8F
:1032300083708A8388818F5F888381E0DF91CF915B
:103240001F910F91089580E0F9CFFC01A381828145
:103250008A17B1F0AE0FBF2FB11D14968C9187FB6A
:10326000992790F98F77DB018C93DA019C93838106
:103270008F5F8370838381818F5F818381E0089575
:1032800080E00895462F682F89EF92E0BBCFAB0115
:10329000BC0189EF92E0D9CFCF93DF93D62F0E9464
:1032A000C502C82F882341F06AE070E089EAD11195
:1032B00001C08AEA0E949D058C2FDF91CF9108956D
:1032C000A2E0B0E0E6E6F9E10C946B298091F80207
:1032D000882351F01092F8028091FB028093FC0247
:1032E0008091F9028093FA02C3D073DF182F8823EC
:1032F00079F010E004C069818A81CEDF102FBE0111
:103300006F5F7F4FCE010296C2DF082F8111F3CF8E
:10331000812F2296E4E00C9487298FE891E00197B1
:10332000F1F700C00000089590E06623E9F08B5E9D
:103330009D4FFC0180818F3FB1F0E82FE295EF7047
:10334000F0E041A18F7021E030E0B90102C0660FCA
:10335000771F8A95E2F7CB01962F9095942391A33E
:1033600092A1892B82A30895895E9D4FE2CF90E0C0
:103370006623A1F08B5E9D4FFC0120812F3F89F0D9
:10338000E22FE295EF70F0E080A190E02F7002C094
:10339000959587952A95E2F781700895895E9D4FEE
:1033A000EBCF80E008950895CF93DF93C0E0809144
:1033B0000103C81750F0B1DFC0E080910103C817C6
:1033C00060F0F1DFDF91CF91089560E08C2FACDFEA
:1033D00061E08C2FA9DFCF5FEACF60E08C2FC7DFE1
:1033E000D82F61E08C2FC3DFEC2FF0E0EC5FFC4FB7
:1033F000880F8D2B8083CF5FE0CF82E08093010325
:10340000D3CF1F93CF93DF93182FE42FEE0F6E2BA4
:10341000C82FD0E0DE01AC5FBC4FEC918E2F8370E3
:10342000681711F1EE0FEE0FE62BEC93EF70F0E062
:10343000EB5FFD4FCE5FDC4F80819881890F8883E1
:1034400084301CF060E0812F1DDF88818D3F1CF4EB
:1034500061E0812F17DF8881082E000C990B64E052
:1034600070E00E94F7288883DF91CF911F91089523
:10347000CF93DF93C0E080910103C81718F0DF916C
:10348000CF91089561E08C2F72DFD82F60E08C2FF0
:103490006EDF4D2F682F8C2FB4DFCF5FECCF539AA8
:1034A0000895FC01EE0FFF1FE80FF91FE65CFC4FCB
:1034B0006183408322830895EAE3F3E0818360839C
:1034C0004283339693E0E634F907C1F708953BB1A0
:1034D000377F2BB128604FB7F8948AE393E0FC0163
:1034E0005191CF0168E02BB9000000C057FF3BB9F4
:1034F000550F000000C000C000C03BB900C06A9575
:1035000091F7F3E086349F0751F74FBF8FE594E0C2
:103510000197F1F700C0000008950C943C0D089548
:1035200080E00E945911817008950E94FA112FEFD6
:1035300086E791E0215080409040E1F700C0000014
:103540000E94FA11EDDF882311F0E7DFD3C7089559
:10355000ECCF0895CF93DF93EB0186319C4701F5C3
:103560000E94090C9D81992391F08A7A91E009F4D7
:1035700090E090930603811108C089E225D60E944D
:10358000BA0C80E0DF91CF91089585E3F7CF809169
:103590000603811103C089E22ED6F1CF85E3FCCF6B
:1035A00081E0F0CFCF93DF93EC01FB01858188238D
:1035B00009F4CEC09E0130572332310508F0AEC069
:1035C0008AE293E00E94460DFE01E150F047E232AC
:1035D000F10520F4E954F54D0C942C2980912A032F
:1035E000816080932A0393C080912B03886080932D
:1035F0002B038DC080912A038260F3CF80912A0330
:103600008460EFCF80912A038860EBCF80912B03F9
:103610008160EDCF80912B038260E9CF80912A03F6
:103620008061DFCF80912A038062DBCF80912A0303
:103630008064D7CF0E94D80780912A038068D1CFB9
:1036400080912A038C60CDCF80912B038360CFCFF4
:1036500080912A038E7FC5CF80912B03877FC7CFB0
:1036600080912A038D7FBDCF80912A038B7FB9CFB4
:1036700080912A03877FB5CF80912B038E7FB7CFB0
:1036800080912B038D7FB3CF80912A038F7EA9CFAA
:1036900080912A038F7DA5CF80912A038F7BA1CFB4
:1036A0000E94D80780912A038F779BCF80912A03AD
:1036B000837F97CF80912B038C7F99CF80912A03B2
:1036C00082FB992790F921E0922790FB82F990FBE9
:1036D00083F987CF80912B03982F909591708E7FDF
:1036E000892B90FB81F983CF90912A03892F8F7BBF
:1036F00096FF806476CF0E94D80790912A03892F85
:1037000097FB87F980586DCF81E00E944E0D8AE2C9
:1037100093E00E94480D0E94D80780E0DF91CF918E
:10372000089580E0F2CF90912A03892F8F7E94FF35
:10373000806157CF90912A03892F8E7F90FF8160FF
:1037400050CF90912B03892F877F93FF88604FCFB5
:1037500081E0E4CF282F35EB2303C001112497FF2C
:1037600004C080589109892F089580589F4FFBCF3E
:1037700080910D0380FF0DC06091480170E0660FDD
:10378000771F6038710570F56115710569F1862F35
:10379000089581FF07C06091480184E0689FB001EF
:1037A0001124EFCF6091480182FD0AC080910C0383
:1037B0008823A9F02091470160914801821710F0F9
:1037C00088E0ECCF869FC001112433E0880F991F59
:1037D0003A95E1F7622F70E00E94F728D2CF68E0B7
:1037E00070E0D5CF8FE7089581E0089580910D03B3
:1037F00080FF0CC06091440170E0759567957595E8
:1038000067956115710549F1862F089581FF06C0FE
:103810006091440170E075956795F3CF6091440124
:1038200082FD0BC090910B039923A1F0609143019D
:1038300080914401961738F0682F70E06038710568
:1038400000F38FE70895899FC001112470E00E9462
:10385000F728F4CF61E070E0D7CF81E008958D3C88
:1038600029F486DF81958093110308958E3C11F42D
:103870007FDFF9CF8F3C29F47BDF819580931003A4
:103880000895803D11F474DFF9CF893D21F4AEDF56
:103890008093120308958A3D19F4A8DF8195F8CF2B
:1038A0008B3D29F4A3DF81958093130308958C3D0C
:1038B00011F49CDFF9CF9FE2980F983070F4815D8E
:1038C000990B21E030E001C0220F8A95EAF7809140
:1038D0000F03822B80930F0308958D3D31F4809167
:1038E0000D03816080930D0308958E3D21F4809136
:1038F0000D038260F7CF8F3DB9F780910D0384608F
:10390000F1CF409110038D3C59F48091110387FF52
:103910000DC01092110341110BC010920C0308C08E
:103920008E3C81F48091110318169CF3442381F09E
:103930008091120390911303892B09F05AC01092C1
:103940000B0308958F3C49F447FFF0CF109210030A
:10395000809111038111ECCFE0CF803D19F4141652
:10396000ACF3E4CF90911203893D29F41916F4F6D3
:1039700010921203DBCF8A3D19F497FFD7CFF8CF0F
:10398000909113038B3D29F497FFD0CF109213032E
:10399000CDCF8C3D19F41916CCF3C8CF9FE2980F08
:1039A000983090F4815D990B21E030E0B90102C0BC
:1039B000660F771F8A95E2F7CB01809590910F03F0
:1039C000892380930F03B2CF8D3D31F480910D0395
:1039D0008E7F80930D03AACF8E3D21F480910D033D
:1039E0008D7FF7CF8F3D09F0A1CF80910D038B7FA5
:1039F000F0CF089543D59C0190911003809111035D
:103A0000982B21F030930A0320930903909112031D
:103A100080911303982B21F0309308032093070320
:103A20008EE093E0C5C286E0EEE0F3E0DF011D9298
:103A30008A95E9F710920C0310920B0310920D0374
:103A40000895FC01828181110EC0838181110BC018
:103A50008481811108C091E08581811101C090E0CD
:103A6000892F8170089581E0FCCFA6E0B0E0EBE300
:103A7000FDE10C946C2986E0EEE0F3E0DE011196A6
:103A800001900D928A95E1F71092100310921103A4
:103A900010921203109213038B819C81892B81F069
:103AA0008091090390910A037AD4AC0190910C03A0
:103AB0009923A9F1809149018417150608F43CC0A7
:103AC0008D819E81892B89F0809107039091080355
:103AD00066D4AC0190910B03992309F463C08091E3
:103AE00045018417150608F46BC0BE016F5F7F4F58
:103AF0008EE093E0B0D3811104C08EE093E0A1DFAB
:103B0000811178DF86E0FE013196AEE0B3E00190EE
:103B10000D928A95E1F72696E3E00C94882920918E
:103B20004A018AE0289F900111242417350740F6A6
:103B30009F5F90930C0302C09F3FD1F71B8111231D
:103B400051F016DE9FEF11160CF491E0899F802D45
:103B50001124809310031C81112351F009DE9FEF83
:103B600011160CF491E0899F802D1124809311038C
:103B700080911003882309F4A3CF1091110311231E
:103B800009F49ECFE7DD882349F080931003812F4D
:103B9000E1DD882329F08093110392CF81E0F5CFF6
:103BA00081E0F9CF209146018AE0289F90011124FD
:103BB0002417350708F099CF9F5F90930B0302C03D
:103BC0009F3FD1F71D81112351F010DE9FEF111699
:103BD0000CF491E0899F802D1124809312031E81A3
:103BE000112351F003DE9FEF11160CF491E0899F31
:103BF000802D11248093130380911203882309F4EC
:103C000074CF10911303112309F46FCFA3DD882320
:103C100049F080931203812F9DDD882329F0809342
:103C2000130363CF81E0F5CF81E0F9CF0F931F93AA
:103C3000CF93DF93C42FD22FFC0185818823C1F05D
:103C4000409316031BD4909315038093140380E2D2
:103C50008C0F883040F4C77081E001C0880FCA958E
:103C6000EAF70E94BA05DF91CF911F910F91089555
:103C700010911603141331C0809114039091150311
:103C80008ED3883C910548F5C0E2CD0F1D17B9F0E1
:103C900080E2810F883040F4177081E001C0880F06
:103CA0001A95EAF70E94BF05C83048F481E09D2FBD
:103CB000977001C0880F9A95EAF70E94BA05802F85
:103CC0000E94B305C83078F6D77081E001C0880F34
:103CD000DA95EAF70E94BF05C6CF80E28C0F8830E4
:103CE00010F6C77081E001C0880FCA95EAF7F2CFDD
:103CF0000F93DB0188519C478730910598F5FC01B3
:103D0000E752F54D0C942C2906E221EE41EE6AE1D2
:103D10007CE7CD018BDF80E00F91089507E225EE6F
:103D200045EE6BE17CE7F5CF06E221EE40EE68E17F
:103D30007CE7EFCF07E225EE44EE69E17CE7E9CFCF
:103D400006E221EE42EE6CE17CE7E3CF07E225EEEE
:103D500046EE6DE17CE7DDCF08E221E045EE6EE165
:103D60007CE7D7CF15968C91882319F01092160313
:103D7000D3CF81E0D1CF4115510511F0FA0109955A
:103D80000895CF93DF93EC014A855B856E857F852F
:103D9000F2DF8B810E94250C8C810E94120C0E9404
:103DA000BA0C86E0FE0111928A95E9F7DF91CF9176
:103DB0000895CF93DF93EC018D8181FD10C0826067
:103DC0008D838B810E941F0C8C810E940C0C0E94A1
:103DD000BA0C488559856E857F85CE01CCDF10925F
:103DE0001A03109219038D8180FD02C0CE01C9DF34
:103DF000DF91CF9108950F931F93CF938C01FB0117
:103E0000C581CC23A9F08091190390911A030097E2
:103E1000A1F08017910789F099270E945803FC01AF
:103E200025812460258311830083C3DF0E942C0C2D
:103E30008C2FCF911F910F910895C0E0F9CFEF9291
:103E4000FF920F931F93CF93DF937C018B019755C4
:103E50008F3F910519F010F011E036C00E944D031C
:103E6000970133272817390708F04CC0C9010E9471
:103E70005803EC01F80115818D8110FB80F98D83C9
:103E8000112341F1FBD290931803809317038A8189
:103E90008F5F8A830E94090C8B830E941C0C9B817C
:103EA000892B8B830E942F0C8C834E815F816E85C2
:103EB0007F85CE0160DF8D8181FF02C0F12CE12C76
:103EC000F0921A03E0921903812FCDB7DEB7E6E036
:103ED0000C9485294C855D856E857F85CE014BDFF1
:103EE0008D8181FFB9CFCE014CDF80911903909174
:103EF0001A038E159F0509F0AFCF10921A03109286
:103F00001903AACF10E0E0CF8091190390911A0312
:103F1000892B99F0809117039091180340D2893C26
:103F2000910558F08091190390911A0399270E94E6
:103F30005803FC01258122FF3CCF08959093200374
:103F400080931F030895F2D191E0813009F090E051
:103F5000892F0895E0911F03F0912003309739F0E5
:103F60000190F081E02D309711F00995089580E0DF
:103F70000895E0911F03F0912003309731F0028003
:103F8000F381E02D309709F009950895E0911F0322
:103F9000F0912003309759F024813581232B39F09B
:103FA00026E0DC012C930480F581E02D099508952D
:103FB000E0911F03F0912003309759F0268137815B
:103FC000232B39F022E0DC012C930680F781E02DD1
:103FD00009950895A3E0B0E0E0EFFFE10C946D29AE
:103FE00020911D0330911E0328173907B1F09093DB
:103FF0001E0380931D03E0911F03F091200330976F
:1040000061F00084F185E02D309739F023E02983B9
:104010009B838A83CE01019609952396E2E00C9456
:104020008929A3E0B0E0E7E1F0E20C946D2920914A
:104030001B0330911C0328173907B1F090931C0320
:1040400080931B03E0911F03F0912003309761F0F0
:104050000084F185E02D309739F024E029839B839B
:104060008A83CE01019609952396E2E00C94892972
:10407000CF93DF93C0912E01D0912F01229663DF61
:10408000882381F080912A0387FF0CC0C0912C0106
:10409000D0912D0122969EE180E0915028F4DF918D
:1040A000CF91089596E0F8CF29912223B1F38F5F45
:1040B000F4CFCF93C82F811102C080E023C043DF2B
:1040C000882311F180912A0387FF1EC0EC2FE6950B
:1040D000E695E695EE3188F780912C0190912D01BF
:1040E000E80FF92FF11D228130E0C77081E090E0E8
:1040F00002C0880F991FCA95E2F72823392381E06F
:10410000232BD9F2CF91089580912E0190912F0108
:10411000FC013296089621912C1721F0E817F90737
:10412000D1F7CBCF81E0EECF9C01FC0132969FEF1F
:1041300080E04191461751F09F3F19F4411101C0B1
:10414000982F8F5F8630A9F79F3F09F40895290FB4
:10415000311D97FD3A95F90162830895FC0132966D
:1041600008962191261303C0DF0111971C92E817CE
:10417000F907B9F70895E62FE695E695E695EE314D
:1041800068F4E80FF92FF11D677021E030E001C0FD
:10419000220F6A95EAF78281822B82830895E62FA7
:1041A000E695E695E695EE3170F4E80FF92FF11DEE
:1041B000677021E030E001C0220F6A95EAF7209590
:1041C0008281282322830895CF93C82FBCDE6C2FD1
:1041D000882359F080912A0387FF07C080912C0122
:1041E00090912D01C8DFCF91089580912E0190917B
:1041F0002F019ADFF8CFCF93C82FA5DE6C2F88232D
:1042000059F080912A0387FF07C080912C0190917B
:104210002D01C5DFCF91089580912E0190912F013E
:104220009DDFF8CF90DE882379F080912A0387FF05
:104230000BC0E0912C01F0912D0132968EE1DF014F
:104240001D928A95E9F70895E0912E01F0912F01D2
:10425000329686E0F4CFDC01FB0111969C91119718
:104260008181981322C012968C911297882319F09D
:10427000928189131AC013968C911397882319F091
:104280009381891312C015968C911597882319F084
:10429000958189130AC014969C91992321F081E09D
:1042A0002481291303C080E001C081E0817008955A
:1042B0000895FECF089581110CC081E080934E01D6
:1042C00060914B0170914C0180914D0190914E0194
:1042D000F0CF82E0F3CF83E080934E0160914B01F9
:1042E00070914C0180914D0190914E01E2CFE3CF4E
:1042F000089581E080934E0160914B0170914C01D3
:1043000080914D0190914E01D4CFF3CF089591E06B
:10431000811101C090E090934D0160914B0170912B
:104320004C0180914D0190914E01C3CF80914D0180
:10433000089580934C0160914B0170914C018091E4
:104340004D0190914E01B5CF80914C01089580931D
:104350004B0160914B0170914C0180914D01909106
:104360004E01A7CF80914B01089508950895FECF87
:10437000089508950895F9CF0895CF93FADF0E9424
:10438000FA11F8DFC0E08C2F0E945911811105C08D
:10439000CF5FC330C1F7CF91089581E0FCCFCF93B9
:1043A000DF93EC016BD08C1B9D0BDF91CF910895B7
:1043B00085B7806885BF85B7806885BF08951F92DF
:1043C0001FB61F9211248F939F93AF93BF93809139
:1043D0002103811113C08091460390914703A0915E
:1043E0004803B09149034196A11DB11D8093460336
:1043F00090934703A0934803B0934903BF91AF91B3
:104400009F918F911F901FBE1F90189580914E0312
:10441000843031F10E94B5041092210388E190E0CC
:1044200020E40FB6F894A895809360000FBE209307
:10443000600083B7817F846083BF83B7816083BF5F
:104440007894889583B78E7F83BF0FB6F894A8952C
:1044500080916000886180936000109260000FBEC0
:1044600008950E94D8070C94B90482E084BD93E0BB
:1044700095BD9AEF97BD80936E0008952FB7F8947D
:104480008091460390914703A0914803B09149035E
:104490002FBF08952FB7F89460914603709147039A
:1044A00080914803909149032FBF089578941F92FB
:1044B0001FB61F9211248F939F93AF93BF93809148
:1044C000460390914703A0914803B0914903019698
:1044D000A11DB11D8093460390934703A093480309
:1044E000B0934903BF91AF919F918F911F901FBED1
:1044F0001F90189587E797E790930108809300082D
:1045000088E19AE00FB6F894A895809360000FBEFA
:1045100090936000FFCF88E19AE00FB6F894A895D9
:10452000809360000FBE90936000FFCF9B01BA01A3
:1045300090914E039430E1F48F708093E9009FEFE7
:104540008091E800915085FD06C085ED8A95F1F7D0
:1045500000009111F5CF8091E80085FF09C050E07F
:1045600040E0C901BAD18091E8008E778093E800DD
:10457000089543E050E0BC0182E0D8CF46E050E02F
:10458000BC0182E0D3CF40E250E0BC0182E0CECF5C
:10459000CF93DF93EC01CADE48E050E0BE0181E03A
:1045A000C5DF88E0FE01A2E2B3E001900D928A959A
:1045B000E1F7DF91CF91089580914D03811107C0FC
:1045C0001AD371D38091E20084608093E200089551
:1045D00010924D0308958DDE81E099CE60914A03DB
:1045E00081E0611101C080E076CE90914E0381E0C0
:1045F000943009F080E060914A0379CE42E061ECAA
:1046000081E075D242E261EC82E071D290914E037A
:1046100081E0943009F080E060914A034CCE8091B3
:104620005003833009F45EC030F48130C1F1823030
:1046300009F494C008958A3009F483C08B3009F4DA
:104640006BC0893009F04DC080914F03813209F071
:1046500048C08091530390915403029708F041C0E1
:104660008091E800877F8093E8008091E80082FFD6
:1046700034C09091F3008091F200029731F4809160
:10468000F100813011F0863019F48091F10051DE93
:104690008091E8008B778093E8005DD222C0809102
:1046A0004F03813AF1F48091E800877F8093E8001E
:1046B0008091530390915403892B59F468E082E26E
:1046C00093E070E057D18091E8008B778093E80009
:1046D000089560E090E080E0F4CF80914E03811176
:1046E000C4CF089580914F03813AD9F78091530345
:1046F00090915403892BA9F78091E800877F8093DC
:10470000E8008091E80080FFFCCF10DE8093F1008C
:104710008091E8008E77BFCF80914F03813209F7F7
:104720008091530390915403892BD9F68091E8002E
:10473000877F8093E8000FD280915103E8DD0C94CD
:10474000D80780914F03813261F68091E800877F1E
:104750008093E80000D280915203F9CD80914F03FD
:10476000813A09F0BECF8091E800877F8093E8000E
:104770008091E80080FFFCCFF5DDC8CF84B7877F4C
:1047800084BF0FB6F894A8958091600088618093EB
:104790006000109260000FBE80E890E00FB6F894C1
:1047A00080936100909361000FBEAFCD24D27BD285
:1047B000E2EEF0E08081846080837894DEC48FE450
:1047C00091E0BCCB80914E03853029F480914E035B
:1047D000853011F046CE089519DECFDD8823B1F380
:1047E00080914C03882391F362D00E94D807EECFCA
:1047F00008959A01409155035091560300C0492FE6
:1048000055274330510519F168F44130510509F439
:1048100044C04230510509F445C090E080E050E0CA
:1048200040E025C04132510549F142325105A9F716
:1048300084E490E043E054E061157105C1F086EB3B
:1048400090E04DE453E06130710589F0E6CF99279F
:104850008130910581F0009729F00297F1F6EEED95
:10486000F2E002C0ECEFF2E0849190E0AF01F901D8
:10487000518340830895E0EFF2E0F6CF89E090E0C5
:1048800042E153E06115710591F389E090E04BE25C
:1048900053E06130710559F3C0CF82E190E04BE302
:1048A00053E0E5CF8BE390E040E053E0E0CF80E1E0
:1048B00089BD82E189BD09B400FEFDCF8091D80099
:1048C0008F7D8093D8008091E00082608093E0002B
:1048D0008091E00081FDFCCF0895AF92BF92CF920E
:1048E000DF92FF920F931F93CF93DF936C01EB0145
:1048F0008A0150D1F82E811123C00115110539F01C
:10490000F80180819181C81BD90BC80ED91EB12C2A
:10491000A12C2097A9F08091E80085FD21C080910D
:10492000E8008E778093E80001151105A1F0F801E9
:1049300080819181A80EB91EB182A08285E0F82EF7
:104940008F2DDF91CF911F910F91FF90DF90CF902E
:10495000BF90AF9008951ED18823D9F2F82EF0CFE2
:10496000F60181916F018093F1002197FFEFAF1A5B
:10497000BF0ACFCFFC018091550390915603861753
:104980009707A0F06115710529F49091E8009E77D2
:104990009093E80090E06115710551F4911108C001
:1049A0008091E80082FF34C080E00895BC01F2CF1E
:1049B00080914E038823C1F18530C1F18091E800D8
:1049C00083FD30C08091E80082FDEACF8091E8004D
:1049D00080FFE1CF8091F3002091F200382F611524
:1049E000710519F02830310558F091E02830310573
:1049F00009F090E02091E8002E772093E800CBCFDB
:104A000081918093F100615071092F5F3F4FE7CF93
:104A100080914E03882341F0853041F08091E80079
:104A200083FFBECF81E0089582E0089583E008957A
:104A3000FC01809155039091560386179707A0F0CB
:104A40006115710529F48091E8008E778093E80064
:104A500090E06115710551F4911108C08091E80052
:104A600082FF35C080E00895BC01F2CF80914E03F3
:104A70008823C9F18530C9F18091E80083FD31C0F8
:104A80008091E80082FDEACF8091E80080FFE1CFCD
:104A90008091F3002091F200382F6115710519F013
:104AA0002830310558F091E02830310509F090E0C8
:104AB0008091E8008E778093E800CBCF849180933B
:104AC000F1003196615071092F5F3F4FE6CF809121
:104AD0004E03882341F0853041F08091E80083FF48
:104AE000BDCF81E0089582E0089583E00895982F76
:104AF000973028F08F708093E90081E008959093BB
:104B0000E900242F762F50E0981731F07091EC00D7
:104B10002091ED005091F00021FD02C09F5FE8CF91
:104B20003091EB003E7F3093EB003091ED003D7F04
:104B30003093ED003091EB0031603093EB007093D7
:104B4000EC002093ED005093F0002091EE0027FD43
:104B5000E5CF80E0089580914F0387FF13C08091D7
:104B6000E80082FF06C08091E8008B778093E80020
:104B700004C080914E038111F2CF089580914E03BD
:104B80008823D9F38091E80080FFF8CF8091E80076
:104B90008E77ECCF2091E4003091E50095E6A901F5
:104BA0002091EC00822F817020FF06C08091E800E8
:104BB00080FF06C080E008952091E80022FD1AC021
:104BC00080914E03882389F0853089F08091EB0035
:104BD00085FD0FC02091E4003091E5004217530796
:104BE000F9F29150E1F684E0089582E0089583E0BF
:104BF000089581E0089567D06ED0E0EEF0E0808106
:104C000081608083E8EDF0E080818F77808319BC3C
:104C1000A7EDB0E08C918E7F8C9380818F7E808316
:104C200010924D0308950F931F93CF93DF934BD0B2
:104C300052D0C8EDD0E088818F77888388818068E2
:104C4000888388818F7D888319BC10924E031092CF
:104C50004A0310924C0310924B0300EE10E0F8014F
:104C600080818B7F808388818160888342E060E0DF
:104C700080E03DDFE1EEF0E080818E7F8083E2EE38
:104C8000F0E0808181608083808188608083F8018A
:104C900080818E7F8083888180618883DF91CF913E
:104CA0001F910F910895E8EDF0E080818F7E808361
:104CB000E7EDF0E080818160808384E082BF81E065
:104CC00080934D03B0CFE8EDF0E080818E7F80834C
:104CD0001092E20008951092DA001092E100089517
:104CE0001F920F920FB60F9211242F933F934F9361
:104CF0005F936F937F938F939F93AF93BF93EF9344
:104D0000FF938091E10082FF0AC08091E20082FF60
:104D100006C08091E1008B7F8093E1002DD28091CD
:104D2000DA0080FF18C08091D80080FF14C0809105
:104D3000DA008E7F8093DA008091D90080FF91C0E5
:104D400080E189BD82E189BD09B400FEFDCF81E02B
:104D500080934E0331DC8091E10080FF18C0809188
:104D6000E20080FF14C08091E2008E7F8093E20019
:104D70008091E20080618093E2008091D80080629F
:104D80008093D80019BC85E080934E0327DC809186
:104D9000E10084FF2AC08091E20084FF26C080E108
:104DA00089BD82E189BD89B5982F917080FFFBCFC5
:104DB0008091D8008F7D8093D8008091E1008F7E14
:104DC0008093E1008091E2008F7E8093E2008091E9
:104DD000E20081608093E20080914A03882309F415
:104DE00045C084E080934E0300DC8091E10083FFA6
:104DF00027C08091E20083FF23C08091E100877F7C
:104E00008093E10082E080934E0310924A038091E8
:104E1000E1008E7F8093E1008091E2008E7F80939D
:104E2000E2008091E20080618093E20042E060E075
:104E300080E05DDE8091F00088608093F000CBDB45
:104E4000FF91EF91BF91AF919F918F917F916F9162
:104E50005F914F913F912F910F900FBE0F901F9038
:104E6000189519BC10924E03B3DB75CF8091E30007
:104E700087FD93E090934E03B7CF1F920F920FB62A
:104E80000F9211242F933F934F935F936F937F93D0
:104E90008F939F93AF93BF93CF93DF93EF93FF9342
:104EA000D091E900DF708091EC00C82FC17080FDC7
:104EB000C0E81092E9008091F000877F8093F000B5
:104EC00078941ED01092E9008091F0008860809361
:104ED000F000CD2BCF70C093E900FF91EF91DF91EF
:104EE000CF91BF91AF919F918F917F916F915F9182
:104EF0004F913F912F910F900FBE0F901F901895DB
:104F0000AAE2B0E0E5E8F7E2E7C18FE493E02091A0
:104F1000F100FC012193CF01F3E087359F07B9F73A
:104F20007EDB8091E80083FF16C180914F03909152
:104F300050039A3008F00FC1E92FF0E0E052F54D30
:104F40008BC1803899F0823809F005C180915303F4
:104F50008F70873008F0FFC08093E9008091EB00EC
:104F600085FB882780F91092E90006C080914B03E9
:104F700090914C03911182609091E800977F9093FB
:104F8000E8008093F1001092F1008091E8008E77A4
:104F9000DFC0882309F4CDC0823009F0DCC08091E5
:104FA00051038111D0C0809153038F702FEF280FD0
:104FB000263008F0D0C08093E9002091EB0020FF5C
:104FC000C2C0933031F48091EB0080628093EB009B
:104FD000BAC09091EB0090619093EB0021E030E03B
:104FE00001C0220F8A95EAF72093EA001092EA00A6
:104FF0008091EB008860EACF8111ADC01091510320
:105000001F778091E3008078812B8093E30080916B
:10501000E800877F8093E8009EDD8091E80080FFB4
:10502000FCCF8091E30080688093E30082E011115F
:1050300083E080934E038FC08058823008F08BC08D
:1050400080915103909152038C3D23E0920799F592
:1050500083E08A838AE289834FB7F894DE0113964E
:1050600020E03EE051E2E32FF0E050935700E4915E
:1050700020FF03C0E295EF703F5FEF708E2F90E04E
:10508000EA30B8F0C7968D939D932F5F243159F77E
:105090004FBF8091E800877F8093E8006AE270E06C
:1050A000CE01019667DC8091E8008B778093E80061
:1050B00052C0C096E8CF6091530370915403AE0183
:1050C0004F5F5F4F96DBBC01892B09F444C0909180
:1050D000E800977F9093E80089819A81A9DCE3CF6B
:1050E0008038C9F58091E800877F8093E80080913F
:1050F0004A038093F10049CF81112DC09091510353
:10510000923048F58091E800877F8093E800909383
:105110004A0321DD80914A03882311F084E005C011
:105120008091E30087FDFACF81E080934E0366DA39
:1051300012C080915103813071F481E0933009F005
:1051400080E080934C031092E9008091E800877F13
:105150008093E80000DD8091E80083FF0AC0809121
:10516000E800877F8093E8008091EB008062809365
:10517000EB00AA96E3E0CCC00895CF9380914E0354
:10518000882399F0C091E900CF709091EC00892FAD
:10519000817090FD80E8C82B1092E9008091E800B2
:1051A00083FDAEDECF70C093E900CF910895991BC7
:1051B00079E004C0991F961708F0961B881F7A950E
:1051C000C9F780950895AA1BBB1B51E107C0AA1F10
:1051D000BB1FA617B70710F0A61BB70B881F991F98
:1051E0005A95A9F780959095BC01CD01089597FB3C
:1051F000072E16F4009406D077FD08D0E4DF07FCF4
:1052000005D03EF4909581959F4F089570956195D6
:105210007F4F0895A1E21A2EAA1BBB1BFD010DC0F2
:10522000AA1FBB1FEE1FFF1FA217B307E407F50756
:1052300020F0A21BB30BE40BF50B661F771F881F32
:10524000991F1A9469F760957095809590959B01C8
:10525000AC01BD01CF010895EE0FFF1F0590F49141
:10526000E02D099405D0332312F48A1B9B0B10C048
:10527000A29FB001B39FC001A39F700D811D112497
:10528000911DB29F700D811D1124911D0895F0DFB5
:10529000B7FF0895821B930B0895EADFA59F900D39
:1052A000B49F900DA49F800D911D11240895B7FF08
:1052B000F4CFF3DF821B930B08952F923F924F920E
:1052C0005F926F927F928F929F92AF92BF92CF9296
:1052D000DF92EF92FF920F931F93CF93DF93CDB79F
:1052E000DEB7CA1BDB0B0FB6F894DEBF0FBECDBF17
:1052F00009942A88398848885F846E847D848C84E8
:105300009B84AA84B984C884DF80EE80FD800C81F0
:105310001B81AA81B981CE0FD11D0FB6F894DEBFD3
:105320000FBECDBFED010895002E083090F0982FEC
:10533000872F762F652F542F432F322F2227085087
:10534000F4CF220F331F441F551F661F771F881F7E
:10535000991F0A95B2F7002D089597FD1094002E1D
:10536000083098F00850232F342F452F562F672FE1
:10537000782F892F912DF4CF159497958795779550
:10538000679557954795379527950A95AAF711245C
:10539000002D08958F929F92AF92BF92CF92DF928D
:1053A000EF92FF92CF93DF93EC01688179818A813C
:1053B0009B81611571058105910521F464E279ED08
:1053C0008BE597E02DE133EF41E050E09BD04901C0
:1053D0005A019B01AC01A7EAB1E45FDF6B017C01DC
:1053E000ACEEB4EFA501940164DFDC01CB018C0DC0
:1053F0009D1DAE1DBF1DB7FF03C00197A109B04899
:1054000088839983AA83BB839F77DF91CF91FF9095
:10541000EF90DF90CF90BF90AF909F908F900895C6
:10542000B9CF80E091E0B6CFB0E0A0E0809300017A
:1054300090930101A0930201B09303010895FC0130
:105440004150504030F001900616D1F73197CF010E
:105450000895882799270895FB01DC0104C08D91E8
:105460000190801921F441505040C8F7881B990BD6
:105470000895FB01DC0102C001900D9241505040A3
:10548000D8F70895F999FECF92BD81BDF89A992772
:1054900080B50895A6E1B0E044E050E025C0A8E161
:1054A000B0E042E050E020C0262FF999FECF92BD37
:1054B00081BDF89A019700B4021639F01FBA20BDD9
:1054C0000FB6F894FA9AF99A0FBE08950396272F0B
:1054D000ECDFEADF252FE9DF242FE7CF0196272F26
:1054E000E4DFE2CFDC01CB01FC01F999FECF06C07D
:1054F000F2BDE1BDF89A319600B40D924150504092
:10550000B8F70895052E97FB16F400940FD057FDB9
:1055100005D080DE07FC02D046F408C050954095C7
:10552000309521953F4F4F4F5F4F0895909580954F
:10553000709561957F4F8F4F9F4F0895F894FFCFDF
:1055400002060206380638069106AD062A062A0625
:10555000B1061A07260726079C12A312A712AB1240
:10556000AF12B312B712BB12BF12C312C712281B5D
:105570009A1B301BFA1AFE1A341B021B381B441BE1
:105580000E1B931B121B481B161B4C1B741B1A1B58
:10559000501B7B1B201B561B5E1B061B3C1B0A1B48
:1055A000401B241B5A1B6A1B841B911BF41A2C1BC7
:1055B000A11B941E9A1E841E8E1EA01EA61EAC1E2B
:1055C000A127C927AB28C927AB28FC271C28AB2853
:0455D00070287C289B
:1055D40001000000010001000100010001000100C0
:1055E40001000100010001000100010000000000B1
:1055F40000000000B3020000000000009A02BA029A
:10560400010102000400040401191A1B1C1D1E1FC1
:10561400202122280850011E0A140100000100A4C0
:1056240021C822C322BE22B922E200E900EA00B561
:1056340000B600B700CD008301CC008A019201942A
:10564400012102230224022502260227022A02B390
:1056540000B4006F0070009F01CB019F02A0028183
:105664008283E200E900EA00B500B600B700CD008D
:105674008301CC008A0192019401210223022402B5
:105684002502260227022A02B300B4006F0070002C
:105694009F01CB019F02A002818283F0F1F4F567A0
:1056A400F7F60001020202020606060909090909C1
:1056B400090F0F0F0F0F0F151515181919191919AF
:1056C400191919191923242525252525254F1A517A
:1056D4001A5C1A671A00FF0100010000FFFF0000B6
:0A56E400010001FF009196903500CF
:00000001FF
