:100000000C94C6010C940D020C940D020C940D027C
:100010000C940D020C940D020C940D020C940D0224
:100020000C940D020C940D020C9464230C9438244F
:100030000C94D11B0C940D020C940D020C940D0227
:100040000C940D020C940D020C940D020C940D02F4
:100050000C940D020C941C1C0C940D020C940D02BB
:100060000C940D020C940D020C940D020C940D02D4
:100070000C940D020C940D020C940D020C940D02C4
:100080000C940D020C940D020C940D020C940D02B4
:100090000C940D020C940D020C940D020C940D02A4
:1000A0000C940D020C940D020C940D02C800BE00BD
:1000B000B400000000042BFF78FF000000000004E3
:1000C00055FF78FF000000000004BFFF78FF00002C
:1000D00000002B05F500F000F4005108F200F100DB
:1000E000F300F6001150125000001F052A011B02F8
:1000F00013022B020A000800060010501150125083
:1001000000001E052F0130011A002B0214001505F6
:1001100015001050115012500000000101010101A2
:1001200001010101020202020202020202030303B0
:100130000303030303040404040404040505050580
:100140000506060606060707070707080808080940
:100150000909090A0A0A0B0B0B0C0C0C0D0D0D0EEC
:100160000E0E0F0F0F101011111112121313141481
:10017000151516161717181819191A1A1B1B1C1DF6
:100180001D1E1E1F2020212222232424252626274F
:100190002829292A2B2C2D2D2E2F30313232333481
:1001A00035363738393A3B3C3D3E3F404142434487
:1001B00045464748494A4C4D4E4F50515354555669
:1001C00058595A5B5D5E5F616264656668696B6C15
:1001D0006D6F7072737577787A7B7D7E8082838590
:1001E00087888A8C8E8F91939596989A9C9EA0A2D0
:1001F000A3A5A7A9ABADAFB1B3B5B7BABCBEC0C2DA
:10020000C4C6C9CBCDCFD1D4D6D8DBDDDFE2E4E79D
:10021000E9EBEEF0F3F5F8FAFDFF0403300000001F
:1002200010034C0079006E006500700061006400EE
:1002300000000A0351005600450058000000040366
:10024000090409023B00020100A0FA0904000001B0
:10025000030101000921110100012240000705816D
:100260000308000A0904010001030000000921112C
:1002700001000122BC000705820320000A120110C0
:1002800001000000085651504C0100010203010515
:10029000010902A10185020901A10005091901292D
:1002A00005150025019505750181029501750381EC
:1002B000010501093009311581257F9502750881F5
:1002C0000609381581257F950175088106050C0AF8
:1002D00038021581257F950175088106C0C005018A
:1002E0000980A101850319012AB700150126B7006D
:1002F000950175108100C0050C0901A10185041943
:10030000012AA002150126A002950175108100C0E6
:1003100005010906A1018505050719E029E7150072
:1003200025019508750181020507190029EF1500BF
:10033000250195F07501810205081901290595052A
:1003400075019102950175039101C005010906A18E
:1003500001050719E029E7150025019508750181B8
:10036000029501750881010507190029FF1500266E
:10037000FF009506750881000508190129059505F6
:1003800075019102950175039101C00011241FBEF2
:10039000CFEFDAE0DEBFCDBF04B603FE27C0809109
:1003A0009A0290919B02A0919C02B0919D0287308D
:1003B000904BA740B04BD1F410929A0210929B023E
:1003C00010929C0210929D0214BE84B7877F84BF56
:1003D0000FB6F894A89580916000886180936000C2
:1003E000109260000FBEE0E0F8E3099511E0A0E094
:1003F000B1E0EEE4FDE402C005900D92A23BB1072E
:10040000D9F722E0A2EBB1E001C01D92AA39B207F0
:10041000E1F70E94A4200C9469260C9400005298E5
:100420005A983E98469854985C9826982E985798D3
:100430005F9824982C980895809116019091170147
:10044000909315018093140189B182FB882780F96C
:10045000809316011092170180911201909113015F
:10046000909311018093100186B186FB882780F953
:10047000809312011092130180910E0190910F014F
:1004800090930D0180930C0189B1829581708093C6
:100490000E0110920F0180910A0190910B0190932F
:1004A00009018093080183B186FB882780F9809336
:1004B0000A0110920B01809106019091070190931F
:1004C00005018093040189B1082E000C990B892F36
:1004D000881F8827881F809306011092070180914A
:1004E000020190910301909301018093000183B177
:1004F0008295817080930201109203010C943D0358
:100500008CEA90E09093B6018093B5010E94AA17FF
:1005100080E00E94E41748E76FEF8FEB0C94220B0A
:10052000CF92DF92EF92FF926B017C0140E00E943C
:10053000AF17682F80E00E949C0B41E0C701B60115
:100540000E94AF17682F81E00E949C0B42E0C70118
:10055000B6010E94AF17682F82E00E949C0BC70172
:10056000B601FF90EF90DF90CF900895811145C0C4
:10057000662321F10E94C417882319F089EF0C9497
:100580002C1181E00E94C417882311F08FE2F7CF6D
:1005900082E00E94C417882309F46EC080EE90E0C8
:1005A0000E948A048DE290E00E948A048DE290E02D
:1005B0000E949F0480EE90E00C949F0480E00E94D3
:1005C000C417882311F08AEFDACF81E00E94C417A4
:1005D000882311F080E3D3CF82E00E94C4178823E0
:1005E00009F44AC080EE90E00E948A048EE290E016
:1005F0000E948A048EE290E0DBCF8130E9F580E052
:100600006623F9F00E94C417882311F08AEAB7CF55
:1006100081E00E94C4178111C1CF82E00E94C417FB
:10062000882351F181EE90E00E948A0482E590E0F7
:100630000E948A0482E590E00E949F0481EE90E08F
:10064000BBCF0E94C417882311F089EA98CF81E0BC
:100650000E94C4178111C6CF82E00E94C41788236C
:1006600059F081EE90E00E948A0481E590E00E94BA
:100670008A0481E590E0E0CF089580911601909181
:10068000170120911401309115018217930739F059
:1006900018161906DCF089E290E00E948A04809125
:1006A00012019091130120911001309111018217D4
:1006B000930789F0181619060CF0F4C080E00E9428
:1006C000C417882309F4EEC00C94200589E290E059
:1006D0000E949F04E4CF80910E0190910F01209120
:1006E0000C0130910D018217930771F0181619064D
:1006F0000CF45FC080E00E94C417882309F450C046
:1007000089EF90E00E948A0480910A0190910B0188
:1007100020910801309109018217930771F0181692
:1007200019060CF462C080E00E94C417882309F403
:1007300053C08AEF90E00E948A0480910601909154
:10074000070120910401309105018217930771F090
:10075000181619060CF46AC080E00E94C41788239A
:1007600009F456C08BEF90E00E948A048091020148
:1007700090910301209100013091010182179307AC
:1007800009F490C0181619060CF476C080E00E9497
:10079000C417882309F462C08CEF90E00C948A049B
:1007A00081E00E94C417882309F4AECF82E590E06F
:1007B000A9CF80E00E94C417882329F089EF90E038
:1007C0000E949F04A1CF81E00E94C417882309F4EE
:1007D0009BCF82E590E0F4CF81E00E94C41788238C
:1007E00009F4ABCF81E590E0A6CF80E00E94C4176A
:1007F000882329F08AEF90E00E949F049ECF81E039
:100800000E94C417882309F498CF81E590E0F4CFC3
:1008100081E00E94C417882319F080E590E0A4CFFE
:1008200082E00E94C4178111F8CFA0CF80E00E941F
:10083000C417882329F08BEF90E00E949F0496CF85
:1008400081E00E94C417882319F080E590E0F5CF7D
:1008500082E00E94C4178111F8CF88CF81E00E9406
:10086000C417882319F08FE490E098CF82E00E94AB
:10087000C4178111F8CF089580E00E94C41788231F
:1008800021F08CEF90E00C949F0481E00E94C4174B
:10089000882319F08FE490E0F6CF82E00E94C4171D
:1008A0008111F8CF0895CF93DF939C013A952115DC
:1008B0003F4168F5EC01CC27D170DC01AA27B2706A
:1008C000AC01442754709C012227387094FF11C05A
:1008D00080E1CD2B09F480E0AB2B09F08062452B41
:1008E00009F08064232B09F08068FB01DF91CF9130
:1008F000099481E0CD2B09F480E0AB2B09F08260F4
:10090000452B09F08460232B81F38860EECFDF91C3
:10091000CF910895CF93DF93EC01805E9109089702
:1009200020F065EA73E1209711F46FE371E1CE01E5
:100930000E9453048C2FDF91CF910C94AF10CF9372
:10094000DF93EC010E94FD10CE01805E91090897B3
:1009500020F06CEA73E1209711F466E471E1CE01B6
:10096000DF91CF910C94530481E0089581E00895C4
:100970000C94B60408950C94BA041F93CF93DF939C
:1009800000D000D00F92CDB7DEB749835A836B8376
:100990003091CF0189819A8131111DC06623B9F050
:1009A0002223A9F00E94D318182F682F89819A81D9
:1009B0000E94801869817A81812F0F900F900F908B
:1009C0000F900F90DF91CF911F910C9475050E94AD
:1009D000AC18182FEFCF0E94D31869817A81EDCF20
:1009E000FC01262F408151816281738184810C94A6
:1009F000BD04CF93DF93EC0160E00E94F004BE01E0
:100A0000DF91CF910C94BB040E94531C0E941D1ACD
:100A1000811102C00E94BA1A0C9481070C941C0226
:100A200008950C94100581E008950C941305CF935C
:100A3000C82F0E9411058C2FCF910C941505089595
:100A40000E94C9130E941F052FEF84E39CE02150F0
:100A500080409040E1F700C000000C94401C0F93D0
:100A60001F93CF93DF93EC0161E00E94F0048C01AF
:100A7000BE010E94B804882359F1BE01C8010E943A
:100A8000C20D882329F1BE01C8010E94140E8823DB
:100A9000F9F0BE01C8010E94370F8823C9F0BE01DA
:100AA000C8010E94BE0B882399F08A81882339F0FF
:100AB00001158CE5180751F00E3D1C4579F0CE016B
:100AC000DF91CF911F910F910C94B4040E942005E7
:100AD00080E0DF91CF911F910F9108950E94BA1A83
:100AE000F7CF90E080E008950895E72FF0E093E0DD
:100AF000899FE00DF11D1124EE0FFF1FEE0FFF1F68
:100B0000E60FF11DEE0FFF1FEE52FF4F85919491FE
:100B10000895FC01EE0FFF1FE65EFE4F8591949154
:100B20000895CF93DF930E9475050E94A606EC01FD
:100B3000811520E5920708F042C0811530E4930743
:100B400008F0BDC0883E910528F5803E910508F06B
:100B50009DC0883A910588F4853A910508F08FC0C8
:100B60008130910509F492C0009709F48FC0049771
:100B700008F08CC0D0E0C0E089C08F3B910508F43C
:100B800089C0805C9109C03CD105A0F30E94890511
:100B9000EC017CC08115904250F4C11581E0D8076A
:100BA00008F074C0C03FD10528F3D0656FC0C115EF
:100BB00090E3D90708F079C0CE019F70E7CF811587
:100BC00025E5920758F5811534E5930708F0A6C08E
:100BD000811542E5940750F4C11581E5D80708F462
:100BE00071C0DC2FCC27C16FD06A50C0982F96956A
:100BF00096959E0123703327C115D34508F07FC019
:100C0000C1E0D0E002C0CC0FDD1F2A95E2F720E260
:100C1000929FC0011124C82BD92B6FC0C11589E543
:100C2000D807A8F4C11598E5D90708F07CC0C1150C
:100C300026E5D20708F09ECF8C2F0E943D07C82FD3
:100C4000D0E0DC2FCC27CC27DF71D0621FC0C115CC
:100C50003AE5D30708F46CC0CE0190568115904256
:100C600008F088CF8D2F8F710E943D0790E0982F5C
:100C7000882788279F719C012C2BE901E6CFC55A54
:100C8000D0E0C05ADE4FC881D0E0D064CE01DF9101
:100C9000CF910895C85AD0E0CC0FDD1FCE5CDE4F57
:100CA0000990D881C02DD464F1CFCE019927D3FF0C
:100CB00003C0EC01D86CEACFEC01D06CE7CFDF7059
:100CC000D06AE4CFCE01E4E096958795EA95E1F706
:100CD00083702C2F26952695237090E2299F9001F2
:100CE0001124382B8C2F8370C1E0D0E002C0CC0FD0
:100CF000DD1F8A95E2F7C22BD32BDC68C7CFC1E09A
:100D0000D0E002C0CC0FDD1F2A95E2F730E2939FBE
:100D1000C0011124C82BD92BDA68B8CFD82FCC2723
:100D2000C46FD06AB3CFDC2FCC27C06FD06AAECFF0
:100D30008C2F8F700E943D0734E0D695C7953A9569
:100D4000E1F7CF709C2FEC01D069A0CF82389105DC
:100D5000B1F1B0F48133910509F475C048F48932DA
:100D6000910509F469C08A32910509F473C00895A8
:100D70008533910509F459C08933910501F108952E
:100D8000833E9105A9F138F4803E9105F9F0823E49
:100D9000910549F10895863E9105A9F1873E910597
:100DA000C9F1843E910519F520918C0221FF1FC0E5
:100DB00080918B0284FD14C087EE90E0089520910D
:100DC0008B022370A1F080EE90E0089520918B02B9
:100DD00020FD47C030918C0230FF09C024FF44C081
:100DE00090E080E004C020918B0222FDF7CF0895AF
:100DF00020918B0222FD3BC030918C0230FDE3CF6D
:100E000024FFF5CFEDCF20918B0223FFF0CF24FDFF
:100E1000E7CFD2CF20918B0223FD2CC030918C02E2
:100E200031FFEECF84EE90E0089520918B0225FFF4
:100E3000DECF89E290E0089520918B0225FFD7CF85
:100E400085E390E0089520918B0226FFD0CF8AE2BF
:100E500090E0089520918B0226FFC9CF81E390E0B6
:100E6000089589E390E0089583EE90E0089582EE7E
:100E700090E0089586EE90E0089590918B0292FFA5
:100E800006C0282F28712830F9F4877F846093FFEB
:100E900006C0282F28712831F1F4877E84612091C3
:100EA0008C0220FF06C0382F38713830D9F4877F84
:100EB000816021FF06C0282F28712831D1F4877E58
:100EC000816194FD877E0895282F24712430F9F6DE
:100ED0008B7F8860DCCF282F2471243101F78B7E33
:100EE0008861DDCF382F3171313019F78E7F8860FE
:100EF000E0CF282F2171213121F78E7E8861E1CF4B
:100F000008950C948007E82FF0E0ED58FD4F8081A4
:100F10000895089580EA8A95F1F70895CF93DF93B5
:100F2000A7E6B1E04AE651E0C1E0D0E08D91E82FBC
:100F3000E295EF70F0E061A18F709E0101C0220F79
:100F40008A95EAF7922F9095962391A382A1822BFE
:100F500082A34A175B0751F7A3E6B1E047E651E0E9
:100F6000C1E0D0E08D91E82FE295EF70F0E061A153
:100F70008F709E0101C0220F8A95EAF7922F9095FB
:100F8000962391A382A1822B82A34A175B0751F774
:100F900010927002109273021092710210927402F9
:100FA000109272021092750283E00E945B08DF913A
:100FB000CF910C9404058F929F92AF92BF92CF92E3
:100FC000DF92EF92FF920F931F93CF93DF9387E609
:100FD000A82E81E0B82E00E712E0912CCC24C39417
:100FE000D12CF50181915F01C82FC295CF70D0E05F
:100FF00099A18F70760101C0EE0C8A95EAF7892FCE
:101000008E2989A38AA18E2C809488218AA30E948C
:101010008A07E3E6F1E050E040E020E03191A32FC1
:10102000A295AF70B0E090968C9190E03F7002C0B6
:10103000959587953A95E2F780FD39C08C2D042E61
:1010400001C0880F0A94EAF7282B4F5F5F4F4430A6
:10105000510521F789A1882289A28AA1E82AEAA25A
:10106000F8018081281729F1208381E0982A0F5FF9
:101070001F4FFAE6AF16F1E0BF0609F0B2CF292DF7
:1010800043E063E772E080E792E00E945C080E9420
:101090000E05892DDF91CF911F910F91FF90EF9059
:1010A000DF90CF90BF90AF909F908F90089580E099
:1010B000CBCF80E0DBCF0895FF920F931F93CF93A8
:1010C000DF93F82E092F162FD72FC42F222349F094
:1010D00081E08093B4010E94011C9093B30180933E
:1010E000B2018091B4018823A1F08091B201909166
:1010F000B3010E940D1C069760F0EF2DF02FA12F79
:10110000BD2FCE0FDF2FD11DEC17FD0741F410923C
:10111000B401DF91CF911F910F91FF9008958191BC
:101120008D93F2CFEF92FF920F931F93CF93DF93A4
:10113000EB01E82FD11110C0442321F0F0E0E65E6E
:10114000FE4FE4916E2F7E2F8E2FDF91CF911F9156
:101150000F91FF90EF9008950D2F10E0282F30E0B1
:10116000442329F0265E3E4FF901249130E0F6E059
:10117000CF9FC0011124EFEFF0E0BF010E94EA25EC
:10118000AB018C2F90E0880F991FA5E5A49FB001BB
:10119000A59F700D1124861B970B982F990F980F00
:1011A000BF01601B710B629FD001639FB00D729FE6
:1011B000B00D11248B2F9D9FB0011124672F77272D
:1011C000EF01C61BD70BBE01629FE001639FD00DEC
:1011D000729FD00D11247F01E91AF108E09EB00141
:1011E000E19E700DF09E700D1124672F7727E61B8E
:1011F000F70BE29F8001E39F100DF29F100D112469
:10120000E12F722F4230510599F048F441155105F4
:1012100069F04130510581F0EB2F8D2F07C044302C
:10122000510569F080F046305105B1F76E2F8DCF32
:10123000E22F7B2F812FFACFE22F7D2FF7CFEB2FDD
:10124000822F712FF3CF7B2F822FED2FEFCF41E035
:101250000C949208CF93DF93762FE901682F842FA7
:101260000E942709798368838A83DF91CF9108954B
:10127000413F08F040EF0C942A0980917602982FA4
:101280009E7F71F4809176028170826080937602F5
:1012900080917902813F18F080EF80937902089560
:1012A000843080F7F5CF88E090E00C942926CF9227
:1012B000DF92EF92FF926B017C010E943D09B70122
:1012C000A60188E090E0FF90EF90DF90CF900C9423
:1012D0004726E6E7F2E083E0808311828FEF828386
:1012E00080EF8383148260817181828193810C9469
:1012F000570990917A02933018F49F5F90937A0285
:10130000882351F060917602709177028091780283
:10131000909179020C945709089581E00C94790911
:1013200090917A02992319F0915090937A02882330
:1013300051F06091760270917702809178029091DD
:1013400079020C945709089581E00C94900921E0EA
:1013500030E001C0220F8A95EAF79091BA019223FA
:1013600081E009F480E0089570E00C94160C6F920F
:101370007F928F929F92AF92BF92CF92DF92EF9225
:10138000FF920F931F93CF93DF9300D000D00F9263
:10139000CDB7DEB7709019019091760290FF26C00C
:1013A000C090B501D090B601C114D10489F58091E7
:1013B000180133E0839FC0011124672D85589D4F8C
:1013C0000E94B4090F900F900F900F900F90DF9133
:1013D000CF911F910F91FF90EF90DF90CF90BF9032
:1013E000AF909F908F907F906F90089580911A0199
:1013F00020911B0133E0839FF0011124E558FD4F3C
:10140000821770F61182108212828F5F3396F8CFA6
:1014100090FFCDCFF12CE12C43E0642E8E2D0E9465
:10142000A709882309F43CC0F701EE0FFF1FEC0D5C
:10143000FD1DA590B490A114B10409F4B8CF45E006
:1014400050E0B501CE0101960E94182609810F3F98
:1014500039F18A81800F9927991F8530910514F001
:1014600084E090E04C01880C991C880D991D9C012A
:1014700025583D4F4901069D8001112405581D4FF7
:101480000815190520F035E0A30EB11CD8CF98013E
:101490004D816C818B810E9438090D5F1F4FF0CF09
:1014A0008FEFE81AF80A28E0E216F10409F0B6CF47
:1014B0007ECFE6E7F2E080818E7F8083608171815C
:1014C000828193810E9457092FEF80E792E021509B
:1014D00080409040E1F700C000000C94B709909163
:1014E000760290FF14C090911A0120911B0133E005
:1014F000939FF0011124E558FD4F921710F00C94C2
:10150000B7098183608342839F5F3396F6CF089546
:10151000EF92FF920F931F93CF93DF9300D00F9220
:10152000CDB7DEB7F82E062F142FE22E809176026B
:1015300080FF28C0E82FE695F0E0E659FE4F908145
:101540009093B8018E7F823059F49E012F5F3F4FF8
:101550008F2D0E9438094B8169818A810E946F0A10
:10156000F09277020093780210937902EE2051F006
:101570006091760270917702809178029091790261
:101580000E9457090F900F900F90DF91CF911F91FC
:101590000F91FF90EF900895E6E7F2E09181282FF8
:1015A0004381628188E0890F0C94880A81E00C9461
:1015B000CC0AE6E7F2E09181282F4381628188EF2F
:1015C000890F0C94880A81E00C94D90AE6E7F2E0CE
:1015D000628128E0620F08F46FEF282F4381818138
:1015E0000C94880A81E00C94E60AE6E7F2E0628156
:1015F00028E0621B08F460E0282F438181810C946D
:10160000880A81E00C94F50AE6E7F2E0438128E0DD
:10161000420F08F44FEF282F628181810C94880AD1
:1016200081E00C94040BE6E7F2E0438128E0421BE2
:1016300008F440E0282F628181810C94880A81E0BF
:101640000C94130B20E00C94880A8091760280FFA2
:1016500018C08170826080937602662351F0609199
:1016600076027091770280917802909179020E94BF
:1016700057094091790260917802809177020C9429
:10168000220B0895682F81E00C94250B81E00C94C7
:10169000420B682F9091760296958FEF890F09F48F
:1016A00081E00C94250B81E00C94490B61E00C94D3
:1016B000250BE6E7F2E080818160808386950C94BB
:1016C000560B8091760280FD0C94590A0C94590BAC
:1016D00060E00C94250B8091B70181112CC00E9411
:1016E0001D1A811104C00E94BA1A0E9469090E9441
:1016F00053096093760270937702809378029093F7
:1017000079026E7F61F40E9469090E945309609317
:1017100076027093770280937802909379020E9408
:101720003D098091760280FF03C086950E94680B78
:1017300081E08093B701089521E030E0A90102C063
:10174000440F551F8A95E2F7CA012091BA0166231A
:1017500061F0822B8093BA018091B901811108C098
:101760008091760286950C94680B80958223F2CF47
:101770000895FA01811101C0FB0109940F931F9391
:10178000CF938C01FB01C281CC2309F44DC00E9490
:1017900068198272F801E25CFC45E431F10538F425
:1017A000E559F94D0C9412260E94610BC0E08C2F74
:1017B000CF911F910F91089543E55BE066E47BE0D4
:1017C0000E94B90BF3CF46E45BE063E57BE0F8CF22
:1017D00043EE5AE066ED7AE0F3CF46ED5AE063EE71
:1017E0007AE0EECF41E05BE062EF7AE0E9CF42EFF2
:1017F0005AE061E07BE0E4CF4FE15BE060E17BE059
:10180000DFCF40E15BE06FE17BE0DACF44EA59E013
:101810006DE879E0D5CF4DE859E064EA79E0D0CFC2
:1018200081E00E94560BC2CFC1E0C1CF539A4BB1A9
:10183000477F5BB15860EFB7F8949B01220F331FCD
:10184000260F371F280F391F2817390741F4EFBF1C
:101850008FE594E00197F1F700C000000895DC01E6
:101860006D91CD0178E05BB9000000C067FF4BB916
:10187000660F000000C000C000C04BB900C07A95E0
:1018800091F7E2CF0C94B602AF92BF92CF92DF9263
:10189000EF92FF920F931F93CF93DF93AEE7B1E0E8
:1018A0002CE731E08FEBA82E81E0B82E60E871E0E4
:1018B00041E050E00D91802F82958F7090E0FC0107
:1018C000C1A10F707A01002E01C0EE0C0A94EAF754
:1018D000FE2DF095CF23FC01C1A3C2A1CE29C2A346
:1018E000E90119919E01E12FE295EF70F0E0F1A07E
:1018F0001F706A01012E01C0CC0C0A94EAF7EC2C8F
:10190000E094EF20E1A2F2A0FC28F2A2EC0188A171
:1019100090E002C0959587950A95E2F78170E0A165
:10192000F0E002C0F595E7951A95E2F790E0E0FD4A
:1019300092E0892BF50181935F016A177B0709F01B
:10194000B9CFDF91CF911F910F91FF90EF90DF9072
:10195000CF90BF90AF9008959F92AF92BF92CF92D9
:10196000DF92EF92FF920F931F93CF93DF930FEBD2
:1019700011E08EE7C82E81E0D82E9CE7E92E91E099
:10198000F92E2DEBA22E21E0B22ECBEBD1E0912C43
:10199000D801EC91EE0FEE0FED938D01D6012D9154
:1019A0006D01A22FA295AF70B0E090968C9190E05F
:1019B0002F7002C0959587952A95E2F78170992737
:1019C000D7014D917D01A42FA295AF70B0E0909604
:1019D0002C9130E04F7002C0359527954A95E2F77B
:1019E000A9014170552720FF02C042E050E0842B3E
:1019F000E82BD8011197EC93EF70F0E0E459FE4F1B
:101A00008081F5019081890F808384303CF088814A
:101A10008F5F888360E0892D0E94420CD5018C91F4
:101A20008D3F3CF488818150888361E0892D0E943C
:101A3000420CF5018081837887FF03C081508C6F51
:101A40008F5FD5018D935D012196B1E09B120CC093
:101A5000DF91CF911F910F91FF90EF90DF90CF908A
:101A6000BF90AF909F9008959924939491CFAF9297
:101A7000BF92CF92DF92EF92FF920F931F93CF937B
:101A8000DF937C015B01C42FD22FFC01828188236C
:101A9000F9F04093C3010E94011C9093C20180930E
:101AA000C10180E28C0F883008F061C0C77081E00E
:101AB00001C0880FCA95EAF7DF91CF911F910F916E
:101AC000FF90EF90DF90CF90BF90AF900C943F11BC
:101AD0001091C301141340C08091C1019091C201C3
:101AE0000E940D1C6C01B701C5010E943F16C8166B
:101AF000D90690F5C0E2CD0F1D17B9F080E2810F35
:101B0000883040F4177081E001C0880F1A95EAF719
:101B10000E944611C83048F481E09D2F977001C0A3
:101B2000880F9A95EAF70E943F11802F0E942C118E
:101B3000C830E8F4D77081E001C0880FDA95EAF781
:101B4000DF91CF911F910F91FF90EF90DF90CF9099
:101B5000BF90AF900C94461180E28C0F883038F41F
:101B6000C77081E001C0880FCA95EAF7E9CFDF911D
:101B7000CF911F910F91FF90EF90DF90CF90BF908A
:101B8000AF9008950F939C01CB01233F4CE53407A0
:101B900059F1A8F4283DFCE53F0701F1293D4CE54A
:101BA0003407D1F1273D3C4591F406E221EE41EEA8
:101BB00067ED7CE50E94370D80E00F910895253F89
:101BC000FCE53F07E9F0B0F0263F3C45F9F0FC01A9
:101BD0008281882339F11092C301EFCF07E225EE0D
:101BE00045EE68ED7CE5E6CF06E221EE40EE63EFE0
:101BF0007CE5E0CF07E225EE44EE64EF7CE5DACF4A
:101C000006E221EE42EE65EF7CE5D4CF07E225EE59
:101C100046EE66EF7CE5CECF08E221E045EE69EDC9
:101C20007CE5C8CF81E0C9CFCF93DF93EC01FB0106
:101C30008281882309F419C1C230FCE5DF07C0F1B5
:101C4000C6319CE5D90730F09E012A5F3C4529301A
:101C5000310570F50E94301A90938C0280938B02AC
:101C6000C031ECE5DE0709F4CFC008F05BC0C83036
:101C70008CE5D80709F4B6C088F5C430ECE5DE077A
:101C800009F4A8C0C0F4C2308CE5D80709F49CC0A0
:101C900080918B028260C330DC4509F498C080914A
:101CA0008B0290918C020E943E1A0E94C91380E020
:101CB000DF91CF91089580918B028061C630ECE571
:101CC000DE0709F484C080918B028860C730DC4550
:101CD00008F47DC080918B02806279C0CC308CE5A5
:101CE000D80709F489C070F480918B028C60CA30E7
:101CF000ECE5DE0709F46BC008F478C080918B0234
:101D00008E7F65C0CE308CE5D80709F479C080910C
:101D10008B028B7FCF30DC4508F459C080918B0259
:101D20008F7E55C0CB3FECE5DE0709F457C030F598
:101D3000C3318CE5D80709F46FC078F4C131ECE504
:101D4000DE0709F465C0C231DC4509F0A8CF0E9466
:101D5000C91380918B028F773AC0C5318CE5D807C3
:101D600009F462C008F476C080918C028160CA3F99
:101D7000DC4509F094CF80938C0291CFCF3FFCE5F6
:101D8000DF0709F44DC088F480918C028D7FCD3F30
:101D90009CE5D90781F380918C028E7FCE3FDC4594
:101DA00050F380918C028360E6CFC130FDE5DF0700
:101DB00009F459C008F444C080E0C230DD4509F0A0
:101DC0006ECF0E94BC1A6BCF80918B028160809392
:101DD0008B0265CF80918B028460F9CF80918C0259
:101DE0008260C9CF80918B028064F1CF0E94C913B9
:101DF00080918B028068EBCF80918B028D7FE7CF43
:101E000080918B02877FE3CF80918B028F7DDFCF24
:101E100080918B028F7BDBCF80918B02837FD7CF2A
:101E200080918C028C7FA7CF80918B0282FB9927B7
:101E300090F921E0922790FB82F990FB83F9C7CFBC
:101E400080918C02982F909591708E7F892B90FBBA
:101E500081F991CF0E94C91390918B02892F97FB32
:101E600087F98058B4CF81E0ACCF81E021CFCF9308
:101E7000DF93EB0186319C4511F50E9468199A8128
:101E8000992399F08A7A91E009F490E09093C40143
:101E9000811109C089E20E9443190E94B41980E0AF
:101EA000DF91CF91089585E3F6CF8091C401811130
:101EB00004C089E20E944A19F0CF85E3FBCF81E09C
:101EC000EFCF9093CA018093C9010895E091C901B1
:101ED000F091CA01309721F00190F081E02D099432
:101EE00080E00895E091C901F091CA01309799F01E
:101EF00020913101222359F020918B0227FF07C046
:101F0000DC012C9111962C93119725E02C930280E3
:101F1000F381E02D09940895E091C901F091CA017F
:101F2000309739F022E0DC012C930480F581E02D1C
:101F3000099408952091C7013091C80128173907E5
:101F400071F09093C8018093C701E091C901F091AD
:101F5000CA01309721F00680F781E02D0994089599
:101F60002091C5013091C6012817390771F090936F
:101F7000C6018093C501E091C901F091CA01309773
:101F800021F00084F185E02D0994089585B78068DB
:101F900085BF85B7806885BF089508950C94800239
:101FA0000E94C60F0E94CD0F0C940F0281E008958D
:101FB0000C94D60F0E94F81B0E948E070E946A1C88
:101FC0000E946B0B0E94440C0C94CE0FBF92CF92D8
:101FD000DF92EF92FF920F931F93CF93DF93CDB7D2
:101FE000DEB72A970FB6F894DEBF0FBECDBF0E94B2
:101FF000DB070E94D80F882309F461C08CECC82E3F
:1020000081E0D82E10E000E0B02E802F0E948307E0
:10201000E82EF601F1906F01F81609F44AC080919C
:102020003F0281FD0E9489079F2D9E2580E0FF24AD
:10203000F394292F2F21C1F18E83BF82EF2081E0FD
:1020400009F480E088870E94011C8160782F9A87BC
:1020500089874E815F8168858A850E948010F8019A
:10206000E453FE4F8081F826F0820E94AC0C0E945F
:10207000151E0E94660F9091CB01891789F10E946D
:10208000660F8093CB012A960FB6F894DEBF0FBE81
:10209000CDBFDF91CF911F910F91FF90EF90DF9017
:1020A000CF90BF900C9417058F5FFF0C843009F020
:1020B000C0CF0F5F1F4F0330110509F0A5CF8FEF81
:1020C00089838A831B820E94011C8160782F9D83F3
:1020D0008C8349815A816B818D810E948010C5CF8C
:1020E0002A960FB6F894DEBF0FBECDBFDF91CF9119
:1020F0001F910F91FF90EF90DF90CF90BF900895C8
:10210000CF93DF93CDB7DEB72B970FB6F894DEBF32
:102110000FBECDBF4F83588769877A878B871E8212
:102120001D8285E0FE013796DE01119601900D9229
:102130008A95E1F749815A816B817C818D819E81ED
:102140002B960FB6F894DEBF0FBECDBFDF91CF91B7
:102150000C944216FC01808191810C941519CF9347
:10216000C82F882309F447C08CEF8C0F813AA0F464
:102170006C2F80911D0190911E010E94D51A882319
:1021800029F08C2F0E944A190E94B4198C2F0E94AA
:102190004319CF910C94B41980E28C0F883048F425
:1021A000C77081E001C0880FCA95EAF70E946B19D9
:1021B000F0CFEBE5EC0FE33040F4F0E0E255FE4FFA
:1021C000808190E0CF910C949A0FE8E5EC0FE73115
:1021D00050F4F0E0EE0FFF1FE058FE4F8081918138
:1021E000CF910C94B00FC03F30F08C2F0E940F1D88
:1021F000CF910C94FA1DCF910895882361F19CEF43
:10220000980F913A20F40E944A190C94B41990E264
:10221000980F983050F4877091E001C0990F8A951B
:10222000EAF7892F0E947119F0CF9BE5980F933040
:1022300020F490E080E00C949A0F98E5980F973185
:1022400020F490E080E00C94B00F803F20F00E94DA
:10225000771D0C94FA1D0895CF93C82F0E94AF10DC
:10226000C93349F42FEF87EE93E02150804090402E
:10227000E1F700C000008C2FCF910C94FD10882353
:1022800021F00E946B190C94B4190895882321F051
:102290000E9471190C94B4190895BF92CF92DF92E5
:1022A000EF92FF920F931F93CF93DF936C01D62F82
:1022B000C72FFC01058102950F70128111110E9438
:1022C00088190E946119E82E882391F01123D1F01A
:1022D0008C2F807F803421F080E28D0F883090F049
:1022E00082E00E94FF190E94611991E0E82EE92620
:1022F000BC2EB2949FE0B922EB2DF0E0E158F94DED
:102300000C941226E12CF4CF0C2F0F70C07F11F02B
:102310000295007F1123A9F0002359F080E28D0F70
:10232000883010F0D11109C0802F0E946B190E94D3
:10233000B4198D2F0E94AF1014C0802F0E947B19FA
:10234000F6CF8D2F0E94FD10002359F080E28D0FF3
:10235000883010F0D1112CC0802F0E9471190E947A
:10236000B4192B2D2850330B2430310520F40E9452
:10237000660F0E941705EE2009F49EC10E945D19A8
:1023800080FD9AC1F60112820E9457190E94E4173B
:10239000C6010E947D130E945719DF91CF911F91B2
:1023A0000F91FF90EF90DF90CF90BF900C940518A5
:1023B000802F0E948119D3CFFC2FFF70FF2EC07F8A
:1023C000C03219F0F29480EFF822DD2369F0D130A9
:1023D00049F1112391F1002351F1F601858180FF2C
:1023E000A8CF8F70858323C0112381F0011106C00F
:1023F0000E949B198F290E943F11B3CF0130C1F772
:102400000E949B198F290E94A119ABCF011106C010
:102410000E94AA198F2D0E944611A3CF013009F402
:10242000A0CFF6CF112329F0063008F09ACF8F2DD8
:10243000E2CF053008F095CFEDCF002359F3D93323
:1024400049F4FFEF27EE33E0F15020403040E1F750
:1024500000C000008D2F0E94FD1083CF8C2F869529
:102460008695837069F0813009F07BCF8D2F9C2F8A
:102470009370111102C090E080E00E94B00F71CF04
:102480008D2F9C2F9370111102C090E080E00E946C
:102490009A0F67CF8D2F112329F00E940F1D0E94E4
:1024A000FA1D5FCF0E94771DFACF8C2F837009F041
:1024B00041C0111156CF4D2F429546954770440F9C
:1024C000440F0D2F0F7010E030E020E0042E04C008
:1024D000000F111F221F331F0A94D2F760E070E033
:1024E000CB01D4FF0FC06FE070E080E090E004C04B
:1024F000660F771F881F991F4A95D2F760957095D0
:1025000080959095C695C695C370602B712B822BD4
:10251000932BC23049F058F4C13019F00E9478175B
:1025200020CF0E9466171DCF0E948A171ACF0E94E3
:10253000641717CF8695112311F08C2F8170882393
:1025400009F40FCF4D2F429546954770440F440F25
:102550000D2F0F7010E030E020E0042E04C0000FBB
:10256000111F221F331F0A94D2F760E070E0CB01E5
:10257000D4FF0FC06FE070E080E090E004C0660F11
:10258000771F881F991F4A95D2F76095709580959F
:102590009095C695C695C370602B712B822B932B9B
:1025A000C23049F058F4C13019F00E945B18D9CEFE
:1025B0000E944918D6CE0E946D18D3CE0E949E1755
:1025C000D0CECF70112329F08C2F0E94E4178D2FCD
:1025D00012CF8D2F0E9446118C2F0E940518C1CE5C
:1025E000D23F89F160F4D03FC9F0D13F29F11123E6
:1025F00009F442C001119DCE8C2F8F7121C0D33FB1
:1026000039F1D43FA1F7112369F1CF718C2F0E94CA
:10261000E41763E08C2F0E94EA19A3CE112341F046
:10262000053008F09ECE8C2F8F710E94281899CE0D
:10263000063008F096CEF7CF8C2F8F71112369F2F8
:102640000E94E4178ECE8C2F8F711123C9F3C5CF52
:10265000112329F08C2F8F710E94CF1782CE0E94F8
:10266000AA177FCE81E00E94FF19023008F479CECC
:1026700082E00E94FF1975CE002359F0D93309F08A
:10268000E9CE8FEF97EEE3E081509040E040E1F734
:10269000DFCE8C2F8F71A1CF4C2F4F706D2FC601C5
:1026A0000E9471050E94DC165CCE4C2F4F706D2F7E
:1026B000C6010E94740555CEDF91CF911F910F91F5
:1026C000FF90EF90DF90CF90BF9008950F931F93EE
:1026D000CF93DF93EC01688179818A810E941F1971
:1026E0008C010E947F180E946317B801CE01DF9110
:1026F000CF911F910F910C944D11CF93DF93EC016B
:102700008B819C81892B29F08881998189238F3F36
:1027100059F4DF91CF910895CE010E946613CE0146
:10272000DF91CF910C94F904CE010E942F05811105
:10273000F3CF0E946119882361F38A81882349F3CA
:1027400082E0DF91CF910C94FF19882321F00E9441
:102750007B190C94B4190895882321F00E948119E3
:102760000C94B41908950E9488190E9498190E9427
:10277000B4190E94211F0E94FA1D90E080E00E947F
:102780009A0F90E080E00C94B00F0E9451190C94C5
:10279000B3130E9478190C94C513E92FE295EF70DA
:1027A000E250EE3070F4F0E0E157F94D0C9412264F
:1027B000803F19F020F4883E20F481E00895843FA2
:1027C000E1F380E00895883EC0F3813FD1F7F5CF73
:1027D00093FB882780F908950E9415190C94CD1356
:1027E000CF93DF9300D000D00F92CDB7DEB70F901C
:1027F0000F900F900F900F90DF91CF910895CF938E
:10280000DF9300D000D000D0CDB7DEB726960FB64C
:10281000F894DEBF0FBECDBFDF91CF9108951F9317
:10282000CF93DF93C091D00116E08091D1018C133A
:1028300004C0DF91CF911F910895D0E01C9FF0015B
:102840001D9FF00D1124EE52FE4F40815181628197
:102850007381848195810E94FF132196C770E5CF13
:1028600040910202509103026091040270910502AE
:1028700080910602909107020C94FF131F93CF934F
:10288000DF9380910702807FA9F48091040288235E
:1028900089F08091D001C091D101609102027091C4
:1028A0000302A0910502B0910602D62FD72316E0AD
:1028B000C81304C0DF91CF911F91089590E0109745
:1028C00011F0DF3F19F401968770F2CF189F900145
:1028D000199F300D1124F901EE52FE4F418147132B
:1028E000F2CF40814613EFCF42814111ECCF4381BB
:1028F00054814A1B5B0B483C510528F78091070225
:102900008F70806180930702F901E952FE4F808148
:102910008F708061808382E092E00E947D13DF915E
:10292000CF911F910C940F14AF92BF92CF92DF9270
:10293000EF92FF920F931F93CF93DF93CDB7DEB744
:1029400061970FB6F894DEBF0FBECDBF8C0185E056
:10295000F801DE011D9601900D928A95E1F7F801CC
:1029600040815181E28082E0C82E82E0D82E6091C1
:102970000502709106026115710509F461C190911B
:10298000020220910302892F82238F3F09F458C14C
:10299000A380B480F0900402F501E61BF70BFF2042
:1029A00009F4FCC080910702382F307FE83CF10524
:1029B00008F0B2C0311179C0FE2C251323C0941346
:1029C00021C0E1101FC08F708061809307020E94B8
:1029D0003014C6010E947D1380910702F80185839F
:1029E0008F2D61960FB6F894DEBF0FBECDBFDF917D
:1029F000CF911F910F91FF90EF90DF90CF90BF90FC
:102A0000AF900895AB2829F0842F85238F3F09F0DC
:102A100033C180E0F82FF170DF2E80FF3CC0809141
:102A2000D0012091D10136E0821315C04D875E8719
:102A30008D859E850E941519292F22952F70223091
:102A4000F0F0243018F59F70F1F0F8019581907F37
:102A5000D1F4D12C1EC090E0389FF001399FF00DC9
:102A60001124EE52FE4F6181651306C0608164132C
:102A700003C062816E110FC001968770D5CF9F7021
:102A800011F0882331F3805E883018F3C8010E946A
:102A90007D13FD2CA5CFEE2009F4A2CF8091070273
:102AA000816080930702F12C9BCF251306C09413FD
:102AB00004C0F801EE2009F48DC04D875E878D8536
:102AC0009E850E94EC13882319F1EE2009F1809174
:102AD0000702803270F020910202309103023887A1
:102AE0002F831986BB86AA868C87CE0107960E9403
:102AF0007D1386E0F801A2E0B2E001900D928A9584
:102B0000E1F70E943E140E943014FF24F39468CF32
:102B1000C8010E947D13F9CF311113C07A2DB98AF3
:102B2000A88A6E2D89890E94F01382E092E00E94AB
:102B30007D1386E0F60111928A95E9F70E94301420
:102B4000B2CF25130FC094130DC0E1100BC0F801D4
:102B50008583C8010E947D1386E0F60111928A9553
:102B6000E9F73ECF4D875E878D859E850E94EC13E9
:102B7000882371F2EE2061F280910702803208F41E
:102B8000B8CF20910202309103023A8329831B823D
:102B9000BD82AC828E83CE010196A9CFE83CF105BF
:102BA00008F041C0FE2CEE2009F4B2CF25132AC054
:102BB000941328C08091070280FD1BC0982F907F3E
:102BC000C1F0F8018583903F31F0982F907F905F9E
:102BD0008F70892B8583C8010E947D1386E0F801E0
:102BE000A2E0B2E001900D928A95E1F70E943014C4
:102BF000F7CE86E0F801A2E0B2E001900D928A954E
:102C0000E1F7EECE4D875E878D859E850E94EC13A1
:102C100081116FCF80910702816080930702C80104
:102C20000E947D13DDCE7A2DB98AA88A6E2D8989FE
:102C30000E94F01386E0F60111928A95E9F7D6CF4B
:102C4000EE2009F465CF4D875E878D859E850E94B5
:102C5000EC13F82E882309F45BCF86E0F801A2E09C
:102C6000B2E001900D928A95E1F782E092E00E9435
:102C7000AA100E943E14BACF81E08E25CBCE88ECFC
:102C800090E008951F93CF93DF93CDB7DEB72C97D5
:102C90000FB6F894DEBF0FBECDBF4F83588769874C
:102CA0007A878B879C87CE0107960E94941488238D
:102CB00069F08A859B85892B39F04F815885842F4F
:102CC00085238F3F09F071C016E05FC086E0FE01EA
:102CD0003796DE01119601900D928A95E1F78A856B
:102CE0009B85892B89F38F81988589238F3F61F399
:102CF0002091D10130E0C901019687709927409158
:102D0000D0014817190671F40E94C9131092D1011D
:102D10001092D00186E0E2E0F2E0DF011D928A9598
:102D2000E9F7D2CF96E0929FD001939FB00D112486
:102D3000AE52BE4FFE01319601900D929A95E1F789
:102D40008093D1010E940F14BFCF819FC001112435
:102D50008E529E4F0E9494148823E9F0E091D00196
:102D60001E9FF0011124EE52FE4F4081518162817D
:102D70007381848195810E94FF138091D00190E03E
:102D80000196877099278093D0018091D00190910E
:102D9000D1018913DACF2C960FB6F894DEBF0FBE9F
:102DA000CDBFDF91CF911F91089569857A858B857D
:102DB0009C850E94FF1388CFEF92FF920F931F9381
:102DC000CF93DF938C01892B81F0F12CEE24E394D7
:102DD000E8012196F8018491843770F4843008F07A
:102DE0005FC08130B1F08230A1F1DF91CF911F91AE
:102DF0000F91FF90EF900895853709F44CC008F4C7
:102E00003DC09CE7980F903780F78F770E94FD10A8
:102E100049C00E5F1F4FFE01849190E2980F9830D9
:102E200060F48770FE2D01C0FF0F8A95EAF78F2F9F
:102E30000E948B190E94B41902C00E94AF108F2DFE
:102E4000815030F2EFE9FFE03197F1F700C0000068
:102E5000F7CF0E5F1F4FFE01849190E2980F9830DC
:102E600050F48770FE2D01C0FF0F8A95EAF78F2F6F
:102E70000E949119DFCF0E94FD10E1CF0E5F1F4F1E
:102E8000FE01C491C150D8F28FE99FE00197F1F79C
:102E900000C00000F7CF0E5F1F4FFE01F490CFCFB0
:102EA0000E94AF108E01CBCF08950C9454170E944E
:102EB000551760931602709317028093180290932F
:102EC00019020C94B31308950C9457170F931F9382
:102ED00000911602109117022091180230911902E8
:102EE000602B712B822B932B1F910F910C945717F2
:102EF0000F931F9300911602109117022091180250
:102F00003091190260237123822393231F910F9123
:102F10000C9457170F931F930091160210911702EC
:102F20002091180230911902602771278227932778
:102F30001F910F910C9457170C9490020E949C17AC
:102F400060931202709313028093140290931502FF
:102F50000C94B31360E070E0CB010C949E176115E4
:102F600071058105910529F481E0442361F080E039
:102F70000895DC01CB0104C0B695A7959795879578
:102F80004A95D2F781700895482F6091120270918E
:102F9000130280911402909115020C94AF170F93B5
:102FA0001F9341E050E060E070E08A019B0104C0A3
:102FB000000F111F221F331F8A95D2F7C901B801D4
:102FC0001F910F910C949E170F931F9341E050E0B7
:102FD00060E070E004C0440F551F661F771F8A959C
:102FE000D2F78091120290911302A0911402B09135
:102FF00015028A019B01082B192B2A2B3B2BC90197
:10300000B8011F910F910C949E170F931F9341E0ED
:1030100050E060E070E004C0440F551F661F771F4A
:103020008A95D2F7CB01BA016095709580959095FD
:103030000091120210911302209114023091150296
:1030400060237123822393231F910F910C949E1769
:103050000F931F9341E050E060E070E004C0440F24
:10306000551F661F771F8A95D2F7809112029091A3
:103070001302A0911402B09115028A019B01082746
:1030800019272A273B27C901B8011F910F910C94DA
:103090009E170F931F93009112021091130220911B
:1030A000140230911502602B712B822B932B1F91F0
:1030B0000F910C949E170F931F9300911202109181
:1030C0001302209114023091150260237123822390
:1030D00093231F910F910C949E170F931F930091B0
:1030E00012021091130220911402309115026027F0
:1030F0007127822793271F910F910C949E17089593
:10310000990F990F890F982F977041E001C0440FD4
:103110009A95EAF786958695869595E0899FF001C0
:103120001124E85FFD4F30E020E070E05191DF01B5
:103130001197CB01022E02C0969587950A94E2F76B
:10314000817081958527842385278C932F5F3F4F3E
:103150002530310559F70895990F990F890F982F48
:10316000977086958695869525E0829FF0011124BB
:10317000E85FFD4F50E040E080E0219130E0092E13
:1031800002C0369527950A94E2F721703327042E62
:1031900001C0220F0A94EAF7822B4F5F5F4F453040
:1031A000510559F70895BF92CF92DF92EF92FF92A7
:1031B0000F931F93CF93DF938C01C0901202D09096
:1031C0001302E0901402F090150280911602909183
:1031D0001702A0911802B0911902C82AD92AEA2A26
:1031E000FB2ACFE1D0E0BC2ED701C6010C2E04C0D3
:1031F000B695A795979587950A94D2F780FD0EC04E
:10320000219788F7B12C8B2DDF91CF911F910F91D2
:10321000FF90EF90DF90CF90BF900895B8018C2F72
:103220000E949105019761F3EECFCF93DF93EC01FC
:103230000E94D318BE01DF91CF910C9491051F938A
:10324000CF93DF93EB019091CF01992331F0CB0124
:10325000DF91CF911F910C941519882379F0CB0140
:103260000E94D318182F682FCE010E948018BE012B
:10327000812FDF91CF911F910C949105CB010E947A
:10328000AC18182FF4CF682F80911D0190911E016A
:103290000C94551B682F80911D0190911E010C9478
:1032A000601B80911D0190911E010C946B1B8091FD
:1032B0001A02859585958595089580911A028770E3
:1032C000089590911A02977081E009F480E00895C2
:1032D00080913E02089590913E02892B80933E0298
:1032E0000895809590913E02982390933E02089510
:1032F00010923E02089590913D02892B80933D02E9
:103300000895809590913D02982390933D020895F1
:1033100010923D02089590913C02892B80933C02CB
:103320000895809590913C02982390933C020895D3
:1033300010923C02089580911B02089508950C9408
:103340009E1990911B02981721F080931B020C94F8
:103350009F19089580911B02882329F010921B0267
:1033600080E00C949F190895E0911D01F0911E01D9
:1033700080913E028083E0911D01F0911E018081C9
:1033800090913D02892B8083E0911D01F0911E01F7
:10339000808190913C02892B808390911B0299231C
:1033A00081F0E0911D01F0911E018081892B8083C5
:1033B00080911D0190911E010E94C11A81110E94ED
:1033C000AA1980911D0190911E010C94720F08950D
:1033D0000C94E71998E0899F90011124622B609367
:1033E0001A020E94E41780911A02859585958595A9
:1033F0000C94E81910921A0280E00C94E81990914C
:103400001A028095892380931A02282F277071F45D
:10341000282F082E000C330B9217130639F08595D0
:10342000859585950E9405180C94FA1908956FEFFB
:103430007FEF90E080E00C94532690E080E00E94C3
:103440002F2621E08C3E9E4F09F020E0822F089528
:1034500082E090E00C94212683E090E00C942126F9
:10346000CF9384E090E00E942126C82F81E290E073
:103470000E942126982F8C2FCF910895CF93C92F8A
:10348000682F84E090E00E9435266C2F81E290E066
:10349000CF910C943526AB01BC018FE090E00C94E9
:1034A0004726AB01BC0183E190E00C94472660E025
:1034B00070E0CB010C94511A60E070E0CB010E94E7
:1034C0004B1A0C94571A6CEE7EEF90E080E00E944D
:1034D000532660E082E090E00E94352660E083E0C1
:1034E00090E00E9435261092160210921702109258
:1034F00018021092190260E084E090E00E943526E4
:1035000060E081E290E00E94352660E085E090E096
:103510000E94352660E086E090E00E9435266FEF3D
:1035200087E090E00E94352640E050E0BA0188E054
:1035300090E00E94472660E08DE090E00E943526F2
:1035400040E050E0BA0188E190E00E94472660E048
:1035500087E190E00E94352640E050E0BA018CE11E
:1035600090E00E94472660E080E290E00E943526CD
:103570000C945C1A0C94631A682F8EE090E00C9403
:103580003526FC01329680913101882321F080910B
:103590008B029EE187FF96E080E0915008F4089549
:1035A00021912223D1F38F5FF8CF662301F120917F
:1035B00031012223F1F020918B0227FF1AC0462F00
:1035C0004695469546954E3190F4677021E030E07F
:1035D00002C0220F331F6A95E2F7840F911DFC0190
:1035E000828190E02823392381E0232B69F480E055
:1035F0000895FC01329608962191261721F0E817CC
:10360000F907D1F7F4CF81E008959C01FC013296CF
:103610009FEF80E04191461751F09F3F19F441110F
:1036200001C0982F8F5F8630A9F79F3F09F4089556
:10363000290F311D97FD3A95F90162830895FC0128
:10364000329608962191261303C0DF0111971C9230
:10365000E817F907B9F70895E62FE695E695E69598
:10366000EE3168F4E80FF92FF11D677021E030E0CA
:1036700001C0220F6A95EAF78281822B8283089526
:10368000E62FE695E695E695EE3170F4E80FF92F12
:10369000F11D677021E030E001C0220F6A95EAF762
:1036A00020958281282322830895209131012223AD
:1036B00029F020918B0227FD0C942C1B0C94051BE8
:1036C00020913101222329F020918B0227FD0C94B7
:1036D000401B0C941F1BFC01329680913101882302
:1036E00051F080918B0287FF06C08EE1DF011D92B1
:1036F0008A95E9F7089586E0F9CF089508950C9426
:103700007E1B0E947F1B80919102843049F11092B0
:10371000400288E190E020E40FB6F894A8958093E9
:1037200060000FBE2093600080E00E9417050E9499
:103730007F1B83B7817F846083BF83B7816083BF32
:103740007894889583B78E7F83BF0FB6F894A89539
:1037500080916000886180936000109260000FBECD
:1037600008950895CF930E947D1B0E94DB070E945D
:10377000B11BC0E08C2F0E948307811105C0CF5F71
:10378000C330C1F7CF91089581E0FCCF08950C9428
:10379000C61B0E94C9130E94660F0E9417050C9455
:1037A000C71B1F921FB61F9211248F939F93AF9335
:1037B000BF9380914002811113C080918702909144
:1037C0008802A0918902B0918A024196A11DB11D83
:1037D0008093870290938802A0938902B0938A0213
:1037E000BF91AF919F918F911F901FBE1F90189511
:1037F00082E084BD93E095BD9AEF97BD80936E0003
:1038000008952FB7F8948091870290918802A09133
:103810008902B0918A022FBF08959C014FB7F89496
:103820008091870290918802A0918902B0918A02CA
:103830004FBF821B930B089578941F921FB61F925F
:1038400011248F939F93AF93BF93809187029091A0
:103850008802A0918902B0918A020196A11DB11D32
:103860008093870290938802A0938902B0938A0282
:10387000BF91AF919F918F911F901FBE1F90189580
:1038800087E797E7909301088093000888E19AE022
:103890000FB6F894A895809360000FBE90936000D7
:1038A000FFCF0C94171A0E94DB072FEF86E791E0F9
:1038B000215080409040E1F700C000000E94DB07EB
:1038C00080E00E94830780FF04C00E94511C0C947A
:1038D000401C08950E941D1A811102C00E94BA1A4C
:1038E0000E94281A80933F020E94301A90938C0203
:1038F00080938B020E942C1A682F70E090E080E089
:103900000E94641760911202709113028091140258
:10391000909115020C949C178091470280FF12C071
:103920006091240185E0689FB00111247595679529
:103930007595679560387105A8F561157105A1F158
:10394000862F089581FF09C06091240185E0689F5A
:10395000B001112475956795EDCF6091240182FD2A
:103960000AC0809146028823D1F090912301609192
:103970002401891728F085E0689FB0011124DACF6F
:10398000869FB001112485E0869F9001879F300DAE
:103990001124692F70E0C9010E94FE25CBCF65E09C
:1039A00070E0CECF8FE7089581E0089580914702BF
:1039B00080FF0CC06091200170E07595679575954A
:1039C00067956115710549F1862F089581FF06C03D
:1039D0006091200170E075956795F3CF60912001AB
:1039E00082FD0BC0909145029923A1F060911F01C7
:1039F00080912001961738F0682F70E060387105CB
:103A000000F38FE70895899FC001112470E00E94A0
:103A1000FE25F4CF61E070E0D7CF81E00895803FCC
:103A200031F40E948C1C819580934B020895813F54
:103A300019F40E948C1CF8CF823F31F40E948C1C38
:103A4000819580934A020895833F19F40E948C1C4B
:103A5000F8CF893F29F40E94D61C80934C02089528
:103A60008A3F21F40E94D61C8195F7CF8B3F31F419
:103A70000E94D61C819580934D0208958C3F19F4C5
:103A80000E94D61CF8CF843F31F4809149028160B6
:103A9000809349020895853F21F480914902826014
:103AA000F7CF863F21F4809149028460F1CF873FB0
:103AB00021F4809149028860EBCF883F21F4809106
:103AC00049028061E5CF8D3F31F4809147028160EA
:103AD0008093470208958E3F21F4809147028260CF
:103AE000F7CF8F3FB9F7809147028460F1CF909173
:103AF0004A02803F59F480914B0287FF0DC010921B
:103B00004B0291110BC01092460208C0813F81F414
:103B100080914B0218169CF3992381F080914C02FE
:103B200090914D02892B09F064C0109245020895CE
:103B3000823F49F497FFF0CF10924A0280914B02E6
:103B40008111ECCFE0CF833F19F41916ACF3E4CF29
:103B500020914C02893F29F41216F4F610924C027F
:103B6000DBCF8A3F19F427FFD7CFF8CF20914D0242
:103B70008B3F29F427FFD0CF10924D02CDCF8C3F41
:103B800019F41216CCF3C8CF843F31F48091490266
:103B90008E7F80934902C0CF853F21F480914902F6
:103BA0008D7FF7CF863F21F4809149028B7FF1CF43
:103BB000873F21F480914902877FEBCF883F21F432
:103BC000809149028F7EE5CF8D3F31F4809147028D
:103BD0008E7F80934702A0CF8E3F21F480914702D1
:103BE0008D7FF7CF8F3F09F097CF809147028B7F72
:103BF000F0CF08950E94011C9C0190914A0280918F
:103C00004B02982B21F03093440220934302909171
:103C10004C0280914D02982B21F030934202209368
:103C2000410288E492E00C948C0FEF92FF920F9384
:103C30001F93CF93DF9300D000D000D0CDB7DEB775
:103C400086E0E8E4F2E0DE01119601900D928A959B
:103C5000E1F7E0904A02F0904B0200914C02109183
:103C60004D0210924A0210924B0210924C02109296
:103C70004D028E2D8F2991F0809143029091440244
:103C80000E940D1CAC0190914602992309F43FC09B
:103C9000809125018417150608F447C0802F812BD9
:103CA00091F080914102909142020E940D1CAC0162
:103CB00090914502992309F477C0809121018417DE
:103CC000150608F47FC080914A0290914B02892B1F
:103CD00090914C02892B90914D02892B11F00E94FA
:103CE000FA1D86E0FE013196A8E4B2E001900D9243
:103CF0008A95E1F726960FB6F894DEBF0FBECDBFCA
:103D0000DF91CF911F910F91FF90EF900895209137
:103D100026018AE0289F900111242417350708F016
:103D2000BDCF9F5F9093460202C09F3FD1F7EE2028
:103D300059F00E948C1C9FEF1E140CF491E0899F97
:103D4000802D112480934A02FF2059F00E948C1C80
:103D50009FEF1F140CF491E0899F802D1124809314
:103D60004B0230914A02332309F498CF20914B0241
:103D7000222309F493CF45EB3403C0011124992386
:103D800059F090934A0245EB240390011124332308
:103D900039F030934B0282CF81E080934A02F3CF17
:103DA00081E080934B027ACF209122018AE0289F04
:103DB000900111242417350708F085CF9F5F909359
:103DC000450202C09F3FD1F7002359F00E94D61C44
:103DD0009FEF10160CF491E0899F802D11248093A1
:103DE0004C02112359F00E94D61C9FEF11160CF4BF
:103DF00091E0899F802D112480934D0230914C02D7
:103E0000332309F460CF20914D02222309F45BCFC4
:103E100045EB3403C0011124992359F090934C02CF
:103E200045EB240390011124332339F030934D02E4
:103E30004ACF81E080934C02F3CF81E080934D0222
:103E400042CF86E0E8E4F2E0DF011D928A95E9F7CF
:103E500010924602109245021092470208958091F6
:103E60006E020895CF93DF9300D00F92CDB7DEB7E7
:103E700090919102943019F589837B836A8382E063
:103E80008093E9008FEF9091E800815095FD06C086
:103E900095ED9A95F1F700008111F5CF8091E8003A
:103EA00085FF0DC050E040E063E070E0CE01019678
:103EB0000E9459218091E8008E778093E8000F904E
:103EC0000F900F90DF91CF910895BC0184E00C9486
:103ED000321FBC0183E00C94321F9C0182E080936E
:103EE000E9009FEF8091E800915085FD06C085EDC7
:103EF0008A95F1F700009111F5CF8091E80085FFD8
:103F00000CC050E040E066E070E0C9010E94592119
:103F10008091E8008E778093E8000895CF93DF9337
:103F2000EC01809131018823B1F180918B0287FFF0
:103F300032C060E282E08093E9008FEF9091E80068
:103F4000815095FD06C095ED9A95F1F7000081111D
:103F5000F5CF8091E80085FF1BC08091310170E0B2
:103F600050E040E0811104C050E040E068E070E0C3
:103F7000CE010E9459218091E8008E778093E8005D
:103F800080E2FE01AEE4B2E001900D928A95E1F785
:103F9000DF91CF91089568E081E0CDCF80919002CC
:103FA000811109C00E94E9220E9446238091E2000B
:103FB00084608093E200089510929002089508951D
:103FC00008950C94C91B42E061EC81E00E946522D7
:103FD00042E261EC82E00C9465228091930283308E
:103FE00009F45FC030F48130C1F1823009F49BC024
:103FF00008958A3009F487C08B3009F46DC0893088
:1040000009F04EC080919202813209F049C080913E
:10401000960290919702029708F042C08091E800C2
:10402000877F8093E8008091E80082FF35C09091FF
:10403000F3008091F200029729F48091F1008B7FC8
:10404000813021F48091F10080936E028091E8002C
:104050008B778093E8000C94992280919202813AA8
:10406000F9F48091E800877F8093E80080919602C0
:1040700090919702892B61F460E28EE492E070E007
:104080000E94A8218091E8008B778093E800089532
:1040900060E090E080E0F3CF809191028111C3CF86
:1040A000089580919202813AD9F780919602909179
:1040B0009702892BA9F78091E800877F8093E80019
:1040C0008091E80080FFFCCF809131018093F10066
:1040D0008091E8008E77BDCF80919202813201F706
:1040E0008091960290919702892BD1F68091E800F9
:1040F000877F8093E8000E949922809194028093A8
:1041000031010C94C91380919202813249F6809159
:10411000E800877F8093E8000E94992280919502B1
:1041200080936F02089580919202813A09F0B8CF8E
:104130008091E800877F8093E8008091E80080FF0D
:10414000FCCF80916F02C2CF84B7877F84BF0FB648
:10415000F894A89580916000886180936000109227
:1041600060000FBE80E890E00FB6F8948093610085
:10417000909361000FBE0E94D00F0E94E9220E941E
:1041800046238091E20084608093E20078940E944C
:10419000CF250E94DA0F87E291E00E94610F8091A3
:1041A0009102853019F00E94E60FF9CF0E94811B21
:1041B00080918F02882399F30E94B21B882379F3A0
:1041C0000E944321ECCF0C94E520292F3327233084
:1041D000310519F168F42130310509F44AC0223063
:1041E000310509F44BC090E080E030E020E028C0C9
:1041F0002132310579F122323105A9F780E490E0CE
:104200002BE433E061157105D9F08CEB90E02FE8D9
:1042100032E061307105A1F0E6CF99278130910538
:1042200099F0009741F08230910589F00397D9F613
:10423000EAE1F2E002C0EEE3F2E0849190E09F0157
:10424000FA01318320830895E2E3F2E0F6CFE0E261
:10425000F2E0F3CF89E090E024E532E061157105EA
:1042600079F389E090E02DE632E06130710541F3A9
:10427000BACF82E190E02DE732E0E2CF8BE390E02D
:1042800022E432E0DDCF80E189BD82E189BD09B45D
:1042900000FEFDCF8091D8008F7D8093D800809163
:1042A000E00082608093E0008091E00081FDFCCF1F
:1042B0000895AF92BF92CF92DF92FF920F931F9318
:1042C000CF93DF936C01EB018A010E94B822F82E94
:1042D000811123C00115110539F0F8018081918108
:1042E000C81BD90BC80ED91EB12CA12C2097A9F040
:1042F0008091E80085FD22C08091E8008E77809350
:10430000E80001151105A1F0F80180819181A80E46
:10431000B91EB182A08285E0F82E8F2DDF91CF915A
:104320001F910F91FF90DF90CF90BF90AF900895B5
:104330000E94B8228823D1F2F82EEFCFF6018191A6
:104340006F018093F1002197FFEFAF1ABF0ACECF24
:10435000FC01809198029091990286179707A0F02E
:104360006115710529F49091E8009E779093E8001B
:1043700090E06115710551F4911108C08091E80039
:1043800082FF34C080E00895BC01F2CF8091910299
:104390008823C1F18530C1F18091E80083FD30C0F0
:1043A0008091E80082FDEACF8091E80080FFE1CFB4
:1043B0008091F3002091F200382F6115710519F0FA
:1043C0002830310558F091E02830310509F090E0AF
:1043D0002091E8002E772093E800CBCF8191809345
:1043E000F100615071092F5F3F4FE7CF809191023B
:1043F000882341F0853041F08091E80083FFBECFF3
:1044000081E0089582E0089583E00895FC018091A1
:1044100098029091990286179707A0F0611571058F
:1044200029F48091E8008E778093E80090E0611590
:10443000710551F4911108C08091E80082FF35C0E8
:1044400080E00895BC01F2CF809191028823C9F1E8
:104450008530C9F18091E80083FD31C08091E8008A
:1044600082FDEACF8091E80080FFE1CF8091F300E8
:104470002091F200382F6115710519F028303105AF
:1044800058F091E02830310509F090E08091E80083
:104490008E778093E800CBCF84918093F1003196A2
:1044A000615071092F5F3F4FE6CF809191028823C1
:1044B00041F0853041F08091E80083FFBDCF81E07D
:1044C000089582E0089583E00895982F973028F0AA
:1044D0008F708093E90081E008959093E900242F84
:1044E000762F50E0981731F07091EC002091ED009C
:1044F0005091F00021FD02C09F5FE8CF3091EB00AA
:104500003E7F3093EB003091ED003D7F3093ED0026
:104510003091EB0031603093EB007093EC0020930E
:10452000ED005093F0002091EE0027FDE5CF80E0F4
:1045300008958091920287FF13C08091E80082FF66
:1045400006C08091E8008B778093E80004C08091DA
:1045500091028111F2CF0895809191028823D9F3BD
:104560008091E80080FFF8CF8091E8008E77ECCF53
:104570002091E4003091E50095E6A9012091EC003E
:10458000822F817020FF06C08091E80080FF06C066
:1045900080E008952091E80022FD1AC080919102E8
:1045A000882389F0853089F08091EB0085FD0FC06C
:1045B0002091E4003091E50042175307F9F2915041
:1045C000E1F684E0089582E0089583E0089581E0B3
:1045D00008950E9457230E945F23E0EEF0E080815F
:1045E00081608083E8EDF0E080818F77808319BC63
:1045F000A7EDB0E08C918E7F8C9380818F7E80833D
:104600001092900208950F931F93CF93DF930E940F
:1046100057230E945F23C8EDD0E088818F7788837D
:1046200088818068888388818F7D888319BC1092F7
:10463000910210928D0210928F0210928E0200EE63
:1046400010E0F80180818B7F80838881816088837E
:1046500042E060E080E00E946522E1EEF0E08081CF
:104660008E7F8083E2EEF0E08081816080838081B4
:1046700088608083F80180818E7F8083888180615B
:104680008883DF91CF911F910F910895E8EDF0E0BD
:1046900080818F7E8083E7EDF0E080818160808380
:1046A00084E082BF81E0809390020C940323E8EDC4
:1046B000F0E080818E7F80831092E2000895109256
:1046C000DA001092E10008951F920F920FB60F9238
:1046D00011242F933F934F935F936F937F938F9307
:1046E0009F93AF93BF93EF93FF938091E10082FF7D
:1046F0000BC08091E20082FF07C08091E1008B7FB8
:104700008093E1000E94CE258091DA0080FF19C0DD
:104710008091D80080FF15C08091DA008E7F809351
:10472000DA008091D90080FF96C080E189BD82E1E6
:1047300089BD09B400FEFDCF81E0809391020E9403
:10474000CE1F8091E10080FF19C08091E20080FFC0
:1047500015C08091E2008E7F8093E2008091E2009C
:1047600080618093E2008091D80080628093D800BD
:1047700019BC85E0809391020E94E01F8091E100C6
:1047800084FF2BC08091E20084FF27C080E189BDB7
:1047900082E189BD89B5982F917080FFFBCF809110
:1047A000D8008F7D8093D8008091E1008F7E809328
:1047B000E1008091E2008F7E8093E2008091E20030
:1047C00081608093E20080918D02882309F449C0C2
:1047D00084E0809391020E94E11F8091E10083FFB9
:1047E00029C08091E20083FF25C08091E100877F8E
:1047F0008093E10082E08093910210928D0280917B
:10480000E1008E7F8093E1008091E2008E7F8093B3
:10481000E2008091E20080618093E20042E060E08B
:1048200080E00E9465228091F00088608093F00013
:104830000E94DF1FFF91EF91BF91AF919F918F91E8
:104840007F916F915F914F913F912F910F900FBE8C
:104850000F901F90189519BC109291020E94DC1FB6
:1048600070CF8091E30087FD93E090939102B3CFE6
:104870001F920F920FB60F9211242F933F934F93D5
:104880005F936F937F938F939F93AF93BF93CF93D8
:10489000DF93EF93FF93D091E900DF708091EC00FC
:1048A000C82FC17080FDC0E81092E9008091F0002F
:1048B000877F8093F00078940E947C241092E90016
:1048C0008091F00088608093F000CD2BCF70C09372
:1048D000E900FF91EF91DF91CF91BF91AF919F914F
:1048E0008F917F916F915F914F913F912F910F9099
:1048F0000FBE0F901F9018951F93CF93DF93CDB7E6
:10490000DEB7AA970FB6F894DEBF0FBECDBF82E91F
:1049100092E02091F100FC012193CF01F2E08A396D
:104920009F07B9F70E94ED1F8091E80083FF1EC129
:1049300080919202909193029A3008F017C1E92F6A
:10494000F0E0E356F94D0C941226803899F0823845
:1049500009F00CC1809196028F70873008F006C173
:104960008093E9008091EB0085FB882780F9109205
:10497000E90006C080918E0290918F0291118260B1
:104980009091E800977F9093E8008093F100109257
:10499000F1008091E8008E77E5C0882309F4D3C048
:1049A000823009F0E3C0809194028111D6C08091D9
:1049B00096028F702FEF280F263008F0D7C0809313
:1049C000E9002091EB0020FFC8C0933031F48091C2
:1049D000EB0080628093EB00C0C09091EB0090618F
:1049E0009093EB0021E030E001C0220F8A95EAF7B6
:1049F0002093EA001092EA008091EB008860EACFF1
:104A00008111B4C0109194021F778091E3008078E7
:104A1000812B8093E3008091E800877F8093E800FA
:104A20000E9499228091E80080FFFCCF8091E300F2
:104A300080688093E30082E0111183E0809391020B
:104A400095C08058823008F091C080919402909176
:104A500095028C3D23E09207A1F583E08A838AE2E8
:104A600089834FB7F894DE01139620E03EE051E2CF
:104A7000E32FF0E050935700E49120FF03C0E2954C
:104A8000EF703F5FEF708E2F90E0EA30C0F0C79676
:104A90008D939D932F5F243159F74FBF8091E8008C
:104AA000877F8093E8006AE270E0CE0101960E9461
:104AB000A8218091E8008B778093E80057C0C096CA
:104AC000E7CF6091960270919702AE014F5F5F4F02
:104AD0000E94E320BC01892B09F448C09091E800B2
:104AE000977F9093E80089819A810E940622E1CF06
:104AF0008038E1F58091E800877F8093E80080911D
:104B00008D028093F10045CF811130C090919402C5
:104B1000923060F58091E800877F8093E800909361
:104B20008D020E94992280918D02882311F084E0E9
:104B300005C08091E30087FDFACF81E08093910268
:104B40000E94E31F13C080919402813079F481E0C8
:104B5000933009F080E080938F021092E9008091F9
:104B6000E800877F8093E8000E9499228091E80006
:104B700083FF0AC08091E800877F8093E8008091DE
:104B8000EB0080628093EB00AA960FB6F894DEBF2C
:104B90000FBECDBFDF91CF911F9108950895CF93A0
:104BA000809191028823A1F0C091E900CF7090918B
:104BB000EC00892F817090FD80E8C82B1092E900ED
:104BC0008091E80083FD0E947C24CF70C093E900AF
:104BD000CF910895AA1BBB1B51E107C0AA1FBB1FA1
:104BE000A617B70710F0A61BB70B881F991F5A9579
:104BF000A9F780959095BC01CD01089597FB072EEC
:104C000016F4009407D077FD09D00E94EA2507FC2E
:104C100005D03EF4909581959F4F089570956195CC
:104C20007F4F0895EE0FFF1F0590F491E02D09943A
:104C3000FB01DC0102C005900D9241505040D8F7B5
:104C40000895F999FECF92BD81BDF89A992780B554
:104C50000895A6E1B0E044E050E00C945B26A8E1A2
:104C6000B0E042E050E00C945B26262FF999FECF8D
:104C700092BD81BDF89A019700B4021639F01FBAAF
:104C800020BD0FB6F894FA9AF99A0FBE08950396CC
:104C9000272F0E9436260E943526252F0E94362671
:104CA000242F0C9436260196272F0E9436260C942A
:104CB0003526DC01CB01FC01F999FECF06C0F2BD1F
:104CC000E1BDF89A319600B40D9241505040B8F7CA
:104CD0000895F894FFCFD40BDC0BE30BE80BED0B3E
:104CE000F20BF70BFC0B010C060C0B0C100CD60B8B
:104CF000D60BD60BD60BD60BD60BD60BD60B8411F8
:104D00008411DC11DC112E124A12B111B1115512AD
:104D1000E112F012F0124C13B111B1115513D81366
:104D2000D813E113E113E313E113E113E113D813F3
:104D3000D813E813E113E113E813A524CD24B62515
:0E4D4000CD24B62500252125B625782584250D
:104D4E00010001000100010001000100010001004D
:104D5E00010001000100010000040004041C021403
:104D6E000A32110F0514112F1F8E1F6D1F691F653B
:104D7E001F01E200E900EA00B500B600B700CD0061
:104D8E008301CC008A0192019401210223022402A4
:104D9E002502260227022A02B300B4006F0070001B
:104DAE00818283F0F1F4F567F7F6000100FF010050
:104DBE00010000FFFF0000010001FF0091969035F9
:104DCE00E200E900EA00B500B600B700CD008301AD
:104DDE00CC008A01920194012102230224022502B1
:104DEE00260227022A02B300B4006F0070008182EF
:024DFE00830030
:00000001FF
