:100000000C94A2010C94E9010C94E9010C94E9010F
:100010000C94E9010C94E9010C94E9010C94E901B8
:100020000C94E9010C94E9010C9433210C940722FF
:100030000C94A0190C94E9010C94E9010C94E901C9
:100040000C94E9010C94E9010C94E9010C94E90188
:100050000C94E9010C94EB190C94E9010C94E9015E
:100060000C94E9010C94E9010C94E9010C94E90168
:100070000C94E9010C94E9010C94E9010C94E90158
:100080000C94E9010C94E9010C94E9010C94E90148
:100090000C94E9010C94E9010C94E9010C94E90138
:1000A0000C94E9010C94E9010C94E901B000000002
:1000B0000004BFFF78FF000000000000F500F00022
:1000C000F4000000F200F100F300FD00FE00FF006C
:1000D000000000010101010101010101020202020F
:1000E00002020202020303030303030303040404E2
:1000F00004040404050505050506060606060707AB
:1001000007070708080808090909090A0A0A0B0B62
:100110000B0C0C0C0D0D0D0E0E0E0F0F0F10101101
:100120001111121213131414151516161717181887
:1001300019191A1A1B1B1C1D1D1E1E1F20202122EF
:1001400022232424252626272829292A2B2C2D2D35
:100150002E2F30313232333435363738393A3B3C52
:100160003D3E3F404142434445464748494A4C4D45
:100170004E4F50515354555658595A5B5D5E5F610E
:100180006264656668696B6C6D6F707273757778A1
:100190007A7B7D7E8082838587888A8C8E8F9193FF
:1001A0009596989A9C9EA0A2A3A5A7A9ABADAFB126
:1001B000B3B5B7BABCBEC0C2C4C6C9CBCDCFD1D40B
:1001C000D6D8DBDDDFE2E4E7E9EBEEF0F3F5F8FAB1
:1001D000FDFF04033000000010034C0079006E00A6
:1001E000650070006100640000000A0351005600C1
:1001F0004500580000000403090409023B00020105
:1002000000A0FA0904000001030101000921110105
:1002100000012240000705810308000A09040100CB
:10022000010300000009211101000122BC000705A3
:10023000820320000A1201100100000008565150EC
:100240004C01000102030105010902A10185020917
:1002500001A100050919012905150025019505755C
:1002600001810295017503810105010930093115EC
:1002700081257F95027508810609381581257F95AE
:100280000175088106050C0A38021581257F950144
:1002900075088106C0C005010980A1018503190107
:1002A0002AB700150126B700950175108100C00519
:1002B0000C0901A101850419012AA002150126A03B
:1002C00002950175108100C005010906A10185058F
:1002D000050719E029E71500250195087501810238
:1002E0000507190029EF1500250195F07501810218
:1002F00005081901290595057501910295017503F8
:100300009101C005010906A101050719E029E715BA
:100310000025019508750181029501750881010587
:1003200007190029FF150026FF00950675088100B2
:1003300005081901290595057501910295017503B7
:100340009101C00011241FBECFEFDAE0DEBFCDBFA8
:1003500004B603FE27C080919A0290919B02A0915F
:100360009C02B0919D028730904BA740B04BD1F4D6
:1003700010929A0210929B0210929C0210929D027F
:1003800014BE84B7877F84BF0FB6F894A895809178
:100390006000886180936000109260000FBEE0E012
:1003A000F8E3099511E0A0E0B1E0ECEEF8E402C05A
:1003B00005900D92A23BB107D9F722E0A2EBB1E084
:1003C00001C01D92AA39B207E1F70E94731E0C9476
:1003D00038240C94000052985A983E9846985498A5
:1003E0005C9826982E9857985F9824982C98089592
:1003F000809116019091170190931501809314013B
:1004000089B182FB882780F9809316011092170129
:10041000809112019091130190931101809310012A
:1004200086B186FB882780F9809312011092130110
:1004300080910E0190910F0190930D0180930C011A
:1004400089B18295817080930E0110920F01809185
:100450000A0190910B01909309018093080183B1E7
:1004600086FB882780F980930A0110920B01809106
:10047000060190910701909305018093040189B1D1
:10048000082E000C990B892F881F8827881F8093BE
:10049000060110920701809102019091030190934F
:1004A00001018093000183B18295817080930201E4
:1004B000109203010C948B028CEA90E09093B601A9
:1004C0008093B50148E76FEF8FEB0C940A09CF9248
:1004D000DF92EF92FF926B017C0140E00E94891550
:1004E000682F80E00E948409C701B601FF90EF9059
:1004F000DF90CF900895811106C089EF611101C08E
:100500008AEF0C94140F813029F48AEA6111F9CF33
:1005100089EAF7CF089580911201909113012091FB
:100520001001309111018217930729F0181619064E
:1005300014F40C940803089581E0089581E008956F
:100540000C949E0208950C94A2021F93CF93DF9304
:1005500000D000D00F92CDB7DEB749835A836B83AA
:100560003091CF0189819A8131111DC06623B9F084
:100570002223A9F00E94A216182F682F89819A8140
:100580000E944F1669817A81812F0F900F900F90F2
:100590000F900F90DF91CF911F910C945D030E94FB
:1005A0007B16182FEFCF0E94A21669817A81EDCFBA
:1005B000FC01262F408151816281738184810C94DA
:1005C000A502CF93DF93EC0160E00E94D802BE0148
:1005D000DF91CF910C94A3020E94221A0E94EC1783
:1005E000811102C00E9489180C9469050C94F801CD
:1005F00008950C94F80281E008950C94FB02CF93C7
:10060000C82F0E94F9028C2FCF910C94FD020895FF
:100610000E94A3110E9407032FEF84E39CE0215066
:1006200080409040E1F700C000000C940F1A0F9337
:100630001F93CF93DF93EC0161E00E94D8028C01FD
:10064000BE010E94A002882359F1BE01C8010E9488
:10065000AA0B882329F1BE01C8010E94FC0B882344
:10066000F9F0BE01C8010E941F0D8823C9F0BE0128
:10067000C8010E94A609882399F08A81882339F04D
:1006800001158CE5180751F00E3D1C4579F0CE019F
:10069000DF91CF911F910F910C949C020E9408034F
:1006A00080E0DF91CF911F910F9108950E948918EA
:1006B000F7CF90E080E008950895E72FF0E093E011
:1006C000899FE00DF11D1124EE0FFF1FEE0FFF1F9C
:1006D000E60FF11DEE0FFF1FE654FF4F8591949139
:1006E0000895FC01EE0FFF1FEE52FF4F859194918C
:1006F0000895CF93DF930E945D030E948E04EC0166
:10070000811520E5920708F042C0811530E4930777
:1007100008F0BDC0883E910528F5803E910508F09F
:100720009DC0883A910588F4853A910508F08FC0FC
:100730008130910509F492C0009709F48FC00497A5
:1007400008F08CC0D0E0C0E089C08F3B910508F470
:1007500089C0805C9109C03CD105A0F30E9471035F
:10076000EC017CC08115904250F4C11581E0D8079E
:1007700008F074C0C03FD10528F3D0656FC0C11523
:1007800090E3D90708F079C0CE019F70E7CF8115BB
:1007900025E5920758F5811534E5930708F0A6C0C2
:1007A000811542E5940750F4C11581E5D80708F496
:1007B00071C0DC2FCC27C16FD06A50C0982F96959E
:1007C00096959E0123703327C115D34508F07FC04D
:1007D000C1E0D0E002C0CC0FDD1F2A95E2F720E295
:1007E000929FC0011124C82BD92B6FC0C11589E578
:1007F000D807A8F4C11598E5D90708F07CC0C11541
:1008000026E5D20708F09ECF8C2F0E942505C82F21
:10081000D0E0DC2FCC27CC27DF71D0621FC0C11500
:100820003AE5D30708F46CC0CE019056811590428A
:1008300008F088CF8D2F8F710E94250590E0982FAA
:10084000882788279F719C012C2BE901E6CFC55A88
:10085000D0E0C05ADE4FC881D0E0D064CE01DF9135
:10086000CF910895C85AD0E0CC0FDD1FCE5CDE4F8B
:100870000990D881C02DD464F1CFCE019927D3FF40
:1008800003C0EC01D86CEACFEC01D06CE7CFDF708D
:10089000D06AE4CFCE01E4E096958795EA95E1F73A
:1008A00083702C2F26952695237090E2299F900126
:1008B0001124382B8C2F8370C1E0D0E002C0CC0F04
:1008C000DD1F8A95E2F7C22BD32BDC68C7CFC1E0CE
:1008D000D0E002C0CC0FDD1F2A95E2F730E2939FF3
:1008E000C0011124C82BD92BDA68B8CFD82FCC2758
:1008F000C46FD06AB3CFDC2FCC27C06FD06AAECF25
:100900008C2F8F700E94250534E0D695C7953A95B7
:10091000E1F7CF709C2FEC01D069A0CF8238910510
:10092000B1F1B0F48133910509F475C048F489320E
:10093000910509F469C08A32910509F473C00895DC
:100940008533910509F459C08933910501F1089562
:10095000833E9105A9F138F4803E9105F9F0823E7D
:10096000910549F10895863E9105A9F1873E9105CB
:10097000C9F1843E910519F520918C0221FF1FC019
:1009800080918B0284FD14C087EE90E00895209141
:100990008B022370A1F080EE90E0089520918B02ED
:1009A00020FD47C030918C0230FF09C024FF44C0B5
:1009B00090E080E004C020918B0222FDF7CF0895E3
:1009C00020918B0222FD3BC030918C0230FDE3CFA1
:1009D00024FFF5CFEDCF20918B0223FFF0CF24FD34
:1009E000E7CFD2CF20918B0223FD2CC030918C0217
:1009F00031FFEECF84EE90E0089520918B0225FF29
:100A0000DECF89E290E0089520918B0225FFD7CFB9
:100A100085E390E0089520918B0226FFD0CF8AE2F3
:100A200090E0089520918B0226FFC9CF81E390E0EA
:100A3000089589E390E0089583EE90E0089582EEB2
:100A400090E0089586EE90E0089590918B0292FFD9
:100A500006C0282F28712830F9F4877F846093FF1F
:100A600006C0282F28712831F1F4877E84612091F7
:100A70008C0220FF06C0382F38713830D9F4877FB8
:100A8000816021FF06C0282F28712831D1F4877E8C
:100A9000816194FD877E0895282F24712430F9F612
:100AA0008B7F8860DCCF282F2471243101F78B7E67
:100AB0008861DDCF382F3171313019F78E7F886032
:100AC000E0CF282F2171213121F78E7E8861E1CF7F
:100AD00008950C946805E82FF0E0ED58FD4F8081F3
:100AE0000895089580EA8A95F1F70895CF93DF93EA
:100AF000A7E6B1E04AE651E0C1E0D0E08D91E82FF1
:100B0000E295EF70F0E061A18F709E0101C0220FAD
:100B10008A95EAF7922F9095962391A382A1822B32
:100B200082A34A175B0751F7A3E6B1E047E651E01D
:100B3000C1E0D0E08D91E82FE295EF70F0E061A187
:100B40008F709E0101C0220F8A95EAF7922F90952F
:100B5000962391A382A1822B82A34A175B0751F7A8
:100B6000109270021092730210927102109274022D
:100B7000109272021092750283E00E944306DF9188
:100B8000CF910C94EC028F929F92AF92BF92CF9232
:100B9000DF92EF92FF920F931F93CF93DF9387E63D
:100BA000A82E81E0B82E00E712E0912CCC24C3944B
:100BB000D12CF50181915F01C82FC295CF70D0E093
:100BC00099A18F70760101C0EE0C8A95EAF7892F02
:100BD0008E2989A38AA18E2C809488218AA30E94C1
:100BE0007205E3E6F1E050E040E020E03191A32F10
:100BF000A295AF70B0E090968C9190E03F7002C0EB
:100C0000959587953A95E2F780FD39C08C2D042E95
:100C100001C0880F0A94EAF7282B4F5F5F4F4430DA
:100C2000510521F789A1882289A28AA1E82AEAA28E
:100C3000F8018081281729F1208381E0982A0F5F2D
:100C40001F4FFAE6AF16F1E0BF0609F0B2CF292D2B
:100C500043E063E772E080E792E00E9444060E946E
:100C6000F602892DDF91CF911F910F91FF90EF90A8
:100C7000DF90CF90BF90AF909F908F90089580E0CD
:100C8000CBCF80E0DBCF0895FF920F931F93CF93DC
:100C9000DF93F82E092F162FD72FC42F222349F0C8
:100CA00081E08093B4010E94D0199093B3018093A6
:100CB000B2018091B4018823A1F08091B20190919A
:100CC000B3010E94DC19069760F0EF2DF02FA12FE1
:100CD000BD2FCE0FDF2FD11DEC17FD0741F4109271
:100CE000B401DF91CF911F910F91FF9008958191F1
:100CF0008D93F2CFEF92FF920F931F93CF93DF93D9
:100D0000EB01E82FD11110C0442321F0F0E0EE52A6
:100D1000FF4FE4916E2F7E2F8E2FDF91CF911F9189
:100D20000F91FF90EF9008950D2F10E0282F30E0E5
:100D3000442329F02E523F4FF901249130E0F6E090
:100D4000CF9FC0011124EFEFF0E0BF010E94B92353
:100D5000AB018C2F90E0880F991FA5E5A49FB001EF
:100D6000A59F700D1124861B970B982F990F980F34
:100D7000BF01601B710B629FD001639FB00D729F1A
:100D8000B00D11248B2F9D9FB0011124672F772761
:100D9000EF01C61BD70BBE01629FE001639FD00D20
:100DA000729FD00D11247F01E91AF108E09EB00175
:100DB000E19E700DF09E700D1124672F7727E61BC2
:100DC000F70BE29F8001E39F100DF29F100D11249D
:100DD000E12F722F4230510599F048F44115510529
:100DE00069F04130510581F0EB2F8D2F07C0443061
:100DF000510569F080F046305105B1F76E2F8DCF67
:100E0000E22F7B2F812FFACFE22F7D2FF7CFEB2F11
:100E1000822F712FF3CF7B2F822FED2FEFCF41E069
:100E20000C947A06CF93DF93762FE901682F842FF5
:100E30000E940F07798368838A83DF91CF91089599
:100E4000413F08F040EF0C94120780917602982FF2
:100E50009E7F71F480917602817082608093760229
:100E600080917902813F18F080EF80937902089594
:100E7000843080F7F5CF88E090E00C94F823CF928F
:100E8000DF92EF92FF926B017C010E942507B70170
:100E9000A60188E090E0FF90EF90DF90CF900C9457
:100EA0001624E6E7F2E083E0808311828FEF8283ED
:100EB00080EF8383148260817181828193810C949D
:100EC0003F0790917A02933018F49F5F90937A02D3
:100ED000882351F0609176027091770280917802B8
:100EE000909179020C943F07089581E00C9461077A
:100EF00090917A02992319F0915090937A02882365
:100F000051F0609176027091770280917802909111
:100F100079020C943F07089581E00C94780721E052
:100F200030E001C0220F8A95EAF79091BA0192232E
:100F300081E009F480E0089570E00C94FE096F925E
:100F40007F928F929F92AF92BF92CF92DF92EF9259
:100F5000FF920F931F93CF93DF9300D000D00F9297
:100F6000CDB7DEB7709019019091760290FF26C040
:100F7000C090B501D090B601C114D10489F580911B
:100F8000180133E0839FC0011124672D85589D4FC0
:100F90000E949C070F900F900F900F900F90DF9181
:100FA000CF911F910F91FF90EF90DF90CF90BF9066
:100FB000AF909F908F907F906F90089580911A01CD
:100FC00020911B0133E0839FF0011124E558FD4F70
:100FD000821770F61182108212828F5F3396F8CFDB
:100FE00090FFCDCFF12CE12C43E0642E8E2D0E949A
:100FF0008F07882309F43CC0F701EE0FFF1FEC0DAB
:10100000FD1DA590B490A114B10409F4B8CF45E03A
:1010100050E0B501CE0101960E94E72309810F3F00
:1010200039F18A81800F9927991F8530910514F035
:1010300084E090E04C01880C991C880D991D9C015E
:1010400025583D4F4901069D8001112405581D4F2B
:101050000815190520F035E0A30EB11CD8CF980172
:101060004D816C818B810E9420070D5F1F4FF0CF57
:101070008FEFE81AF80A28E0E216F10409F0B6CF7B
:101080007ECFE6E7F2E080818E7F80836081718190
:10109000828193810E943F072FEF80E792E02150E9
:1010A00080409040E1F700C000000C949F079091B1
:1010B000760290FF14C090911A0120911B0133E039
:1010C000939FF0011124E558FD4F921710F00C94F6
:1010D0009F078183608342839F5F3396F6CF089595
:1010E000EF92FF920F931F93CF93DF9300D00F9255
:1010F000CDB7DEB7F82E062F142FE22E80917602A0
:1011000080FF28C0E82FE695F0E0E659FE4F908179
:101110009093B8018E7F823059F49E012F5F3F4F2C
:101120008F2D0E9420074B8169818A810E94570878
:10113000F09277020093780210937902EE2051F03A
:101140006091760270917702809178029091790295
:101150000E943F070F900F900F90DF91CF911F914A
:101160000F91FF90EF900895E6E7F2E09181282F2C
:101170004381628188E0890F0C94700881E00C94AF
:10118000B408E6E7F2E09181282F4381628188EF7D
:10119000890F0C94700881E00C94C108E6E7F2E036
:1011A000628128E0620F08F46FEF282F438181816C
:1011B0000C94700881E00C94CE08E6E7F2E06281BE
:1011C00028E0621B08F460E0282F438181810C94A1
:1011D000700881E00C94DD08E6E7F2E0438128E046
:1011E000420F08F44FEF282F628181810C94700820
:1011F00081E00C94EC08E6E7F2E0438128E0421B32
:1012000008F440E0282F628181810C94700881E00D
:101210000C94FB0820E00C9470088091760280FF0B
:1012200018C08170826080937602662351F06091CD
:1012300076027091770280917802909179020E94F3
:101240003F074091790260917802809177020C9477
:101250000A090895682F81E00C940D0981E00C942F
:101260002A09682F9091760296958FEF890F09F4DD
:1012700081E00C940D0981E00C94310961E00C943B
:101280000D09E6E7F2E080818160808386950C9409
:101290003E098091760280FD0C9441080C9441092E
:1012A00060E00C940D098091B70181112CC00E945F
:1012B000EC17811104C00E9489180E9451070E94F6
:1012C0003B07609376027093770280937802909345
:1012D00079026E7F61F40E9451070E943B07609380
:1012E00076027093770280937802909379020E943D
:1012F00025078091760280FF03C086950E945009E1
:1013000081E08093B701089521E030E0A90102C097
:10131000440F551F8A95E2F7CA012091BA0166234E
:1013200061F0822B8093BA018091B901811108C0CC
:101330008091760286950C94500980958223F2CF95
:101340000895FA01811101C0FB0109940F931F93C5
:10135000CF938C01FB01C281CC2309F44DC00E94C4
:1013600037178272F801E25CFC45E431F10538F48C
:10137000E65CFB4D0C94E1230E944909C0E08C2FF0
:10138000CF911F910F9108954BE359E06EE279E000
:101390000E94A109F3CF4EE259E06BE379E0F8CF68
:1013A0004BEC58E06EEB78E0F3CF4EEB58E06BEC93
:1013B00078E0EECF49EE58E06AED78E0E9CF4AED0B
:1013C00058E069EE78E0E4CF47E059E068EF78E074
:1013D000DFCF48EF58E067E079E0DACF4CE857E03C
:1013E00065E777E0D5CF45E757E06CE877E0D0CF09
:1013F00081E00E943E09C2CFC1E0C1CF539A4BB1F8
:10140000477F5BB15860EFB7F8949B01220F331F01
:10141000260F371F280F391F2817390741F4EFBF50
:101420008FE594E00197F1F700C000000895DC011A
:101430006D91CD0178E05BB9000000C067FF4BB94A
:10144000660F000000C000C000C04BB900C07A9514
:1014500091F7E2CF0C947B02AF92BF92CF92DF92D2
:10146000EF92FF920F931F93CF93DF93AEE7B1E01C
:101470002CE731E08FEBA82E81E0B82E60E871E018
:1014800041E050E00D91802F82958F7090E0FC013B
:10149000C1A10F707A01002E01C0EE0C0A94EAF788
:1014A000FE2DF095CF23FC01C1A3C2A1CE29C2A37A
:1014B000E90119919E01E12FE295EF70F0E0F1A0B2
:1014C0001F706A01012E01C0CC0C0A94EAF7EC2CC3
:1014D000E094EF20E1A2F2A0FC28F2A2EC0188A1A6
:1014E00090E002C0959587950A95E2F78170E0A19A
:1014F000F0E002C0F595E7951A95E2F790E0E0FD7F
:1015000092E0892BF50181935F016A177B0709F04F
:10151000B9CFDF91CF911F910F91FF90EF90DF90A6
:10152000CF90BF90AF9008959F92AF92BF92CF920D
:10153000DF92EF92FF920F931F93CF93DF930FEB06
:1015400011E08EE7C82E81E0D82E9CE7E92E91E0CD
:10155000F92E2DEBA22E21E0B22ECBEBD1E0912C77
:10156000D801EC91EE0FEE0FED938D01D6012D9188
:101570006D01A22FA295AF70B0E090968C9190E093
:101580002F7002C0959587952A95E2F7817099276B
:10159000D7014D917D01A42FA295AF70B0E0909638
:1015A0002C9130E04F7002C0359527954A95E2F7AF
:1015B000A9014170552720FF02C042E050E0842B72
:1015C000E82BD8011197EC93EF70F0E0E459FE4F4F
:1015D0008081F5019081890F808384303CF088817F
:1015E0008F5F888360E0892D0E942A0AD5018C9143
:1015F0008D3F3CF488818150888361E0892D0E9471
:101600002A0AF5018081837887FF03C081508C6F9F
:101610008F5FD5018D935D012196B1E09B120CC0C7
:10162000DF91CF911F910F91FF90EF90DF90CF90BE
:10163000BF90AF909F9008959924939491CFAF92CB
:10164000BF92CF92DF92EF92FF920F931F93CF93AF
:10165000DF937C015B01C42FD22FFC0182818823A0
:10166000F9F04093C3010E94D0199093C201809376
:10167000C10180E28C0F883008F061C0C77081E042
:1016800001C0880FCA95EAF7DF91CF911F910F91A2
:10169000FF90EF90DF90CF90BF90AF900C94270F0A
:1016A0001091C301141340C08091C1019091C201F7
:1016B0000E94DC196C01B701C5010E941914C816FB
:1016C000D90690F5C0E2CD0F1D17B9F080E2810F69
:1016D000883040F4177081E001C0880F1A95EAF74E
:1016E0000E942E0FC83048F481E09D2F977001C0F2
:1016F000880F9A95EAF70E94270F802F0E94140FF7
:10170000C830E8F4D77081E001C0880FDA95EAF7B5
:10171000DF91CF911F910F91FF90EF90DF90CF90CD
:10172000BF90AF900C942E0F80E28C0F883038F46D
:10173000C77081E001C0880FCA95EAF7E9CFDF9151
:10174000CF911F910F91FF90EF90DF90CF90BF90BE
:10175000AF9008950F939C01CB01233F4CE53407D4
:1017600059F1A8F4283DFCE53F0701F1293D4CE57E
:101770003407D1F1273D3C4591F406E221EE41EEDC
:1017800067ED7CE50E941F0B80E00F910895253FD7
:10179000FCE53F07E9F0B0F0263F3C45F9F0FC01DD
:1017A0008281882339F11092C301EFCF07E225EE41
:1017B00045EE68ED7CE5E6CF06E221EE40EE63EF14
:1017C0007CE5E0CF07E225EE44EE64EF7CE5DACF7E
:1017D00006E221EE42EE65EF7CE5D4CF07E225EE8E
:1017E00046EE66EF7CE5CECF08E221E045EE69EDFE
:1017F0007CE5C8CF81E0C9CFCF93DF93EC01FB013B
:101800008281882309F419C1C230FCE5DF07C0F1E9
:10181000C6319CE5D90730F09E012A5F3C4529304E
:10182000310570F50E94FF1790938C0280938B0214
:10183000C031ECE5DE0709F4CFC008F05BC0C8306A
:101840008CE5D80709F4B6C088F5C430ECE5DE07AE
:1018500009F4A8C0C0F4C2308CE5D80709F49CC0D4
:1018600080918B028260C330DC4509F498C080917E
:101870008B0290918C020E940D180E94A31180E0AF
:10188000DF91CF91089580918B028061C630ECE5A5
:10189000DE0709F484C080918B028860C730DC4584
:1018A00008F47DC080918B02806279C0CC308CE5D9
:1018B000D80709F489C070F480918B028C60CA301B
:1018C000ECE5DE0709F46BC008F478C080918B0268
:1018D0008E7F65C0CE308CE5D80709F479C0809141
:1018E0008B028B7FCF30DC4508F459C080918B028E
:1018F0008F7E55C0CB3FECE5DE0709F457C030F5CD
:10190000C3318CE5D80709F46FC078F4C131ECE538
:10191000DE0709F465C0C231DC4509F0A8CF0E949A
:10192000A31180918B028F773AC0C5318CE5D8071F
:1019300009F462C008F476C080918C028160CA3FCD
:10194000DC4509F094CF80938C0291CFCF3FFCE52A
:10195000DF0709F44DC088F480918C028D7FCD3F64
:101960009CE5D90781F380918C028E7FCE3FDC45C8
:1019700050F380918C028360E6CFC130FDE5DF0734
:1019800009F459C008F444C080E0C230DD4509F0D4
:101990006ECF0E948B186BCF80918B0281608093F9
:1019A0008B0265CF80918B028460F9CF80918C028D
:1019B0008260C9CF80918B028064F1CF0E94A31115
:1019C00080918B028068EBCF80918B028D7FE7CF77
:1019D00080918B02877FE3CF80918B028F7DDFCF59
:1019E00080918B028F7BDBCF80918B02837FD7CF5F
:1019F00080918C028C7FA7CF80918B0282FB9927EC
:101A000090F921E0922790FB82F990FB83F9C7CFF0
:101A100080918C02982F909591708E7F892B90FBEE
:101A200081F991CF0E94A31190918B02892F97FB8E
:101A300087F98058B4CF81E0ACCF81E021CFCF933C
:101A4000DF93EB0186319C4511F50E9437179A818F
:101A5000992399F08A7A91E009F490E09093C40177
:101A6000811109C089E20E9412170E94831780E049
:101A7000DF91CF91089585E3F6CF8091C401811164
:101A800004C089E20E941917F0CF85E3FBCF81E003
:101A9000EFCF9093CA018093C9010895E091C901E5
:101AA000F091CA01309721F00190F081E02D099466
:101AB00080E00895E091C901F091CA01309799F052
:101AC00020913101222359F020918B0227FF07C07A
:101AD000DC012C9111962C93119725E02C93028018
:101AE000F381E02D09940895E091C901F091CA01B4
:101AF000309739F022E0DC012C930480F581E02D51
:101B0000099408952091C7013091C8012817390719
:101B100071F09093C8018093C701E091C901F091E1
:101B2000CA01309721F00680F781E02D09940895CD
:101B30002091C5013091C6012817390771F09093A3
:101B4000C6018093C501E091C901F091CA013097A7
:101B500021F00084F185E02D0994089585B780680F
:101B600085BF85B7806885BF089508950C945C0291
:101B70000E94AE0D0E94B50D0C94EB0181E008951A
:101B80000C94BE0D0E94C7190E9476050E94391A56
:101B90000E9453090E942C0A0C94B60DBF92CF925A
:101BA000DF92EF92FF920F931F93CF93DF93CDB706
:101BB000DEB72A970FB6F894DEBF0FBECDBF0E94E6
:101BC000C3050E94C00D882309F461C08CECC82EA7
:101BD00081E0D82E10E000E0B02E802F0E946B052F
:101BE000E82EF601F1906F01F81609F44AC08091D1
:101BF0003F0281FD0E9471059F2D9E2580E0FF24FC
:101C0000F394292F2F21C1F18E83BF82EF2081E031
:101C100009F480E088870E94D0198160782F9A8724
:101C200089874E815F8168858A850E94680EF801E8
:101C3000E453FE4F8081F826F0820E94940A0E94AD
:101C4000E41B0E944E0D9091CB01891789F10E94EF
:101C50004E0D8093CB012A960FB6F894DEBF0FBECF
:101C6000CDBFDF91CF911F910F91FF90EF90DF904B
:101C7000CF90BF900C94FF028F5FFF0C843009F06F
:101C8000C0CF0F5F1F4F0330110509F0A5CF8FEFB5
:101C900089838A831B820E94D0198160782F9D835B
:101CA0008C8349815A816B818D810E94680EC5CFDA
:101CB0002A960FB6F894DEBF0FBECDBFDF91CF914D
:101CC0001F910F91FF90EF90DF90CF90BF900895FC
:101CD000CF93DF93CDB7DEB72B970FB6F894DEBF67
:101CE0000FBECDBF4F83588769877A878B871E8247
:101CF0001D8285E0FE013796DE01119601900D925E
:101D00008A95E1F749815A816B817C818D819E8121
:101D10002B960FB6F894DEBF0FBECDBFDF91CF91EB
:101D20000C941C14FC01808191810C94E416CF93D7
:101D3000C82F882309F447C08CEF8C0F813AA0F498
:101D40006C2F80911D0190911E010E94A418882380
:101D500029F08C2F0E9419170E9483178C2F0E9444
:101D60001217CF910C94831780E28C0F883048F4BF
:101D7000C77081E001C0880FCA95EAF70E943A1740
:101D8000F0CFEBE5EC0FE33040F4F0E0E255FE4F2E
:101D9000808190E0CF910C94820DE8E5EC0FE73163
:101DA00050F4F0E0EE0FFF1FE058FE4F808191816C
:101DB000CF910C94980DC03F30F08C2F0E94DE1A0A
:101DC000CF910C94C91BCF910895882361F19CEFAA
:101DD000980F913A20F40E9419170C94831790E2FF
:101DE000980F983050F4877091E001C0990F8A9550
:101DF000EAF7892F0E944017F0CF9BE5980F9330A8
:101E000020F490E080E00C94820D98E5980F9731D3
:101E100020F490E080E00C94980D803F20F00E9428
:101E2000461B0C94C91B0895CF93C82F0E94970E90
:101E3000C93349F42FEF87EE93E021508040904062
:101E4000E1F700C000008C2FCF910C94E50E8823A1
:101E500021F00E943A170C9483170895882321F0EB
:101E60000E9440170C9483170895BF92CF92DF927F
:101E7000EF92FF920F931F93CF93DF936C01D62FB6
:101E8000C72FFC01058102950F70128111110E946C
:101E900057170E943017E82E882391F01123D1F0B4
:101EA0008C2F807F803421F080E28D0F883090F07D
:101EB00082E00E94CE170E94301791E0E82EE926BA
:101EC000BC2EB2949FE0B922EB2DF0E0E25BFB4D1B
:101ED0000C94E123E12CF4CF0C2F0F70C07F11F094
:101EE0000295007F1123A9F0002359F080E28D0FA5
:101EF000883010F0D11109C0802F0E943A170E943B
:101F000083178D2F0E94970E14C0802F0E944A17AE
:101F1000F6CF8D2F0E94E50E002359F080E28D0F41
:101F2000883010F0D1112CC0802F0E9440170E94E1
:101F300083172B2D2850330B2430310520F40E94B9
:101F40004E0D0E94FF02EE2009F49EC10E942C1744
:101F500080FD9AC1F60112820E9426170E94B315D5
:101F6000C6010E9465110E942617DF91CF911F9133
:101F70000F91FF90EF90DF90CF90BF900C94D4150D
:101F8000802F0E945017D3CFFC2FFF70FF2EC07FF1
:101F9000C03219F0F29480EFF822DD2369F0D130DD
:101FA00049F1112391F1002351F1F601858180FF60
:101FB000A8CF8F70858323C0112381F0011106C043
:101FC0000E946A178F290E94270FB3CF0130C1F7F3
:101FD0000E946A178F290E947017ABCF011106C0AB
:101FE0000E9479178F2D0E942E0FA3CF013009F484
:101FF000A0CFF6CF112329F0063008F09ACF8F2D0D
:10200000E2CF053008F095CFEDCF002359F3D93357
:1020100049F4FFEF27EE33E0F15020403040E1F784
:1020200000C000008D2F0E94E50E83CF8C2F869577
:102030008695837069F0813009F07BCF8D2F9C2FBE
:102040009370111102C090E080E00E94980D71CF52
:102050008D2F9C2F9370111102C090E080E00E94A0
:10206000820D67CF8D2F112329F00E94DE1A0E9466
:10207000C91B5FCF0E94461BFACF8C2F837009F0DB
:1020800041C0111156CF4D2F429546954770440FD0
:10209000440F0D2F0F7010E030E020E0042E04C03C
:1020A000000F111F221F331F0A94D2F760E070E067
:1020B000CB01D4FF0FC06FE070E080E090E004C07F
:1020C000660F771F881F991F4A95D2F76095709504
:1020D00080959095C695C695C370602B712B822B09
:1020E000932BC23049F058F4C13019F00E945215B8
:1020F00020CF0E9440151DCF0E9464151ACF0E9468
:102100003E1517CF8695112311F08C2F81708823EF
:1021100009F40FCF4D2F429546954770440F440F59
:102120000D2F0F7010E030E020E0042E04C0000FEF
:10213000111F221F331F0A94D2F760E070E0CB0119
:10214000D4FF0FC06FE070E080E090E004C0660F45
:10215000771F881F991F4A95D2F7609570958095D3
:102160009095C695C695C370602B712B822B932BCF
:10217000C23049F058F4C13019F00E942A16D9CE65
:102180000E941816D6CE0E943C16D3CE0E94781517
:10219000D0CECF70112329F08C2F0E94B3158D2F34
:1021A00012CF8D2F0E942E0F8C2F0E94D415C1CEDE
:1021B000D23F89F160F4D03FC9F0D13F29F111231A
:1021C00009F442C001119DCE8C2F8F7121C0D33FE5
:1021D00039F1D43FA1F7112369F1CF718C2F0E94FF
:1021E000B31563E08C2F0E94B917A3CE112341F0E1
:1021F000053008F09ECE8C2F8F710E94F71599CE76
:10220000063008F096CEF7CF8C2F8F71112369F22C
:102210000E94B3158ECE8C2F8F711123C9F3C5CFB9
:10222000112329F08C2F8F710E949E1582CE0E945F
:1022300084157FCE81E00E94CE17023008F479CE5B
:1022400082E00E94CE1775CE002359F0D93309F0F1
:10225000E9CE8FEF97EEE3E081509040E040E1F768
:10226000DFCE8C2F8F71A1CF4C2F4F706D2FC601F9
:102270000E9459030E94B6145CCE4C2F4F706D2FF4
:10228000C6010E945C0355CEDF91CF911F910F9143
:10229000FF90EF90DF90CF90BF9008950F931F9322
:1022A000CF93DF93EC01688179818A810E94EE16D9
:1022B0008C010E944E160E943D15B801CE01DF919F
:1022C000CF911F910F910C94350FCF93DF93EC01B9
:1022D0008B819C81892B29F08881998189238F3F6B
:1022E00059F4DF91CF910895CE010E944E11CE0195
:1022F000DF91CF910C94E102CE010E94170381116E
:10230000F3CF0E943017882361F38A81882349F331
:1023100082E0DF91CF910C94CE170E9457170E9454
:1023200067170E9483170E94F01C0E94C91B90E04F
:1023300080E00E94820D90E080E00C94980D0E9455
:1023400020170C948D110E9447170C949F11E92FB0
:10235000E295EF70E250EE3070F4F0E0E25AFB4D9F
:102360000C94E123803F19F020F4883E20F481E0B2
:102370000895843FE1F380E00895883EC0F3813FF3
:10238000D1F7F5CF93FB882780F908950E94E416D2
:102390000C94A711CF93DF9300D000D00F92CDB74C
:1023A000DEB70F900F900F900F900F90DF91CF91AD
:1023B0000895CF93DF9300D000D000D0CDB7DEB723
:1023C00026960FB6F894DEBF0FBECDBFDF91CF913A
:1023D00008951F93CF93DF93C091D00116E08091B1
:1023E000D1018C1304C0DF91CF911F910895D0E0EB
:1023F0001C9FF0011D9FF00D1124EE52FE4F4081F5
:10240000518162817381848195810E94D9112196C5
:10241000C770E5CF4091020250910302609104021F
:102420007091050280910602909107020C94D911D7
:102430001F93CF93DF9380910702807FA9F480914F
:102440000402882389F08091D001C091D10160916C
:10245000020270910302A0910502B0910602D62FEC
:10246000D72316E0C81304C0DF91CF911F910895C0
:1024700090E0109711F0DF3F19F401968770F2CFCA
:10248000189F9001199F300D1124F901EE52FE4F53
:1024900041814713F2CF40814613EFCF4281411172
:1024A000ECCF438154814A1B5B0B483C510528F714
:1024B000809107028F70806180930702F901E952D1
:1024C000FE4F80818F708061808382E092E00E9465
:1024D0006511DF91CF911F910C94E911AF92BF92DA
:1024E000CF92DF92EF92FF920F931F93CF93DF93E0
:1024F000CDB7DEB761970FB6F894DEBF0FBECDBF84
:102500008C0185E0F801DE011D9601900D928A95FF
:10251000E1F7F80140815181E28082E0C82E82E03B
:10252000D82E60910502709106026115710509F4BB
:1025300061C19091020220910302892F82238F3F73
:1025400009F458C1A380B480F0900402F501E61BA1
:10255000F70BFF2009F4FCC080910702382F307F71
:10256000E83CF10508F0B2C0311179C0FE2C25130A
:1025700023C0941321C0E1101FC08F70806180932D
:1025800007020E940A12C6010E946511809107028B
:10259000F80185838F2D61960FB6F894DEBF0FBECC
:1025A000CDBFDF91CF911F910F91FF90EF90DF9002
:1025B000CF90BF90AF900895AB2829F0842F85234A
:1025C0008F3F09F033C180E0F82FF170DF2E80FFDC
:1025D0003CC08091D0012091D10136E0821315C01A
:1025E0004D875E878D859E850E94E416292F229552
:1025F0002F702230F0F0243018F59F70F1F0F801C0
:102600009581907FD1F4D12C1EC090E0389FF001CD
:10261000399FF00D1124EE52FE4F6181651306C003
:102620006081641303C062816E110FC001968770D0
:10263000D5CF9F7011F0882331F3805E883018F376
:10264000C8010E946511FD2CA5CFEE2009F4A2CF90
:1026500080910702816080930702F12C9BCF2513A4
:1026600006C0941304C0F801EE2009F48DC04D8714
:102670005E878D859E850E94C611882319F1EE2004
:1026800009F180910702803270F0209102023091AE
:10269000030238872F831986BB86AA868C87CE01D2
:1026A00007960E94651186E0F801A2E0B2E0019071
:1026B0000D928A95E1F70E9418120E940A12FF24D7
:1026C000F39468CFC8010E946511F9CF311113C08E
:1026D0007A2DB98AA88A6E2D89890E94CA1182E052
:1026E00092E00E94651186E0F60111928A95E9F761
:1026F0000E940A12B2CF25130FC094130DC0E1102F
:102700000BC0F8018583C8010E94651186E0F601BF
:1027100011928A95E9F73ECF4D875E878D859E851C
:102720000E94C611882371F2EE2061F280910702A7
:10273000803208F4B8CF20910202309103023A832C
:1027400029831B82BD82AC828E83CE010196A9CFE4
:10275000E83CF10508F041C0FE2CEE2009F4B2CFB0
:1027600025132AC0941328C08091070280FD1BC046
:10277000982F907FC1F0F8018583903F31F0982F1A
:10278000907F905F8F70892B8583C8010E946511AF
:1027900086E0F801A2E0B2E001900D928A95E1F79F
:1027A0000E940A12F7CE86E0F801A2E0B2E00190A2
:1027B0000D928A95E1F7EECE4D875E878D859E85D9
:1027C0000E94C61181116FCF8091070281608093B2
:1027D0000702C8010E946511DDCE7A2DB98AA88A48
:1027E0006E2D89890E94CA1186E0F60111928A95A0
:1027F000E9F7D6CFEE2009F465CF4D875E878D854A
:102800009E850E94C611F82E882309F45BCF86E0CE
:10281000F801A2E0B2E001900D928A95E1F782E022
:1028200092E00E94920E0E941812BACF81E08E258B
:10283000CBCE88EC90E008951F93CF93DF93CDB774
:10284000DEB72C970FB6F894DEBF0FBECDBF4F8317
:10285000588769877A878B879C87CE0107960E9465
:102860006E12882369F08A859B85892B39F04F8108
:102870005885842F85238F3F09F071C016E05FC013
:1028800086E0FE013796DE01119601900D928A9541
:10289000E1F78A859B85892B89F38F819885892328
:1028A0008F3F61F32091D10130E0C901019687701B
:1028B00099274091D0014817190671F40E94A3117D
:1028C0001092D1011092D00186E0E2E0F2E0DF0147
:1028D0001D928A95E9F7D2CF96E0929FD001939FFF
:1028E000B00D1124AE52BE4FFE01319601900D92F3
:1028F0009A95E1F78093D1010E94E911BFCF819FA2
:10290000C00111248E529E4F0E946E128823E9F05E
:10291000E091D0011E9FF0011124EE52FE4F408144
:10292000518162817381848195810E94D911809146
:10293000D00190E00196877099278093D001809113
:10294000D0019091D1018913DACF2C960FB6F8946B
:10295000DEBF0FBECDBFDF91CF911F910895698576
:102960007A858B859C850E94D91188CFEF92FF9242
:102970000F931F93CF93DF938C01892B81F0F12C60
:10298000EE24E394E8012196F8018491843770F4F1
:10299000843008F05FC08130B1F08230A1F1DF9166
:1029A000CF911F910F91FF90EF900895853709F413
:1029B0004CC008F43DC09CE7980F903780F78F77A4
:1029C0000E94E50E49C00E5F1F4FFE01849190E208
:1029D000980F983060F48770FE2D01C0FF0F8A9524
:1029E000EAF78F2F0E945A170E94831702C00E9495
:1029F000970E8F2D815030F2EFE9FFE03197F1F71C
:102A000000C00000F7CF0E5F1F4FFE01849190E2DF
:102A1000980F983050F48770FE2D01C0FF0F8A95F3
:102A2000EAF78F2F0E946017DFCF0E94E50EE1CFFB
:102A30000E5F1F4FFE01C491C150D8F28FE99FE095
:102A40000197F1F700C00000F7CF0E5F1F4FFE01A6
:102A5000F490CFCF0E94970E8E01CBCF08950C94A7
:102A60002E150E942F156093160270931702809303
:102A70001802909319020C948D1108950C9431153D
:102A80000F931F93009116021091170220911802C4
:102A900030911902602B712B822B932B1F910F9178
:102AA0000C9431150F931F93009116021091170289
:102AB00020911802309119026023712382239323FD
:102AC0001F910F910C9431150F931F9300911602D3
:102AD0001091170220911802309119026027712776
:102AE000822793271F910F910C9431150C94670244
:102AF0000E94761560931202709313028093140261
:102B0000909315020C948D1160E070E0CB010C9451
:102B10007815611571058105910529F481E044233B
:102B200061F080E00895DC01CB0104C0B695A79563
:102B3000979587954A95D2F7817008950F931F93C3
:102B400041E050E060E070E08A019B0104C0000FAA
:102B5000111F221F331F8A95D2F7C901B8011F9197
:102B60000F910C9478150F931F9341E050E060E0B3
:102B700070E004C0440F551F661F771F8A95D2F777
:102B80008091120290911302A0911402B09115024B
:102B90008A019B01082B192B2A2B3B2BC901B80159
:102BA0001F910F910C9478150F931F9341E050E003
:102BB00060E070E004C0440F551F661F771F8A95C0
:102BC000D2F7CB01BA0160957095809590950091F0
:102BD0001202109113022091140230911502602309
:102BE0007123822393231F910F910C9478150F93D7
:102BF0001F9341E050E060E070E004C0440F551FB7
:102C0000661F771F8A95D2F7809112029091130266
:102C1000A0911402B09115028A019B01082719277F
:102C20002A273B27C901B8011F910F910C947815F1
:102C30000F931F930091120210911302209114021E
:102C400030911502602B712B822B932B1F910F91CA
:102C50000C9478150F931F93009112021091130298
:102C60002091140230911502602371238223932353
:102C70001F910F910C9478150F931F9300911202DE
:102C800010911302209114023091150260277127D0
:102C9000822793271F910F910C9478150895990F0F
:102CA000990F890F982F977041E001C0440F9A95B2
:102CB000EAF786958695869595E0899FF00111241F
:102CC000E85FFD4F30E020E070E05191DF011197A7
:102CD000CB01022E02C0969587950A94E2F7817087
:102CE00081958527842385278C932F5F3F4F25303F
:102CF000310559F70895990F990F890F982F9770FB
:102D000086958695869525E0829FF0011124E85FDF
:102D1000FD4F50E040E080E0219130E0092E02C0FC
:102D2000369527950A94E2F721703327042E01C0C7
:102D3000220F0A94EAF7822B4F5F5F4F453051050F
:102D400059F70895BF92CF92DF92EF92FF920F93BF
:102D50001F93CF93DF938C01C0901202D090130287
:102D6000E0901402F09015028091160290911702E3
:102D7000A0911802B0911902C82AD92AEA2AFB2A7E
:102D8000CFE1D0E0BC2ED701C6010C2E04C0B69511
:102D9000A795979587950A94D2F780FD0EC0219745
:102DA00088F7B12C8B2DDF91CF911F910F91FF9060
:102DB000EF90DF90CF90BF900895B8018C2F0E94C4
:102DC0007903019761F3EECFCF93DF93EC010E947B
:102DD000A216BE01DF91CF910C9479031F93CF937C
:102DE000DF93EB019091CF01992331F0CB01DF917B
:102DF000CF911F910C94E416882379F0CB010E94A7
:102E0000A216182F682FCE010E944F16BE01812FE7
:102E1000DF91CF911F910C947903CB010E947B1617
:102E2000182FF4CF682F80911D0190911E010C94F2
:102E30002419682F80911D0190911E010C942F1967
:102E400080911D0190911E010C943A1980911A02F3
:102E5000859585958595089580911A0287700895C6
:102E600090911A02977081E009F480E008958091B2
:102E70003E02089590913E02892B80933E02089570
:102E8000809590913E02982390933E02089510926F
:102E90003E02089590913D02892B80933D02089552
:102EA000809590913D02982390933D020895109251
:102EB0003D02089590913C02892B80933C02089535
:102EC000809590913C02982390933C020895109233
:102ED0003C02089580911B02089508950C946D178B
:102EE00090911B02981721F080931B020C946E178F
:102EF000089580911B02882329F010921B0280E024
:102F00000C946E170895E0911D01F0911E018091BF
:102F10003E028083E0911D01F0911E01808190911D
:102F20003D02892B8083E0911D01F0911E0180817B
:102F300090913C02892B808390911B02992381F010
:102F4000E0911D01F0911E018081892B8083809189
:102F50001D0190911E010E94901881110E94791705
:102F600080911D0190911E010C945A0D08950C94AE
:102F7000B61798E0899F90011124622B60931A0282
:102F80000E94B31580911A028595859585950C94BC
:102F9000B71710921A0280E00C94B71790911A029A
:102FA0008095892380931A02282F277071F4282F87
:102FB000082E000C330B9217130639F08595859572
:102FC00085950E94D4150C94C91708956FEF7FEF73
:102FD00090E080E00C94222490E080E00E94FE23A8
:102FE00021E08C3E9E4F09F020E0822F089582E080
:102FF00090E00C94F02383E090E00C94F023CF93C6
:1030000084E090E00E94F023C82F81E290E00E94CB
:10301000F023982F8C2FCF910895CF93C92F682F2D
:1030200084E090E00E9404246C2F81E290E0CF9134
:103030000C940424AB01BC018FE090E00C941624A6
:10304000AB01BC0183E190E00C94162460E070E0D9
:10305000CB010C94201860E070E0CB010E941A189C
:103060000C9426186CEE7EEF90E080E00E94222403
:1030700060E082E090E00E94042460E083E090E061
:103080000E94042410921602109217021092180245
:103090001092190260E084E090E00E94042460E055
:1030A00081E290E00E94042460E085E090E00E94CC
:1030B000042460E086E090E00E9404246FEF87E043
:1030C00090E00E94042440E050E0BA0188E090E0E3
:1030D0000E94162460E08DE090E00E94042440E00D
:1030E00050E0BA0188E190E00E94162460E087E198
:1030F00090E00E94042440E050E0BA018CE190E0AE
:103100000E94162460E080E290E00E9404240C9467
:103110002B180C943218682F8EE090E00C94042445
:10312000FC01329680913101882321F080918B023D
:103130009EE187FF96E080E0915008F40895219188
:103140002223D1F38F5FF8CF662301F12091310163
:103150002223F1F020918B0227FF1AC0462F4695BB
:10316000469546954E3190F4677021E030E002C0FC
:10317000220F331F6A95E2F7840F911DFC018281B3
:1031800090E02823392381E0232B69F480E008951F
:10319000FC01329608962191261721F0E817F907CD
:1031A000D1F7F4CF81E008959C01FC0132969FEFA6
:1031B00080E04191461751F09F3F19F4411101C041
:1031C000982F8F5F8630A9F79F3F09F40895290F44
:1031D000311D97FD3A95F90162830895FC013296FD
:1031E00008962191261303C0DF0111971C92E8175E
:1031F000F907B9F70895E62FE695E695E695EE31DD
:1032000068F4E80FF92FF11D677021E030E001C08C
:10321000220F6A95EAF78281822B82830895E62F36
:10322000E695E695E695EE3170F4E80FF92FF11D7D
:10323000677021E030E001C0220F6A95EAF720951F
:10324000828128232283089520913101222329F0AD
:1032500020918B0227FD0C94FB180C94D41820911C
:103260003101222329F020918B0227FD0C940F19A4
:103270000C94EE18FC01329680913101882351F0B4
:1032800080918B0287FF06C08EE1DF011D928A9537
:10329000E9F7089586E0F9CF089508950C944D1943
:1032A0000E944E1980919102843049F1109240029F
:1032B00088E190E020E40FB6F894A8958093600030
:1032C0000FBE2093600080E00E94FF020E944E1912
:1032D00083B7817F846083BF83B7816083BF789425
:1032E000889583B78E7F83BF0FB6F894A895809199
:1032F0006000886180936000109260000FBE0895A6
:103300000895CF930E944C190E94C3050E94801912
:10331000C0E08C2F0E946B05811105C0CF5FC330C8
:10332000C1F7CF91089581E0FCCF08950C949519D1
:103330000E94A3110E944E0D0E94FF020C94961948
:103340001F921FB61F9211248F939F93AF93BF9329
:1033500080914002811113C0809187029091880270
:10336000A0918902B0918A024196A11DB11D80935E
:10337000870290938802A0938902B0938A02BF913A
:10338000AF919F918F911F901FBE1F90189582E063
:1033900084BD93E095BD9AEF97BD80936E0008952C
:1033A0002FB7F8948091870290918802A0918902AA
:1033B000B0918A022FBF08959C014FB7F894809175
:1033C000870290918802A0918902B0918A024FBF32
:1033D000821B930B089578941F921FB61F9211249D
:1033E0008F939F93AF93BF938091870290918802B0
:1033F000A0918902B0918A020196A11DB11D80930E
:10340000870290938802A0938902B0938A02BF91A9
:10341000AF919F918F911F901FBE1F90189587E7C6
:1034200097E7909301088093000888E19AE00FB62F
:10343000F894A895809360000FBE90936000FFCF32
:103440000C94E6170E94C3052FEF86E791E0215008
:1034500080409040E1F700C000000E94C30580E07A
:103460000E946B0580FF04C00E94201A0C940F1A62
:1034700008950E94EC17811102C00E9489180E94D1
:10348000F71780933F020E94FF1790938C0280935E
:103490008B020E94FB17682F70E090E080E00E9492
:1034A0003E15609112027091130280911402909166
:1034B00015020C9476158091470280FF12C060912E
:1034C000240185E0689FB001112475956795759575
:1034D000679560387105A8F561157105A1F1862F12
:1034E000089581FF09C06091240185E0689FB001C3
:1034F000112475956795EDCF6091240182FD0AC076
:10350000809146028823D1F090912301609124019B
:10351000891728F085E0689FB0011124DACF869FD3
:10352000B001112485E0869F9001879F300D112402
:10353000692F70E0C9010E94CD23CBCF65E070E018
:10354000CECF8FE7089581E008958091470280FFF4
:103550000CC06091200170E0759567957595679531
:103560006115710549F1862F089581FF06C06091AC
:10357000200170E075956795F3CF6091200182FD81
:103580000BC0909145029923A1F060911F01809199
:103590002001961738F0682F70E06038710500F34D
:1035A0008FE70895899FC001112470E00E94CD2308
:1035B000F4CF61E070E0D7CF81E00895803F31F42F
:1035C0000E945B1A819580934B020895813F19F404
:1035D0000E945B1AF8CF823F31F40E945B1A8195FA
:1035E00080934A020895833F19F40E945B1AF8CF32
:1035F000893F29F40E94A51A80934C0208958A3FBE
:1036000021F40E94A51A8195F7CF8B3F31F40E94D7
:10361000A51A819580934D0208958C3F19F40E945C
:10362000A51AF8CF843F31F48091490281608093DC
:1036300049020895853F21F4809149028260F7CFC5
:10364000863F21F4809149028460F1CF873F21F4C5
:10365000809149028860EBCF883F21F48091490234
:103660008061E5CF8D3F31F4809147028160809386
:10367000470208958E3F21F4809147028260F7CF80
:103680008F3FB9F7809147028460F1CF90914A0251
:10369000803F59F480914B0287FF0DC010924B027E
:1036A00091110BC01092460208C0813F81F48091B5
:1036B0004B0218169CF3992381F080914C02909153
:1036C0004D02892B09F064C0109245020895823F93
:1036D00049F497FFF0CF10924A0280914B0281117A
:1036E000ECCFE0CF833F19F41916ACF3E4CF20916F
:1036F0004C02893F29F41216F4F610924C02DBCFEB
:103700008A3F19F427FFD7CFF8CF20914D028B3F86
:1037100029F427FFD0CF10924D02CDCF8C3F19F462
:103720001216CCF3C8CF843F31F4809149028E7FCA
:1037300080934902C0CF853F21F4809149028D7F5B
:10374000F7CF863F21F4809149028B7FF1CF873FED
:1037500021F480914902877FEBCF883F21F480914B
:1037600049028F7EE5CF8D3F31F4809147028E7FF5
:1037700080934702A0CF8E3F21F4809147028D7F36
:10378000F7CF8F3F09F097CF809147028B7FF0CF23
:1037900008950E94D0199C0190914A0280914B0299
:1037A000982B21F0309344022093430290914C02D5
:1037B00080914D02982B21F03093420220934102D8
:1037C00088E492E00C94740DEF92FF920F931F9394
:1037D000CF93DF9300D000D000D0CDB7DEB786E026
:1037E000E8E4F2E0DE01119601900D928A95E1F78E
:1037F000E0904A02F0904B0200914C0210914D0271
:1038000010924A0210924B0210924C0210924D02FA
:103810008E2D8F2991F080914302909144020E9455
:10382000DC19AC0190914602992309F43FC08091C4
:1038300025018417150608F447C0802F812B91F0CD
:1038400080914102909142020E94DC19AC0190915A
:103850004502992309F477C0809121018417150648
:1038600008F47FC080914A0290914B02892B90917D
:103870004C02892B90914D02892B11F00E94C91B9B
:1038800086E0FE013196A8E4B2E001900D928A959F
:10389000E1F726960FB6F894DEBF0FBECDBFDF91DD
:1038A000CF911F910F91FF90EF90089520912601E5
:1038B0008AE0289F900111242417350708F0BDCF16
:1038C0009F5F9093460202C09F3FD1F7EE2059F0D0
:1038D0000E945B1A9FEF1E140CF491E0899F802DCB
:1038E000112480934A02FF2059F00E945B1A9FEF37
:1038F0001F140CF491E0899F802D112480934B02BA
:1039000030914A02332309F498CF20914B022223AD
:1039100009F493CF45EB3403C0011124992359F0E6
:1039200090934A0245EB240390011124332339F08C
:1039300030934B0282CF81E080934A02F3CF81E043
:1039400080934B027ACF209122018AE0289F900138
:1039500011242417350708F085CF9F5F9093450207
:1039600002C09F3FD1F7002359F00E94A51A9FEF94
:1039700010160CF491E0899F802D112480934C0245
:10398000112359F00E94A51A9FEF11160CF491E033
:10399000899F802D112480934D0230914C02332356
:1039A00009F460CF20914D02222309F45BCF45EB4F
:1039B0003403C0011124992359F090934C0245EB34
:1039C000240390011124332339F030934D024ACF60
:1039D00081E080934C02F3CF81E080934D0242CF8F
:1039E00086E0E8E4F2E0DF011D928A95E9F71092A3
:1039F00046021092450210924702089580916E028D
:103A00000895CF93DF9300D00F92CDB7DEB790919A
:103A10009102943019F589837B836A8382E08093D5
:103A2000E9008FEF9091E800815095FD06C095ED7B
:103A30009A95F1F700008111F5CF8091E80085FF9C
:103A40000DC050E040E063E070E0CE0101960E94BE
:103A5000281F8091E8008E778093E8000F900F90E8
:103A60000F90DF91CF910895BC0184E00C94011D6B
:103A7000BC0183E00C94011D9C0182E08093E9006D
:103A80009FEF8091E800915085FD06C085ED8A95F5
:103A9000F1F700009111F5CF8091E80085FF0CC08F
:103AA00050E040E066E070E0C9010E94281F80916C
:103AB000E8008E778093E8000895CF93DF93EC01C0
:103AC000809131018823B1F180918B0287FF32C050
:103AD00060E282E08093E9008FEF9091E8008150EE
:103AE00095FD06C095ED9A95F1F700008111F5CF8F
:103AF0008091E80085FF1BC08091310170E050E0AB
:103B000040E0811104C050E040E068E070E0CE0188
:103B10000E94281F8091E8008E778093E80080E261
:103B2000FE01AEE4B2E001900D928A95E1F7DF91DB
:103B3000CF91089568E081E0CDCF8091900281110E
:103B400009C00E94B8200E9415218091E200846083
:103B50008093E200089510929002089508950895C8
:103B60000C94981942E061EC81E00E94342042E21A
:103B700061EC82E00C94342080919302833009F44C
:103B80005FC030F48130C1F1823009F49BC00895E8
:103B90008A3009F487C08B3009F46DC0893009F090
:103BA0004EC080919202813209F049C08091960204
:103BB00090919702029708F042C08091E800877FB9
:103BC0008093E8008091E80082FF35C09091F30077
:103BD0008091F200029729F48091F1008B7F81306F
:103BE00021F48091F10080936E028091E8008B7740
:103BF0008093E8000C94682080919202813AF9F455
:103C00008091E800877F8093E800809196029091F0
:103C10009702892B61F460E28EE492E070E00E94EA
:103C2000771F8091E8008B778093E800089560E02B
:103C300090E080E0F3CF809191028111C3CF08958D
:103C400080919202813AD9F78091960290919702E1
:103C5000892BA9F78091E800877F8093E800809105
:103C6000E80080FFFCCF809131018093F1008091CA
:103C7000E8008E77BDCF80919202813201F780916A
:103C8000960290919702892BD1F68091E800877F68
:103C90008093E8000E946820809194028093310113
:103CA0000C94A31180919202813249F68091E80030
:103CB000877F8093E8000E9468208091950280931E
:103CC0006F02089580919202813A09F0B8CF8091F5
:103CD000E800877F8093E8008091E80080FFFCCFB8
:103CE00080916F02C2CF84B7877F84BF0FB6F894EC
:103CF000A8958091600088618093600010926000B8
:103D00000FBE80E890E00FB6F89480936100909326
:103D100061000FBE0E94B80D0E94B8200E941521BC
:103D20008091E20084608093E20078940E949E2358
:103D30000E94C20D87E291E00E94490D809191029C
:103D4000853019F00E94CE0DF9CF0E945019809154
:103D50008F02882399F30E948119882379F30E94A6
:103D6000121FECCF0C94B41E292F332723303105BA
:103D700019F168F42130310509F44AC022303105C7
:103D800009F44BC090E080E030E020E028C0213210
:103D9000310579F122323105A9F780E490E023E082
:103DA00033E061157105D9F08CEB90E027E432E047
:103DB00061307105A1F0E6CF99278130910599F026
:103DC000009741F08230910589F00397D9F6E2ED32
:103DD000F1E002C0E6EFF1E0849190E09F01FA018A
:103DE000318320830895EAEEF1E0F6CFE8EDF1E0CB
:103DF000F3CF89E090E02CE032E06115710579F3B2
:103E000089E090E025E232E06130710541F3BACFFC
:103E100082E190E025E332E0E2CF8BE390E02AEF0D
:103E200031E0DDCF80E189BD82E189BD09B400FECA
:103E3000FDCF8091D8008F7D8093D8008091E000E5
:103E400082608093E0008091E00081FDFCCF0895C6
:103E5000AF92BF92CF92DF92FF920F931F93CF93B7
:103E6000DF936C01EB018A010E948720F82E8111FB
:103E700023C00115110539F0F80180819181C81B1B
:103E8000D90BC80ED91EB12CA12C2097A9F0809176
:103E9000E80085FD22C08091E8008E778093E800DD
:103EA00001151105A1F0F80180819181A80EB91EBC
:103EB000B182A08285E0F82E8F2DDF91CF911F91E6
:103EC0000F91FF90DF90CF90BF90AF9008950E9428
:103ED00087208823D1F2F82EEFCFF60181916F0170
:103EE0008093F1002197FFEFAF1ABF0ACECFFC01FC
:103EF000809198029091990286179707A0F061151A
:103F0000710529F49091E8009E779093E80090E085
:103F10006115710551F4911108C08091E80082FF8C
:103F200034C080E00895BC01F2CF809191028823D3
:103F3000C1F18530C1F18091E80083FD30C08091EE
:103F4000E80082FDEACF8091E80080FFE1CF809118
:103F5000F3002091F200382F6115710519F0283017
:103F6000310558F091E02830310509F090E02091BA
:103F7000E8002E772093E800CBCF81918093F10069
:103F8000615071092F5F3F4FE7CF809191028823E5
:103F900041F0853041F08091E80083FFBECF81E0A1
:103FA000089582E0089583E00895FC0180919802CD
:103FB0009091990286179707A0F06115710529F471
:103FC0008091E8008E778093E80090E0611571059C
:103FD00051F4911108C08091E80082FF35C080E063
:103FE0000895BC01F2CF809191028823C9F18530F8
:103FF000C9F18091E80083FD31C08091E80082FD25
:10400000EACF8091E80080FFE1CF8091F30020911A
:10401000F200382F6115710519F02830310558F07C
:1040200091E02830310509F090E08091E8008E772A
:104030008093E800CBCF84918093F100319661505A
:1040400071092F5F3F4FE6CF80919102882341F0A5
:10405000853041F08091E80083FFBDCF81E0089575
:1040600082E0089583E00895982F973028F08F70AC
:104070008093E90081E008959093E900242F762F42
:1040800050E0981731F07091EC002091ED005091C4
:10409000F00021FD02C09F5FE8CF3091EB003E7F32
:1040A0003093EB003091ED003D7F3093ED00309187
:1040B000EB0031603093EB007093EC002093ED0047
:1040C0005093F0002091EE0027FDE5CF80E00895A9
:1040D0008091920287FF13C08091E80082FF06C0A2
:1040E0008091E8008B778093E80004C08091910272
:1040F0008111F2CF0895809191028823D9F38091A4
:10410000E80080FFF8CF8091E8008E77ECCF209117
:10411000E4003091E50095E6A9012091EC00822FA2
:10412000817020FF06C08091E80080FF06C080E01B
:1041300008952091E80022FD1AC080919102882301
:1041400089F0853089F08091EB0085FD0FC02091CA
:10415000E4003091E50042175307F9F29150E1F67F
:1041600084E0089582E0089583E0089581E0089551
:104170000E9426210E942E21E0EEF0E080818160E5
:104180008083E8EDF0E080818F77808319BCA7ED14
:10419000B0E08C918E7F8C9380818F7E8083109293
:1041A000900208950F931F93CF93DF930E942621CF
:1041B0000E942E21C8EDD0E088818F778883888186
:1041C0008068888388818F7D888319BC10929102D2
:1041D00010928D0210928F0210928E0200EE10E06B
:1041E000F80180818B7F808388818160888342E0B1
:1041F00060E080E00E943420E1EEF0E080818E7F7C
:104200008083E2EEF0E0808181608083808188603D
:104210008083F80180818E7F80838881806188839C
:10422000DF91CF911F910F910895E8EDF0E080812B
:104230008F7E8083E7EDF0E080818160808384E081
:1042400082BF81E0809390020C94D220E8EDF0E0F0
:1042500080818E7F80831092E20008951092DA00B0
:104260001092E10008951F920F920FB60F92112441
:104270002F933F934F935F936F937F938F939F936E
:10428000AF93BF93EF93FF938091E10082FF0BC048
:104290008091E20082FF07C08091E1008B7F8093D4
:1042A000E1000E949D238091DA0080FF19C0809177
:1042B000D80080FF15C08091DA008E7F8093DA00ED
:1042C0008091D90080FF96C080E189BD82E189BDDF
:1042D00009B400FEFDCF81E0809391020E949D1DF4
:1042E0008091E10080FF19C08091E20080FF15C03D
:1042F0008091E2008E7F8093E2008091E2008061F5
:104300008093E2008091D80080628093D80019BC2D
:1043100085E0809391020E94AF1D8091E10084FFAF
:104320002BC08091E20084FF27C080E189BD82E13B
:1043300089BD89B5982F917080FFFBCF8091D800FF
:104340008F7D8093D8008091E1008F7E8093E10083
:104350008091E2008F7E8093E2008091E200816094
:104360008093E20080918D02882309F449C084E0A3
:10437000809391020E94B01D8091E10083FF29C0CB
:104380008091E20083FF25C08091E100877F8093C8
:10439000E10082E08093910210928D028091E10011
:1043A0008E7F8093E1008091E2008E7F8093E20017
:1043B0008091E20080618093E20042E060E080E072
:1043C0000E9434208091F00088608093F0000E9469
:1043D000AE1DFF91EF91BF91AF919F918F917F9112
:1043E0006F915F914F913F912F910F900FBE0F9062
:1043F0001F90189519BC109291020E94AB1D70CFAE
:104400008091E30087FD93E090939102B3CF1F92D8
:104410000F920FB60F9211242F933F934F935F93F8
:104420006F937F938F939F93AF93BF93CF93DF93BC
:10443000EF93FF93D091E900DF708091EC00C82FDB
:10444000C17080FDC0E81092E9008091F000877F84
:104450008093F00078940E944B221092E9008091A2
:10446000F00088608093F000CD2BCF70C093E900FE
:10447000FF91EF91DF91CF91BF91AF919F918F917C
:104480007F916F915F914F913F912F910F900FBE50
:104490000F901F9018951F93CF93DF93CDB7DEB782
:1044A000AA970FB6F894DEBF0FBECDBF82E992E0A7
:1044B0002091F100FC012193CF01F2E08A399F079E
:1044C000B9F70E94BC1D8091E80083FF1EC1809156
:1044D0009202909193029A3008F017C1E92FF0E010
:1044E000E459FB4D0C94E123803899F0823809F0AF
:1044F0000CC1809196028F70873008F006C18093BE
:10450000E9008091EB0085FB882780F91092E90093
:1045100006C080918E0290918F02911182609091DD
:10452000E800977F9093E8008093F1001092F100EB
:104530008091E8008E77E5C0882309F4D3C08230EB
:1045400009F0E3C0809194028111D6C08091960257
:104550008F702FEF280F263008F0D7C08093E90026
:104560002091EB0020FFC8C0933031F48091EB0024
:1045700080628093EB00C0C09091EB0090619093BB
:10458000EB0021E030E001C0220F8A95EAF720938A
:10459000EA001092EA008091EB008860EACF811176
:1045A000B4C0109194021F778091E3008078812B32
:1045B0008093E3008091E800877F8093E8000E9469
:1045C00068208091E80080FFFCCF8091E300806844
:1045D0008093E30082E0111183E08093910295C003
:1045E0008058823008F091C0809194029091950299
:1045F0008C3D23E09207A1F583E08A838AE28983D8
:104600004FB7F894DE01139620E03EE051E2E32F2D
:10461000F0E050935700E49120FF03C0E295EF7063
:104620003F5FEF708E2F90E0EA30C0F0C7968D9319
:104630009D932F5F243159F74FBF8091E800877F0A
:104640008093E8006AE270E0CE0101960E94771F35
:104650008091E8008B778093E80057C0C096E7CF41
:104660006091960270919702AE014F5F5F4F0E947A
:10467000B21EBC01892B09F448C09091E800977FD5
:104680009093E80089819A810E94D51FE1CF8038FC
:10469000E1F58091E800877F8093E80080918D02AA
:1046A0008093F10045CF811130C0909194029230F7
:1046B00060F58091E800877F8093E80090938D02F9
:1046C0000E94682080918D02882311F084E005C04B
:1046D0008091E30087FDFACF81E0809391020E94F0
:1046E000B21D13C080919402813079F481E093303F
:1046F00009F080E080938F021092E9008091E80039
:10470000877F8093E8000E9468208091E80083FF03
:104710000AC08091E800877F8093E8008091EB00D9
:1047200080628093EB00AA960FB6F894DEBF0FBEAE
:10473000CDBFDF91CF911F9108950895CF938091C0
:1047400091028823A1F0C091E900CF709091EC0014
:10475000892F817090FD80E8C82B1092E90080912C
:10476000E80083FD0E944B22CF70C093E900CF91F7
:104770000895AA1BBB1B51E107C0AA1FBB1FA617A8
:10478000B70710F0A61BB70B881F991F5A95A9F7FA
:1047900080959095BC01CD01089597FB072E16F4E6
:1047A000009407D077FD09D00E94B92307FC05D0FB
:1047B0003EF4909581959F4F0895709561957F4F38
:1047C0000895EE0FFF1F0590F491E02D0994FB0171
:1047D000DC0102C005900D9241505040D8F7089579
:1047E000F999FECF92BD81BDF89A992780B50895B9
:1047F000A6E1B0E044E050E00C942A24A8E1B0E047
:1048000042E050E00C942A24262FF999FECF92BD65
:1048100081BDF89A019700B4021639F01FBA20BD85
:104820000FB6F894FA9AF99A0FBE08950396272FB7
:104830000E9405240E940424252F0E940524242F71
:104840000C9405240196272F0E9405240C9404241F
:10485000DC01CB01FC01F999FECF06C0F2BDE1BD40
:10486000F89A319600B40D9241505040B8F708952F
:10487000F894FFCFBC09C409CB09D009D509DA09DE
:10488000DF09E409E909EE09F309F809BE09BE09DF
:10489000BE09BE09BE09BE09BE09BE096C0F6C0F78
:1048A000C40FC40F16103210990F990F3D10C91084
:1048B000D810D8103411990F990F3D11B211B211BF
:1048C000BB11BB11BD11BB11BB11BB11B211B21198
:1048D000C211BB11BB11C21174229C2285239C22E0
:0C48E0008523CF22F02285234723532399
:1048EC0001000100010001000100010001000100B4
:1048FC00010001000100010000040004041C022856
:10490C0008641E140A321EFE1C5D1D3C1D381D342D
:10491C001D01E200E900EA00B500B600B700CD00C9
:10492C008301CC008A01920194012102230224020A
:10493C002502260227022A02B300B4006F00700081
:10494C00818283F0F1F4F567F7F6000100FF0100B6
:10495C00010000FFFF0000010001FF00919690355F
:10496C00E200E900EA00B500B600B700CD00830113
:10497C00CC008A0192019401210223022402250217
:10498C00260227022A02B300B4006F007000818255
:02499C00830096
:00000001FF
