:100000000C94C6010C940D020C940D020C940D027C
:100010000C940D020C940D020C940D020C940D0224
:100020000C940D020C940D020C9404250C94D8250C
:100030000C947F1D0C940D020C940D020C940D0277
:100040000C940D020C940D020C940D020C940D02F4
:100050000C940D020C94CA1D0C940D020C940D020C
:100060000C940D020C940D020C940D020C940D02D4
:100070000C940D020C940D020C940D020C940D02C4
:100080000C940D020C940D020C940D020C940D02B4
:100090000C940D020C940D020C940D020C940D02A4
:1000A0000C940D020C940D020C940D02C800BE00BD
:1000B000B400000000042BFF78FF000000000004E3
:1000C00055FF78FF000000000004BFFF78FF00002C
:1000D00000002B05F500F000F4005108F200F100DB
:1000E000F300285D0057290000001F052A011B02AC
:1000F00013022B020A000800060010501150125083
:1001000000001E052F0130011A002B0214001505F6
:1001100015001050115012500000000101010101A2
:1001200001010101020202020202020202030303B0
:100130000303030303040404040404040505050580
:100140000506060606060707070707080808080940
:100150000909090A0A0A0B0B0B0C0C0C0D0D0D0EEC
:100160000E0E0F0F0F101011111112121313141481
:10017000151516161717181819191A1A1B1B1C1DF6
:100180001D1E1E1F2020212222232424252626274F
:100190002829292A2B2C2D2D2E2F30313232333481
:1001A00035363738393A3B3C3D3E3F404142434487
:1001B00045464748494A4C4D4E4F50515354555669
:1001C00058595A5B5D5E5F616264656668696B6C15
:1001D0006D6F7072737577787A7B7D7E8082838590
:1001E00087888A8C8E8F91939596989A9C9EA0A2D0
:1001F000A3A5A7A9ABADAFB1B3B5B7BABCBEC0C2DA
:10020000C4C6C9CBCDCFD1D4D6D8DBDDDFE2E4E79D
:10021000E9EBEEF0F3F5F8FAFDFF0403300000001F
:1002200010034C0079006E006500700061006400EE
:1002300000000A0351005600450058000000040366
:10024000090409023B00020100A0FA0904000001B0
:10025000030101000921110100012240000705816D
:100260000308000A0904010001030000000921112C
:1002700001000122BC000705820320000A120110C0
:1002800001000000085651504C0100010203010515
:10029000010902A10185020901A10005091901292D
:1002A00005150025019505750181029501750381EC
:1002B000010501093009311581257F9502750881F5
:1002C0000609381581257F950175088106050C0AF8
:1002D00038021581257F950175088106C0C005018A
:1002E0000980A101850319012AB700150126B7006D
:1002F000950175108100C0050C0901A10185041943
:10030000012AA002150126A002950175108100C0E6
:1003100005010906A1018505050719E029E7150072
:1003200025019508750181020507190029EF1500BF
:10033000250195F07501810205081901290595052A
:1003400075019102950175039101C005010906A18E
:1003500001050719E029E7150025019508750181B8
:10036000029501750881010507190029FF1500266E
:10037000FF009506750881000508190129059505F6
:1003800075019102950175039101C00011241FBEF2
:10039000CFEFDAE0DEBFCDBF04B603FE27C0809109
:1003A000B3029091B402A091B502B091B602873029
:1003B000904BA740B04BD1F41092B3021092B4020C
:1003C0001092B5021092B60214BE84B7877F84BF24
:1003D0000FB6F894A89580916000886180936000C2
:1003E000109260000FBEE0E0F8E3099511E0A0E094
:1003F000B1E0EEE8F0E502C005900D92A83CB1072F
:10040000D9F722E0A8ECB1E001C01D92A33BB207EE
:10041000E1F70E9444220C9409280C9400005298A1
:100420005A983E98469854985C9826982E985798D3
:100430005F9824982C980895809116019091170147
:10044000909315018093140189B182FB882780F96C
:10045000809316011092170180911201909113015F
:10046000909311018093100186B186FB882780F953
:10047000809312011092130180910E0190910F014F
:1004800090930D0180930C0189B1829581708093C6
:100490000E0110920F0180910A0190910B0190932F
:1004A00009018093080183B186FB882780F9809336
:1004B0000A0110920B01809106019091070190931F
:1004C00005018093040189B1082E000C990B892F36
:1004D000881F8827881F809306011092070180914A
:1004E000020190910301909301018093000183B177
:1004F0008295817080930201109203010C94850310
:10050000FC018081813011F40C948F190E94B30A90
:100510000C945A058091C8018F5F833018F4809342
:10052000C80108951092C80108958CEA90E0909354
:10053000CD018093CC010E94551980E00E948F1953
:100540000E94AD0B48E76FEF8FEB0C94760BCF92C8
:10055000DF92EF92FF926B017C0140E00E945A19FA
:10056000682F80E00E94F00B41E0C701B6010E94B5
:100570005A19682F81E00E94F00B42E0C701B601D2
:100580000E945A19682F82E00E94F00BC701B60141
:10059000FF90EF90DF90CF900895CF93C1E0883225
:1005A0009D4569F4FB01C2818091C801CC23A9F06B
:1005B000813069F0882331F0823061F0C0E08C2F07
:1005C000CF9108958DEF90E00E94C404F7CF8EEF95
:1005D00090E0FACF8FEF90E0F7CF813061F0882381
:1005E00029F0823061F78FEF90E002C08DEF90E04C
:1005F0000E94D904E4CF8EEF90E0FACF811145C07C
:10060000662321F10E946F19882319F089EF0C9459
:10061000D71281E00E946F19882311F08FE2F7CF83
:1006200082E00E946F19882309F46EC080EE90E08A
:100630000E94C4048DE290E00E94C4048DE290E028
:100640000E94D90480EE90E00C94D90480E00E94CE
:100650006F19882311F08AEFDACF81E00E946F19B9
:10066000882311F080E3D3CF82E00E946F198823A2
:1006700009F44AC080EE90E00E94C4048EE290E04B
:100680000E94C4048EE290E0DBCF8130E9F580E087
:100690006623F9F00E946F19882311F08AEAB7CF18
:1006A00081E00E946F198111C1CF82E00E946F1911
:1006B000882351F181EE90E00E94C40482E590E02D
:1006C0000E94C40482E590E00E94D90481EE90E08B
:1006D000BBCF0E946F19882311F089EA98CF81E07F
:1006E0000E946F198111C6CF82E00E946F19882382
:1006F00059F081EE90E00E94C40481E590E00E94F0
:10070000C40481E590E0E0CF0895809116019091B6
:10071000170120911401309115018217930749F0B8
:100720001816190634F080E00E946F1981110E949A
:100730008A02209112013091130180911001909151
:1007400011012817390709F0E7C080910E01909137
:100750000F0120910C0130910D018217930771F068
:10076000181619060CF45FC080E00E946F198823E8
:1007700009F450C089EF90E00E94C40480910A01FE
:1007800090910B0120910801309109018217930784
:1007900071F0181619060CF462C080E00E946F19FF
:1007A000882309F453C08AEF90E00E94C40480912A
:1007B00006019091070120910401309105018217F3
:1007C000930771F0181619060CF46AC080E00E94B5
:1007D0006F19882309F456C08BEF90E00E94C4047F
:1007E000809102019091030120910001309101015B
:1007F0008217930709F490C0181619060CF476C0F6
:1008000080E00E946F19882309F462C08CEF90E0A9
:100810000C94C40481E00E946F19882309F4AECFC0
:1008200082E590E0A9CF80E00E946F19882329F02B
:1008300089EF90E00E94D904A1CF81E00E946F1956
:10084000882309F49BCF82E590E0F4CF81E00E94F9
:100850006F19882309F4ABCF81E590E0A6CF80E043
:100860000E946F19882329F08AEF90E00E94D90432
:100870009ECF81E00E946F19882309F498CF81E50B
:1008800090E0F4CF81E00E946F19882319F080E591
:1008900090E0A4CF82E00E946F198111F8CFA0CF21
:1008A00080E00E946F19882329F08BEF90E00E946E
:1008B000D90496CF81E00E946F19882319F080E552
:1008C00090E0F5CF82E00E946F198111F8CF88CFB8
:1008D00081E00E946F19882319F08FE490E098CF8F
:1008E00082E00E946F198111F8CF089580E00E9484
:1008F0006F19882321F08CEF90E00C94D90481E0EB
:100900000E946F19882319F08FE490E0F6CF82E0FF
:100910000E946F198111F8CF0895CF93DF939C0146
:100920003A9521153F4168F5EC01CC27D170DC01E7
:10093000AA27B270AC01442754709C01222738705A
:1009400094FF11C080E1CD2B09F480E0AB2B09F0BE
:100950008062452B09F08064232B09F08068FB013D
:10096000DF91CF91099481E0CD2B09F480E0AB2B8E
:1009700009F08260452B09F08460232B81F38860A5
:10098000EECFDF91CF910895CF93DF93EC01805E9E
:100990009109089720F060E575E1209711F46AEE5F
:1009A00072E1CE010E948D048C2FDF91CF910C94C7
:1009B0005A12CF93DF93EC010E94A812CE01805E01
:1009C0009109089720F067E575E1209711F461EF30
:1009D00072E1CE01DF91CF910C948D0481E00895F6
:1009E0000C94CD0208950C94F2041F93CF93DF93DF
:1009F00000D000D00F92CDB7DEB749835A836B8306
:100A00003091E80189819A8131111DC06623B9F0C6
:100A10002223A9F00E947E1A182F682F89819A81BB
:100A20000E942B1A69817A81812F0F900F900F906D
:100A30000F900F90DF91CF911F910C94B9050E94F8
:100A4000571A182FEFCF0E947E1A69817A81EDCF55
:100A5000FC01262F408151816281738184810C9435
:100A6000F504CF93DF93EC0160E00E942805BE01FE
:100A7000DF91CF910C94F3040E94011E0E94CB1BC6
:100A8000811102C00E94681C0C94C5070E94B51019
:100A90000C941C0208950C944A0581E008950C946E
:100AA0004D05CF93C82F0E944B058C2FCF910C94EE
:100AB0004F0508950E9474150E9459052FEF84E395
:100AC0009CE0215080409040E1F700C000000C9471
:100AD000EE1D0F931F93CF93DF93EC0161E00E9413
:100AE00028058C01BE010E941510BE01C8010E949C
:100AF000F004882389F1BE01C8010E945B1088239D
:100B000059F1BE01C8010E94160E882329F1BE01C9
:100B1000C8010E94680E8823F9F0BE01C8010E9436
:100B20008B0F8823C9F0BE01C8010E94120C8823D4
:100B300099F08A81882339F001158CE5180751F066
:100B40000E3D1C4579F0CE01DF91CF911F910F91A1
:100B50000C94EE040E945A0580E0DF91CF911F9122
:100B60000F9108950E94681CF7CF90E080E00895EF
:100B70000895E72FF0E093E0899FE00DF11D112427
:100B8000EE0FFF1FEE0FFF1FE60FF11DEE0FFF1F11
:100B9000EE52FF4F859194910895FC01EE0FFF1FD7
:100BA000E65EFE4F859194910895CF93DF930E9466
:100BB000B9050E94EA06EC01811520E5920708F0CC
:100BC00042C0811530E4930708F0BDC0883E91050E
:100BD00028F5803E910508F09DC0883A910588F47B
:100BE000853A910508F08FC08130910509F492C0D3
:100BF000009709F48FC0049708F08CC0D0E0C0E0E3
:100C000089C08F3B910508F489C0805C9109C03C84
:100C1000D105A0F30E94CD05EC017CC08115904266
:100C200050F4C11581E0D80708F074C0C03FD10569
:100C300028F3D0656FC0C11590E3D90708F079C0DB
:100C4000CE019F70E7CF811525E5920758F58115F4
:100C500034E5930708F0A6C0811542E5940750F4E7
:100C6000C11581E5D80708F471C0DC2FCC27C16F0E
:100C7000D06A50C0982F969596959E012370332781
:100C8000C115D34508F07FC0C1E0D0E002C0CC0F51
:100C9000DD1F2A95E2F720E2929FC0011124C82BA4
:100CA000D92B6FC0C11589E5D807A8F4C11598E5FF
:100CB000D90708F07CC0C11526E5D20708F09ECF01
:100CC0008C2F0E948107C82FD0E0DC2FCC27CC27A7
:100CD000DF71D0621FC0C1153AE5D30708F46CC0BC
:100CE000CE0190568115904208F088CF8D2F8F71DC
:100CF0000E94810790E0982F882788279F719C0188
:100D00002C2BE901E6CFC55AD0E0C958DE4FC88187
:100D1000D0E0D064CE01DF91CF910895C85AD0E0E1
:100D2000CC0FDD1FC75BDE4F0990D881C02DD46486
:100D3000F1CFCE019927D3FF03C0EC01D86CEACFE5
:100D4000EC01D06CE7CFDF70D06AE4CFCE01E4E0F5
:100D500096958795EA95E1F783702C2F2695269531
:100D6000237090E2299F90011124382B8C2F8370DF
:100D7000C1E0D0E002C0CC0FDD1F8A95E2F7C22BA4
:100D8000D32BDC68C7CFC1E0D0E002C0CC0FDD1FA1
:100D90002A95E2F730E2939FC0011124C82BD92B8A
:100DA000DA68B8CFD82FCC27C46FD06AB3CFDC2F86
:100DB000CC27C06FD06AAECF8C2F8F700E94810776
:100DC00034E0D695C7953A95E1F7CF709C2FEC01AA
:100DD000D069A0CF82389105B1F1B0F4813391058B
:100DE00009F475C048F48932910509F469C08A3262
:100DF000910509F473C008958533910509F459C02C
:100E00008933910501F10895833E9105A9F138F4E4
:100E1000803E9105F9F0823E910549F10895863EA4
:100E20009105A9F1873E9105C9F1843E910519F517
:100E30002091A50221FF1FC08091A40284FD14C04F
:100E400087EE90E008952091A4022370A1F080EE37
:100E500090E008952091A40220FD47C03091A502A2
:100E600030FF09C024FF44C090E080E004C020911E
:100E7000A40222FDF7CF08952091A40222FD3BC0D9
:100E80003091A50230FDE3CF24FFF5CFEDCF2091C7
:100E9000A40223FFF0CF24FDE7CFD2CF2091A402FC
:100EA00023FD2CC03091A50231FFEECF84EE90E0FF
:100EB00008952091A40225FFDECF89E290E00895F5
:100EC0002091A40225FFD7CF85E390E008952091DB
:100ED000A40226FFD0CF8AE290E008952091A402D8
:100EE00026FFC9CF81E390E0089589E390E008955B
:100EF00083EE90E0089582EE90E0089586EE90E013
:100F000008959091A40292FF06C0282F28712830DE
:100F1000F9F4877F846093FF06C0282F2871283159
:100F2000F1F4877E84612091A50220FF06C0382F4E
:100F300038713830D9F4877F816021FF06C0282FAF
:100F400028712831D1F4877E816194FD877E0895D0
:100F5000282F24712430F9F68B7F8860DCCF282F6E
:100F60002471243101F78B7E8861DDCF382F3171F8
:100F7000313019F78E7F8860E0CF282F2171213121
:100F800021F78E7E8861E1CF08950C94C407E82F85
:100F9000F0E0E457FD4F80810895089580EA8A9536
:100FA000F1F70895CF93DF93AEE7B1E041E851E068
:100FB000C1E0D0E08D91E82FE295EF70F0E061A103
:100FC0008F709E0101C0220F8A95EAF7922F9095AB
:100FD000962391A382A1822B82A34A175B0751F724
:100FE000AAE7B1E04EE751E0C1E0D0E08D91E82FF3
:100FF000E295EF70F0E061A18F709E0101C0220FB9
:101000008A95EAF7922F9095962391A382A1822B3D
:1010100082A34A175B0751F71092890210928C0243
:1010200010928A0210928D0210928B0210928E0200
:1010300083E00E949F08DF91CF910C943C058F9232
:101040009F92AF92BF92CF92DF92EF92FF920F9357
:101050001F93CF93DF938EE7A82E81E0B82E09E887
:1010600012E0912CCC24C394D12CF50181915F0125
:10107000C82FC295CF70D0E099A18F70760101C0C2
:10108000EE0C8A95EAF7892F8E2989A38AA18E2CE6
:10109000809488218AA30E94CE07EAE7F1E050E01D
:1010A00040E020E03191A32FA295AF70B0E0909680
:1010B0008C9190E03F7002C0959587953A95E2F744
:1010C00080FD39C08C2D042E01C0880F0A94EAF7E8
:1010D000282B4F5F5F4F4430510521F789A18822AB
:1010E00089A28AA1E82AEAA2F8018081281729F1B9
:1010F000208381E0982A0F5F1F4FF1E8AF16F1E0DF
:10110000BF0609F0B2CF292D43E06CE872E089E810
:1011100092E00E94A0080E944605892DDF91CF91A0
:101120001F910F91FF90EF90DF90CF90BF90AF9005
:101130009F908F90089580E0CBCF80E0DBCF089523
:10114000FF920F931F93CF93DF93F82E092F162F43
:10115000D72FC42F222349F081E08093CB010E9436
:10116000AF1D9093CA018093C9018091CB01882360
:10117000A1F08091C9019091CA010E94BB1D069700
:1011800060F0EF2DF02FA12FBD2FCE0FDF2FD11D3F
:10119000EC17FD0741F41092CB01DF91CF911F9125
:1011A0000F91FF90089581918D93F2CFEF92FF926E
:1011B0000F931F93CF93DF93EB01E82FD11110C052
:1011C000442321F0F0E0E65EFE4FE4916E2F7E2F87
:1011D0008E2FDF91CF911F910F91FF90EF90089587
:1011E0000D2F10E0282F30E0442329F0265E3E4FDB
:1011F000F901249130E0F6E0CF9FC0011124EFEF18
:10120000F0E0BF010E948A27AB018C2F90E0880F8D
:10121000991FA5E5A49FB001A59F700D1124861B01
:10122000970B982F990F980FBF01601B710B629F4E
:10123000D001639FB00D729FB00D11248B2F9D9F25
:10124000B0011124672F7727EF01C61BD70BBE0112
:10125000629FE001639FD00D729FD00D11247F012A
:10126000E91AF108E09EB001E19E700DF09E700D4C
:101270001124672F7727E61BF70BE29F8001E39F7E
:10128000100DF29F100D1124E12F722F42305105E5
:1012900099F048F44115510569F04130510581F04C
:1012A000EB2F8D2F07C04430510569F080F0463098
:1012B0005105B1F76E2F8DCFE22F7B2F812FFACF03
:1012C000E22F7D2FF7CFEB2F822F712FF3CF7B2FC4
:1012D000822FED2FEFCF41E00C94D608CF93DF9310
:1012E000762FE901682F842F0E946B097983688328
:1012F0008A83DF91CF910895413F08F040EF0C942D
:101300006E0980918F02982F9E7F71F480918F02D9
:101310008170826080938F0280919202813F18F0E9
:1013200080EF809392020895843080F7F5CF88E0B3
:1013300090E00C94C927CF92DF92EF92FF926B015D
:101340007C010E948109B701A60188E090E0FF902E
:10135000EF90DF90CF900C94E727EFE8F2E083E086
:10136000808311828FEF828380EF83831482608178
:101370007181828193810C949B09909193029330A7
:1013800018F49F5F90939302882351F060918F022D
:101390007091900280919102909192020C949B091D
:1013A000089581E00C94BD0990919302992319F05E
:1013B000915090939302882351F060918F02709125
:1013C000900280919102909192020C949B09089551
:1013D00081E00C94D40921E030E001C0220F8A950D
:1013E000EAF79091D101922381E009F480E0089519
:1013F00070E00C946A0C6F927F928F929F92AF92E2
:10140000BF92CF92DF92EF92FF920F931F93CF93F1
:10141000DF9300D000D00F92CDB7DEB770902F01D0
:1014200090918F0290FF26C0C090CC01D090CD014A
:10143000C114D10489F580912E0133E0839FC0014E
:101440001124672D8C569D4F0E94F8090F900F9024
:101450000F900F900F90DF91CF911F910F91FF9000
:10146000EF90DF90CF90BF90AF909F908F907F9044
:101470006F900895809130012091310133E0839F76
:10148000F0011124EC56FD4F821770F61182108284
:1014900012828F5F3396F8CF90FFCDCFF12CE12CE5
:1014A00043E0642E8E2D0E94EB09882309F43CC092
:1014B000F701EE0FFF1FEC0DFD1DA590B490A114D8
:1014C000B10409F4B8CF45E050E0B501CE01019672
:1014D0000E94B82709810F3F39F18A81800F99272F
:1014E000991F8530910514F084E090E04C01880C40
:1014F000991C880D991D9C012C563D4F4901069D54
:10150000800111240C561D4F0815190520F035E0F7
:10151000A30EB11CD8CF98014D816C818B810E94A4
:101520007C090D5F1F4FF0CF8FEFE81AF80A28E013
:10153000E216F10409F0B6CF7ECFEFE8F2E0808149
:101540008E7F808360817181828193810E949B095B
:101550002FEF80E792E0215080409040E1F700C0FB
:1015600000000C94FB09EFE8F2E080818E7F80831D
:101570002FEF80E792E0215080409040E1F700C0DB
:1015800000000C94FB0990918F0290FF14C0909181
:1015900030012091310133E0939FF0011124EC568A
:1015A000FD4F921710F00C94FB09818360834283F6
:1015B0009F5F3396F6CF0895EF92FF920F931F939C
:1015C000CF93DF9300D00F92CDB7DEB7F82E062F62
:1015D000142FE22E80918F0280FF28C0E82FE6951D
:1015E000F0E0EF57FE4F90819093CF018E7F8230D5
:1015F00059F49E012F5F3F4F8F2D0E947C094B8134
:1016000069818A810E94C30AF0929002009391023C
:1016100010939202EE2051F060918F02709190022F
:1016200080919102909192020E949B090F900F90DD
:101630000F90DF91CF911F910F91FF90EF90089540
:10164000EFE8F2E09181282F4381628188E0890FE1
:101650000C94DC0A81E00C94200BEFE8F2E091811D
:10166000282F4381628188EF890F0C94DC0A81E086
:101670000C942D0BEFE8F2E0628128E0620F08F491
:101680006FEF282F438181810C94DC0A81E00C9458
:101690003A0BEFE8F2E0628128E0621B08F460E0B8
:1016A000282F438181810C94DC0A81E00C94490B42
:1016B000EFE8F2E0438128E0420F08F44FEF282FD3
:1016C000628181810C94DC0A81E00C94580BEFE874
:1016D000F2E0438128E0421B08F440E0282F6281B9
:1016E00081810C94DC0A81E00C94670B20E00C945F
:1016F000DC0A80918F0280FF18C081708260809325
:101700008F02662351F060918F0270919002809158
:101710009102909192020E949B09409192026091E5
:101720009102809190020C94760B0895682F81E0CD
:101730000C94790B81E00C94960B682F90918F029A
:1017400096958FEF890F09F481E00C94790B81E075
:101750000C949D0B61E00C94790BEFE8F2E0808132
:101760008160808386950C94AA0B80918F0280FD06
:101770000C949D0A0C94AD0B60E00C94790B809155
:10178000CE0181112CC00E94CB1B811104C00E948C
:10179000681C0E94AD090E94970960938F027093A4
:1017A000900280939102909392026E7F61F40E9466
:1017B000AD090E94970960938F0270939002809305
:1017C0009102909392020E94810980918F0280FF82
:1017D00003C086950E94BC0B81E08093CE010895E2
:1017E00021E030E0A90102C0440F551F8A95E2F7BD
:1017F000CA012091D101662361F0822B8093D1012F
:101800008091D001811108C080918F0286950C943F
:10181000BC0B80958223F2CF0895FA01811101C09B
:10182000FB0109940F931F93CF938C01FB01C2819D
:10183000CC2309F44DC00E94131B8272F801E25CB4
:10184000FC45E431F10538F4E55FF74D0C94B2271F
:101850000E94B50BC0E08C2FCF911F910F9108957E
:1018600047EA5BE06AE97BE00E940D0CF3CF4AE9AE
:101870005BE067EA7BE0F8CF47E35BE06AE27BE0AE
:10188000F3CF4AE25BE067E37BE0EECF45E55BE068
:1018900066E47BE0E9CF46E45BE065E57BE0E4CF2E
:1018A00043E75BE064E67BE0DFCF44E65BE063E7D1
:1018B0007BE0DACF48EE59E061ED79E0D5CF41ED3C
:1018C00059E068EE79E0D0CF81E00E94AA0BC2CF48
:1018D000C1E0C1CF539A4BB1477F5BB15860EFB7BE
:1018E000F8949B01220F331F260F371F280F391F33
:1018F0002817390741F4EFBF8FE594E00197F1F71E
:1019000000C000000895DC016D91CD0178E05BB965
:10191000000000C067FF4BB9660F000000C000C0A8
:1019200000C04BB900C07A9591F7E2CF0C94FE024B
:10193000AF92BF92CF92DF92EF92FF920F931F93DD
:10194000CF93DF93A5E9B1E023E931E086EDA82E3E
:1019500081E0B82E67E971E041E050E00D91802F01
:1019600082958F7090E0FC01C1A10F707A01002E6A
:1019700001C0EE0C0A94EAF7FE2DF095CF23FC018E
:10198000C1A3C2A1CE29C2A3E90119919E01E12FF1
:10199000E295EF70F0E0F1A01F706A01012E01C026
:1019A000CC0C0A94EAF7EC2CE094EF20E1A2F2A030
:1019B000FC28F2A2EC0188A190E002C095958795E1
:1019C0000A95E2F78170E0A1F0E002C0F595E79595
:1019D0001A95E2F790E0E0FD92E0892BF501819302
:1019E0005F016A177B0709F0B9CFDF91CF911F9193
:1019F0000F91FF90EF90DF90CF90BF90AF90089540
:101A00009F92AF92BF92CF92DF92EF92FF920F938D
:101A10001F93CF93DF9306ED11E085E9C82E81E097
:101A2000D82E93E9E92E91E0F92E24EDA22E21E0A3
:101A3000B22EC2EDD1E0912CD801EC91EE0FEE0F59
:101A4000ED938D01D6012D916D01A22FA295AF705E
:101A5000B0E090968C9190E02F7002C0959587959C
:101A60002A95E2F781709927D7014D917D01A42F26
:101A7000A295AF70B0E090962C9130E04F7002C00C
:101A8000359527954A95E2F7A9014170552720FF22
:101A900002C042E050E0842BE82BD8011197EC9370
:101AA000EF70F0E0ED57FE4F8081F5019081890FD6
:101AB000808384303CF088818F5F888360E0892D4B
:101AC0000E94960CD5018C918D3F3CF48881815009
:101AD000888361E0892D0E94960CF50180818378CE
:101AE00087FF03C081508C6F8F5FD5018D935D019F
:101AF0002196B1E09B120CC0DF91CF911F910F9105
:101B0000FF90EF90DF90CF90BF90AF909F9008959F
:101B10009924939491CFAF92BF92CF92DF92EF929C
:101B2000FF920F931F93CF93DF937C015B01C42F30
:101B3000D22FFC0182818823F9F04093DA010E94C0
:101B4000AF1D9093D9018093D80180E28C0F88302B
:101B500008F061C0C77081E001C0880FCA95EAF73C
:101B6000DF91CF911F910F91FF90EF90DF90CF9079
:101B7000BF90AF900C94EA121091DA01141340C098
:101B80008091D8019091D9010E94BB1D6C01B701D1
:101B9000C5010E94EA17C816D90690F5C0E2CD0F1C
:101BA0001D17B9F080E2810F883040F4177081E092
:101BB00001C0880F1A95EAF70E94F112C83048F464
:101BC00081E09D2F977001C0880F9A95EAF70E94D7
:101BD000EA12802F0E94D712C830E8F4D77081E053
:101BE00001C0880FDA95EAF7DF91CF911F910F912D
:101BF000FF90EF90DF90CF90BF90AF900C94F112D8
:101C000080E28C0F883038F4C77081E001C0880F03
:101C1000CA95EAF7E9CFDF91CF911F910F91FF901D
:101C2000EF90DF90CF90BF90AF9008950F939C01FD
:101C3000CB01233F4CE5340759F1A8F4283DFCE5DE
:101C40003F0701F1293D4CE53407D1F1273D3C45E3
:101C500091F406E221EE41EE67ED7CE50E948B0DEA
:101C600080E00F910895253FFCE53F07E9F0B0F0D3
:101C7000263F3C45F9F0FC018281882339F110921E
:101C8000DA01EFCF07E225EE45EE68ED7CE5E6CF21
:101C900006E221EE40EE63EF7CE5E0CF07E225EEC1
:101CA00044EE64EF7CE5DACF06E221EE42EE65EF2A
:101CB0007CE5D4CF07E225EE46EE66EF7CE5CECF9D
:101CC00008E221E045EE69ED7CE5C8CF81E0C9CFAF
:101CD000CF93DF93EC01FB018281882309F419C1C2
:101CE000C230FCE5DF07C0F1C6319CE5D90730F012
:101CF0009E012A5F3C452930310570F50E94DE1BAC
:101D00009093A5028093A402C031ECE5DE0709F4AC
:101D1000CFC008F05BC0C8308CE5D80709F4B6C066
:101D200088F5C430ECE5DE0709F4A8C0C0F4C23081
:101D30008CE5D80709F49CC08091A4028260C3306E
:101D4000DC4509F498C08091A4029091A5020E94FC
:101D5000EC1B0E94741580E0DF91CF910895809173
:101D6000A4028061C630ECE5DE0709F484C08091EE
:101D7000A4028860C730DC4508F47DC08091A402CD
:101D8000806279C0CC308CE5D80709F489C070F442
:101D90008091A4028C60CA30ECE5DE0709F46BC0C8
:101DA00008F478C08091A4028E7F65C0CE308CE5A7
:101DB000D80709F479C08091A4028B7FCF30DC452D
:101DC00008F459C08091A4028F7E55C0CB3FECE54A
:101DD000DE0709F457C030F5C3318CE5D80709F4A4
:101DE0006FC078F4C131ECE5DE0709F465C0C2319B
:101DF000DC4509F0A8CF0E9474158091A4028F776A
:101E00003AC0C5318CE5D80709F462C008F476C041
:101E10008091A5028160CA3FDC4509F094CF809390
:101E2000A50291CFCF3FFCE5DF0709F44DC088F450
:101E30008091A5028D7FCD3F9CE5D90781F38091EC
:101E4000A5028E7FCE3FDC4550F38091A5028360D2
:101E5000E6CFC130FDE5DF0709F459C008F444C0FE
:101E600080E0C230DD4509F06ECF0E946A1C6BCF66
:101E70008091A40281608093A40265CF8091A40226
:101E80008460F9CF8091A5028260C9CF8091A402BD
:101E90008064F1CF0E9474158091A4028068EBCF1A
:101EA0008091A4028D7FE7CF8091A402877FE3CF4A
:101EB0008091A4028F7DDFCF8091A4028F7BDBCF46
:101EC0008091A402837FD7CF8091A5028C7FA7CF7A
:101ED0008091A40282FB992790F921E0922790FB40
:101EE00082F990FB83F9C7CF8091A502982F909536
:101EF00091708E7F892B90FB81F991CF0E94741590
:101F00009091A402892F97FB87F98058B4CF81E084
:101F1000ACCF81E021CFCF93DF93EB0186319C459D
:101F200011F50E94131B9A81992399F08A7A91E006
:101F300009F490E09093DB01811109C089E20E94CD
:101F4000EE1A0E94621B80E0DF91CF91089585E335
:101F5000F6CF8091DB01811104C089E20E94F51A5D
:101F6000F0CF85E3FBCF81E0EFCFCF93DF93EC01A0
:101F700081E0898B8F810E94161B88850E94291B16
:101F80000E94621BEA81FB81309739F06C897D8960
:101F9000CE010696DF91CF910994DF91CF910895FC
:101FA000EF92FF920F931F93CF93DF93EC018A85FB
:101FB000811134C0EB80FC8087E5F81A26E12E9D64
:101FC000C0012F9D900D1124DC01A85EBE4F149618
:101FD000ED91FC911597309731F054966D917C916D
:101FE000825E9E4F099586E18E9D80018F9D100D2A
:101FF0001124085E1E4FF80187810E941C1BF80106
:1020000080850E942F1B0E94621B188219861B86E6
:102010001E821D821092DD011092DC01DF91CF91B2
:102020001F910F91FF90EF900895DF92EF92FF9232
:102030000F931F93CF93DF937C01FB018281882351
:1020400091F0809133018F3F71F0C8E1D1E010E051
:1020500000E0DD24D39480913301082E000C990B0D
:102060008017910744F4DF91CF911F910F91FF905A
:10207000EF90DF9008958E818823C9F089859A8535
:102080008E159F0539F48091DC019091DD018E154C
:102090009F0569F0DF86FC86EB868989811103C084
:1020A000CE010E94B50FCE0106960E94D00F0F5FA1
:1020B0001F4F6696D0CFEF92FF920F931F93CF934F
:1020C000DF937C0197558F3F910509F0D8F520915A
:1020D0003301022E000C330B2817390714F48093B8
:1020E0003301FB01228136E1389F8001399F100DB9
:1020F0001124E801C85EDE4F288B92818E819923DE
:1021000049F1FA86E9868F5F8E830E94AF1D9E8714
:102110008D870E94491B8F830E94131B88870E9412
:10212000261B9885892B8887E881F981309731F0C3
:102130006C897D89C801825E9E4F0995F092DD0110
:10214000E092DC0181E0DF91CF911F910F91FF9030
:10215000EF9008958823B1F38989882399F3C80102
:10216000825E9E4F0E94D00FEDCFCF92DF92EF9212
:10217000FF920F931F93CF93DF938091330110E071
:1021800006E18F3FF1F5DF91CF911F910F91FF9005
:10219000EF90DF90CF9008950E9DF0010F9DF00D10
:1021A0001124E85EFE4FC288D388C114D10439F4EB
:1021B00070E060E0818592850E94EA176C010E9DB7
:1021C000E0010F9DD00D1124C85EDE4F8E81882363
:1021D000B9F08D859E850E94BB1DC816D90680F476
:1021E000109F700111248989811105C0C701885E83
:1021F0009E4F0E94B50FC701825E9E4F0E94D00F76
:102200001F5FE12EF12C80913301082E000C990BF9
:102210008E159F050CF6B7CF9093E3018093E201F2
:102220000895E091E201F091E301309721F00190EF
:10223000F081E02D099480E00895E091E201F091B1
:10224000E301309799F020914801222359F0209121
:10225000A40227FF07C0DC012C9111962C93119743
:1022600025E02C930280F381E02D09940895E091FC
:10227000E201F091E301309739F022E0DC012C9388
:102280000480F581E02D099408952091E0013091BA
:10229000E1012817390771F09093E1018093E00183
:1022A000E091E201F091E301309721F00680F7819F
:1022B000E02D099408952091DE013091DF01281767
:1022C000390771F09093DF018093DE01E091E20124
:1022D000F091E301309721F00084F185E02D09941D
:1022E000089585B7806885BF85B7806885BF0895E4
:1022F00008950C9495020E9471110E9478110C941B
:102300000F0281E008950C9481110E94A61D0E9485
:10231000D2070E94181E0E94BF0B0E94980C0C94BA
:102320007911BF92CF92DF92EF92FF920F931F939A
:10233000CF93DF93CDB7DEB72A970FB6F894DEBF01
:102340000FBECDBF0E941F080E948311882309F48D
:1023500061C085EEC82E81E0D82E10E000E0B02EDE
:10236000802F0E94C707E82EF601F1906F01F81642
:1023700009F44AC08091580281FD0E94CD079F2D2B
:102380009E2580E0FF24F394292F2F21C1F18E8315
:10239000BF82EF2081E009F480E088870E94AF1DB2
:1023A0008160782F9A8789874E815F8168858A85C9
:1023B0000E942B12F801EB51FE4F8081F826F0822B
:1023C0000E94000D0E94B51F0E9411119091E4011E
:1023D000891789F10E9411118093E4012A960FB6A2
:1023E000F894DEBF0FBECDBFDF91CF911F910F914B
:1023F000FF90EF90DF90CF90BF900C9451058F5FCE
:10240000FF0C843009F0C0CF0F5F1F4F0330110560
:1024100009F0A5CF8FEF89838A831B820E94AF1DAD
:102420008160782F9D838C8349815A816B818D8156
:102430000E942B12C5CF2A960FB6F894DEBF0FBEAE
:10244000CDBFDF91CF911F910F91FF90EF90DF9063
:10245000CF90BF900895CF93DF93CDB7DEB72B9782
:102460000FB6F894DEBF0FBECDBF4F835887698784
:102470007A878B871E821D8285E0FE013796DE01FA
:10248000119601900D928A95E1F749815A816B81ED
:102490007C818D819E812B960FB6F894DEBF0FBE96
:1024A000CDBFDF91CF910C94ED17FC01808191811C
:1024B0000C94C01ACF93C82F882309F447C08CEF1F
:1024C0008C0F813AA0F46C2F8091340190913501EA
:1024D0000E94831C882329F08C2F0E94F51A0E94E9
:1024E000621B8C2F0E94EE1ACF910C94621B80E22B
:1024F0008C0F883048F4C77081E001C0880FCA95FE
:10250000EAF70E94161BF0CFEBE5EC0FE33040F446
:10251000F0E0EB53FE4F808190E0CF910C94451199
:10252000E8E5EC0FE73150F4F0E0EE0FFF1FE9565D
:10253000FE4F80819181CF910C945B11C03F30F0B0
:102540008C2F0E94AF1ECF910C949A1FCF910895AB
:10255000882361F19CEF980F913A20F40E94F51ABC
:102560000C94621B90E2980F983050F4877091E0C1
:1025700001C0990F8A95EAF7892F0E941C1BF0CFA2
:102580009BE5980F933020F490E080E00C94451187
:1025900098E5980F973120F490E080E00C945B115F
:1025A000803F20F00E94171F0C949A1F0895CF932C
:1025B000C82F0E945A12C93349F42FEF87EE93E0D7
:1025C000215080409040E1F700C000008C2FCF9157
:1025D0000C94A812882321F00E94161B0C94621BF5
:1025E0000895882321F00E941C1B0C94621B0895FF
:1025F000BF92CF92DF92EF92FF920F931F93CF93F0
:10260000DF936C01D62FC72FFC01058102950F7057
:10261000128111110E94361B0E940C1BE82E882388
:1026200091F01123D1F08C2F807F803421F080E253
:102630008D0F883090F082E00E94AD1B0E940C1B31
:1026400091E0E82EE926BC2EB2949FE0B922EB2D52
:10265000F0E0E15EF74D0C94B227E12CF4CF0C2FA3
:102660000F70C07F11F00295007F1123A9F00023A5
:1026700059F080E28D0F883010F0D11109C0802F01
:102680000E94161B0E94621B8D2F0E945A1214C0BA
:10269000802F0E94291BF6CF8D2F0E94A8120023A5
:1026A00059F080E28D0F883010F0D1112CC0802FAE
:1026B0000E941C1B0E94621B2B2D2850330B2430C0
:1026C000310520F40E9411110E945105EE2009F4F9
:1026D0009EC10E94081B80FD9AC1F60112820E94D1
:1026E000021B0E948F19C6010E9428150E94021B1E
:1026F000DF91CF911F910F91FF90EF90DF90CF90DE
:10270000BF900C94B019802F0E942F1BD3CFFC2FA9
:10271000FF70FF2EC07FC03219F0F29480EFF822D4
:10272000DD2369F0D13049F1112391F1002351F1FA
:10273000F601858180FFA8CF8F70858323C0112388
:1027400081F0011106C00E94491B8F290E94EA12E4
:10275000B3CF0130C1F70E94491B8F290E944F1B44
:10276000ABCF011106C00E94581B8F2D0E94F112A1
:10277000A3CF013009F4A0CFF6CF112329F0063002
:1027800008F09ACF8F2DE2CF053008F095CFEDCF2E
:10279000002359F3D93349F4FFEF27EE33E0F1502A
:1027A00020403040E1F700C000008D2F0E94A812A9
:1027B00083CF8C2F86958695837069F0813009F0E0
:1027C0007BCF8D2F9C2F9370111102C090E080E081
:1027D0000E945B1171CF8D2F9C2F9370111102C03D
:1027E00090E080E00E94451167CF8D2F112329F0E2
:1027F0000E94AF1E0E949A1F5FCF0E94171FFACF40
:102800008C2F837009F041C0111156CF4D2F429586
:1028100046954770440F440F0D2F0F7010E030E0C5
:1028200020E0042E04C0000F111F221F331F0A9442
:10283000D2F760E070E0CB01D4FF0FC06FE070E032
:1028400080E090E004C0660F771F881F991F4A95AB
:10285000D2F76095709580959095C695C695C37092
:10286000602B712B822B932BC23049F058F4C1306E
:1028700019F00E94231920CF0E9411191DCF0E9428
:1028800035191ACF0E940F1917CF8695112311F011
:102890008C2F8170882309F40FCF4D2F42954695D8
:1028A0004770440F440F0D2F0F7010E030E020E010
:1028B000042E04C0000F111F221F331F0A94D2F7E9
:1028C00060E070E0CB01D4FF0FC06FE070E080E00B
:1028D00090E004C0660F771F881F991F4A95D2F7B2
:1028E0006095709580959095C695C695C370602B40
:1028F000712B822B932BC23049F058F4C13019F060
:102900000E94061AD9CE0E94F419D6CE0E94181A37
:10291000D3CE0E944919D0CECF70112329F08C2F2D
:102920000E948F198D2F12CF8D2F0E94F1128C2FA4
:102930000E94B019C1CED23F89F160F4D03FC9F0F6
:10294000D13F29F1112309F442C001119DCE8C2FF2
:102950008F7121C0D33F39F1D43FA1F7112369F121
:10296000CF718C2F0E948F1963E08C2F0E94981BCF
:10297000A3CE112341F0053008F09ECE8C2F8F712D
:102980000E94D31999CE063008F096CEF7CF8C2F3F
:102990008F71112369F20E948F198ECE8C2F8F7147
:1029A0001123C9F3C5CF112329F08C2F8F710E94F9
:1029B0007A1982CE0E9455197FCE81E00E94AD1B0C
:1029C000023008F479CE82E00E94AD1B75CE002360
:1029D00059F0D93309F0E9CE8FEF97EEE3E081505B
:1029E0009040E040E1F7DFCE8C2F8F71A1CF4C2FCC
:1029F0004F706D2FC6010E94B5050E9487185CCEEE
:102A00004C2F4F706D2FC6010E94B80555CEDF9137
:102A1000CF911F910F91FF90EF90DF90CF90BF90DB
:102A200008950F931F93CF93DF93EC016881798111
:102A30008A810E94CA1A8C010E942A1A0E940E19C9
:102A4000B801CE01DF91CF911F910F910C94F81234
:102A5000CF93DF93EC018B819C81892B29F08881B6
:102A6000998189238F3F59F4DF91CF910895CE0149
:102A70000E941115CE01DF91CF910C943105CE014A
:102A80000E9469058111F3CF0E940C1B882361F31A
:102A90008A81882349F382E0DF91CF910C94AD1BAA
:102AA000882321F00E94291B0C94621B089588231F
:102AB00021F00E942F1B0C94621B08950E94361B6C
:102AC0000E94461B0E94621B0E94C1200E949A1F06
:102AD00090E080E00E94451190E080E00C945B1152
:102AE0000E94FC1A0C945E150E94231B0C94701516
:102AF000E92FE295EF70E250EE3070F4F0E0E15D26
:102B0000F74D0C94B227803F19F020F4883E20F452
:102B100081E00895843FE1F380E00895883EC0F3AA
:102B2000813FD1F7F5CF93FB882780F908950E9464
:102B3000C01A0C947815CF93DF9300D000D00F9279
:102B4000CDB7DEB70F900F900F900F900F90DF91E1
:102B5000CF910895CF93DF9300D000D000D0CDB7B0
:102B6000DEB726960FB6F894DEBF0FBECDBFDF915D
:102B7000CF9108951F93CF93DF93C091E90116E0A1
:102B80008091EA018C1304C0DF91CF911F910895C9
:102B9000D0E01C9FF0011D9FF00D1124E551FE4F68
:102BA0004081518162817381848195810E94AA153F
:102BB0002196C770E5CF40911B0250911C02609195
:102BC0001D0270911E0280911F02909120020C94B0
:102BD000AA151F93CF93DF9380912002807FA9F4E1
:102BE00080911D02882389F08091E901C091EA015A
:102BF00060911B0270911C02A0911E02B0911F02F5
:102C0000D62FD72316E0C81304C0DF91CF911F91B0
:102C1000089590E0109711F0DF3F19F40196877046
:102C2000F2CF189F9001199F300D1124F901E55141
:102C3000FE4F41814713F2CF40814613EFCF4281CF
:102C40004111ECCF438154814A1B5B0B483C510539
:102C500028F7809120028F70806180932002F90113
:102C6000E051FE4F80818F70806180838BE192E024
:102C70000E942815DF91CF911F910C94BA15AF9245
:102C8000BF92CF92DF92EF92FF920F931F93CF9359
:102C9000DF93CDB7DEB761970FB6F894DEBF0FBEF6
:102CA000CDBF8C0185E0F801DE011D9601900D92EB
:102CB0008A95E1F7F80140815181E2808BE1C82ECD
:102CC00082E0D82E60911E0270911F02611571057D
:102CD00009F461C190911B0220911C02892F82236B
:102CE0008F3F09F458C1A380B480F0901D02F50114
:102CF000E61BF70BFF2009F4FCC080912002382F5F
:102D0000307FE83CF10508F0B2C0311179C0FE2CEB
:102D1000251323C0941321C0E1101FC08F70806160
:102D2000809320020E94DB15C6010E942815809125
:102D30002002F80185838F2D61960FB6F894DEBFCF
:102D40000FBECDBFDF91CF911F910F91FF90EF90FC
:102D5000DF90CF90BF90AF900895AB2829F0842FDB
:102D600085238F3F09F033C180E0F82FF170DF2E0B
:102D700080FF3CC08091E9012091EA0136E0821396
:102D800015C04D875E878D859E850E94C01A292FAC
:102D900022952F702230F0F0243018F59F70F1F05A
:102DA000F8019581907FD1F4D12C1EC090E0389F1E
:102DB000F001399FF00D1124E551FE4F618165133B
:102DC00006C06081641303C062816E110FC001965A
:102DD0008770D5CF9F7011F0882331F3805E8830E3
:102DE00018F3C8010E942815FD2CA5CFEE2009F488
:102DF000A2CF80912002816080932002F12C9BCF92
:102E0000251306C0941304C0F801EE2009F48DC008
:102E10004D875E878D859E850E949715882319F1C1
:102E2000EE2009F180912002803270F020911B0287
:102E300030911C0238872F831986BB86AA868C871F
:102E4000CE0107960E94281586E0F801ABE1B2E0BA
:102E500001900D928A95E1F70E94E9150E94DB1519
:102E6000FF24F39468CFC8010E942815F9CF3111CF
:102E700013C07A2DB98AA88A6E2D89890E949B1564
:102E80008BE192E00E94281586E0F60111928A9566
:102E9000E9F70E94DB15B2CF25130FC094130DC0C4
:102EA000E1100BC0F8018583C8010E94281586E057
:102EB000F60111928A95E9F73ECF4D875E878D85A1
:102EC0009E850E949715882371F2EE2061F2809111
:102ED0002002803208F4B8CF20911B0230911C02EE
:102EE0003A8329831B82BD82AC828E83CE010196F8
:102EF000A9CFE83CF10508F041C0FE2CEE2009F412
:102F0000B2CF25132AC0941328C08091200280FDDF
:102F10001BC0982F907FC1F0F8018583903F31F05E
:102F2000982F907F905F8F70892B8583C8010E94B6
:102F3000281586E0F801ABE1B2E001900D928A9588
:102F4000E1F70E94DB15F7CE86E0F801ABE1B2E0D5
:102F500001900D928A95E1F7EECE4D875E878D85C3
:102F60009E850E94971581116FCF8091200281600C
:102F700080932002C8010E942815DDCE7A2DB98ADF
:102F8000A88A6E2D89890E949B1586E0F601119210
:102F90008A95E9F7D6CFEE2009F465CF4D875E8795
:102FA0008D859E850E949715F82E882309F45BCFA6
:102FB00086E0F801ABE1B2E001900D928A95E1F76D
:102FC0008BE192E00E9455120E94E915BACF81E090
:102FD0008E25CBCE88EC90E008951F93CF93DF939E
:102FE000CDB7DEB72C970FB6F894DEBF0FBECDBFBE
:102FF0004F83588769877A878B879C87CE0107968E
:103000000E943F16882369F08A859B85892B39F0B9
:103010004F815885842F85238F3F09F071C016E0BA
:103020005FC086E0FE013796DE01119601900D9299
:103030008A95E1F78A859B85892B89F38F8198850D
:1030400089238F3F61F32091EA0130E0C9010196A5
:10305000877099274091E9014817190671F40E9479
:1030600074151092EA011092E90186E0EBE1F2E0BA
:10307000DF011D928A95E9F7D2CF96E0929FD001A9
:10308000939FB00D1124A551BE4FFE0131960190C2
:103090000D929A95E1F78093EA010E94BA15BFCF8D
:1030A000819FC001112485519E4F0E943F168823A5
:1030B000E9F0E091E9011E9FF0011124E551FE4F76
:1030C0004081518162817381848195810E94AA151A
:1030D0008091E90190E00196877099278093E9013A
:1030E0008091E9019091EA018913DACF2C960FB60D
:1030F000F894DEBF0FBECDBFDF91CF911F91089531
:1031000069857A858B859C850E94AA1588CFEF9268
:10311000FF920F931F93CF93DF938C01892B81F044
:10312000F12CEE24E394E8012196F8018491843790
:1031300070F4843008F05FC08130B1F08230A1F1CA
:10314000DF91CF911F910F91FF90EF9008958537F8
:1031500009F44CC008F43DC09CE7980F903780F705
:103160008F770E94A81249C00E5F1F4FFE01849105
:1031700090E2980F983060F48770FE2D01C0FF0F29
:103180008A95EAF78F2F0E94391B0E94621B02C0AA
:103190000E945A128F2D815030F2EFE9FFE03197F3
:1031A000F1F700C00000F7CF0E5F1F4FFE018491C2
:1031B00090E2980F983050F48770FE2D01C0FF0FF9
:1031C0008A95EAF78F2F0E943F1BDFCF0E94A8123B
:1031D000E1CF0E5F1F4FFE01C491C150D8F28FE9BD
:1031E0009FE00197F1F700C00000F7CF0E5F1F4F7F
:1031F000FE01F490CFCF0E945A128E01CBCF0895DA
:103200000C94FF180E94001960932F0270933002F3
:1032100080933102909332020C945E1508950C94C1
:1032200002190F931F9300912F02109130022091E9
:10323000310230913202602B712B822B932B1F9124
:103240000F910C9402190F931F9300912F0210916C
:1032500030022091310230913202602371238223A7
:1032600093231F910F910C9402190F931F930091B8
:103270002F021091300220913102309132026027EA
:103280007127822793271F910F910C9402190C9498
:10329000A7020E94471960932B0270932C0280931F
:1032A0002D0290932E020C945E1560E070E0CB012D
:1032B0000C944919611571058105910529F481E086
:1032C000442361F080E00895DC01CB0104C0B69591
:1032D000A795979587954A95D2F781700895482FBD
:1032E00060912B0270912C0280912D0290912E0200
:1032F0000C945A190F931F9341E050E060E070E086
:103300008A019B0104C0000F111F221F331F8A95E1
:10331000D2F7C901B8011F910F910C9449190F936D
:103320001F9341E050E060E070E004C0440F551F7F
:10333000661F771F8A95D2F780912B0290912C02FD
:10334000A0912D02B0912E028A019B01082B192B0E
:103350002A2B3B2BC901B8011F910F910C944919DD
:103360000F931F9341E050E060E070E004C0440F11
:10337000551F661F771F8A95D2F7CB01BA0160955A
:1033800070958095909500912B0210912C022091C0
:103390002D0230912E0260237123822393231F91EB
:1033A0000F910C9449190F931F9341E050E060E096
:1033B00070E004C0440F551F661F771F8A95D2F72F
:1033C00080912B0290912C02A0912D02B0912E029F
:1033D0008A019B01082719272A273B27C901B80121
:1033E0001F910F910C9449190F931F9300912B0279
:1033F00010912C0220912D0230912E02602B712B06
:10340000822B932B1F910F910C9449190F931F93AB
:1034100000912B0210912C0220912D0230912E024E
:1034200060237123822393231F910F910C944919D8
:103430000F931F9300912B0210912C0220912D02CB
:1034400030912E0260277127822793271F910F91B9
:103450000C9449190895990F990F890F982F977017
:1034600041E001C0440F9A95EAF7869586958695C6
:1034700095E0899FF0011124EF5DFD4F30E020E0E1
:1034800070E05191DF011197CB01022E02C0969599
:1034900087950A94E2F78170819585278423852793
:1034A0008C932F5F3F4F2530310559F70895990FC1
:1034B000990F890F982F977086958695869525E0A8
:1034C000829FF0011124EF5DFD4F50E040E080E06D
:1034D000219130E0092E02C0369527950A94E2F733
:1034E00021703327042E01C0220F0A94EAF7822BA1
:1034F0004F5F5F4F4530510559F70895BF92CF9206
:10350000DF92EF92FF920F931F93CF93DF938C0183
:10351000C0902B02D0902C02E0902D02F0902E0251
:1035200080912F0290913002A0913102B09132022D
:10353000C82AD92AEA2AFB2ACFE1D0E0BC2ED7013B
:10354000C6010C2E04C0B695A795979587950A9449
:10355000D2F780FD0EC0219788F7B12C8B2DDF911B
:10356000CF911F910F91FF90EF90DF90CF90BF9080
:103570000895B8018C2F0E94D505019761F3EECF15
:10358000CF93DF93EC010E947E1ABE01DF91CF91B1
:103590000C94D5051F93CF93DF93EB019091E80135
:1035A000992331F0CB01DF91CF911F910C94C01A78
:1035B000882379F0CB010E947E1A182F682FCE0144
:1035C0000E942B1ABE01812FDF91CF911F910C9485
:1035D000D505CB010E94571A182FF4CF682F809180
:1035E0003401909135010C94031D682F80913401B2
:1035F000909135010C940E1D80913401909135010C
:103600000C94191D809133028595859585950895B3
:10361000809133028770089590913302977081E012
:1036200009F480E00895809157020895909157021F
:10363000892B809357020895809590915702982383
:103640009093570208951092570208958091560260
:10365000089590915602892B809356020895809583
:103660009091560298239093560208951092560214
:10367000089590915502892B809355020895809565
:1036800090915502982390935502089510925502F7
:10369000089580913402089508950C944C1B9091E4
:1036A0003402981721F0809334020C944D1B089536
:1036B00080913402882329F01092340280E00C9427
:1036C0004D1B0895E0913401F0913501809157022E
:1036D0008083E0913401F091350180819091560210
:1036E000892B8083E0913401F091350180819091A4
:1036F0005502892B808390913402992381F0E091C7
:103700003401F09135018081892B808380913401CF
:10371000909135010E946F1C81110E94581B80916D
:103720003401909135010C941D1108950C94951B52
:1037300098E0899F90011124622B609333020E94CC
:103740008F19809133028595859585950C94961BEC
:103750001092330280E00C94961B90913302809576
:10376000892380933302282F277071F4282F082E85
:10377000000C330B9217130639F0859585958595C6
:103780000E94B0190C94A81B08956FEF7FEF90E092
:1037900080E00C94F32790E080E00E94CF2721E0A6
:1037A0008C3E9E4F09F020E0822F089582E090E049
:1037B0000C94C12783E090E00C94C127CF9384E060
:1037C00090E00E94C127C82F81E290E00E94C127AB
:1037D000982F8C2FCF910895CF93C92F682F84E015
:1037E00090E00E94D5276C2F81E290E0CF910C945D
:1037F000D527AB01BC018FE090E00C94E727AB012B
:10380000BC0183E190E00C94E72760E070E0CB011D
:103810000C94FF1B60E070E0CB010E94F91B0C943C
:10382000051C6CEE7EEF90E080E00E94F32760E0E4
:1038300082E090E00E94D52760E083E090E00E9463
:10384000D52710922F02109230021092310210925E
:10385000320260E084E090E00E94D52760E081E2DF
:1038600090E00E94D52760E085E090E00E94D52797
:1038700060E086E090E00E94D5276FEF87E090E05F
:103880000E94D52740E050E0BA0188E090E00E9415
:10389000E72760E08DE090E00E94D52740E050E00F
:1038A000BA0188E190E00E94E72760E087E190E0BC
:1038B0000E94D52740E050E0BA018CE190E00E94E0
:1038C000E72760E080E290E00E94D5270C940A1C74
:1038D0000C94111C682F8EE090E00C94D527FC010D
:1038E000329680914801882321F08091A4029EE1C4
:1038F00087FF96E080E0915008F4089521912223FB
:10390000D1F38F5FF8CF662301F120914801222384
:10391000F1F02091A40227FF1AC0462F4695469544
:1039200046954E3190F4677021E030E002C0220FDE
:10393000331F6A95E2F7840F911DFC01828190E0AC
:103940002823392381E0232B69F480E00895FC01CA
:10395000329608962191261721F0E817F907D1F73A
:10396000F4CF81E008959C01FC0132969FEF80E046
:103970004191461751F09F3F19F4411101C0982F12
:103980008F5F8630A9F79F3F09F40895290F311DF5
:1039900097FD3A95F90162830895FC0132960896E5
:1039A0002191261303C0DF0111971C92E817F90734
:1039B000B9F70895E62FE695E695E695EE3168F4B9
:1039C000E80FF92FF11D677021E030E001C0220FF0
:1039D0006A95EAF78281822B82830895E62FE69525
:1039E000E695E695EE3170F4E80FF92FF11D67705A
:1039F00021E030E001C0220F6A95EAF7209582812C
:103A000028232283089520914801222329F0209120
:103A1000A40227FD0C94DA1C0C94B31C20914801DD
:103A2000222329F02091A40227FD0C94EE1C0C9473
:103A3000CD1CFC01329680914801882351F0809181
:103A4000A40287FF06C08EE1DF011D928A95E9F787
:103A5000089586E0F9CF089508950C942C1D0E94D6
:103A60002D1D8091AA02843049F11092590288E1FB
:103A700090E020E40FB6F894A895809360000FBE04
:103A80002093600080E00E9451050E942D1D83B7A5
:103A9000817F846083BF83B7816083BF789488957A
:103AA00083B78E7F83BF0FB6F894A895809160008E
:103AB000886180936000109260000FBE08950895A1
:103AC000CF930E942B1D0E941F080E945F1DC0E023
:103AD0008C2F0E94C707811105C0CF5FC330C1F78B
:103AE000CF91089581E0FCCF08950C94741D0E943D
:103AF00074150E9411110E9451050C94751D1F929E
:103B00001FB61F9211248F939F93AF93BF93809101
:103B10005902811113C08091A0029091A102A0913D
:103B2000A202B091A3024196A11DB11D8093A002F3
:103B30009093A102A093A202B093A302BF91AF9170
:103B40009F918F911F901FBE1F90189582E084BD9A
:103B500093E095BD9AEF97BD80936E0008952FB7BF
:103B6000F8948091A0029091A102A091A202B0913C
:103B7000A3022FBF08959C014FB7F8948091A00233
:103B80009091A102A091A202B091A3024FBF821B0B
:103B9000930B089578941F921FB61F9211248F9350
:103BA0009F93AF93BF938091A0029091A102A091A7
:103BB000A202B091A3020196A11DB11D8093A002A3
:103BC0009093A102A093A202B093A302BF91AF91E0
:103BD0009F918F911F901FBE1F90189587E797E7C1
:103BE000909301088093000888E19AE00FB6F8945A
:103BF000A895809360000FBE90936000FFCF0C9457
:103C0000C51B0E941F082FEF86E791E021508040DE
:103C10009040E1F700C000000E941F0880E00E9471
:103C2000C70780FF04C00E94FF1D0C94EE1D08957D
:103C30000E94CB1B811102C00E94681C0E94D61BEF
:103C4000809358020E94DE1B9093A5028093A402E9
:103C50000E94DA1B682F70E090E080E00E940F194C
:103C600060912B0270912C0280912D0290912E0276
:103C70000C9447198091600280FD32C081FF10C012
:103C800060913B0185E0689FB001112475956795AF
:103C90006038710570F56115710569F1862F089519
:103CA00082FD21C080915F02882301F190913A0149
:103CB00060913B01891728F085E0689FB0011124CD
:103CC000E7CF869FB001112485E0869F9001879FF2
:103CD000300D1124692F70E0C9010E949E27D8CFB2
:103CE00061E070E0DBCF6FE770E0D8CF65E070E0B7
:103CF000D5CF8FE7089581E008958091600280FD1F
:103D000029C081FF0AC06091370170E07595679501
:103D10006115710511F1862F089582FD18C09091EB
:103D20005F029923B9F060913601809137019617AF
:103D300038F0682F70E06038710550F38FE7089510
:103D4000899FC001112470E00E949E27F4CF6FE785
:103D500070E0E1CF61E070E0DECF81E00895803F68
:103D600031F40E943A1E8195809364020895813F48
:103D700019F40E943A1EF8CF823F31F40E943A1E95
:103D80008195809363020895833F19F40E943A1E3F
:103D9000F8CF893F29F40E947D1E80936502089523
:103DA0008A3F21F40E947D1E8195F7CF8B3F31F42D
:103DB0000E947D1E81958093660208958C3F19F4C0
:103DC0000E947D1EF8CF843F31F4809162028160B1
:103DD000809362020895853F21F48091620282609F
:103DE000F7CF863F21F4809162028460F1CF873F54
:103DF00021F4809162028860EBCF883F21F48091AA
:103E000062028061E5CF8D3F31F480916002816074
:103E10008093600208958E3F21F480916002826059
:103E2000F7CF8F3FB9F7809160028460F1CF909116
:103E30006302803F59F48091640287FF0DC01092A5
:103E4000640291110BC010925F0208C0813F81F49F
:103E50008091640218169CF3992381F08091650289
:103E600090916602892B09F064C010925E02089559
:103E7000823F49F497FFF0CF109263028091640271
:103E80008111ECCFE0CF833F19F41916ACF3E4CFE6
:103E900020916502893F29F41216F4F6109265020A
:103EA000DBCF8A3F19F427FFD7CFF8CF20916602E6
:103EB0008B3F29F427FFD0CF10926602CDCF8C3FE5
:103EC00019F41216CCF3C8CF843F31F4809162020A
:103ED0008E7F80936202C0CF853F21F48091620281
:103EE0008D7FF7CF863F21F4809162028B7FF1CFE7
:103EF000873F21F480916202877FEBCF883F21F4D6
:103F0000809162028F7EE5CF8D3F31F48091600217
:103F10008E7F80936002A0CF8E3F21F4809160025B
:103F20008D7FF7CF8F3F09F097CF809160028B7F15
:103F3000F0CF08950E94AF1D9C0190916302809183
:103F40006402982B21F030935D0220935C029091E3
:103F5000650280916602982B21F030935B022093DA
:103F60005A0281E692E00C943711EF92FF920F9380
:103F70001F93CF93DF9300D000D000D0CDB7DEB732
:103F800086E0E1E6F2E0DE01119601900D928A955D
:103F9000E1F7E0906302F0906402009165021091F5
:103FA00066021092630210926402109265021092EF
:103FB00066028E2D8F2991F080915C0290915D02B6
:103FC0000E94BB1DAC0190915F02992309F43FC090
:103FD00080913C018417150608F447C0802F812B7F
:103FE00091F080915A0290915B020E94BB1DAC013E
:103FF00090915E02992309F477C08091380184176B
:10400000150608F47FC08091630290916402892BA9
:1040100090916502892B90916602892B11F00E9484
:104020009A1F86E0FE013196A1E6B2E001900D9262
:104030008A95E1F726960FB6F894DEBF0FBECDBF86
:10404000DF91CF911F910F91FF90EF9008952091F4
:104050003D018AE0289F900111242417350708F0BC
:10406000BDCF9F5F90935F0202C09F3FD1F7EE20CC
:1040700059F00E943A1E9FEF1E140CF491E0899FA4
:10408000802D112480936302FF2059F00E943A1E74
:104090009FEF1F140CF491E0899F802D11248093D1
:1040A000640230916302332309F498CF20916402B3
:1040B000222309F493CF45EB3403C0011124992343
:1040C00059F09093630245EB2403900111243323AC
:1040D00039F03093640282CF81E080936302F3CFA2
:1040E00081E0809364027ACF209139018AE0289F91
:1040F000900111242417350708F085CF9F5F909316
:104100005E0202C09F3FD1F7002359F00E947D1E3E
:104110009FEF10160CF491E0899F802D112480935D
:104120006502112359F00E947D1E9FEF11160CF4B9
:1041300091E0899F802D1124809366023091650261
:10414000332309F460CF20916602222309F45BCF68
:1041500045EB3403C0011124992359F09093650273
:1041600045EB240390011124332339F03093660288
:104170004ACF81E080936502F3CF81E080936602AD
:1041800042CF86E0E1E6F2E0DF011D928A95E9F791
:1041900010925F0210925E02109260020895809168
:1041A00087020895CF93DF9300D00F92CDB7DEB78B
:1041B0009091AA02943019F589837B836A8382E007
:1041C0008093E9008FEF9091E800815095FD06C043
:1041D00095ED9A95F1F700008111F5CF8091E800F7
:1041E00085FF0DC050E040E063E070E0CE01019635
:1041F0000E94F9228091E8008E778093E8000F906A
:104200000F900F90DF91CF910895BC0184E00C9442
:10421000D220BC0183E00C94D2209C0182E08093E8
:10422000E9009FEF8091E800915085FD06C085ED83
:104230008A95F1F700009111F5CF8091E80085FF94
:104240000CC050E040E066E070E0C9010E94F92235
:104250008091E8008E778093E8000895CF93DF93F4
:10426000EC01809148018823B1F18091A40287FF7D
:1042700032C060E282E08093E9008FEF9091E80025
:10428000815095FD06C095ED9A95F1F700008111DA
:10429000F5CF8091E80085FF1BC08091480170E058
:1042A00050E040E0811104C050E040E068E070E080
:1042B000CE010E94F9228091E8008E778093E80079
:1042C00080E2FE01A7E6B2E001900D928A95E1F747
:1042D000DF91CF91089568E081E0CDCF8091A90270
:1042E000811109C00E9489240E94E6248091E20085
:1042F00084608093E20008951092A90208950895C1
:1043000008950C94771D42E061EC81E00E94052441
:1043100042E261EC82E00C9405248091AC0283308F
:1043200009F45FC030F48130C1F1823009F49BC0E0
:1043300008958A3009F487C08B3009F46DC0893044
:1043400009F04EC08091AB02813209F049C08091E2
:10435000AF029091B002029708F042C08091E8004D
:10436000877F8093E8008091E80082FF35C09091BC
:10437000F3008091F200029729F48091F1008B7F85
:10438000813021F48091F100809387028091E800D0
:104390008B778093E8000C9439248091AB02813AAA
:1043A000F9F48091E800877F8093E8008091AF0264
:1043B0009091B002892B61F460E287E692E070E0B0
:1043C0000E9448238091E8008B778093E80008954D
:1043D00060E090E080E0F3CF8091AA028111C3CF2A
:1043E00008958091AB02813AD9F78091AF02909104
:1043F000B002892BA9F78091E800877F8093E800BD
:104400008091E80080FFFCCF809148018093F1000B
:104410008091E8008E77BDCF8091AB02813201F7A9
:104420008091AF029091B002892BD1F68091E80083
:10443000877F8093E8000E9439248091AD028093A9
:1044400048010C9474158091AB02813249F6809139
:10445000E800877F8093E8000E9439248091AE02B3
:104460008093880208958091AB02813A09F0B8CF19
:104470008091E800877F8093E8008091E80080FFCA
:10448000FCCF80918802C2CF84B7877F84BF0FB6EC
:10449000F894A895809160008861809360001092E4
:1044A00060000FBE80E890E00FB6F8948093610042
:1044B000909361000FBE0E947B110E9489240E948C
:1044C000E6248091E20084608093E20078940E9468
:1044D0006F270E9485118EE391E00E940C1180915C
:1044E000AA02853019F00E949111F9CF0E942F1D68
:1044F0008091A802882399F30E94601D882379F394
:104500000E94E322ECCF0C948522292F33272330FD
:10451000310519F168F42130310509F44AC022301F
:10452000310509F44BC090E080E030E020E028C085
:104530002132310579F122323105A9F780E490E08A
:104540002BE433E061157105D9F08CEB90E02FE896
:1045500032E061307105A1F0E6CF992781309105F5
:1045600099F0009741F08230910589F00397D9F6D0
:10457000EAE1F2E002C0EEE3F2E0849190E09F0114
:10458000FA01318320830895E2E3F2E0F6CFE0E21E
:10459000F2E0F3CF89E090E024E532E061157105A7
:1045A00079F389E090E02DE632E06130710541F366
:1045B000BACF82E190E02DE732E0E2CF8BE390E0EA
:1045C00022E432E0DDCF80E189BD82E189BD09B41A
:1045D00000FEFDCF8091D8008F7D8093D800809120
:1045E000E00082608093E0008091E00081FDFCCFDC
:1045F0000895AF92BF92CF92DF92FF920F931F93D5
:10460000CF93DF936C01EB018A010E945824F82EAE
:10461000811123C00115110539F0F80180819181C4
:10462000C81BD90BC80ED91EB12CA12C2097A9F0FC
:104630008091E80085FD22C08091E8008E7780930C
:10464000E80001151105A1F0F80180819181A80E03
:10465000B91EB182A08285E0F82E8F2DDF91CF9117
:104660001F910F91FF90DF90CF90BF90AF90089572
:104670000E9458248823D1F2F82EEFCFF6018191C1
:104680006F018093F1002197FFEFAF1ABF0ACECFE1
:10469000FC018091B1029091B20286179707A0F0B9
:1046A0006115710529F49091E8009E779093E800D8
:1046B00090E06115710551F4911108C08091E800F6
:1046C00082FF34C080E00895BC01F2CF8091AA023D
:1046D0008823C1F18530C1F18091E80083FD30C0AD
:1046E0008091E80082FDEACF8091E80080FFE1CF71
:1046F0008091F3002091F200382F6115710519F0B7
:104700002830310558F091E02830310509F090E06B
:104710002091E8002E772093E800CBCF8191809301
:10472000F100615071092F5F3F4FE7CF8091AA02DE
:10473000882341F0853041F08091E80083FFBECFAF
:1047400081E0089582E0089583E00895FC0180915E
:10475000B1029091B20286179707A0F0611571051A
:1047600029F48091E8008E778093E80090E061154D
:10477000710551F4911108C08091E80082FF35C0A5
:1047800080E00895BC01F2CF8091AA028823C9F18C
:104790008530C9F18091E80083FD31C08091E80047
:1047A00082FDEACF8091E80080FFE1CF8091F300A5
:1047B0002091F200382F6115710519F0283031056C
:1047C00058F091E02830310509F090E08091E80040
:1047D0008E778093E800CBCF84918093F10031965F
:1047E000615071092F5F3F4FE6CF8091AA02882365
:1047F00041F0853041F08091E80083FFBDCF81E03A
:10480000089582E0089583E00895982F973028F066
:104810008F708093E90081E008959093E900242F40
:10482000762F50E0981731F07091EC002091ED0058
:104830005091F00021FD02C09F5FE8CF3091EB0066
:104840003E7F3093EB003091ED003D7F3093ED00E3
:104850003091EB0031603093EB007093EC002093CB
:10486000ED005093F0002091EE0027FDE5CF80E0B1
:1048700008958091AB0287FF13C08091E80082FF0A
:1048800006C08091E8008B778093E80004C0809197
:10489000AA028111F2CF08958091AA028823D9F348
:1048A0008091E80080FFF8CF8091E8008E77ECCF10
:1048B0002091E4003091E50095E6A9012091EC00FB
:1048C000822F817020FF06C08091E80080FF06C023
:1048D00080E008952091E80022FD1AC08091AA028C
:1048E000882389F0853089F08091EB0085FD0FC029
:1048F0002091E4003091E50042175307F9F29150FE
:10490000E1F684E0089582E0089583E0089581E06F
:1049100008950E94F7240E94FF24E0EEF0E08081D9
:1049200081608083E8EDF0E080818F77808319BC1F
:10493000A7EDB0E08C918E7F8C9380818F7E8083F9
:104940001092A90208950F931F93CF93DF930E94B3
:10495000F7240E94FF24C8EDD0E088818F778883F8
:1049600088818068888388818F7D888319BC1092B4
:10497000AA021092A6021092A8021092A70200EEBC
:1049800010E0F80180818B7F80838881816088833B
:1049900042E060E080E00E940524E1EEF0E08081EA
:1049A0008E7F8083E2EEF0E0808181608083808171
:1049B00088608083F80180818E7F80838881806118
:1049C0008883DF91CF911F910F910895E8EDF0E07A
:1049D00080818F7E8083E7EDF0E08081816080833D
:1049E00084E082BF81E08093A9020C94A324E8EDC7
:1049F000F0E080818E7F80831092E2000895109213
:104A0000DA001092E10008951F920F920FB60F92F4
:104A100011242F933F934F935F936F937F938F93C3
:104A20009F93AF93BF93EF93FF938091E10082FF39
:104A30000BC08091E20082FF07C08091E1008B7F74
:104A40008093E1000E946E278091DA0080FF19C0F8
:104A50008091D80080FF15C08091DA008E7F80930E
:104A6000DA008091D90080FF96C080E189BD82E1A3
:104A700089BD09B400FEFDCF81E08093AA020E94A7
:104A80006E218091E10080FF19C08091E20080FFDB
:104A900015C08091E2008E7F8093E2008091E20059
:104AA00080618093E2008091D80080628093D8007A
:104AB00019BC85E08093AA020E9480218091E100C8
:104AC00084FF2BC08091E20084FF27C080E189BD74
:104AD00082E189BD89B5982F917080FFFBCF8091CD
:104AE000D8008F7D8093D8008091E1008F7E8093E5
:104AF000E1008091E2008F7E8093E2008091E200ED
:104B000081608093E2008091A602882309F449C065
:104B100084E08093AA020E9481218091E10083FFBA
:104B200029C08091E20083FF25C08091E100877F4A
:104B30008093E10082E08093AA021092A602809105
:104B4000E1008E7F8093E1008091E2008E7F809370
:104B5000E2008091E20080618093E20042E060E048
:104B600080E00E9405248091F00088608093F0002E
:104B70000E947F21FF91EF91BF91AF919F918F9103
:104B80007F916F915F914F913F912F910F900FBE49
:104B90000F901F90189519BC1092AA020E947C21B8
:104BA00070CF8091E30087FD93E09093AA02B3CF8A
:104BB0001F920F920FB60F9211242F933F934F9392
:104BC0005F936F937F938F939F93AF93BF93CF9395
:104BD000DF93EF93FF93D091E900DF708091EC00B9
:104BE000C82FC17080FDC0E81092E9008091F000EC
:104BF000877F8093F00078940E941C261092E90031
:104C00008091F00088608093F000CD2BCF70C0932E
:104C1000E900FF91EF91DF91CF91BF91AF919F910B
:104C20008F917F916F915F914F913F912F910F9055
:104C30000FBE0F901F9018951F93CF93DF93CDB7A2
:104C4000DEB7AA970FB6F894DEBF0FBECDBF8BEAD2
:104C500092E02091F100FC012193CF01F2E0833B2F
:104C60009F07B9F70E948D218091E80083FF1EC144
:104C70008091AB029091AC029A3008F017C1E92FF5
:104C8000F0E0E35CF74D0C94B227803899F082385D
:104C900009F00CC18091AF028F70873008F006C117
:104CA0008093E9008091EB0085FB882780F91092C2
:104CB000E90006C08091A7029091A802911182603C
:104CC0009091E800977F9093E8008093F100109214
:104CD000F1008091E8008E77E5C0882309F4D3C005
:104CE000823009F0E3C08091AD028111D6C080917D
:104CF000AF028F702FEF280F263008F0D7C08093B7
:104D0000E9002091EB0020FFC8C0933031F480917E
:104D1000EB0080628093EB00C0C09091EB0090614B
:104D20009093EB0021E030E001C0220F8A95EAF772
:104D30002093EA001092EA008091EB008860EACFAD
:104D40008111B4C01091AD021F778091E30080788B
:104D5000812B8093E3008091E800877F8093E800B7
:104D60000E9439248091E80080FFFCCF8091E3000D
:104D700080688093E30082E0111183E08093AA02AF
:104D800095C08058823008F091C08091AD0290911A
:104D9000AE028C3D23E09207A1F583E08A838AE28C
:104DA00089834FB7F894DE01139620E03EE051E28C
:104DB000E32FF0E050935700E49120FF03C0E29509
:104DC000EF703F5FEF708E2F90E0EA30C0F0C79633
:104DD0008D939D932F5F243159F74FBF8091E80049
:104DE000877F8093E8006AE270E0CE0101960E941E
:104DF00048238091E8008B778093E80057C0C096E5
:104E0000E7CF6091AF027091B002AE014F5F5F4F8C
:104E10000E948322BC01892B09F448C09091E800CC
:104E2000977F9093E80089819A810E94A623E1CF21
:104E30008038E1F58091E800877F8093E8008091D9
:104E4000A6028093F10045CF811130C09091AD0250
:104E5000923060F58091E800877F8093E80090931E
:104E6000A6020E9439248091A602882311F084E0D2
:104E700005C08091E30087FDFACF81E08093AA020C
:104E80000E94832113C08091AD02813079F481E0CA
:104E9000933009F080E08093A8021092E90080919D
:104EA000E800877F8093E8000E9439248091E80021
:104EB00083FF0AC08091E800877F8093E80080919B
:104EC000EB0080628093EB00AA960FB6F894DEBFE9
:104ED0000FBECDBFDF91CF911F9108950895CF935D
:104EE0008091AA028823A1F0C091E900CF7090912F
:104EF000EC00892F817090FD80E8C82B1092E900AA
:104F00008091E80083FD0E941C26CF70C093E900C9
:104F1000CF910895AA1BBB1B51E107C0AA1FBB1F5D
:104F2000A617B70710F0A61BB70B881F991F5A9535
:104F3000A9F780959095BC01CD01089597FB072EA8
:104F400016F4009407D077FD09D00E948A2707FC49
:104F500005D03EF4909581959F4F08957095619589
:104F60007F4F0895EE0FFF1F0590F491E02D0994F7
:104F7000FB01DC0102C005900D9241505040D8F772
:104F80000895F999FECF92BD81BDF89A992780B511
:104F90000895A6E1B0E044E050E00C94FB27A8E1BE
:104FA000B0E042E050E00C94FB27262FF999FECFA9
:104FB00092BD81BDF89A019700B4021639F01FBA6C
:104FC00020BD0FB6F894FA9AF99A0FBE0895039689
:104FD000272F0E94D6270E94D527252F0E94D6274B
:104FE000242F0C94D6270196272F0E94D6270C94A5
:104FF000D527DC01CB01FC01F999FECF06C0F2BD3B
:10500000E1BDF89A319600B40D9241505040B8F786
:105010000895F894FFCF280C300C370C3C0C410C51
:10502000460C4B0C500C550C5A0C5F0C640C2A0CA3
:105030002A0C2A0C2A0C2A0C2A0C2A0C2A0C2F13B4
:105040002F1387138713D913F5135C135C13001404
:105050008C149B149B14F7145C135C1300158315BC
:1050600083158C158C158E158C158C158C15831548
:10507000831593158C158C15931545266D2656278B
:0E5080006D265627A026C1265627182724275E
:10508E00010001000100010001000100010001000A
:10509E00010001000100010000008002000000007C
:1050AE0000000000000000000000000000000004EE
:1050BE00000404FF3502140A32110F051411CF201B
:1050CE002E210D210921052101E200E900EA00B59A
:1050DE0000B600B700CD008301CC008A0192019486
:1050EE00012102230224022502260227022A02B3EC
:1050FE0000B4006F007000818283F0F1F4F567F761
:10510E00F6000100FF0100010000FFFF000001009A
:10511E0001FF0091969035E200E900EA00B500B675
:10512E0000B700CD008301CC008A019201940121C9
:10513E0002230224022502260227022A02B300B409
:08514E00006F007000818283F4
:00000001FF
