:100000000C9408050C944F050C944F050C944F0567
:100010000C944F050C944F050C944F050C944F0510
:100020000C944F050C944F050C94B12C0C94852D19
:100030000C94D5230C944F050C944F050C944F054C
:100040000C944F050C944F050C944F050C944F05E0
:100050000C944F050C9420240C944F050C944F05E0
:100060000C944F050C944F050C944F050C944F05C0
:100070000C944F050C944F050C944F050C944F05B0
:100080000C944F050C944F050C944F050C944F05A0
:100090000C944F050C944F050C944F050C944F0590
:1000A0000C944F050C944F050C944F05C800BE00EE
:1000B000B40000000014BFFFF0FF000000000014B7
:1000C00080FFF0FF0000000000140AFFF0FF0000B6
:1000D0000000165C1E001F002000210022002300EB
:1000E00024002500260027002D002E0000002A00F5
:1000F0004A002B00000014001A0008001500170029
:100100001C0018000C00120013002F0030003100FA
:100110004B001459000004001600070009000A00F3
:100120000B000D000E000F0033003400280000000B
:100130004E00E10000001D001B0006001900050034
:10014000110010003600370038000000E5005200B2
:100150004D00E000E3000000E200000000002C0081
:100160000000000000000057E600E40050005100CD
:100170004F0035003A003B003C003D003E003F0090
:1001800040004100420043004400450000004C0094
:100190004C0001000000010001000100010001000D
:1001A0000100010052000100010001000100005C9B
:1001B00049000100000001000100010001000100F0
:1001C0000100010001000100010001000100000028
:1001D00046000100000001000100010001000100D3
:1001E0000100010001000100AE000000E500A900CF
:1001F000A800010001000000010000000000010053
:10020000000000000000010001000100CA5CAA001B
:10021000C95C290029000000000000000000000067
:1002200000000000000000000000000000000000CE
:100230000000000000002B05F500F000F4000000B5
:100240000000F900000000000000000000000000B5
:100250000000000000005108F200F100F30000006F
:100260000000FB00FC000000000000000000000097
:100270000000285D000000002900000000000000D0
:100280000000FA000000000000000000E50000008F
:100290000000E00000000000E20000000000295D16
:1002A0000000000000000253E600E400000000002F
:1002B000000044454255473A2064697361626C65A9
:1002C000642E0A0044454255473A20656E61626CCF
:1002D00065642E0A000A002530313662003A20009B
:1002E00025303258000A722F6320303132333435D2
:1002F000363738394142434445460A007267626CDA
:10030000696768742073657420687376205B4E4F4C
:10031000454550524F4D5D3A2025752C25752C25AD
:10032000750A007267626C6967687420736574206F
:10033000687376205B454550524F4D5D3A202575D8
:100340002C25752C25750A007267626C69676874C4
:100350002064697361626C65205B4E4F4545505265
:100360004F4D5D3A207267626C696768745F636FB6
:100370006E6669672E656E61626C65203D2025752D
:100380000A007267626C69676874206469736162ED
:100390006C65205B454550524F4D5D3A2072676257
:1003A0006C696768745F636F6E6669672E656E61FE
:1003B000626C65203D2025750A007267626C696772
:1003C000687420656E61626C65205B4E4F454550D8
:1003D000524F4D5D3A207267626C696768745F6363
:1003E0006F6E6669672E656E61626C65203D2025C3
:1003F000750A007267626C6967687420656E616275
:100400006C65205B454550524F4D5D3A20726762E6
:100410006C696768745F636F6E6669672E656E618D
:10042000626C65203D2025750A007267626C696701
:10043000687420746F67676C65205B454550524F48
:100440004D5D3A207267626C696768745F636F6EB6
:100450006669672E656E61626C65203D2025750AB0
:10046000007267626C69676874206D6F6465205BF9
:100470004E4F454550524F4D5D3A2025750A00724A
:1004800067626C69676874206D6F6465205B4545C1
:1004900050524F4D5D3A2025750A007267626C69B3
:1004A0006768745F696E6974207267626C696768F7
:1004B000745F636F6E6669672E6D6F6465203D20A3
:1004C000302E2057726974652064656661756C749E
:1004D0002076616C75657320746F20454550524FCE
:1004E0004D2E0A007267626C696768745F696E6995
:1004F00074206565636F6E666967206973206E6F2F
:100500007420656E61626C65642E0A007267626CAD
:10051000696768745F696E697420737461727421AD
:100520000A007267626C696768745F696E6974203B
:1005300063616C6C65642E0A007267626C6967683F
:10054000745F636F6E6669672E7370656564203DC6
:100550002025640A007267626C696768745F636F64
:100560006E6669672E76616C203D2025640A0072F4
:1005700067626C696768745F636F6E6669672E7324
:100580006174203D2025640A007267626C696768A7
:10059000745F636F6E6669672E687565203D202500
:1005A000640A007267686C696768745F636F6E667F
:1005B00069672E6D6F6465203D2025640A007267AF
:1005C000626C696768745F636F6E6669672E656EDB
:1005D00061626C65203D2025640A007267626C6967
:1005E0006768745F636F6E66696720454550524F58
:1005F0004D3A0A006261636B6C69676874207374BA
:1006000065703A2025750A006261636B6C696768E2
:10061000742064697361626C650A006261636B6C6B
:100620006967687420656E61626C650A0062616367
:100630006B6C6967687420746F67676C653A202516
:10064000750A006261636B6C696768742064656336
:1006500072656173653A2025750A006261636B6C8F
:100660006967687420696E6372656173653A2025F5
:10067000750A0000010101010101010101020202EC
:10068000020202020202030303030303030304043E
:100690000404040404050505050506060606060708
:1006A0000707070708080808090909090A0A0A0BC1
:1006B0000B0B0C0C0C0D0D0D0E0E0E0F0F0F101062
:1006C00011111112121313141415151616171718E9
:1006D0001819191A1A1B1B1C1D1D1E1E1F20202154
:1006E0002222232424252626272829292A2B2C2D9B
:1006F0002D2E2F30313232333435363738393A3BBC
:100700003C3D3E3F404142434445464748494A4CB0
:100710004D4E4F50515354555658595A5B5D5E5F7C
:10072000616264656668696B6C6D6F707273757712
:10073000787A7B7D7E8082838587888A8C8E8F9174
:10074000939596989A9C9EA0A2A3A5A7A9ABADAF9E
:10075000B1B3B5B7BABCBEC0C2C4C6C9CBCDCFD188
:10076000D4D6D8DBDDDFE2E4E7E9EBEEF0F3F5F831
:10077000FAFDFF0A002530325820006B6579626F60
:100780006172645F7265706F72743A20000A0025AE
:10079000303258006B6579626F6172645F736574A3
:1007A0005F6C65643A200064656C5F6B65795F62BD
:1007B00069743A2063616E27742064656C3A202561
:1007C0003032580A006164645F6B65795F626974F6
:1007D0003A2063616E2774206164643A20253032C8
:1007E000580A00290A002575002F002575005D288C
:1007F00000256400200025640020002564002000FE
:100800002564007C0025303258006D6F7573656B70
:100810006579205B62746E7C782079207620685D33
:10082000287265702F61636C293A205B005B735DF1
:10083000004B6579626F6172642073746172742E0B
:100840000A005B575D005B535D005B525D005B44DB
:100850005D005B435D0004033000000010034B00AB
:1008600042004400360037007600320000001003DA
:100870004B0042004400460061006E00730000001F
:100880000403090409025B00030100A0FA09040043
:1008900000010301010009211101000122400007AC
:1008A00005810308000A0904010001030000000992
:1008B000211101000122BC000705820320000A0962
:1008C000040200020300000009211101000122229C
:1008D0000007058303200001070503032000011220
:1008E00001100100000008424B6760020001020392
:1008F000010631FF0974A1010975150026FF009555
:1009000020750881020976150026FF0095207508DC
:100910009102C005010902A10185020901A100059A
:100920000919012905150025019505750181029513
:1009300001750381010501093009311581257F9574
:10094000027508810609381581257F950175088192
:1009500006050C0A38021581257F95017508810668
:10096000C0C005010980A101850319012AB700153E
:100970000126B700950175108100C0050C0901A181
:1009800001850419012AA002150126A0029501750E
:10099000108100C005010906A1018505050719E0C0
:1009A00029E7150025019508750181020507190041
:1009B00029EF1500250195F075018102050819013F
:1009C0002905950575019102950175039101C005F1
:1009D000010906A101050719E029E7150025019580
:1009E0000875018102950175088101050719002923
:1009F000FF150026FF0095067508810005081901FE
:100A00002905950575019102950175039101C000B5
:100A100011241FBECFEFDAE0DEBFCDBF04B603FE68
:100A200027C08091160390911703A0911803B091ED
:100A300019038730904BA740B04BD1F410921603A6
:100A400010921703109218031092190314BE84B762
:100A5000877F84BF0FB6F894A89580916000886165
:100A600080936000109260000FBEE0E0F8E309950B
:100A700011E0A0E0B1E0E6E9F0E602C005900D92D9
:100A8000AC3BB107D9F723E0ACEBB1E001C01D925C
:100A9000A631B207E1F70E94E6290C940D300C94C0
:100AA0000000FF93EF93E091BC01F091BD013097FE
:100AB00009F00995EF91FF910895FC01859180302F
:100AC00011F0EFDFFBCF0895FF27E0E230E247FFB0
:100AD0000CC0419597FF09C0EDE260957095809537
:100AE0009095611D711D811D911D27FF02C02195EB
:100AF00030E350E2AA27660F771F881F991FAA1FAD
:100B0000A41710F0A41B63955A95A9F7AA3008F012
:100B1000A95FA05DAF93F3956115710581059105FE
:100B200041F7ED3211F4EF93F395F21718F43F9378
:100B3000F395FBCF8F91B5DFFA95E1F70895E99131
:100B4000F9918591803021F0853219F0AADFF9CF33
:100B5000089520E0E89455915532C1F3503311F4D3
:100B6000689455915A3348F4505390F3220F022E53
:100B7000220F220F200D250FF4CF0EF4219589911D
:100B80009991533619F3533729F1533559F1BC0173
:100B900088279927E8945C3621F489919991689483
:100BA0005591543639F446EF7EF077FF0DC08FEF44
:100BB0009FEF0AC055374AE039F0583540E121F03F
:100BC000523642E009F00895FF93EF937DDFEF91F5
:100BD000FF91B7CFFF93EF93FC0181918030B9F380
:100BE00060DFFBCFFF93EF9368DFF1CFDF93CF930D
:100BF000CDB7DEB72596A3DFCF91DF910895549A44
:100C00000C945106CF93C82F0E947A07882319F0BD
:100C1000C1FD03C05C9ACF9108955C98FCCF809190
:100C20000101823019F481E00E94951F10920101A8
:100C300008958091BE018F5F833018F48093BE01C8
:100C400008951092BE0108958CEA90E09093C3013C
:100C50008093C2010895CF92DF92EF92FF926B01D1
:100C60007C0140E00E943F1F682F80E00E9400103E
:100C700041E0C701B6010E943F1F682F81E00E943A
:100C8000001042E0C701B6010E943F1F682F82E0BA
:100C90000E940010C701B601FF90EF90DF90CF9047
:100CA000089508950895CF9388322DE5920729F08D
:100CB00089329D4571F1C1E00DC0FB01C281809177
:100CC000BE01CC23A9F0813069F0882331F0823055
:100CD00061F0C0E08C2FCF9108958DEF90E00E94DD
:100CE000EF06F7CF8EEF90E0FACF8FEF90E0F7CFDF
:100CF000813061F0882329F0823061F78FEF90E036
:100D000002C08DEF90E00E940407E4CF8EEF90E0E8
:100D1000FACFFB01C281C111DDCF0E941906CBCFF2
:100D2000FC018081813029F49285992339F082E099
:100D30000895823011F088E0089583E008950E94BC
:100D4000900680930101882391F0833018F083305E
:100D500021F0089581E00C94741F82E00E94541FDA
:100D6000882319F082E00C94951F82E0F4CF089557
:100D7000CF93DF939C013A9521153F4168F5EC0133
:100D8000CC27D170DC01AA27B270AC014427547083
:100D90009C012227387094FF11C080E1CD2B09F40B
:100DA00080E0AB2B09F08062452B09F08064232B97
:100DB00009F08068FB01DF91CF91099481E0CD2B90
:100DC00009F480E0AB2B09F08260452B09F08460C8
:100DD000232B81F38860EECFDF91CF910895CF93DD
:100DE000DF93EC01805E9109089720F065E37BE1D9
:100DF000209711F46FEC78E1CE010E94B8068C2F99
:100E0000DF91CF910C94D417CF93DF93EC010E9424
:100E10006618CE01805E9109089720F06CE37BE1B3
:100E2000209711F466ED78E1CE01DF91CF910C941B
:100E3000B80681E008950C94530608950C941D079C
:100E40001F93CF93DF9300D000D00F92CDB7DEB7C2
:100E500049835A836B833091DF0189819A813111F3
:100E60001DC06623B9F02223A9F00E946320182F29
:100E7000682F89819A810E94102069817A81812F4F
:100E80000F900F900F900F900F90DF91CF911F91C7
:100E90000C9400080E943C20182FEFCF0E94632082
:100EA00069817A81EDCFFC01262F408151816281D9
:100EB000738184810C942007CF93DF93EC0160E071
:100EC0000E945307BE01DF91CF910C941E070E9430
:100ED0006A240E94DA21811102C00E9480220E94AD
:100EE00043120C94FF050E94AE150C940C0A089551
:100EF0000C94770781E00895CF93C82F0E9478075C
:100F00008C2FCF910C94020608950E94591B0E94C9
:100F100084072FEF84E39CE0215080409040E1F76C
:100F200000C000000C9444240F931F93CF93DF93D1
:100F3000EC0161E00E9453078C01BE010E940E1576
:100F4000BE01C8010E941B078823A1F1BE01C80190
:100F50000E94AF11882371F1BE01C8010E9454158F
:100F6000882341F1BE01C8010E940A13882311F1B0
:100F7000BE01C8010E945C138823E1F0BE01C801D4
:100F80000E947F148823B1F0BE01C8010E94221084
:100F9000882381F08A81882341F101308CE518078C
:100FA00079F00E3D8CE51807E9F001151C45E9F4D0
:100FB0000E94850780E0DF91CF911F910F910895E6
:100FC00090917702892F8E7F90FF816080937702C6
:100FD00080FF05C084EC92E00E945D05EBCF82EBC0
:100FE00092E0FACF0E948022E5CFCE01DF91CF912F
:100FF0001F910F910C94190790E080E008950895D7
:10100000E72FF0E095E0899FE00DF11D112484E0C9
:10101000EE0FFF1F8A95E1F7E60FF11DEE0FFF1FA0
:10102000EE52FF4F859194910895FC01EE0FFF1F42
:10103000EB52FD4F859194910895CF93DF930E94D9
:1010400000080E943209EC01811520E5920708F0A2
:1010500042C0811530E4930708F0BDC0883E910579
:1010600028F5803E910508F09DC0883A910588F4E6
:10107000853A910508F08FC08130910509F492C03E
:10108000009709F48FC0049708F08CC0D0E0C0E04E
:1010900089C08F3B910508F489C0805C9109C03CF0
:1010A000D105A0F30E941508EC017CC08115904287
:1010B00050F4C11581E0D80708F074C0C03FD105D5
:1010C00028F3D0656FC0C11590E3D90708F079C047
:1010D000CE019F70E7CF811525E5920758F5811560
:1010E00034E5930708F0A6C0811542E5940750F453
:1010F000C11581E5D80708F471C0DC2FCC27C16F7A
:10110000D06A50C0982F969596959E0123703327EC
:10111000C115D34508F07FC0C1E0D0E002C0CC0FBC
:10112000DD1F2A95E2F720E2929FC0011124C82B0F
:10113000D92B6FC0C11589E5D807A8F4C11598E56A
:10114000D90708F07CC0C11526E5D20708F09ECF6C
:101150008C2F0E94C909C82FD0E0DC2FCC27CC27C8
:10116000DF71D0621FC0C1153AE5D30708F46CC027
:10117000CE0190568115904208F088CF8D2F8F7147
:101180000E94C90990E0982F882788279F719C01A9
:101190002C2BE901E6CFC55AD0E0CF59DE4FC881EC
:1011A000D0E0D064CE01DF91CF910895C85AD0E04D
:1011B000CC0FDD1FCD5CDE4F0990D881C02DD464EB
:1011C000F1CFCE019927D3FF03C0EC01D86CEACF51
:1011D000EC01D06CE7CFDF70D06AE4CFCE01E4E061
:1011E00096958795EA95E1F783702C2F269526959D
:1011F000237090E2299F90011124382B8C2F83704B
:10120000C1E0D0E002C0CC0FDD1F8A95E2F7C22B0F
:10121000D32BDC68C7CFC1E0D0E002C0CC0FDD1F0C
:101220002A95E2F730E2939FC0011124C82BD92BF5
:10123000DA68B8CFD82FCC27C46FD06AB3CFDC2FF1
:10124000CC27C06FD06AAECF8C2F8F700E94C90997
:1012500034E0D695C7953A95E1F7CF709C2FEC0115
:10126000D069A0CF82389105B1F1B0F481339105F6
:1012700009F475C048F48932910509F469C08A32CD
:10128000910509F473C008958533910509F459C097
:101290008933910501F10895833E9105A9F138F450
:1012A000803E9105F9F0823E910549F10895863E10
:1012B0009105A9F1873E9105C9F1843E910519F583
:1012C0002091AE0221FF1FC08091AD0284FD14C0A9
:1012D00087EE90E008952091AD022370A1F080EE9A
:1012E00090E008952091AD0220FD47C03091AE02FC
:1012F00030FF09C024FF44C090E080E004C020918A
:10130000AD0222FDF7CF08952091AD0222FD3BC032
:101310003091AE0230FDE3CF24FFF5CFEDCF209129
:10132000AD0223FFF0CF24FDE7CFD2CF2091AD0255
:1013300023FD2CC03091AE0231FFEECF84EE90E061
:1013400008952091AD0225FFDECF89E290E0089557
:101350002091AD0225FFD7CF85E390E0089520913D
:10136000AD0226FFD0CF8AE290E008952091AD0231
:1013700026FFC9CF81E390E0089589E390E00895C6
:1013800083EE90E0089582EE90E0089586EE90E07E
:1013900008959091AD0292FF06C0282F2871283041
:1013A000F9F4877F846093FF06C0282F28712831C5
:1013B000F1F4877E84612091AE0220FF06C0382FB1
:1013C00038713830D9F4877F816021FF06C0282F1B
:1013D00028712831D1F4877E816194FD877E08953C
:1013E000282F24712430F9F68B7F8860DCCF282FDA
:1013F0002471243101F78B7E8861DDCF382F317164
:10140000313019F78E7F8860E0CF282F217121318C
:1014100021F78E7E8861E1CF0C945206E82FF0E030
:10142000EE0FFF1FE754FD4F808191810895CF9209
:10143000DF92EF92FF920F931F93CF93DF9385EE8E
:1014400092E00E945D0589EBE82E82E0F82ED0E064
:10145000C0E090EEC92E92E0D92E07ED12E0DF93A6
:10146000CF93DF92CF920E94F6058DED92E00E941D
:101470005D05F701819191917F010E94C7219F93A2
:101480008F931F930F930E94F60585ED92E00E94C3
:101490005D0521968DB79EB708960FB6F8949EBF4E
:1014A0000FBE8DBFC530D105D1F6DF91CF911F9111
:1014B0000F91FF90EF90DF90CF90089580EA8A958A
:1014C000F1F70895CF93DF93A4E7B1E049E751E046
:1014D000C1E0D0E08D91E82FE295EF70F0E061A1DE
:1014E0008F709E0101C0220F8A95EAF7922F909586
:1014F000962391A382A1822B82A34A175B0751F7FF
:10150000A4E6B1E061E070E08D91E82FE295EF7024
:10151000F0E041A18F709B0101C0220F8A95EAF78C
:10152000922F9095942391A382A1822B82A381E094
:10153000A437B80749F71092B0021092AF02109288
:10154000BA021092B9021092B2021092B102109235
:10155000BC021092BB021092B4021092B30210921D
:10156000BE021092BD021092B6021092B502109205
:10157000C0021092BF021092B8021092B7021092ED
:10158000C2021092C10285E00E94510BDF91CF91FF
:101590000C9467078F929F92AF92BF92CF92DF9287
:1015A000EF92FF920F931F93CF93DF9384E7E82E80
:1015B00081E0F82E0FEA12E0912CAA24A394B12C1A
:1015C000F70181917F01C82FC295CF70D0E099A11A
:1015D0008F70650101C0CC0C8A95EAF7892F8C29A0
:1015E00089A38AA18C2C809488218AA30E945E0AF8
:1015F000E4E6F1E050E040E030E020E06191A62F29
:10160000A295AF70B0E090968C9190E06F7002C0A0
:10161000959587956A95E2F780FD3EC0C501042E39
:1016200002C0880F991F0A94E2F7282B392B4F5FCD
:101630005F4F4031510511F789A1882289A28AA103
:10164000C82ACAA2F801808191812817390739F187
:101650003183208381E0982A0E5F1F4FF9E7EF1650
:10166000F1E0FF0609F0ACCF292D45E069EB72E00F
:101670008FEA92E00E94520B0E947307892DDF913E
:10168000CF911F910F91FF90EF90DF90CF90BF907F
:10169000AF909F908F90089590E080E0C6CF80E05B
:1016A000DACF0895FF920F931F93CF93DF93F82E15
:1016B000092F162FD72FC42F222349F081E08093C2
:1016C000C1010E9405249093C0018093BF018091C5
:1016D000C1018823A1F08091BF019091C0010E94B7
:1016E0001124069760F0EF2DF02FA12FBD2F90E071
:1016F00080E0D0E08C179D0744F01092C101DF918B
:10170000CF911F910F91FF900895219131912D93C9
:101710003D930196EFCFEF92FF920F931F93CF93DC
:10172000DF93EB01E82FD11110C0442321F0F0E04A
:10173000ED58F94FE4916E2F7E2F8E2FDF91CF91D0
:101740001F910F91FF90EF9008950D2F10E0282F1B
:1017500030E0442329F02D58394FF901249130E02D
:10176000F6E0CF9FC0011124EFEFF0E0BF010E942F
:10177000522FAB018C2F90E0880F991FA5E5A49FF5
:10178000B001A59F700D1124861B970B982F990F00
:10179000980FBF01601B710B629FD001639FB00D5A
:1017A000729FB00D11248B2F9D9FB0011124672FC4
:1017B0007727EF01C61BD70BBE01629FE001639F35
:1017C000D00D729FD00D11247F01E91AF108E09E1F
:1017D000B001E19E700DF09E700D1124672F7727E8
:1017E000E61BF70BE29F8001E39F100DF29F100DA7
:1017F0001124E12F722F4230510599F048F4411520
:10180000510569F04130510581F0EB2F8D2F07C054
:101810004430510569F080F046305105B1F76E2F24
:101820008DCFE22F7B2F812FFACFE22F7D2FF7CFA5
:10183000EB2F822F712FF3CF7B2F822FED2FEFCF46
:1018400041E00C948B0BCF93DF93762FE901682F47
:10185000842F0E94200C798368838A83DF91CF9143
:101860000895413F08F040EF0C94230C8091C3028F
:10187000982F9E7F71F48091C30281708260809363
:10188000C3028091C602813F18F080EF8093C602A8
:101890000895843080F7F5CF88E090E00C94CD2F48
:1018A000CF92DF92EF92FF926B017C010E94360C87
:1018B000B701A60188E090E0FF90EF90DF90CF9015
:1018C0000C94EB2FE3ECF2E083E0808311828FEF46
:1018D000828380EF8383148260817181828193810E
:1018E0000C94500C8091770280FF76C08BED95E0D0
:1018F0009F938F930E94F605809177020F900F902F
:1019000080FF6AC08091C30281701F928F938EEB1B
:1019100095E09F938F930E94F605809177020F9038
:101920000F900F900F9080FF57C08091C302869553
:101930001F928F9383EA95E09F938F930E94F60501
:10194000809177020F900F900F900F9080FF44C00E
:101950008091C4021F928F9389E895E09F938F93A3
:101960000E94F605809177020F900F900F900F90D4
:1019700080FF32C08091C5021F928F938FE695E061
:101980009F938F930E94F605809177020F900F909E
:101990000F900F9080FF20C08091C6021F928F93FE
:1019A00085E595E09F938F930E94F60580917702DD
:1019B0000F900F900F900F9080FF0EC08091C70284
:1019C0001F928F9389E395E09F938F930E94F60572
:1019D0000F900F900F900F9008959091C702933041
:1019E00018F49F5F9093C702882351F06091C3025F
:1019F0007091C4028091C5029091C6020C94500C63
:101A0000089581E00C94ED0C9091C702992319F090
:101A100091509093C702882351F06091C302709156
:101A2000C4028091C5029091C6020C94500C089596
:101A300081E00C94040D21E030E001C0220F8A9572
:101A4000EAF79091C701922381E009F480E00895BC
:101A500070E00C9453126F927F928F929F92AF928C
:101A6000BF92CF92DF92EF92FF920F931F93CF938B
:101A7000DF9300D000D00F92CDB7DEB77090190180
:101A80009091C30290FF26C0C090C201D090C301C4
:101A9000C114D10489F58091180133E0839FC001FE
:101AA0001124672D88539D4F0E94280D0F900F9091
:101AB0000F900F900F90DF91CF911F910F91FF909A
:101AC000EF90DF90CF90BF90AF909F908F907F90DE
:101AD0006F90089580911A0120911B0133E0839F3C
:101AE000F0011124E853FD4F821770F61182108225
:101AF00012828F5F3396F8CF90FFCDCFF12CE12C7F
:101B000043E0642E8E2D0E941B0D882309F43CC0F7
:101B1000F701EE0FFF1FEC0DFD1DA590B490A11471
:101B2000B10409F4B8CF45E050E0B501CE0101960B
:101B30000E94BC2F09810F3F39F18A81800F9927BC
:101B4000991F8531910514F084E190E04C01880CD7
:101B5000991C880D991D9C0128533D4F4901069DF4
:101B60008001112408531D4F0815190520F035E098
:101B7000A30EB11CD8CF98014D816C818B810E943E
:101B8000310C0D5F1F4FF0CF8FEFE81AF80A28E0F5
:101B9000E216F10409F0B6CF7ECF8091C3028E7FAA
:101BA0008093C3026091C3027091C4028091C50208
:101BB0009091C6020E94500C8091770280FF0FC066
:101BC0008091C30281701F928F9382E893E09F936C
:101BD0008F930E94F6050F900F900F900F902FEFAC
:101BE00080E792E0215080409040E1F700C0000083
:101BF0000C942B0D8091C3028E7F8093C302809141
:101C0000770280FF0CC01F921F9288E493E09F939D
:101C10008F930E94F6050F900F900F900F902FEF6B
:101C200080E792E0215080409040E1F700C0000042
:101C30000C942B0D9091C30290FF14C090911A0147
:101C400020911B0133E0939FF0011124E853FD4FD5
:101C5000921710F00C942B0D8183608342839F5F59
:101C60003396F6CF0895EF92FF920F931F93CF9381
:101C7000DF9300D00F92CDB7DEB7182F062FF42ECA
:101C8000E22E8091C30280FF43C0E82FE695F0E08A
:101C9000E758FE4F90819093C5018E7F823059F4B2
:101CA0009E012F5F3F4F812F0E94310C4B81698134
:101CB0008A810E941A0E1093C4020093C502F0920A
:101CC000C602EE2079F16091C3027091C402809146
:101CD000C5029091C6020E94500C8091770280FF4D
:101CE00017C08091C6021F928F938091C5021F92E8
:101CF0008F938091C4021F928F9383E293E09F930E
:101D00008F930E94F6050FB6F894DEBF0FBECDBFCD
:101D10000F900F900F90DF91CF911F910F91FF9037
:101D2000EF9008958091770280FFF2CF1F92FF928B
:101D30001F920F931F921F938CEF92E0E0CFE3EC82
:101D4000F2E09181282F4381628188E0890F0C9411
:101D5000330E81E00C949F0EE3ECF2E09181282F8A
:101D60004381628188EF890F0C94330E81E00C94DB
:101D7000AC0EE3ECF2E0628128E0620F08F46FEF52
:101D8000282F438181810C94330E81E00C94B90E8D
:101D9000E3ECF2E0628128E0621B08F460E0282FA7
:101DA000438181810C94330E81E00C94C80EE3ECE6
:101DB000F2E0438128E0420F08F44FEF282F6281C0
:101DC00081810C94330E81E00C94D70EE3ECF2E0A9
:101DD000438128E0421B08F440E0282F6281818182
:101DE0000C94330E81E00C94E60E20E00C94330E3C
:101DF0008091C30280FF35C0817082608093C302EE
:101E0000662329F16091C3027091C4028091C502DA
:101E10009091C6020E94500C8091770280FF0FC003
:101E20008091C30286951F928F938FE794E09F93D2
:101E30008F930E94F6050F900F900F900F90409196
:101E4000C6026091C5028091C4020C94F50E809187
:101E5000770280FFF4CF1F9281E08F9381E694E0B8
:101E6000E6CF0895682F81E00C94F80E81E00C9481
:101E7000320F682F9091C30296958FEF890F09F466
:101E800081E00C94F80E81E00C94390F61E00C9421
:101E9000F80E8091C30281608093C3028091770223
:101EA00080FF0DC01F9281E08F9383EF93E09F939B
:101EB0008F930E94F6050F900F900F900F908091D6
:101EC000C30286950C94460F8091770280FF10C064
:101ED0008091C302809581701F928F938AE294E073
:101EE0009F938F930E94F6050F900F900F900F9085
:101EF0008091C30280FD0C94CD0D0C94490F60E0DD
:101F00000C94F80E8091C40181115EC0809177021B
:101F100080FF14C082E295E09F938F930E94F605A4
:101F2000809177020F900F9080FF08C08CE095E0C1
:101F30009F938F930E94F6050F900F900E94DA21D5
:101F4000811110C08091770280FF08C084EE94E078
:101F50009F938F930E94F6050F900F900E9480220E
:101F60000E94620C0E944C0C6093C3027093C402E6
:101F70008093C5029093C6026E7FC1F48091770270
:101F800080FF08C08BE994E09F938F930E94F60531
:101F90000F900F900E94620C0E944C0C6093C30241
:101FA0007093C4028093C5029093C6020E94360CBF
:101FB0000E94720C8091C30280FF03C086950E942C
:101FC0007F0F81E08093C40108958091C3028160F6
:101FD0008093C3028091770280FF0DC01F9281E041
:101FE0008F938AEB93E09F938F930E94F6050F9057
:101FF0000F900F900F908091C30286950C947F0FE5
:1020000021E030E0A90102C0440F551F8A95E2F794
:10201000CA012091C701662361F0822B8093C7011A
:102020008091C601811108C08091C30286950C94ED
:102030007F0F80958223F2CF0895FA01811101C0AC
:10204000FB0109940F931F93CF938C01FB01C28175
:10205000CC2309F44DC00E94F8208272F801E25CA2
:10206000FC45E431F10538F4E15FFF4C0C949C2F02
:102070000E94640FC0E08C2FCF911F910F910895A3
:1020800043E45FE066E37FE00E941D10F3CF46E388
:102090005FE063E47FE0F8CF46EB5EE069EA7EE074
:1020A000F3CF49EA5EE066EB7EE0EECF44ED5EE022
:1020B00065EC7EE0E9CF45EC5EE064ED7EE0E4CFE8
:1020C00042EF5EE063EE7EE0DFCF43EE5EE062EF84
:1020D0007EE0DACF48E15DE061E07DE0D5CF41E030
:1020E0005DE068E17DE0D0CF81E00E94460FC2CF85
:1020F000C1E0C1CF0E94DA21811102C00E9480227A
:102100000E94082280930403803220F08770886147
:102110008093040390910403892F817090FF04C081
:10212000892F8695869586950C94E41180910403F9
:10213000982F969596959695933040F49F5F990FBA
:10214000990F990F8770892B809304038091040362
:102150008160809304030E940C228091770280FFAB
:1021600011C0809104038695869586951F928F9362
:102170008BE596E09F938F930E94F6050F900F904A
:102180000F900F90809104038695869586950C9408
:10219000E41180910403982F987F79F08850809300
:1021A0000403887F91E009F490E08091040390FBA0
:1021B00080F9809304030E940C228091770280FFB3
:1021C00011C0809104038695869586951F928F9302
:1021D00083E496E09F938F930E94F6050F900F90F3
:1021E0000F900F90809104038695869586950C94A8
:1021F000E4118091040380FD1FC08160809304037B
:10220000813019F489E080930403809104030E94D3
:102210000C228091770280FF08C08BE196E09F93AB
:102220008F930E94F6050F900F908091040386957E
:10223000869586950C94E41108958091040380FF9F
:1022400014C08E7F809304030E940C228091770239
:1022500080FF08C088E096E09F938F930E94F60568
:102260000F900F9080E00C94E4110895CF93C091EB
:102270000403C1708091770280FF0CC01F92CF933E
:102280008DE296E09F938F930E94F6050F900F903A
:102290000F900F90CC2319F0CF910C941D11CF917A
:1022A0000C94F91090910403892F86958695869554
:1022B0008F5F8F719770843080F5880F880F880F3B
:1022C000892B8093040380910403887F91E009F4B3
:1022D00090E08091040390FB80F9809304030E94B6
:1022E0000C228091770280FF11C0809104038695B3
:1022F000869586951F928F9384EF95E09F938F9399
:102300000E94F6050F900F900F900F90809104039C
:102310008695869586950C94E41190930403D3CF0B
:10232000843008F083E0909104039770282F220FE7
:10233000220F220F922B90930403987F21E009F43F
:1023400020E09091040320FB90F9909304030C94F7
:10235000E4110E949011809104030C940C229C01C2
:10236000FB018281882349F12D3BFCE53F07C9F041
:1023700040F42B3BECE53E0769F02C3B3C4579F003
:1023800008952F3B9CE5390791F070F0203C3C45C7
:1023900089F0089583E00E94A91180E0089580E00B
:1023A000FACF0E94C910F9CF0E949610F6CF0E9472
:1023B0003611F3CF0E945211F0CF81E00895259A93
:1023C0002D9808952D980895CF92DF92EF92FF9265
:1023D000CF93C82F843040F5811127C080918000B1
:1023E0008F77809380000E94E2112C2F30E0AFEFB6
:1023F000BFEF0E94A22F23E030E040E050E00E94B7
:102400007A2FC9012C3764E13607A8F469E070E03F
:102410000E94522F7093890060938800CF91FF90A3
:10242000EF90DF90CF900895C3E0809180008068A6
:1024300080938000DACF2A50374D4F4F5F4F942F53
:10244000832F722F662725EF38E241E050E00E948B
:102450007A2F69017A01CA01B9010E94362F9B01C6
:10246000AC01C701B6010E94362F672F782F892F44
:1024700099276115710521E08207910559F66FEFE3
:102480007FEFC8CF08950E94DF1182E8809380001B
:1024900089E1809381008FEF9FEF90938700809375
:1024A00086000C947A106A9A4EB14B7F5EB15460EC
:1024B000EFB7F8949B01220F331F260F371F280F09
:1024C000391F2817390741F4EFBF8FE594E00197D2
:1024D000F1F700C000000895DC016D91CD0178E0B6
:1024E0005EB9000000C067FF4EB9660F000000C073
:1024F00000C000C04EB900C07A9591F7E2CFAF920C
:10250000BF92CF92DF92EF92FF920F931F93CF93E0
:10251000DF937C015B01C42FD22FFC0182818823D1
:10252000F9F04093CA010E9405249093C901809359
:10253000C80180E28C0F883008F061C0C77081E06C
:1025400001C0880FCA95EAF7DF91CF911F910F91D3
:10255000FF90EF90DF90CF90BF90AF900C94CF188A
:102560001091CA01141340C08091C8019091C90113
:102570000E9411246C01B701C5010E94CF1DC8162D
:10258000D90690F5C0E2CD0F1D17B9F080E2810F9A
:10259000883040F4177081E001C0880F1A95EAF77F
:1025A0000E94D618C83048F481E09D2F977001C072
:1025B000880F9A95EAF70E94CF18802F0E94BC18C6
:1025C000C830E8F4D77081E001C0880FDA95EAF7E7
:1025D000DF91CF911F910F91FF90EF90DF90CF90FF
:1025E000BF90AF900C94D61880E28C0F883038F4EE
:1025F000C77081E001C0880FCA95EAF7E9CFDF9183
:10260000CF911F910F91FF90EF90DF90CF90BF90EF
:10261000AF9008950F939C01CB01233F4CE5340705
:1026200059F1A8F4283DFCE53F0701F1293D4CE5AF
:102630003407D1F1273D3C4591F406E221EE41EE0D
:1026400067ED7CE50E947F1280E00F910895253FA1
:10265000FCE53F07E9F0B0F0263F3C45F9F0FC010E
:102660008281882339F11092CA01EFCF07E225EE6B
:1026700045EE68ED7CE5E6CF06E221EE40EE63EF45
:102680007CE5E0CF07E225EE44EE64EF7CE5DACFAF
:1026900006E221EE42EE65EF7CE5D4CF07E225EEBF
:1026A00046EE66EF7CE5CECF08E221E045EE69ED2F
:1026B0007CE5C8CF81E0C9CFCF93DF93EC01FB016C
:1026C0008281882309F419C1C230FCE5DF07C0F11B
:1026D000C6319CE5D90730F09E012A5F3C45293080
:1026E000310570F50E94ED219093AE028093AD020A
:1026F000C031ECE5DE0709F4CFC008F05BC0C8309C
:102700008CE5D80709F4B6C088F5C430ECE5DE07DF
:1027100009F4A8C0C0F4C2308CE5D80709F49CC005
:102720008091AD028260C330DC4509F498C080918D
:10273000AD029091AE020E94FB210E94591B80E0E5
:10274000DF91CF9108958091AD028061C630ECE5B4
:10275000DE0709F484C08091AD028860C730DC4593
:1027600008F47DC08091AD02806279C0CC308CE5E8
:10277000D80709F489C070F48091AD028C60CA302A
:10278000ECE5DE0709F46BC008F478C08091AD0277
:102790008E7F65C0CE308CE5D80709F479C0809172
:1027A000AD028B7FCF30DC4508F459C08091AD027B
:1027B0008F7E55C0CB3FECE5DE0709F457C030F5FE
:1027C000C3318CE5D80709F46FC078F4C131ECE56A
:1027D000DE0709F465C0C231DC4509F0A8CF0E94CC
:1027E000591B8091AD028F773AC0C5318CE5D8076F
:1027F00009F462C008F476C08091AE028160CA3FDD
:10280000DC4509F094CF8093AE0291CFCF3FFCE539
:10281000DF0709F44DC088F48091AE028D7FCD3F73
:102820009CE5D90781F38091AE028E7FCE3FDC45D7
:1028300050F38091AE028360E6CFC130FDE5DF0743
:1028400009F459C008F444C080E0C230DD4509F005
:102850006ECF0E9482226BCF8091AD028160809307
:10286000AD0265CF8091AD028460F9CF8091AE0258
:102870008260C9CF8091AD028064F1CF0E94591B64
:102880008091AD028068EBCF8091AD028D7FE7CF64
:102890008091AD02877FE3CF8091AD028F7DDFCF46
:1028A0008091AD028F7BDBCF8091AD02837FD7CF4C
:1028B0008091AE028C7FA7CF8091AD0282FB9927D9
:1028C00090F921E0922790FB82F990FB83F9C7CF22
:1028D0008091AE02982F909591708E7F892B90FBFE
:1028E00081F991CF0E94591B9091AD02892F97FBDE
:1028F00087F98058B4CF81E0ACCF81E021CFCF936E
:10290000DF93EB0186319C4539F50E94F820982F22
:1029100091718A7A911180E09A81992399F091E0DE
:10292000811101C090E09093CB01811109C089E22F
:102930000E94D3200E94472180E0DF91CF9108952B
:1029400085E3F6CF8091CB01811104C089E20E941A
:10295000DA20F0CF85E3FBCF81E0EFCFCF93DF9399
:10296000EC0181E0898B8F810E94FB2088850E9489
:102970000E210E944721EA81FB81309739F06C8952
:102980007D89CE010696DF91CF910994DF91CF9199
:102990000895EF92FF920F931F93CF93DF93EC0173
:1029A0008A85811134C0EB80FC8087E5F81A26E126
:1029B0002E9DC0012F9D900D1124DC01AE5FBE4FF6
:1029C0001496ED91FC911597309731F054966D91D6
:1029D0007C91885F9E4F099586E18E9D80018F9D39
:1029E000100D11240E5F1E4FF80187810E940121F6
:1029F000F80180850E9414210E94472118821986BF
:102A00001B861E821D821092CD011092CC01DF9197
:102A1000CF911F910F91FF90EF900895DF92EF9269
:102A2000FF920F931F93CF93DF937C01FB01828171
:102A3000882391F080911D018F3F71F0C2E0D1E0B9
:102A400010E000E0DD24D39480911D01082E000CDD
:102A5000990B8017910744F4DF91CF911F910F914B
:102A6000FF90EF90DF9008958E818823C9F08985CB
:102A70009A858E159F0539F48091CC019091CD01F6
:102A80008E159F0569F0DF86FC86EB8689898111AA
:102A900003C0CE010E94AE14CE0106960E94C91456
:102AA0000F5F1F4F6696D0CFEF92FF920F931F9349
:102AB000CF93DF937C0197558F3F910509F0D8F5AF
:102AC00020911D01022E000C330B2817390714F436
:102AD00080931D01FB01228136E1389F8001399FDF
:102AE000100D1124E801CE5FDE4F288B92818E817C
:102AF000992349F1FA86E9868F5F8E830E94052427
:102B00009E878D870E942E218F830E94F8208887C0
:102B10000E940B219885892B8887E881F98130975D
:102B200031F06C897D89C801885F9E4F0995F092CC
:102B3000CD01E092CC0181E0DF91CF911F910F9107
:102B4000FF90EF9008958823B1F38989882399F342
:102B5000C801885F9E4F0E94C914EDCFCF92DF92CB
:102B6000EF92FF920F931F93CF93DF9380911D01FC
:102B700010E006E18F3FF1F5DF91CF911F910F91AA
:102B8000FF90EF90DF90CF9008950E9DF0010F9D84
:102B9000F00D1124EE5FFE4FC288D388C114D1041A
:102BA00039F470E060E0818592850E94CF1D6C0150
:102BB0000E9DE0010F9DD00D1124CE5FDE4F8E8162
:102BC0008823B9F08D859E850E941124C816D906E8
:102BD00080F4109F700111248989811105C0C701FB
:102BE0008E5F9E4F0E94AE14C701885F9E4F0E9469
:102BF000C9141F5FE12EF12C80911D01082E000CDD
:102C0000990B8E159F050CF6B7CF9093D301809347
:102C1000D2010895E091D201F091D301309721F0D3
:102C20000190F081E02D099480E00895EF92FF92E9
:102C30000F931F93CF93DF93EC01E091D201F091BA
:102C4000D301309709F446C080913201882341F0C6
:102C50008091AD0287FF04C08881898385E08883E5
:102C60000280F381E02DCE0109958091770282FFE9
:102C700031C080FF04C08BE797E00E945D0510E043
:102C800000E085E7E82E87E0F82E8091770280FF4C
:102C90000EC0FE01E00FF11F80811F928F93FF9203
:102CA000EF920E94F6050F900F900F900F900F5F1C
:102CB0001F4F0830110549F78091770280FF0AC045
:102CC00083E797E0DF91CF911F910F91FF90EF90F5
:102CD0000C945D05DF91CF911F910F91FF90EF90C4
:102CE0000895E091D201F091D301309739F022E0BC
:102CF000DC012C930480F581E02D09940895209146
:102D0000D0013091D1012817390771F09093D1018A
:102D10008093D001E091D201F091D301309721F05E
:102D20000680F781E02D099408952091CE0130911D
:102D3000CF012817390771F09093CF018093CE010E
:102D4000E091D201F091D301309721F00084F18518
:102D5000E02D0994089585B7806885BF85B78068A0
:102D600085BF0895089508950C94B2160C94240616
:102D70000E94AB160E94B3160C94B41681E008951D
:102D80000C94BE160E94FC230E94620A0E947E24BC
:102D90000E947A100E94820F0C94B616CF93C82F0F
:102DA0008091770282FF1EC080FF1CC084E997E0FB
:102DB0000E945D058091770280FF14C01F92CF931F
:102DC0008FE897E09F938F930E94F605809177029A
:102DD0000F900F900F900F9080FF04C08DE897E048
:102DE0000E945D058C2FCF910C947C079F92AF922F
:102DF000BF92CF92DF92EF92FF920F931F93CF93E8
:102E0000DF93CDB7DEB72A970FB6F894DEBF0FBEBB
:102E1000CDBF0E94CA0A0E94C016882309F472C05E
:102E200055EDA52E51E0B52E10E000E0902E802F3C
:102E30000E940E0A6C01F501E190F1905F01E81625
:102E4000F90609F459C08091770281FD0E94170AA2
:102E500097012C253D2580E0EE24E394F12CA90177
:102E60004E215F21452B09F441C08E839F82CE20E5
:102E7000DF2081E0CD2809F480E088870E940524C6
:102E80008160782F9A8789874E815F8168858A85DE
:102E90000E94A517000F111FF801EB52FE4F808111
:102EA0009181E826F926F182E0820E9442120E9476
:102EB0009D260E940A169091D4018917A1F10E94C3
:102EC0000A168093D4012A960FB6F894DEBF0FBE7F
:102ED000CDBFDF91CF911F910F91FF90EF90DF90C9
:102EE000CF90BF90AF909F900C94CE168F5FEE0C5A
:102EF000FF1C803109F0B3CF0F5F1F4F0530110564
:102F000009F094CF8FEF89838A831B820E94052466
:102F10008160782F9D838C8349815A816B818D815B
:102F20000E94A517C2CF2A960FB6F894DEBF0FBE37
:102F3000CDBFDF91CF911F910F91FF90EF90DF9068
:102F4000CF90BF90AF909F900895CF93DF93CDB770
:102F5000DEB72B970FB6F894DEBF0FBECDBF4F8301
:102F6000588769877A878B871E821D8285E0FE01DC
:102F70003796DE01119601900D928A95E1F749810D
:102F80005A816B817C818D819E812B960FB6F8943E
:102F9000DEBF0FBECDBFDF91CF910C94D21DFC01DF
:102FA000808191810C94A520CF93C82F882309F4A8
:102FB0008BC08238C1F40E940A1681FD85C089E366
:102FC0000E94D3200E9447212FEF81EE94E02150F0
:102FD00080409040E1F700C0000089E30E94DA20C1
:102FE000CF910C9447218338A1F40E940A1680FDEA
:102FF0006BC083E50E94D3200E9447212FEF81EE12
:1030000094E0215080409040E1F700C0000083E54B
:10301000E5CF8438A1F40E940A1682FD55C087E4EA
:103020000E94D3200E9447212FEF81EE94E021508F
:1030300080409040E1F700C0000087E4CFCF8CEFE4
:103040008C0F813A90F46C2F80911E0190911F019A
:103050000E949B22882329F08C2F0E94DA200E9454
:1030600047218C2F0E94D320BBCF80E28C0F883069
:1030700048F4C77081E001C0880FCA95EAF70E9442
:10308000FB20AECFEBE5EC0FE33040F4F0E0E7558A
:10309000FE4F808190E0CF910C947F16E8E5EC0F15
:1030A000E73150F4F0E0EE0FFF1FE558FE4F80814E
:1030B0009181CF910C949516C03F30F08C2F0E94D7
:1030C0001525CF910C940026CF910895882309F4FB
:1030D00052C0823871F40E940A1681FF4CC089E305
:1030E0000E94D3200E94472189E30E94DA200C9499
:1030F0004721833859F40E940A1680FF3CC083E5BB
:103100000E94D3200E94472183E5EFCF843859F4F1
:103110000E940A1682FF2FC087E40E94D3200E94DB
:10312000472187E4E2CF9CEF980F913AF0F290E2CA
:10313000980F983050F4877091E001C0990F8A95EC
:10314000EAF7892F0E940121D2CF9BE5980F933097
:1031500020F490E080E00C947F1698E5980F97316A
:1031600020F490E080E00C949516803F20F00E94BF
:103170007D250C9400260895CF93C82F0E94D41764
:10318000C93349F42FEF87EE93E0215080409040FF
:10319000E1F700C000008C2FCF910C9466188823B3
:1031A00021F00E94FB200C9447210895882321F0F0
:1031B0000E9401210C9447210895BF92CF92DF9283
:1031C000EF92FF920F931F93CF93DF936C01D62F53
:1031D000C72FFC01058102950F70128111110E9409
:1031E0001B210E94F120E82E882391F01123D1F0B9
:1031F0008C2F807F803421F080E28D0F883090F01A
:1032000082E00E9492210E94F12091E0E82EE926BE
:10321000BC2EB2949FE0B922EB2DF0E0ED5DFF4CA7
:103220000C949C2FE12CF4CF0C2F0F70C07F11F069
:103230000295007F1123A9F0002359F080E28D0F41
:10324000883010F0D11109C0802F0E94FB200E940D
:1032500047218D2F0E94D41714C0802F0E940E2169
:10326000F6CF8D2F0E946618002359F080E28D0F53
:10327000883010F0D1112CC0802F0E9401210E94B3
:1032800047212B2D2850330B2430310520F40E9488
:103290000A160E947C07EE2009F49EC10E94ED20D0
:1032A00080FD9AC1F60112820E94E7200E94741FDD
:1032B000C6010E940D1B0E94E720DF91CF911F9154
:1032C0000F91FF90EF90DF90CF90BF900C94951FDF
:1032D000802F0E941421D3CFFC2FFF70FF2EC07FC0
:1032E000C03219F0F29480EFF822DD2369F0D1307A
:1032F00049F1112391F1002351F1F601858180FFFD
:10330000A8CF8F70858323C0112381F0011106C0DF
:103310000E942E218F290E94CF18B3CF0130C1F710
:103320000E942E218F290E943421ABCF011106C0AB
:103330000E943D218F2D0E94D618A3CF013009F4A1
:10334000A0CFF6CF112329F0063008F09ACF8F2DA9
:10335000E2CF053008F095CFEDCF002359F3D933F4
:1033600049F4FFEF27EE33E0F15020403040E1F721
:1033700000C000008D2F0E94661883CF8C2F869589
:103380008695837069F0813009F07BCF8D2F9C2F5B
:103390009370111102C090E080E00E94951671CFE9
:1033A0008D2F9C2F9370111102C090E080E00E943D
:1033B0007F1667CF8D2F112329F00E9415250E94BB
:1033C00000265FCF0E947D25FACF8C2F837009F0F5
:1033D00041C0111156CF4D2F429546954770440F6D
:1033E000440F0D2F0F7010E030E020E0042E04C0D9
:1033F000000F111F221F331F0A94D2F760E070E004
:10340000CB01D4FF0FC06FE070E080E090E004C01B
:10341000660F771F881F991F4A95D2F760957095A0
:1034200080959095C695C695C370602B712B822BA5
:10343000932BC23049F058F4C13019F00E94081F94
:1034400020CF0E94F61E1DCF0E941A1F1ACF0E9485
:10345000F41E17CF8695112311F08C2F81708823CD
:1034600009F40FCF4D2F429546954770440F440FF6
:103470000D2F0F7010E030E020E0042E04C0000F8C
:10348000111F221F331F0A94D2F760E070E0CB01B6
:10349000D4FF0FC06FE070E080E090E004C0660FE2
:1034A000771F881F991F4A95D2F760957095809570
:1034B0009095C695C695C370602B712B822B932B6C
:1034C000C23049F058F4C13019F00E94EB1FD9CE38
:1034D0000E94D91FD6CE0E94FD1FD3CE0E942E1F60
:1034E000D0CECF70112329F08C2F0E94741F8D2F06
:1034F00012CF8D2F0E94D6188C2F0E94951FC1CEFF
:10350000D23F89F160F4D03FC9F0D13F29F11123B6
:1035100009F442C001119DCE8C2F8F7121C0D33F81
:1035200039F1D43FA1F7112369F1CF718C2F0E949B
:10353000741F63E08C2F0E947D21A3CE112341F0E4
:10354000053008F09ECE8C2F8F710E94B81F99CE47
:10355000063008F096CEF7CF8C2F8F71112369F2C9
:103560000E94741F8ECE8C2F8F711123C9F3C5CF8B
:10357000112329F08C2F8F710E945F1F82CE0E9431
:103580003A1F7FCE81E00E949221023008F479CE6A
:1035900082E00E94922175CE002359F0D93309F0C0
:1035A000E9CE8FEF97EEE3E081509040E040E1F705
:1035B000DFCE8C2F8F71A1CF4C2F4F706D2FC60196
:1035C0000E94FC070E946C1E5CCE4C2F4F706D2F2A
:1035D000C6010E94FF0755CEDF91CF911F910F9139
:1035E000FF90EF90DF90CF90BF9008950F931F93BF
:1035F000CF93DF93EC01688179818A810E94AF20AB
:103600008C010E940F200E94F31EB801CE01DF91B1
:10361000CF911F910F910C94DD18CF93DF93EC01A4
:103620008B819C81892B29F08881998189238F3F07
:1036300059F4DF91CF910895CE010E94F61ACE0180
:10364000DF91CF910C945C07CE010E949407811109
:10365000F3CF0E94F120882361F38A81882349F304
:1036600082E0DF91CF910C949221882321F00E9477
:103670000E210C9447210895882321F00E941421E3
:103680000C94472108950E941B210E942B210E9427
:1036900047210E94A9270E94002690E080E00E9416
:1036A0007F1690E080E00C9495160E94E1200C9427
:1036B000431B0E9408210C94551BE92FE295EF70E3
:1036C000E250EE3070F4F0E0ED5CFF4C0C949C2F77
:1036D000803F19F020F4883E20F481E00895843F73
:1036E000E1F380E00895883EC0F3813FD1F7F5CF44
:1036F00093FB882780F908950E94A5200C945D1BF8
:10370000CF93DF9300D000D00F92CDB7DEB70F90EC
:103710000F900F900F900F90DF91CF910895CF935E
:10372000DF9300D000D000D0CDB7DEB726960FB61D
:10373000F894DEBF0FBECDBFDF91CF9108951F93E8
:10374000CF93DF93C091E00116E08091E1018C13EB
:1037500004C0DF91CF911F910895D0E01C9FF0012C
:103760001D9FF00D1124EE51FE4F40815181628169
:103770007381848195810E948F1B2196C770E5CF4C
:10378000409112025091130260911402709115023F
:1037900080911602909117020C948F1B1F93CF9368
:1037A000DF9380911702807FA9F48091140288230F
:1037B00089F08091E001C091E10160911202709165
:1037C0001302A0911502B0911602D62FD72316E04E
:1037D000C81304C0DF91CF911F91089590E0109716
:1037E00011F0DF3F19F401968770F2CF189F900116
:1037F000199F300D1124F901EE51FE4F41814713FD
:10380000F2CF40814613EFCF42814111ECCF43818B
:1038100054814A1B5B0B483C510528F780911702E5
:103820008F70806180931702F901E951FE4F80810A
:103830008F708061808382E192E00E940D1BDF9196
:10384000CF911F910C949F1BAF92BF92CF92DF92AA
:10385000EF92FF920F931F93CF93DF93CDB7DEB715
:1038600061970FB6F894DEBF0FBECDBF8C0185E027
:10387000F801DE011D9601900D928A95E1F7F8019D
:1038800040815181E28082E1C82E82E0D82E609191
:103890001502709116026115710509F461C19091CC
:1038A000120220911302892F82238F3F09F458C1FD
:1038B000A380B480F0901402F501E61BF70BFF2003
:1038C00009F4FCC080911702382F307FE83CF105E5
:1038D00008F0B2C0311179C0FE2C251323C0941317
:1038E00021C0E1101FC08F708061809317020E9479
:1038F000C01BC6010E940D1B80911702F801858331
:103900008F2D61960FB6F894DEBF0FBECDBFDF914D
:10391000CF911F910F91FF90EF90DF90CF90BF90CC
:10392000AF900895AB2829F0842F85238F3F09F0AD
:1039300033C180E0F82FF170DF2E80FF3CC0809112
:10394000E0012091E10136E0821315C04D875E87CA
:103950008D859E850E94A520292F22952F702230CB
:10396000F0F0243018F59F70F1F0F8019581907F08
:10397000D1F4D12C1EC090E0389FF001399FF00D9A
:103980001124EE51FE4F6181651306C060816413FE
:1039900003C062816E110FC001968770D5CF9F70F2
:1039A00011F0882331F3805E883018F3C8010E943B
:1039B0000D1BFD2CA5CFEE2009F4A2CF809117029C
:1039C000816080931702F12C9BCF251306C09413BE
:1039D00004C0F801EE2009F48DC04D875E878D8507
:1039E0009E850E947C1B882319F1EE2009F18091AD
:1039F0001702803270F02091120230911302388742
:103A00002F831986BB86AA868C87CE0107960E94D3
:103A10000D1B86E0F801A2E1B2E001900D928A95BB
:103A2000E1F70E94CE1B0E94C01BFF24F39468CFD5
:103A3000C8010E940D1BF9CF311113C07A2DB98A2C
:103A4000A88A6E2D89890E94801B82E192E00E94E3
:103A50000D1B86E0F60111928A95E9F70E94C01BC2
:103A6000B2CF25130FC094130DC0E1100BC0F801A5
:103A70008583C8010E940D1B86E0F60111928A958C
:103A8000E9F73ECF4D875E878D859E850E947C1B22
:103A9000882371F2EE2061F280911702803208F4DF
:103AA000B8CF20911202309113023A8329831B82EE
:103AB000BD82AC828E83CE010196A9CFE83CF10590
:103AC00008F041C0FE2CEE2009F4B2CF25132AC025
:103AD000941328C08091170280FD1BC0982F907FFF
:103AE000C1F0F8018583903F31F0982F907F905F6F
:103AF0008F70892B8583C8010E940D1B86E0F80119
:103B0000A2E1B2E001900D928A95E1F70E94C01BFC
:103B1000F7CE86E0F801A2E1B2E001900D928A951D
:103B2000E1F7EECE4D875E878D859E850E947C1BDA
:103B300081116FCF80911702816080931702C801B5
:103B40000E940D1BDDCE7A2DB98AA88A6E2D898937
:103B50000E94801B86E0F60111928A95E9F7D6CF84
:103B6000EE2009F465CF4D875E878D859E850E9486
:103B70007C1BF82E882309F45BCF86E0F801A2E1D4
:103B8000B2E001900D928A95E1F782E192E00E9405
:103B9000CF170E94CE1BBACF81E08E25CBCE88EC0A
:103BA00090E008951F93CF93DF93CDB7DEB72C97A6
:103BB0000FB6F894DEBF0FBECDBF4F83588769871D
:103BC0007A878B879C87CE0107960E94241C8823C6
:103BD00069F08A859B85892B39F04F815885842F20
:103BE00085238F3F09F071C016E05FC086E0FE01BB
:103BF0003796DE01119601900D928A95E1F78A853C
:103C00009B85892B89F38F81988589238F3F61F369
:103C10002091E10130E0C901019687709927409118
:103C2000E0014817190671F40E94591B1092E10136
:103C30001092E00186E0E2E1F2E0DF011D928A9558
:103C4000E9F7D2CF96E0929FD001939FB00D112457
:103C5000AE51BE4FFE01319601900D929A95E1F75B
:103C60008093E1010E949F1BBFCF819FC00111245F
:103C70008E519E4F0E94241C8823E9F0E091E001C0
:103C80001E9FF0011124EE51FE4F4081518162814F
:103C90007381848195810E948F1B8091E00190E067
:103CA0000196877099278093E0018091E0019091BF
:103CB000E1018913DACF2C960FB6F894DEBF0FBE60
:103CC000CDBFDF91CF911F91089569857A858B854E
:103CD0009C850E948F1B88CFEF92FF920F931F93BA
:103CE000CF93DF938C01892B81F0F12CEE24E394A8
:103CF000E8012196F8018491843770F4843008F04B
:103D00005FC08130B1F08230A1F1DF91CF911F917E
:103D10000F91FF90EF900895853709F44CC008F497
:103D20003DC09CE7980F903780F78F770E94661808
:103D300049C00E5F1F4FFE01849190E2980F9830AA
:103D400060F48770FE2D01C0FF0F8A95EAF78F2F70
:103D50000E941E210E94472102C00E94D4178F2D6D
:103D6000815030F2EFE9FFE03197F1F700C0000039
:103D7000F7CF0E5F1F4FFE01849190E2980F9830AD
:103D800050F48770FE2D01C0FF0F8A95EAF78F2F40
:103D90000E942421DFCF0E946618E1CF0E5F1F4FE3
:103DA000FE01C491C150D8F28FE99FE00197F1F76D
:103DB00000C00000F7CF0E5F1F4FFE01F490CFCF81
:103DC0000E94D4178E01CBCF08950C94E41E0E945C
:103DD000E51E60934E0270934F02809350029093C1
:103DE00051020C94431B08950C94E71E0F931F93EC
:103DF00000914E0210914F022091500230915102D9
:103E0000602B712B822B932B1F910F910C94E71E2B
:103E10000F931F9300914E0210914F022091500278
:103E20003091510260237123822393231F910F91BC
:103E30000C94E71E0F931F9300914E0210914F02B6
:103E400020915002309151026027712782279327D9
:103E50001F910F910C94E71E0C942B060E942C1FAF
:103E600060934A0270934B0280934C0290934D02F0
:103E70000C94431B60E070E0CB010C942E1F611585
:103E800071058105910529F481E0442361F080E00A
:103E90000895DC01CB0104C0B695A7959795879549
:103EA0004A95D2F781700895482F60914A02709127
:103EB0004B0280914C0290914D020C943F1F0F9346
:103EC0001F9341E050E060E070E08A019B0104C074
:103ED000000F111F221F331F8A95D2F7C901B801A5
:103EE0001F910F910C942E1F0F931F9341E050E0F0
:103EF00060E070E004C0440F551F661F771F8A956D
:103F0000D2F780914A0290914B02A0914C02B0915D
:103F10004D028A019B01082B192B2A2B3B2BC9012F
:103F2000B8011F910F910C942E1F0F931F9341E026
:103F300050E060E070E004C0440F551F661F771F1B
:103F40008A95D2F7CB01BA016095709580959095CE
:103F500000914A0210914B0220914C0230914D0287
:103F600060237123822393231F910F910C942E1FA2
:103F70000F931F9341E050E060E070E004C0440FF5
:103F8000551F661F771F8A95D2F780914A0290913C
:103F90004B02A0914C02B0914D028A019B0108276F
:103FA00019272A273B27C901B8011F910F910C94AB
:103FB0002E1F0F931F9300914A0210914B022091E4
:103FC0004C0230914D02602B712B822B932B1F9151
:103FD0000F910C942E1F0F931F9300914A02109182
:103FE0004B0220914C0230914D02602371238223B9
:103FF00093231F910F910C942E1F0F931F930091E9
:104000004A0210914B0220914C0230914D026027E0
:104010007127822793271F910F910C942E1F0895CB
:104020009295907F890F982F977041E001C0440FBF
:104030009A95EAF786958695869595E0899FF00191
:104040001124E85EFD4F30E020E070E05191DF0187
:104050001197CB01022E02C0969587950A94E2F73C
:10406000817081958527842385278C932F5F3F4F0F
:104070002530310559F708959295907F890F982F33
:10408000977086958695869525E0829FF00111248C
:10409000E85EFD4F50E040E080E0219130E0092EE5
:1040A00002C0369527950A94E2F721703327042E33
:1040B00001C0220F0A94EAF7822B4F5F5F4F453011
:1040C000510559F70895BF92CF92DF92EF92FF9278
:1040D0000F931F93CF93DF938C01C0904A02D0902F
:1040E0004B02E0904C02F0904D0280914E02909174
:1040F0004F02A0915002B0915102C82AD92AEA2A4F
:10410000FB2ACFE1D0E0BC2ED701C6010C2E04C0A3
:10411000B695A795979587950A94D2F780FD0EC01E
:10412000219788F7B12C8B2DDF91CF911F910F91A3
:10413000FF90EF90DF90CF90BF900895B8018C2F43
:104140000E941D08019761F3EECFCF93DF93EC013E
:104150000E946320BE01DF91CF910C941D081F9334
:10416000CF93DF93EB019091DF01992331F0CB01E5
:10417000DF91CF911F910C94A520882379F0CB017A
:104180000E946320182F682FCE010E941020BE01CC
:10419000812FDF91CF911F910C941D08CB010E94BC
:1041A0003C20182FF4CF682F80911E0190911F01A1
:1041B0000C943D23682F80911E0190911F010C9457
:1041C000482380911E0190911F010C9453238091EC
:1041D0005202859585958595089580915202877044
:1041E000089590915202977081E009F480E008955B
:1041F00080917602089590917602892B80937602C1
:104200000895809590917602982390937602089570
:10421000109276020895809175020895909175022A
:10422000892B80937502089580959091750298234B
:1042300090937502089510927502089590917402FA
:10424000892B80937402089580959091740298232D
:10425000909374020895109274020895809153020D
:10426000089508950C94312190915302981721F0EC
:10427000809353020C943221089580915302882335
:1042800029F01092530280E00C9432210895E091BD
:104290001E01F0911F01809176028083E0911E0142
:1042A000F0911F01808190917502892B8083E091AC
:1042B0001E01F0911F01808190917402892B8083EF
:1042C00090915302992381F0E0911E01F0911F011A
:1042D0008081892B808380911E0190911F010E9413
:1042E000872281110E943D2180911E0190911F0122
:1042F0000C94161608950C947A2198E0899F9001E9
:104300001124622B609352020E94741F809152020A
:104310008595859585950C947B211092520280E0BD
:104320000C947B21909152028095892380935202B4
:10433000282F277071F4282F082E000C330B9217AA
:10434000130639F08595859585950E94951F0C94E7
:104350008D2108959093BD018093BC0108958295AD
:1043600090E09C01220F331F220F331F2C7C959568
:104370008795959587958373282B30E0C901880F21
:10438000991F8A7A359527952575822B0895CF93A5
:10439000DF93D92F0E94AF21C82F8D2F0E94AF210C
:1043A0009C2FDF91CF9108956FEF7FEF90E080E039
:1043B0000C94F72F90E080E00E94D32F21E08C3EF8
:1043C0009E4F09F020E0822F089582E090E00C9447
:1043D000C52F83E090E00C94C52FCF9384E090E04C
:1043E0000E94C52FC82F81E290E00E94C52F982F10
:1043F0008C2FCF910895CF93C92F682F84E090E040
:104400000E94D92F6C2F81E290E0CF910C94D92F8C
:1044100086E090E00C94C52F682F86E090E00C9425
:10442000D92FAB01BC018FE090E00C94EB2FAB01D6
:10443000BC0183E190E00C94EB2F60E070E0CB01D5
:104440000C94172260E070E0CB010E9411220C94C2
:104450001D226CEE7EEF90E080E00E94F72F60E07E
:1044600082E090E00E94D92F60E083E090E00E941B
:10447000D92F10924E0210924F02109250021092B9
:10448000510260E084E090E00E94D92F60E081E278
:1044900090E00E94D92F60E085E090E00E94D92F43
:1044A00060E086E090E00E94D92F6FEF87E090E017
:1044B0000E94D92F40E050E0BA0188E090E00E94CD
:1044C000EB2F60E08DE090E00E94D92F40E050E0BB
:1044D000BA0188E190E00E94EB2F60E087E190E074
:1044E0000E94D92F40E050E0BA018CE190E00E9498
:1044F000EB2F60E080E290E00E94D92F0C94222202
:104500000C942922682F8EE090E00C94D92FFC01A6
:10451000329680913201882321F08091AD029EE194
:1045200087FF96E080E0915008F4089521912223BE
:10453000D1F38F5FF8CF662301F12091320122235E
:10454000F1F02091AD0227FF1AC0462F46954695FF
:1045500046954E3190F4677021E030E002C0220FA2
:10456000331F6A95E2F7840F911DFC01828190E070
:104570002823392381E0232B69F480E00895FC018E
:10458000329608962191261721F0E817F907D1F7FE
:10459000F4CF81E008959C01FC0132969FEF80E00A
:1045A0004191461751F09F3F19F4411101C0982FD6
:1045B0008F5F8630A9F79F3F09F40895290F311DB9
:1045C00097FD3A95F90162830895FC0132960896A9
:1045D0002191261303C0DF0111971C92E817F907F8
:1045E000B9F70895E62FE695E695E695EE3170F475
:1045F000E80FF92FF11D677021E030E001C0220FB4
:104600006A95EAF78281822B8283089580917702EE
:1046100080FF0CC01F926F9385EC97E09F938F9360
:104620000E94F6050F900F900F900F900895E62FBF
:10463000E695E695E695EE3178F4E80FF92FF11D51
:10464000677021E030E001C0220F6A95EAF72095FB
:1046500082812823228308958091770280FF0CC0F5
:104660001F926F9387EA97E09F938F930E94F605BE
:104670000F900F900F900F900895209132012223F8
:1046800029F02091AD0227FD0C94F2220C94CB224C
:1046900020913201222329F02091AD0227FD0C94B4
:1046A00017230C94E522FC01329680913201882375
:1046B00051F08091AD0287FF06C08EE1DF011D92AF
:1046C0008A95E9F7089586E0F9CF089508950C9446
:1046D00066230E94672380910D03843009F43AC059
:1046E0001092780288E190E020E40FB6F894A89543
:1046F000809360000FBE2093600080E00E94E41170
:1047000080E00E947C078091790281110AC081E0DB
:10471000809379028091C302817080937A020E9413
:10472000FA0D0E94672383B7817F846083BF83B7BC
:10473000816083BF7894889583B78E7F83BF0FB6DF
:10474000F894A89580916000886180936000109231
:1047500060000FBE08950895CF930E9465230E94C4
:10476000CA0A0E94AB23C0E08C2F0E940E0A892B3C
:1047700031F4CF5FC530C1F780E0CF91089581E07B
:10478000FCCF08950C94C1230E94591B0E947A10FB
:104790000E940A160E947C071092790280917A0288
:1047A00081110E94E50F0C94C2231F921FB61F9225
:1047B00011248F939F93AF93BF93809178028111BF
:1047C00013C08091050390910603A0910703B09157
:1047D00008034196A11DB11D809305039093060324
:1047E000A0930703B0930803BF91AF919F918F915E
:1047F0001F901FBE1F90189582E084BD93E095BD69
:104800009AEF97BD80936E0008952FB7F89480912A
:10481000050390910603A0910703B09108032FBFF1
:1048200008959C014FB7F894809105039091060379
:10483000A0910703B09108034FBF821B930B08950B
:1048400078941F921FB61F9211248F939F93AF935A
:10485000BF938091050390910603A0910703B09147
:1048600008030196A11DB11D8093050390930603D3
:10487000A0930703B0930803BF91AF919F918F91CD
:104880001F901FBE1F90189581E08093E00080E28A
:104890008093D8001092C9008FE19EE40197F1F750
:1048A00000C0000087E090EBDC018093160390933A
:1048B0001703A0931803B093190388E19CE00FB687
:1048C000F894A895809360000FBE90936000FFCF8E
:1048D0000C94D4210E94CA0A8FE39CE90197F1F756
:1048E00000C000000E94CA0A80E00E940E0A80FFF9
:1048F00004C00E9468240C94442408950E94DA2184
:10490000811102C00E9480220E94E52180937702DB
:104910000E94ED219093AE028093AD020E94E921A6
:10492000682F70E090E080E00E94F41E60914A02DF
:1049300070914B0280914C0290914D020C942C1F6F
:104940008091810280FD32C081FF10C060912501FD
:1049500085E0689FB00111247595679560387105F1
:1049600070F56115710569F1862F089582FD21C0EA
:1049700080918002882301F19091240160912501AA
:10498000891728F085E0689FB0011124E7CF869F42
:10499000B001112485E0869F9001879F300D11247E
:1049A000692F70E0C9010E94662FD8CF61E070E0E6
:1049B000DBCF6FE770E0D8CF65E070E0D5CF8FE751
:1049C000089581E008958091810280FD29C081FFD2
:1049D0000AC06091210170E07595679561157105B8
:1049E00011F1862F089582FD18C0909180029923BD
:1049F000B9F06091200180912101961738F0682F5D
:104A000070E06038710550F38FE70895899FC00109
:104A1000112470E00E94662FF4CF6FE770E0E1CFC1
:104A200061E070E0DECF81E00895803F31F40E94C4
:104A3000A0248195809385020895813F19F40E94F6
:104A4000A024F8CF823F31F40E94A0248195809366
:104A500084020895833F19F40E94A024F8CF893F6F
:104A600029F40E94E3248093860208958A3F21F46A
:104A70000E94E3248195F7CF8B3F31F40E94E32419
:104A800081958093870208958C3F19F40E94E32456
:104A9000F8CF843F31F48091830281608093830258
:104AA0000895853F21F4809183028260F7CF863F8D
:104AB00021F4809183028460F1CF873F21F48091BB
:104AC00083028860EBCF883F21F48091830280616C
:104AD000E5CF8D3F31F48091810281608093810226
:104AE00008958E3F21F4809181028260F7CF8F3F3D
:104AF000B9F7809181028460F1CF90918402803F68
:104B000059F48091850287FF0DC0109285029111A2
:104B10000BC01092800208C0813F81F48091850211
:104B200018169CF3992381F0809186029091870258
:104B3000892B09F064C010927F020895823F49F4E6
:104B400097FFF0CF10928402809185028111ECCF03
:104B5000E0CF833F19F41916ACF3E4CF209186021D
:104B6000893F29F41216F4F610928602DBCF8A3FB1
:104B700019F427FFD7CFF8CF209187028B3F29F474
:104B800027FFD0CF10928702CDCF8C3F19F4121699
:104B9000CCF3C8CF843F31F4809183028E7F809321
:104BA0008302C0CF853F21F4809183028D7FF7CFB0
:104BB000863F21F4809183028B7FF1CF873F21F4E0
:104BC00080918302877FEBCF883F21F4809183021D
:104BD0008F7EE5CF8D3F31F4809181028E7F80936F
:104BE0008102A0CF8E3F21F4809181028D7FF7CF8B
:104BF0008F3F09F097CF809181028B7FF0CF08958E
:104C00008091770283FF7EC08AE098E00E945D0574
:104C1000809183021F928F9385E098E09F938F93FA
:104C20000E94F60583E098E00E945D058091840271
:104C3000282F082E000C330B3F938F9380E098E0D1
:104C40009F938F930E94F6058EEF97E00E945D057B
:104C500080918502282F082E000C330B3F938F93F1
:104C60008BEF97E09F938F930E94F60589EF97E073
:104C70000E945D0580918602282F082E000C330BC0
:104C80003F938F9386EF97E09F938F930E94F60553
:104C900084EF97E00E945D0580918702282F082EFF
:104CA000000C330B3F938F9381EF97E09F938F938B
:104CB0000E94F6058EEE97E00E945D0580918002CD
:104CC0001F928F938BEE97E09F938F930E94F60530
:104CD00089EE97E00E945D05809181021F928F937B
:104CE00086EE97E09F938F930E94F60583EE97E000
:104CF0000E945D058DB79EB74C960FB6F8949EBF87
:104D00000FBE8DBF0E9405249C019091840280916A
:104D10008502982B21F030937E0220937D029091A2
:104D2000860280918702982B21F030937C02209399
:104D30007B0282E892E00C947116EF92FF920F933F
:104D40001F93CF93DF9300D000D000D0CDB7DEB754
:104D500086E0E2E8F2E0DE01119601900D928A957C
:104D6000E1F7E0908402F0908502009186021091B4
:104D7000870210928402109285021092860210928D
:104D800087028E2D8F2991F080917D0290917E0275
:104D90000E941124AC0190918002992309F43FC034
:104DA000809126018417150608F447C0802F812BB7
:104DB00091F080917B0290917C020E941124AC01C1
:104DC00090917F02992309F477C080912201841782
:104DD000150608F47FC08091840290918502892B8A
:104DE00090918602892B90918702892B11F00E9465
:104DF000002686E0FE013196A2E8B2E001900D9215
:104E00008A95E1F726960FB6F894DEBF0FBECDBFA8
:104E1000DF91CF911F910F91FF90EF900895209116
:104E200027018AE0289F900111242417350708F0F4
:104E3000BDCF9F5F9093800202C09F3FD1F7EE20CD
:104E400059F00E94A0249FEF1E140CF491E0899F5A
:104E5000802D112480938402FF2059F00E94A02409
:104E60009FEF1F140CF491E0899F802D11248093F3
:104E7000850230918402332309F498CF2091850272
:104E8000222309F493CF45EB3403C0011124992365
:104E900059F09093840245EB2403900111243323AD
:104EA00039F03093850282CF81E080938402F3CF82
:104EB00081E0809385027ACF209123018AE0289FA8
:104EC000900111242417350708F085CF9F5F909338
:104ED0007F0202C09F3FD1F7002359F00E94E324D4
:104EE0009FEF10160CF491E0899F802D1124809380
:104EF0008602112359F00E94E3249FEF11160CF44F
:104F000091E0899F802D1124809387023091860241
:104F1000332309F460CF20918702222309F45BCF69
:104F200045EB3403C0011124992359F09093860274
:104F300045EB240390011124332339F03093870289
:104F40004ACF81E080938602F3CF81E0809387028D
:104F500042CF86E0E2E8F2E0DF011D928A95E9F7B0
:104F60001092800210927F02109281020895809127
:104F7000AB0208959FB7F89410928A029FBF909158
:104F80000D03943009F048C02091E9002F70309152
:104F9000EC00932F917030FD90E8922B23E020934A
:104FA000E9002091EB0020FF34C02091EE0027FFA4
:104FB00030C020918802222321F02091E80025FFB3
:104FC00028C01092880226E03091E80035FF14C016
:104FD0008093F1008091E80085FD27C08091E80072
:104FE00080FFFCCF8091E8008E778093E8009F706F
:104FF0009093E90080E0089530910D03343049F436
:105000003091EB0035FD05C0215041F481E08093E3
:1050100088029F709093E9008FEF0895EFE9FFE019
:105020003197F1F700C00000CFCF8FB7F89421E09F
:1050300020938A028FBFDBCFCF93DF9300D00F92F4
:10504000CDB7DEB790910D03943019F589837B833A
:105050006A8382E08093E9008FEF9091E8008150AD
:1050600095FD06C095ED9A95F1F700008111F5CFF9
:105070008091E80085FF0DC050E040E063E070E003
:10508000CE0101960E94A62A8091E8008E77809337
:10509000E8000F900F900F90DF91CF910895BC0121
:1050A00084E00C941C28BC0183E00C941C289C0117
:1050B00082E08093E9009FEF8091E800915085FDA8
:1050C00006C085ED8A95F1F700009111F5CF80912A
:1050D000E80085FF0CC050E040E066E070E0C901E8
:1050E0000E94A62A8091E8008E778093E8000895B8
:1050F000CF93DF93EC01809132018823B1F180914D
:10510000AD0287FF32C060E282E08093E9008FEF5A
:105110009091E800815095FD06C095ED9A95F1F7C4
:1051200000008111F5CF8091E80085FF1BC08091C0
:10513000320170E050E040E0811104C050E040E0F6
:1051400068E070E0CE010E94A62A8091E8008E7788
:105150008093E80080E2FE01ABE8B2E001900D929E
:105160008A95E1F7DF91CF91089568E081E0CDCF96
:1051700082E598E00E945D0580910C03811109C0D1
:105180000E94362C0E94932C8091E20084608093D0
:10519000E20008958EE498E00E945D0510920C03F1
:1051A00008958AE498E00C945D0586E498E00C94F8
:1051B0005D0582E498E00E945D050C94C423209173
:1051C00089022F5F822F62E30E94462F992319F0F4
:1051D0002093890208951092890280918A0288237F
:1051E000F1F080910D038430C1F49091E9009F703B
:1051F0002091EC00822F817020FD80E8892B93E0C4
:105200009093E9009091EB0090FF04C09091EE0024
:1052100097FD08C08F708093E90010928A0208956C
:105220001092F1009091E80095FDFACF9091E8007E
:1052300090FFF0CF9091E8009E779093E800EACF3E
:1052400042E061EC81E00E94B22B42E261EC82E03C
:105250000E94B22B42E261EC83E00C94B22B80916D
:105260000F03833009F45FC030F48130C1F1823024
:1052700009F49BC008958A3009F487C08B3009F483
:105280006DC0893009F04EC080910E03813209F063
:1052900049C08091120390911303029708F042C015
:1052A0008091E800877F8093E8008091E80082FF8A
:1052B00035C09091F3008091F200029729F480911B
:1052C000F1008B7F813021F48091F1008093AB025B
:1052D0008091E8008B778093E8000C94E62B809116
:1052E0000E03813AF9F48091E800877F8093E8000B
:1052F0008091120390911303892B61F460E28BE893
:1053000092E070E00E94F52A8091E8008B7780930C
:10531000E800089560E090E080E0F3CF80910D0315
:105320008111C3CF089580910E03813AD9F78091FE
:10533000120390911303892BA9F78091E800877FCE
:105340008093E8008091E80080FFFCCF80913201DB
:105350008093F1008091E8008E77BDCF80910E039D
:10536000813201F78091120390911303892BD1F6BA
:105370008091E800877F8093E8000E94E62B80916F
:105380001003809332010C94591B80910E038132DB
:1053900049F68091E800877F8093E8000E94E62B21
:1053A000809111038093AC02089580910E03813A9D
:1053B00009F0B8CF8091E800877F8093E800809162
:1053C000E80080FFFCCF8091AC02C2CF84B7877F1A
:1053D00084BF0FB6F894A89580916000886180938F
:1053E0006000109260000FBE80E890E00FB6F89465
:1053F00080936100909361000FBE0E94B8160E94D6
:10540000362C0E94932C8091E20084608093E2000D
:105410008AEB97E20E94AA2178940E941B2F0E9497
:10542000C21688E291E00E94051681E398E00E948E
:105430005D0580910D03853019F00E94F616F9CFB5
:105440008DE298E00E945D050E94692380910B0324
:10545000882379F30E94AC23882359F30E94902A71
:10546000E8CF0C94332A292F33272330310521F13B
:1054700068F42130310509F449C02230310509F4BE
:105480004AC090E080E030E020E029C021323105C0
:1054900081F122323105A9F76330710590F7FB01E4
:1054A000EE0FFF1FE155FE4F2081318164557E4F85
:1054B000FB01808190E013C099278130910599F01C
:1054C000009741F08230910589F00397D1F6E6E527
:1054D000F8E002C0E0E8F8E0849190E09F01FA0172
:1054E000318320830895EEE6F8E0F6CFECE5F8E0AE
:1054F000F3CF6330710528F6660F771FFB01EB547D
:10550000FE4F2081318189E090E0E9CF82E190E097
:105510002FED38E0E4CF8BE590E024E838E0DFCFF2
:1055200080E189BD82E189BD09B400FEFDCF809193
:10553000D8008F7D8093D8008091E00082608093B6
:10554000E0008091E00081FDFCCF0895AF92BF9212
:10555000CF92DF92FF920F931F93CF93DF936C0153
:10556000EB018A010E94052CF82E811123C0011540
:10557000110539F0F80180819181C81BD90BC80E43
:10558000D91EB12CA12C2097A9F08091E80085FDAF
:1055900022C08091E8008E778093E8000115110504
:1055A000A1F0F80180819181A80EB91EB182A0827C
:1055B00085E0F82E8F2DDF91CF911F910F91FF90F5
:1055C000DF90CF90BF90AF9008950E94052C882364
:1055D000D1F2F82EEFCFF60181916F018093F100A7
:1055E0002197FFEFAF1ABF0ACECFFC0180911403C1
:1055F0009091150386179707A0F06115710529F49E
:105600009091E8009E779093E80090E06115710515
:1056100051F4911108C08091E80082FF34C080E00D
:105620000895BC01F2CF80910D038823C1F185302C
:10563000C1F18091E80083FD30C08091E80082FDD7
:10564000EACF8091E80080FFE1CF8091F3002091C4
:10565000F200382F6115710519F02830310558F026
:1056600091E02830310509F090E02091E8002E7794
:105670002093E800CBCF81918093F10061507109B4
:105680002F5F3F4FE7CF80910D03882341F0853096
:1056900041F08091E80083FFBECF81E0089582E071
:1056A000089583E00895FC018091140390911503FF
:1056B00086179707A0F06115710529F48091E8001D
:1056C0008E778093E80090E06115710551F4911197
:1056D00008C08091E80082FF35C080E00895BC01D9
:1056E000F2CF80910D038823C9F18530C9F18091F3
:1056F000E80083FD31C08091E80082FDEACF80910F
:10570000E80080FFE1CF8091F3002091F200382F74
:105710006115710519F02830310558F091E02830F5
:10572000310509F090E08091E8008E778093E800E1
:10573000CBCF84918093F1003196615071092F5F36
:105740003F4FE6CF80910D03882341F0853041F033
:105750008091E80083FFBDCF81E0089582E0089545
:1057600083E00895982F973028F08F708093E90098
:1057700081E008959093E900242F762F50E0981748
:1057800031F07091EC002091ED005091F00021FD7E
:1057900002C09F5FE8CF3091EB003E7F3093EB007B
:1057A0003091ED003D7F3093ED003091EB003160A2
:1057B0003093EB007093EC002093ED005093F000D9
:1057C0002091EE0027FDE5CF80E0089580910E0343
:1057D00087FF13C08091E80082FF06C08091E80037
:1057E0008B778093E80004C080910D038111F2CF84
:1057F000089580910D038823D9F38091E80080FFFC
:10580000F8CF8091E8008E77ECCF2091E4003091C2
:10581000E50095E6A9012091EC00822F817020FF20
:1058200006C08091E80080FF06C080E008952091C6
:10583000E80022FD1AC080910D03882389F085308D
:1058400089F08091EB0085FD0FC02091E40030913C
:10585000E50042175307F9F29150E1F684E008950C
:1058600082E0089583E0089581E008950E94A42CC9
:105870000E94AC2CE0EEF0E0808181608083E8ED56
:10588000F0E080818F77808319BCA7EDB0E08C9128
:105890008E7F8C9380818F7E808310920C0308957D
:1058A0000F931F93CF93DF930E94A42C0E94AC2CE4
:1058B000C8EDD0E088818F7788838881806888836D
:1058C00088818F7D888319BC10920D031092090383
:1058D00010920B0310920A0300EE10E0F801808191
:1058E0008B7F808388818160888342E060E080E0F4
:1058F0000E94B22BE1EEF0E080818E7F8083E2EEA9
:10590000F0E0808181608083808188608083F801FD
:1059100080818E7F8083888180618883DF91CF91B1
:105920001F910F910895E8EDF0E080818F7E8083D4
:10593000E7EDF0E080818160808384E082BF81E0D8
:1059400080930C030C94502CE8EDF0E080818E7F66
:1059500080831092E20008951092DA001092E10024
:1059600008951F920F920FB60F9211242F933F9319
:105970004F935F936F937F938F939F93AF93BF9357
:10598000EF93FF938091E10082FF0BC08091E200D2
:1059900082FF07C08091E1008B7F8093E1000E942D
:1059A000DF288091DA0080FF19C08091D80080FF45
:1059B00015C08091DA008E7F8093DA008091D90043
:1059C00080FF96C080E189BD82E189BD09B400FEF7
:1059D000FDCF81E080930D030E94B8288091E10003
:1059E00080FF19C08091E20080FF15C08091E20025
:1059F0008E7F8093E2008091E20080618093E200DC
:105A00008091D80080628093D80019BC85E0809393
:105A10000D030E94D5288091E10084FF2BC0809166
:105A2000E20084FF27C080E189BD82E189BD89B59C
:105A3000982F917080FFFBCF8091D8008F7D80934D
:105A4000D8008091E1008F7E8093E1008091E20098
:105A50008F7E8093E2008091E20081608093E2007B
:105A600080910903882309F449C084E080930D03E1
:105A70000E94D9288091E10083FF29C08091E20033
:105A800083FF25C08091E100877F8093E10082E061
:105A900080930D03109209038091E1008E7F809323
:105AA000E1008091E2008E7F8093E2008091E2002D
:105AB00080618093E20042E060E080E00E94B22BCF
:105AC0008091F00088608093F0000E94D128FF91BF
:105AD000EF91BF91AF919F918F917F916F915F9166
