:100000000C9408050C944F050C944F050C944F0567
:100010000C944F050C944F050C944F050C944F0510
:100020000C944F050C944F050C940A2C0C94DE2C68
:100030000C9420230C944F050C944F050C944F0501
:100040000C944F050C944F050C944F050C944F05E0
:100050000C944F050C946B230C944F050C944F0596
:100060000C944F050C944F050C944F050C944F05C0
:100070000C944F050C944F050C944F050C944F05B0
:100080000C944F050C944F050C944F050C944F05A0
:100090000C944F050C944F050C944F050C944F0590
:1000A0000C944F050C944F050C944F05C800BE00EE
:1000B000B40000000014BFFFF0FF000000000014B7
:1000C00080FFF0FF0000000000140AFFF0FF0000B6
:1000D0000000165C1E001F002000210022002300EB
:1000E00024002500260027002D002E0000002A00F5
:1000F0004A002B00000014001A0008001500170029
:100100001C0018000C00120013002F0030003100FA
:100110004B001459000004001600070009000A00F3
:100120000B000D000E000F0033003400280000000B
:100130004E00E10000001D001B0006001900050034
:10014000110010003600370038000000E5005200B2
:100150004D00E000E3000000E200000000002C0081
:100160000000000000000057E600E40050005100CD
:100170004F0035003A003B003C003D003E003F0090
:1001800040004100420043004400450000004C0094
:100190004C0001000000010001000100010001000D
:1001A0000100010052000100010001000100005C9B
:1001B00049000100000001000100010001000100F0
:1001C0000100010001000100010001000100000028
:1001D00046000100000001000100010001000100D3
:1001E0000100010001000100AE000000E500A900CF
:1001F000A800010001000000010000000000010053
:10020000000000000000010001000100CA5CAA001B
:10021000C95C290029000000000000000000000067
:1002200000000000000000000000000000000000CE
:100230000000000000002B05F500F000F4000000B5
:100240000000F900000000000000000000000000B5
:100250000000000000005108F200F100F30000006F
:100260000000F400F50000000000000000000000A5
:100270000000E100000000001B0006001900000063
:100280000000FA000000000000000000E50000008F
:100290000000E00000000000025300000000000029
:1002A0000000000000000253E600E400000000002F
:1002B000000044454255473A2064697361626C65A9
:1002C000642E0A0044454255473A20656E61626CCF
:1002D00065642E0A000A002530313662003A20009B
:1002E00025303258000A722F6320303132333435D2
:1002F000363738394142434445460A007267626CDA
:10030000696768742073657420687376205B4E4F4C
:10031000454550524F4D5D3A2025752C25752C25AD
:10032000750A007267626C6967687420736574206F
:10033000687376205B454550524F4D5D3A202575D8
:100340002C25752C25750A007267626C69676874C4
:100350002064697361626C65205B4E4F4545505265
:100360004F4D5D3A207267626C696768745F636FB6
:100370006E6669672E656E61626C65203D2025752D
:100380000A007267626C69676874206469736162ED
:100390006C65205B454550524F4D5D3A2072676257
:1003A0006C696768745F636F6E6669672E656E61FE
:1003B000626C65203D2025750A007267626C696772
:1003C000687420656E61626C65205B4E4F454550D8
:1003D000524F4D5D3A207267626C696768745F6363
:1003E0006F6E6669672E656E61626C65203D2025C3
:1003F000750A007267626C6967687420656E616275
:100400006C65205B454550524F4D5D3A20726762E6
:100410006C696768745F636F6E6669672E656E618D
:10042000626C65203D2025750A007267626C696701
:10043000687420746F67676C65205B454550524F48
:100440004D5D3A207267626C696768745F636F6EB6
:100450006669672E656E61626C65203D2025750AB0
:10046000007267626C69676874206D6F6465205BF9
:100470004E4F454550524F4D5D3A2025750A00724A
:1004800067626C69676874206D6F6465205B4545C1
:1004900050524F4D5D3A2025750A007267626C69B3
:1004A0006768745F696E6974207267626C696768F7
:1004B000745F636F6E6669672E6D6F6465203D20A3
:1004C000302E2057726974652064656661756C749E
:1004D0002076616C75657320746F20454550524FCE
:1004E0004D2E0A007267626C696768745F696E6995
:1004F00074206565636F6E666967206973206E6F2F
:100500007420656E61626C65642E0A007267626CAD
:10051000696768745F696E697420737461727421AD
:100520000A007267626C696768745F696E6974203B
:1005300063616C6C65642E0A007267626C6967683F
:10054000745F636F6E6669672E7370656564203DC6
:100550002025640A007267626C696768745F636F64
:100560006E6669672E76616C203D2025640A0072F4
:1005700067626C696768745F636F6E6669672E7324
:100580006174203D2025640A007267626C696768A7
:10059000745F636F6E6669672E687565203D202500
:1005A000640A007267686C696768745F636F6E667F
:1005B00069672E6D6F6465203D2025640A007267AF
:1005C000626C696768745F636F6E6669672E656EDB
:1005D00061626C65203D2025640A007267626C6967
:1005E0006768745F636F6E66696720454550524F58
:1005F0004D3A0A006261636B6C69676874207374BA
:1006000065703A2025750A006261636B6C696768E2
:10061000742064697361626C650A006261636B6C6B
:100620006967687420656E61626C650A0062616367
:100630006B6C6967687420746F67676C653A202516
:10064000750A006261636B6C696768742064656336
:1006500072656173653A2025750A006261636B6C8F
:100660006967687420696E6372656173653A2025F5
:10067000750A0000010101010101010101020202EC
:10068000020202020202030303030303030304043E
:100690000404040404050505050506060606060708
:1006A0000707070708080808090909090A0A0A0BC1
:1006B0000B0B0C0C0C0D0D0D0E0E0E0F0F0F101062
:1006C00011111112121313141415151616171718E9
:1006D0001819191A1A1B1B1C1D1D1E1E1F20202154
:1006E0002222232424252626272829292A2B2C2D9B
:1006F0002D2E2F30313232333435363738393A3BBC
:100700003C3D3E3F404142434445464748494A4CB0
:100710004D4E4F50515354555658595A5B5D5E5F7C
:10072000616264656668696B6C6D6F707273757712
:10073000787A7B7D7E8082838587888A8C8E8F9174
:10074000939596989A9C9EA0A2A3A5A7A9ABADAF9E
:10075000B1B3B5B7BABCBEC0C2C4C6C9CBCDCFD188
:10076000D4D6D8DBDDDFE2E4E7E9EBEEF0F3F5F831
:10077000FAFDFF0A002530325820006B6579626F60
:100780006172645F7265706F72743A20000A0025AE
:10079000303258006B6579626F6172645F736574A3
:1007A0005F6C65643A200064656C5F6B65795F62BD
:1007B00069743A2063616E27742064656C3A202561
:1007C0003032580A006164645F6B65795F626974F6
:1007D0003A2063616E2774206164643A20253032C8
:1007E000580A00290A002575002F002575005D288C
:1007F00000256400200025640020002564002000FE
:100800002564007C0025303258006D6F7573656B70
:100810006579205B62746E7C782079207620685D33
:10082000287265702F61636C293A205B005B735DF1
:10083000004B6579626F6172642073746172742E0B
:100840000A005B575D005B535D005B525D005B44DB
:100850005D005B435D0004033000000010034B00AB
:1008600042004400360037007600320000001003DA
:100870004B0042004400460061006E00730000001F
:100880000403090409025B00030100A0FA09040043
:1008900000010301010009211101000122400007AC
:1008A00005810308000A0904010001030000000992
:1008B000211101000122BC000705820320000A0962
:1008C000040200020300000009211101000122229C
:1008D0000007058303200001070503032000011220
:1008E00001100100000008424B6760020001020392
:1008F000010631FF0974A1010975150026FF009555
:1009000020750881020976150026FF0095207508DC
:100910009102C005010902A10185020901A100059A
:100920000919012905150025019505750181029513
:1009300001750381010501093009311581257F9574
:10094000027508810609381581257F950175088192
:1009500006050C0A38021581257F95017508810668
:10096000C0C005010980A101850319012AB700153E
:100970000126B700950175108100C0050C0901A181
:1009800001850419012AA002150126A0029501750E
:10099000108100C005010906A1018505050719E0C0
:1009A00029E7150025019508750181020507190041
:1009B00029EF1500250195F075018102050819013F
:1009C0002905950575019102950175039101C005F1
:1009D000010906A101050719E029E7150025019580
:1009E0000875018102950175088101050719002923
:1009F000FF150026FF0095067508810005081901FE
:100A00002905950575019102950175039101C000B5
:100A100011241FBECFEFDAE0DEBFCDBF04B603FE68
:100A200027C08091150390911603A0911703B091F0
:100A300018038730904BA740B04BD1F410921503A8
:100A400010921603109217031092180314BE84B765
:100A5000877F84BF0FB6F894A89580916000886165
:100A600080936000109260000FBEE0E0F8E309950B
:100A700011E0A0E0B1E0E8E4FFE502C005900D92CE
:100A8000AC3BB107D9F723E0ACEBB1E001C01D925C
:100A9000A531B207E1F70E943F290C94662F0C9410
:100AA0000000FF93EF93E091BC01F091BD013097FE
:100AB00009F00995EF91FF910895FC01859180302F
:100AC00011F0EFDFFBCF0895FF27E0E230E247FFB0
:100AD0000CC0419597FF09C0EDE260957095809537
:100AE0009095611D711D811D911D27FF02C02195EB
:100AF00030E350E2AA27660F771F881F991FAA1FAD
:100B0000A41710F0A41B63955A95A9F7AA3008F012
:100B1000A95FA05DAF93F3956115710581059105FE
:100B200041F7ED3211F4EF93F395F21718F43F9378
:100B3000F395FBCF8F91B5DFFA95E1F70895E99131
:100B4000F9918591803021F0853219F0AADFF9CF33
:100B5000089520E0E89455915532C1F3503311F4D3
:100B6000689455915A3348F4505390F3220F022E53
:100B7000220F220F200D250FF4CF0EF4219589911D
:100B80009991533619F3533729F1533559F1BC0173
:100B900088279927E8945C3621F489919991689483
:100BA0005591543639F446EF7EF077FF0DC08FEF44
:100BB0009FEF0AC055374AE039F0583540E121F03F
:100BC000523642E009F00895FF93EF937DDFEF91F5
:100BD000FF91B7CFFF93EF93FC0181918030B9F380
:100BE00060DFFBCFFF93EF9368DFF1CFDF93CF930D
:100BF000CDB7DEB72596A3DFCF91DF910895549A44
:100C00000C944606CF93C82F0E94D306882319F070
:100C1000C1FD03C05C9ACF9108955C98FCCF809190
:100C20000101823019F481E00E94E01E109201015E
:100C300008958CEA90E09093C2018093C1010895D9
:100C4000CF92DF92EF92FF926B017C0140E00E9415
:100C50008A1E682F80E00E94590F41E0C701B6014B
:100C60000E948A1E682F81E00E94590F42E0C7014E
:100C7000B6010E948A1E682F82E00E94590FC701A8
:100C8000B601FF90EF90DF90CF90089508950895FA
:100C9000FC018081813029F49285992339F082E02A
:100CA0000895823011F088E0089583E008950E944D
:100CB000480680930101882391F0833018F0833037
:100CC00021F0089581E00C94BF1E82E00E949F1ED7
:100CD000882319F082E00C94E01E82E0F4CF08959E
:100CE00081E0089581E008950C94720608950C94B3
:100CF00076061F93CF93DF9300D000D00F92CDB72D
:100D0000DEB749835A836B833091DE0189819A81F2
:100D100031111DC06623B9F02223A9F00E94AE1F35
:100D2000182F682F89819A810E945B1F69817A81BF
:100D3000812F0F900F900F900F900F90DF91CF9118
:100D40001F910C9459070E94871F182FEFCF0E9404
:100D5000AE1F69817A81EDCFFC01262F4081518140
:100D60006281738184810C947906CF93DF93EC01C7
:100D700060E00E94AC06BE01DF91CF910C94770633
:100D80000E94B5230E942521811102C00E94CB211F
:100D90000E949C110C94FF050E9407150C94650994
:100DA00008950C94D00681E00895CF93C82F0E9437
:100DB000D1068C2FCF910C94020608950E94A41A9C
:100DC0000E94DD062FEF84E39CE02150804090409C
:100DD000E1F700C000000C948F230F931F93CF9373
:100DE000DF93EC0161E00E94AC068C01BE010E9421
:100DF0006714BE01C8010E9474068823A1F1BE01D8
:100E0000C8010E940811882371F1BE01C8010E9427
:100E1000AD14882341F1BE01C8010E9463128823EA
:100E200011F1BE01C8010E94B5128823E1F0BE0194
:100E3000C8010E94D8138823B1F0BE01C8010E94E6
:100E40007B0F882381F08A81882341F101308CE572
:100E5000180779F00E3D8CE51807E9F001151C45DF
:100E6000E9F40E94DE0680E0DF91CF911F910F919F
:100E7000089590917602892F8E7F90FF81608093F4
:100E8000760280FF05C084EC92E00E945D05EBCF06
:100E900082EB92E0FACF0E94CB21E5CFCE01DF9129
:100EA000CF911F910F910C94700690E080E008950F
:100EB0000895E72FF0E095E0899FE00DF11D1124E2
:100EC00084E0EE0FFF1F8A95E1F7E60FF11DEE0FAC
:100ED000FF1FEE52FF4F859194910895FC01EE0F94
:100EE000FF1FEB52FD4F859194910895CF93DF93AF
:100EF0000E9459070E948B08EC01811520E592079A
:100F000008F042C0811530E4930708F0BDC0883E68
:100F1000910528F5803E910508F09DC0883A91051D
:100F200088F4853A910508F08FC08130910509F465
:100F300092C0009709F48FC0049708F08CC0D0E0ED
:100F4000C0E089C08F3B910508F489C0805C91099D
:100F5000C03CD105A0F30E946E07EC017CC0811556
:100F6000904250F4C11581E0D80708F074C0C03F2A
:100F7000D10528F3D0656FC0C11590E3D90708F0FB
:100F800079C0CE019F70E7CF811525E5920758F50E
:100F9000811534E5930708F0A6C0811542E5940752
:100FA00050F4C11581E5D80708F471C0DC2FCC27B7
:100FB000C16FD06A50C0982F969596959E01237068
:100FC0003327C115D34508F07FC0C1E0D0E002C08F
:100FD000CC0FDD1F2A95E2F720E2929FC001112479
:100FE000C82BD92B6FC0C11589E5D807A8F4C11546
:100FF00098E5D90708F07CC0C11526E5D20708F0AE
:101000009ECF8C2F0E942209C82FD0E0DC2FCC2746
:10101000CC27DF71D0621FC0C1153AE5D30708F4B1
:101020006CC0CE0190568115904208F088CF8D2F6C
:101030008F710E94220990E0982F882788279F713E
:101040009C012C2BE901E6CFC55AD0E0CF59DE4FE9
:10105000C881D0E0D064CE01DF91CF910895C85A05
:10106000D0E0CC0FDD1FCD5CDE4F0990D881C02DC4
:10107000D464F1CFCE019927D3FF03C0EC01D86C23
:10108000EACFEC01D06CE7CFDF70D06AE4CFCE01BD
:10109000E4E096958795EA95E1F783702C2F2695E5
:1010A0002695237090E2299F90011124382B8C2FD4
:1010B0008370C1E0D0E002C0CC0FDD1F8A95E2F75B
:1010C000C22BD32BDC68C7CFC1E0D0E002C0CC0F6D
:1010D000DD1F2A95E2F730E2939FC0011124C82B4F
:1010E000D92BDA68B8CFD82FCC27C46FD06AB3CF4A
:1010F000DC2FCC27C06FD06AAECF8C2F8F700E94B0
:10110000220934E0D695C7953A95E1F7CF709C2F28
:10111000EC01D069A0CF82389105B1F1B0F48133F0
:10112000910509F475C048F48932910509F469C044
:101130008A32910509F473C008958533910509F445
:1011400059C08933910501F10895833E9105A9F1B4
:1011500038F4803E9105F9F0823E910549F10895F9
:10116000863E9105A9F1873E9105C9F1843E91051E
:1011700019F52091AD0221FF1FC08091AC0284FDC2
:1011800014C087EE90E008952091AC022370A1F086
:1011900080EE90E008952091AC0220FD47C0309190
:1011A000AD0230FF09C024FF44C090E080E004C0DD
:1011B0002091AC0222FDF7CF08952091AC0222FDD0
:1011C0003BC03091AD0230FDE3CF24FFF5CFEDCF32
:1011D0002091AC0223FFF0CF24FDE7CFD2CF2091A6
:1011E000AC0223FD2CC03091AD0231FFEECF84EE76
:1011F00090E008952091AC0225FFDECF89E290E0D7
:1012000008952091AC0225FFD7CF85E390E00895A3
:101210002091AC0226FFD0CF8AE290E00895209181
:10122000AC0226FFC9CF81E390E0089589E390E006
:10123000089583EE90E0089582EE90E0089586EEA2
:1012400090E008959091AC0292FF06C0282F28717B
:101250002830F9F4877F846093FF06C0282F287117
:101260002831F1F4877E84612091AD0220FF06C011
:10127000382F38713830D9F4877F816021FF06C05C
:10128000282F28712831D1F4877E816194FD877ED3
:101290000895282F24712430F9F68B7F8860DCCFE5
:1012A000282F2471243101F78B7E8861DDCF382F00
:1012B0003171313019F78E7F8860E0CF282F21718E
:1012C000213121F78E7E8861E1CF0C944706E82F0B
:1012D000F0E0EE0FFF1FE854FD4F808191810895EB
:1012E000CF92DF92EF92FF920F931F93CF93DF93F2
:1012F00085EE92E00E945D0588EBE82E82E0F82EF4
:10130000D0E0C0E090EEC92E92E0D92E07ED12E0B9
:10131000DF93CF93DF92CF920E94F6058DED92E09E
:101320000E945D05F701819191917F010E94122138
:101330009F938F931F930F930E94F60585ED92E084
:101340000E945D0521968DB79EB708960FB6F8945A
:101350009EBF0FBE8DBFC530D105D1F6DF91CF91B5
:101360001F910F91FF90EF90DF90CF90089580EA4A
:101370008A95F1F70895CF93DF93A4E7B1E049E7A9
:1013800051E0C1E0D0E08D91E82FE295EF70F0E000
:1013900061A18F709E0101C0220F8A95EAF7922FFA
:1013A0009095962391A382A1822B82A34A175B0773
:1013B00051F7A4E6B1E061E070E08D91E82FE2958D
:1013C000EF70F0E041A18F709B0101C0220F8A9560
:1013D000EAF7922F9095942391A382A1822B82A366
:1013E00081E0A437B80749F71092AF021092AE021D
:1013F0001092B9021092B8021092B1021092B0028B
:101400001092BB021092BA021092B3021092B20272
:101410001092BD021092BC021092B5021092B4025A
:101420001092BF021092BE021092B7021092B60242
:101430001092C1021092C00285E00E94AA0ADF91B8
:10144000CF910C94C0068F929F92AF92BF92CF9291
:10145000DF92EF92FF920F931F93CF93DF9384E776
:10146000E82E81E0F82E0EEA12E0912CAA24A39433
:10147000B12CF70181917F01C82FC295CF70D0E0C8
:1014800099A18F70650101C0CC0C8A95EAF7892F6C
:101490008C2989A38AA18C2C809488218AA30E94FC
:1014A000B709E4E6F1E050E040E030E020E061918F
:1014B000A62FA295AF70B0E090968C9190E06F70DF
:1014C00002C0959587956A95E2F780FD3EC0C501FB
:1014D000042E02C0880F991F0A94E2F7282B392B9B
:1014E0004F5F5F4F4031510511F789A1882289A2D2
:1014F0008AA1C82ACAA2F8018081918128173907D8
:1015000039F13183208381E0982A0E5F1F4FF9E77C
:10151000EF16F1E0FF0609F0ACCF292D45E068EBAE
:1015200072E08EEA92E00E94AB0A0E94CC06892DFE
:10153000DF91CF911F910F91FF90EF90DF90CF90AF
:10154000BF90AF909F908F90089590E080E0C6CFBD
:1015500080E0DACF0895FF920F931F93CF93DF932C
:10156000F82E092F162FD72FC42F222349F081E000
:101570008093C0010E9450239093BF018093BE01CD
:101580008091C0018823A1F08091BE019091BF019C
:101590000E945C23069760F0EF2DF02FA12FBD2F46
:1015A00090E080E0D0E08C179D0744F01092C001DD
:1015B000DF91CF911F910F91FF900895219131916B
:1015C0002D933D930196EFCFEF92FF920F931F93D0
:1015D000CF93DF93EB01E82FD11110C0442321F00A
:1015E000F0E0ED58F94FE4916E2F7E2F8E2FDF91B2
:1015F000CF911F910F91FF90EF9008950D2F10E064
:10160000282F30E0442329F02D58394FF901249137
:1016100030E0F6E0CF9FC0011124EFEFF0E0BF0112
:101620000E94AB2EAB018C2F90E0880F991FA5E58F
:10163000A49FB001A59F700D1124861B970B982FB6
:10164000990F980FBF01601B710B629FD001639FC0
:10165000B00D729FB00D11248B2F9D9FB0011124EE
:10166000672F7727EF01C61BD70BBE01629FE001F2
:10167000639FD00D729FD00D11247F01E91AF108EC
:10168000E09EB001E19E700DF09E700D1124672F59
:101690007727E61BF70BE29F8001E39F100DF29F77
:1016A000100D1124E12F722F4230510599F048F4AA
:1016B0004115510569F04130510581F0EB2F8D2F17
:1016C00007C04430510569F080F046305105B1F74C
:1016D0006E2F8DCFE22F7B2F812FFACFE22F7D2F20
:1016E000F7CFEB2F822F712FF3CF7B2F822FED2F90
:1016F000EFCF41E00C94E40ACF93DF93762FE9011A
:10170000682F842F0E94790B798368838A83DF9105
:10171000CF910895413F08F040EF0C947C0B8091ED
:10172000C202982F9E7F71F48091C2028170826004
:101730008093C2028091C502813F18F080EF8093B0
:10174000C5020895843080F7F5CF88E090E00C94CE
:10175000262FCF92DF92EF92FF926B017C010E94C5
:101760008F0BB701A60188E090E0FF90EF90DF902B
:10177000CF900C94442FE2ECF2E083E0808311825E
:101780008FEF828380EF83831482608171818281F5
:1017900093810C94A90B8091760280FF76C08BED2B
:1017A00095E09F938F930E94F605809176020F90AB
:1017B0000F9080FF6AC08091C20281701F928F9348
:1017C0008EEB95E09F938F930E94F60580917602B1
:1017D0000F900F900F900F9080FF57C08091C20222
:1017E00086951F928F9383EA95E09F938F930E9433
:1017F000F605809176020F900F900F900F9080FF6A
:1018000044C08091C3021F928F9389E895E09F9313
:101810008F930E94F605809176020F900F900F90A3
:101820000F9080FF32C08091C4021F928F938FE689
:1018300095E09F938F930E94F605809176020F901A
:101840000F900F900F9080FF20C08091C5021F92D3
:101850008F9385E595E09F938F930E94F605809185
:1018600076020F900F900F900F9080FF0EC0809126
:10187000C6021F928F9389E395E09F938F930E94F6
:10188000F6050F900F900F900F9008959091C6025B
:10189000933018F49F5F9093C602882351F06091B3
:1018A000C2027091C3028091C4029091C5020C944F
:1018B000A90B089581E00C94460C9091C6029923DF
:1018C00019F091509093C602882351F06091C202A2
:1018D0007091C3028091C4029091C5020C94A90B2F
:1018E000089581E00C945D0C21E030E001C0220FEE
:1018F0008A95EAF79091C601922381E009F480E08D
:10190000089570E00C94AC116F927F928F929F9229
:10191000AF92BF92CF92DF92EF92FF920F931F93FD
:10192000CF93DF9300D000D00F92CDB7DEB7709089
:1019300019019091C20290FF26C0C090C101D090C1
:10194000C201C114D10489F58091180133E0839F4D
:10195000C0011124672D89539D4F0E94810C0F9067
:101960000F900F900F900F90DF91CF911F910F91DB
:10197000FF90EF90DF90CF90BF90AF909F908F90AF
:101980007F906F90089580911A0120911B0133E0A0
:10199000839FF0011124E953FD4F821770F61182E5
:1019A000108212828F5F3396F8CF90FFCDCFF12C4B
:1019B000E12C43E0642E8E2D0E94740C882309F4E0
:1019C0003CC0F701EE0FFF1FEC0DFD1DA590B4907C
:1019D000A114B10409F4B8CF45E050E0B501CE013F
:1019E00001960E94152F09810F3F39F18A81800FDE
:1019F0009927991F8531910514F084E190E04C01FD
:101A0000880C991C880D991D9C0129533D4F490153
:101A1000069D8001112409531D4F0815190520F05A
:101A200035E0A30EB11CD8CF98014D816C818B811C
:101A30000E948A0B0D5F1F4FF0CF8FEFE81AF80A54
:101A400028E0E216F10409F0B6CF7ECF8091C20201
:101A50008E7F8093C2026091C2027091C302809116
:101A6000C4029091C5020E94A90B8091760280FF6A
:101A70000FC08091C20281701F928F9382E893E021
:101A80009F938F930E94F6050F900F900F900F90E9
:101A90002FEF80E792E0215080409040E1F700C0B6
:101AA00000000C94840C8091C2028E7F8093C2024D
:101AB0008091760280FF0CC01F921F9288E493E011
:101AC0009F938F930E94F6050F900F900F900F90A9
:101AD0002FEF80E792E0215080409040E1F700C076
:101AE00000000C94840C9091C20290FF14C090915D
:101AF0001A0120911B0133E0939FF0011124E95357
:101B0000FD4F921710F00C94840C81836083428304
:101B10009F5F3396F6CF0895EF92FF920F931F9336
:101B2000CF93DF9300D00F92CDB7DEB7182F062FDB
:101B3000F42EE22E8091C20280FF43C0E82FE6958A
:101B4000F0E0E758FE4F90819093C4018E7F823081
:101B500059F49E012F5F3F4F812F0E948A0B4B81CA
:101B600069818A810E94730D1093C3020093C4029D
:101B7000F092C502EE2079F16091C2027091C30229
:101B80008091C4029091C5020E94A90B80917602B7
:101B900080FF17C08091C5021F928F938091C4026D
:101BA0001F928F938091C3021F928F9383E293E0E1
:101BB0009F938F930E94F6050FB6F894DEBF0FBE79
:101BC000CDBF0F900F900F90DF91CF911F910F918C
:101BD000FF90EF9008958091760280FFF2CF1F92E0
:101BE000FF921F920F931F921F938CEF92E0E0CF12
:101BF000E2ECF2E09181282F4381628188E0890F35
:101C00000C948C0D81E00C94F80DE2ECF2E09181E3
:101C1000282F4381628188EF890F0C948C0D81E01D
:101C20000C94050EE2ECF2E0628128E0620F08F409
:101C30006FEF282F438181810C948C0D81E00C94EF
:101C4000120EE2ECF2E0628128E0621B08F460E030
:101C5000282F438181810C948C0D81E00C94210EFE
:101C6000E2ECF2E0438128E0420F08F44FEF282F26
:101C7000628181810C948C0D81E00C94300EE2EC39
:101C8000F2E0438128E0421B08F440E0282F628103
:101C900081810C948C0D81E00C943F0E20E00C941B
:101CA0008C0D8091C20280FF35C08170826080936C
:101CB000C202662329F16091C2027091C302809131
:101CC000C4029091C5020E94A90B8091760280FF08
:101CD0000FC08091C20286951F928F938FE794E088
:101CE0009F938F930E94F6050F900F900F900F9087
:101CF0004091C5026091C4028091C3020C944E0EC3
:101D00008091760280FFF4CF1F9281E08F9381E66D
:101D100094E0E6CF0895682F81E00C94510E81E0A5
:101D20000C948B0E682F9091C20296958FEF890FBD
:101D300009F481E00C94510E81E00C94920E61E064
:101D40000C94510E8091C20281608093C2028091F6
:101D5000760280FF0DC01F9281E08F9383EF93E0A6
:101D60009F938F930E94F6050F900F900F900F9006
:101D70008091C20286950C949F0E8091760280FF1E
:101D800010C08091C202809581701F928F938AE269
:101D900094E09F938F930E94F6050F900F900F9001
:101DA0000F908091C20280FD0C94260D0C94A20E1F
:101DB00060E00C94510E8091C30181115EC080914E
:101DC000760280FF14C082E295E09F938F930E9479
:101DD000F605809176020F900F9080FF08C08CE08E
:101DE00095E09F938F930E94F6050F900F900E94AD
:101DF0002521811110C08091760280FF08C084EEF9
:101E000094E09F938F930E94F6050F900F900E948D
:101E1000CB210E94BB0B0E94A50B6093C202709362
:101E2000C3028093C4029093C5026E7FC1F4809177
:101E3000760280FF08C08BE994E09F938F930E9405
:101E4000F6050F900F900E94BB0B0E94A50B6093AC
:101E5000C2027093C3028093C4029093C5020E9491
:101E60008F0B0E94CB0B8091C20280FF03C086952E
:101E70000E94D80E81E08093C30108958091C20230
:101E800081608093C2028091760280FF0DC01F9214
:101E900081E08F938AEB93E09F938F930E94F605E6
:101EA0000F900F900F900F908091C20286950C9426
:101EB000D80E21E030E0A90102C0440F551F8A95D9
:101EC000E2F7CA012091C601662361F0822B80935C
:101ED000C6018091C501811108C08091C20286951A
:101EE0000C94D80E80958223F2CF0895FA018111C7
:101EF00001C0FB0109940F931F93CF938C01FB0149
:101F0000C281CC2309F44DC00E9443208272F801A3
:101F1000E25CFC45E431F10538F4E859F04D0C94ED
:101F2000F52E0E94BD0EC0E08C2FCF911F910F9116
:101F300008954CE95EE06FE87EE00E94760FF3CFF3
:101F40004FE85EE06CE97EE0F8CF4FE05EE062E0F3
:101F50007EE0F3CF42E05EE06FE07EE0EECF4DE268
:101F60005EE06EE17EE0E9CF4EE15EE06DE27EE0B4
:101F7000E4CF4BE45EE06CE37EE0DFCF4CE35EE079
:101F80006BE47EE0DACF41E75CE06AE57CE0D5CF48
:101F90004AE55CE061E77CE0D0CF81E00E949F0EE3
:101FA000C2CFC1E0C1CF0E942521811102C00E9491
:101FB000CB210E94532180930303803220F087704D
:101FC00088618093030390910303892F817090FFB0
:101FD00004C0892F8695869586950C943D11809135
:101FE0000303982F969596959695933040F49F5FAE
:101FF000990F990F990F8770892B80930303809114
:1020000003038160809303030E945721809176022D
:1020100080FF11C0809103038695869586951F9257
:102020008F938BE596E09F938F930E94F6050F9018
:102030000F900F900F90809103038695869586955B
:102040000C943D1180910303982F987F79F088506C
:1020500080930303887F91E009F490E0809103036B
:1020600090FB80F9809303030E94572180917602B0
:1020700080FF11C0809103038695869586951F92F7
:102080008F9383E496E09F938F930E94F6050F90C1
:102090000F900F900F9080910303869586958695FB
:1020A0000C943D118091030380FD1FC081608093DB
:1020B0000303813019F489E08093030380910303C3
:1020C0000E9457218091760280FF08C08BE196E044
:1020D0009F938F930E94F6050F900F9080910303BA
:1020E0008695869586950C943D11089580910303FD
:1020F00080FF14C08E7F809303030E94572180913C
:10210000760280FF08C088E096E09F938F930E943C
:10211000F6050F900F9080E00C943D110895CF9339
:10212000C0910303C1708091760280FF0CC01F92A2
:10213000CF938DE296E09F938F930E94F6050F90C8
:102140000F900F900F90CC2319F0CF910C94761034
:10215000CF910C94521090910303892F8695869508
:1021600086958F5F8F719770843080F5880F880F08
:10217000880F892B8093030380910303887F91E06C
:1021800009F490E08091030390FB80F980930303AE
:102190000E9457218091760280FF11C08091030335
:1021A0008695869586951F928F9384EF95E09F93F1
:1021B0008F930E94F6050F900F900F900F908091D3
:1021C00003038695869586950C943D1190930303A1
:1021D000D3CF843008F083E0909103039770282FC9
:1021E000220F220F220F922B90930303987F21E05E
:1021F00009F420E09091030320FB90F990930303EE
:102200000C943D110E94E910809103030C94572116
:102210009C01FB018281882349F12D3BFCE53F07AE
:10222000C9F040F42B3BECE53E0769F02C3B3C4504
:1022300079F008952F3B9CE5390791F070F0203C30
:102240003C4589F0089583E00E94021180E00895E2
:1022500080E0FACF0E942210F9CF0E94EF0FF6CF54
:102260000E948F10F3CF0E94AB10F0CF81E0089551
:10227000259A2D9808952D980895CF92DF92EF9288
:10228000FF92CF93C82F843040F5811127C08091F1
:1022900080008F77809380000E943B112C2F30E0CC
:1022A000AFEFBFEF0E94FB2E23E030E040E050E0B4
:1022B0000E94D32EC9012C3764E13607A8F469E0E7
:1022C00070E00E94AB2E7093890060938800CF91DC
:1022D000FF90EF90DF90CF900895C3E08091800051
:1022E000806880938000DACF2A50374D4F4F5F4F80
:1022F000942F832F722F662725EF38E241E050E0BC
:102300000E94D32E69017A01CA01B9010E948F2E61
:102310009B01AC01C701B6010E948F2E672F782F59
:10232000892F99276115710521E08207910559F6DA
:102330006FEF7FEFC8CF08950E94381182E8809335
:10234000800089E1809381008FEF9FEF9093870059
:10235000809386000C94D30F6A9A4EB14B7F5EB186
:102360005460EFB7F8949B01220F331F260F371FDD
:10237000280F391F2817390741F4EFBF8FE594E084
:102380000197F1F700C000000895DC016D91CD01C7
:1023900078E05EB9000000C067FF4EB9660F00002C
:1023A00000C000C000C04EB900C07A9591F7E2CFDE
:1023B000AF92BF92CF92DF92EF92FF920F931F9353
:1023C000CF93DF937C015B01C42FD22FFC0182816C
:1023D0008823F9F04093C9010E9450239093C801CB
:1023E0008093C70180E28C0F883008F061C0C7700D
:1023F00081E001C0880FCA95EAF7DF91CF911F9164
:102400000F91FF90EF90DF90CF90BF90AF900C9422
:1024100028181091C901141340C08091C7019091F0
:10242000C8010E945C236C01B701C5010E941A1DFE
:10243000C816D90690F5C0E2CD0F1D17B9F080E29D
:10244000810F883040F4177081E001C0880F1A9521
:10245000EAF70E942F18C83048F481E09D2F97704A
:1024600001C0880F9A95EAF70E942818802F0E94D1
:102470001518C830E8F4D77081E001C0880FDA95EC
:10248000EAF7DF91CF911F910F91FF90EF90DF90CE
:10249000CF90BF90AF900C942F1880E28C0F8830B3
:1024A00038F4C77081E001C0880FCA95EAF7E9CF18
:1024B000DF91CF911F910F91FF90EF90DF90CF9020
:1024C000BF90AF9008950F939C01CB01233F4CE543
:1024D000340759F1A8F4283DFCE53F0701F1293DF7
:1024E0004CE53407D1F1273D3C4591F406E221EE5D
:1024F00041EE67ED7CE50E94D81180E00F910895D0
:10250000253FFCE53F07E9F0B0F0263F3C45F9F0F8
:10251000FC018281882339F11092C901EFCF07E2D3
:1025200025EE45EE68ED7CE5E6CF06E221EE40EED5
:1025300063EF7CE5E0CF07E225EE44EE64EF7CE557
:10254000DACF06E221EE42EE65EF7CE5D4CF07E27A
:1025500025EE46EE66EF7CE5CECF08E221E045EEC3
:1025600069ED7CE5C8CF81E0C9CFCF93DF93EC0163
:10257000FB018281882309F419C1C230FCE5DF0721
:10258000C0F1C6319CE5D90730F09E012A5F3C4579
:102590002930310570F50E9438219093AD02809367
:1025A000AC02C031ECE5DE0709F4CFC008F05BC037
:1025B000C8308CE5D80709F4B6C088F5C430ECE51E
:1025C000DE0709F4A8C0C0F4C2308CE5D80709F4CE
:1025D0009CC08091AC028260C330DC4509F498C095
:1025E0008091AC029091AD020E9446210E94A41AF3
:1025F00080E0DF91CF9108958091AC028061C63078
:10260000ECE5DE0709F484C08091AC028860C73035
:10261000DC4508F47DC08091AC02806279C0CC308A
:102620008CE5D80709F489C070F48091AC028C6005
:10263000CA30ECE5DE0709F46BC008F478C080917D
:10264000AC028E7F65C0CE308CE5D80709F479C026
:102650008091AC028B7FCF30DC4508F459C080916B
:10266000AC028F7E55C0CB3FECE5DE0709F457C0C6
:1026700030F5C3318CE5D80709F46FC078F4C13167
:10268000ECE5DE0709F465C0C231DC4509F0A8CFEE
:102690000E94A41A8091AC028F773AC0C5318CE5B4
:1026A000D80709F462C008F476C08091AD02816059
:1026B000CA3FDC4509F094CF8093AD0291CFCF3F64
:1026C000FCE5DF0709F44DC088F48091AD028D7FF1
:1026D000CD3F9CE5D90781F38091AD028E7FCE3F3F
:1026E000DC4550F38091AD028360E6CFC130FDE55B
:1026F000DF0709F459C008F444C080E0C230DD456A
:1027000009F06ECF0E94CD216BCF8091AC02816029
:102710008093AC0265CF8091AC028460F9CF809148
:10272000AD028260C9CF8091AC028064F1CF0E947B
:10273000A41A8091AC028068EBCF8091AC028D7FAF
:10274000E7CF8091AC02877FE3CF8091AC028F7D91
:10275000DFCF8091AC028F7BDBCF8091AC02837F97
:10276000D7CF8091AD028C7FA7CF8091AC0282FB46
:10277000992790F921E0922790FB82F990FB83F949
:10278000C7CF8091AD02982F909591708E7F892B45
:1027900090FB81F991CF0E94A41A9091AC02892FED
:1027A00097FB87F98058B4CF81E0ACCF81E021CF8F
:1027B000CF93DF93EB0186319C4539F50E9443208E
:1027C000982F91718A7A911180E09A81992399F0DA
:1027D00091E0811101C090E09093CA01811109C07C
:1027E00089E20E941E200E94922080E0DF91CF911A
:1027F000089585E3F6CF8091CA01811104C089E272
:102800000E942520F0CF85E3FBCF81E0EFCFCF936F
:10281000DF93EC0181E0898B8F810E9446208885BF
:102820000E9459200E949220EA81FB81309739F062
:102830006C897D89CE010696DF91CF910994DF9155
:10284000CF910895EF92FF920F931F93CF93DF9351
:10285000EC018A85811134C0EB80FC8087E5F81A91
:1028600026E12E9DC0012F9D900D1124DC01AE5F4D
:10287000BE4F1496ED91FC911597309731F0549618
:102880006D917C91885F9E4F099586E18E9D8001B8
:102890008F9D100D11240E5F1E4FF80187810E943D
:1028A0004C20F80180850E945F200E9492201882AF
:1028B00019861B861E821D821092CC011092CB01BC
:1028C000DF91CF911F910F91FF90EF900895DF92CC
:1028D000EF92FF920F931F93CF93DF937C01FB0145
:1028E0008281882391F080911D018F3F71F0C2E0B9
:1028F000D1E010E000E0DD24D39480911D01082E8A
:10290000000C990B8017910744F4DF91CF911F9130
:102910000F91FF90EF90DF9008958E818823C9F08A
:1029200089859A858E159F0539F48091CB01909108
:10293000CC018E159F0569F0DF86FC86EB868989C0
:10294000811103C0CE010E940714CE0106960E9499
:1029500022140F5F1F4F6696D0CFEF92FF920F9316
:102960001F93CF93DF937C0197558F3F910509F01B
:10297000D8F520911D01022E000C330B28173907C2
:1029800014F480931D01FB01228136E1389F800100
:10299000399F100D1124E801CE5FDE4F288B928104
:1029A0008E81992349F1FA86E9868F5F8E830E9492
:1029B00050239E878D870E9479208F830E94432019
:1029C00088870E9456209885892B8887E881F9811D
:1029D000309731F06C897D89C801885F9E4F0995D9
:1029E000F092CC01E092CB0181E0DF91CF911F9179
:1029F0000F91FF90EF9008958823B1F38989882380
:102A000099F3C801885F9E4F0E942214EDCFCF92A8
:102A1000DF92EF92FF920F931F93CF93DF938091FA
:102A20001D0110E006E18F3FF1F5DF91CF911F917D
:102A30000F91FF90EF90DF90CF9008950E9DF001E1
:102A40000F9DF00D1124EE5FFE4FC288D388C11494
:102A5000D10439F470E060E0818592850E941A1DEE
:102A60006C010E9DE0010F9DD00D1124CE5FDE4F55
:102A70008E818823B9F08D859E850E945C23C816BF
:102A8000D90680F4109F700111248989811105C035
:102A9000C7018E5F9E4F0E940714C701885F9E4F3B
:102AA0000E9422141F5FE12EF12C80911D01082E3F
:102AB000000C990B8E159F050CF6B7CF9093D201A1
:102AC0008093D1010895E091D101F091D201309726
:102AD00021F00190F081E02D099480E00895EF92BB
:102AE000FF920F931F93CF93DF93EC01E091D101FD
:102AF000F091D201309709F446C0809132018823C9
:102B000041F08091AC0287FF04C08881898385E011
:102B100088830280F381E02DCE01099580917602B1
:102B200082FF31C080FF04C08BE797E00E945D0503
:102B300010E000E085E7E82E87E0F82E809176022D
:102B400080FF0EC0FE01E00FF11F80811F928F9366
:102B5000FF92EF920E94F6050F900F900F900F904A
:102B60000F5F1F4F0830110549F78091760280FFF3
:102B70000AC083E797E0DF91CF911F910F91FF90FB
:102B8000EF900C945D05DF91CF911F910F91FF9015
:102B9000EF900895E091D101F091D201309739F092
:102BA00022E0DC012C930480F581E02D0994089546
:102BB0002091CF013091D0012817390771F09093FF
:102BC000D0018093CF01E091D101F091D2013097F3
:102BD00021F00680F781E02D099408952091CD0120
:102BE0003091CE012817390771F09093CE01809370
:102BF000CD01E091D101F091D201309721F0008414
:102C0000F185E02D0994089585B7806885BF85B763
:102C1000806885BF0895089508950C940B160C9450
:102C200019060E9404160E940C160C940D1681E0E1
:102C300008950C9417160E9447230E94BB090E9416
:102C4000C9230E94D30F0E94DB0E0C940F16CF9362
:102C5000C82F8091760282FF1EC080FF1CC084E9CD
:102C600097E00E945D058091760280FF14C01F925C
:102C7000CF938FE897E09F938F930E94F605809102
:102C800076020F900F900F900F9080FF04C08DE898
:102C900097E00E945D058C2FCF910C94D5069F92F2
:102CA000AF92BF92CF92DF92EF92FF920F931F935A
:102CB000CF93DF93CDB7DEB72A970FB6F894DEBF78
:102CC0000FBECDBF0E94230A0E941916882309F463
:102CD00072C054EDA52E51E0B52E10E000E0902E0C
:102CE000802F0E9467096C01F501E190F1905F016E
:102CF000E816F90609F459C08091760281FD0E9418
:102D0000700997012C253D2580E0EE24E394F12CF9
:102D1000A9014E215F21452B09F441C08E839F827A
:102D2000CE20DF2081E0CD2809F480E088870E9452
:102D300050238160782F9A8789874E815F816885CB
:102D40008A850E94FE16000F111FF801EC52FE4FFB
:102D500080819181E826F926F182E0820E949B1110
:102D60000E94F6250E9463159091D3018917A1F165
:102D70000E9463158093D3012A960FB6F894DEBFA4
:102D80000FBECDBFDF91CF911F910F91FF90EF90BC
:102D9000DF90CF90BF90AF909F900C9427168F5FDD
:102DA000EE0CFF1C803109F0B3CF0F5F1F4F0530D1
:102DB000110509F094CF8FEF89838A831B820E94CB
:102DC00050238160782F9D838C8349815A816B8148
:102DD0008D810E94FE16C2CF2A960FB6F894DEBFF0
:102DE0000FBECDBFDF91CF911F910F91FF90EF905C
:102DF000DF90CF90BF90AF909F900895CF93DF93D7
:102E0000CDB7DEB72B970FB6F894DEBF0FBECDBFA0
:102E10004F83588769877A878B871E821D8285E05A
:102E2000FE013796DE01119601900D928A95E1F729
:102E300049815A816B817C818D819E812B960FB651
:102E4000F894DEBF0FBECDBFDF91CF910C941D1D56
:102E5000FC01808191810C94F01FCF93C82F8823AF
:102E600009F48BC08238C1F40E94631581FD85C0CE
:102E700089E30E941E200E9492202FEF81EE94E0B1
:102E8000215080409040E1F700C0000089E30E949B
:102E90002520CF910C9492208338A1F40E946315D1
:102EA00080FD6BC083E50E941E200E9492202FEFC0
:102EB00081EE94E0215080409040E1F700C0000096
:102EC00083E5E5CF8438A1F40E94631582FD55C0E7
:102ED00087E40E941E200E9492202FEF81EE94E052
:102EE000215080409040E1F700C0000087E4CFCF40
:102EF0008CEF8C0F813A90F46C2F80911E01909191
:102F00001F010E94E621882329F08C2F0E94252092
:102F10000E9492208C2F0E941E20BBCF80E28C0F3B
:102F2000883048F4C77081E001C0880FCA95EAF77D
:102F30000E944620AECFEBE5EC0FE33040F4F0E02A
:102F4000E755FE4F808190E0CF910C94D815E8E5CD
:102F5000EC0FE73150F4F0E0EE0FFF1FE558FE4FA5
:102F600080819181CF910C94EE15C03F30F08C2F71
:102F70000E946E24CF910C945925CF9108958823F7
:102F800009F452C0823871F40E94631581FF4CC06D
:102F900089E30E941E200E94922089E30E9425203E
:102FA0000C949220833859F40E94631580FF3CC032
:102FB00083E50E941E200E94922083E5EFCF843893
:102FC00059F40E94631582FF2FC087E40E941E20DF
:102FD0000E94922087E4E2CF9CEF980F913AF0F2A2
:102FE00090E2980F983050F4877091E001C0990FEB
:102FF0008A95EAF7892F0E944C20D2CF9BE5980F43
:10300000933020F490E080E00C94D81598E5980F68
:10301000973120F490E080E00C94EE15803F20F092
:103020000E94D6240C9459250895CF93C82F0E944E
:103030002D17C93349F42FEF87EE93E021508040DC
:103040009040E1F700C000008C2FCF910C94BF1787
:10305000882321F00E9446200C9492200895882312
:1030600021F00E944C200C9492200895BF92CF92A0
:10307000DF92EF92FF920F931F93CF93DF936C0138
:10308000D62FC72FFC01058102950F7012811111F7
:103090000E9466200E943C20E82E882391F0112394
:1030A000D1F08C2F807F803421F080E28D0F88302A
:1030B00090F082E00E94DD200E943C2091E0E82E0A
:1030C000E926BC2EB2949FE0B922EB2DF0E0E45843
:1030D000F04D0C94F52EE12CF4CF0C2F0F70C07F27
:1030E00011F00295007F1123A9F0002359F080E22E
:1030F0008D0F883010F0D11109C0802F0E9446201A
:103100000E9492208D2F0E942D1714C0802F0E94A4
:103110005920F6CF8D2F0E94BF17002359F080E26F
:103120008D0F883010F0D1112CC0802F0E944C20C0
:103130000E9492202B2D2850330B2430310520F48F
:103140000E9463150E94D506EE2009F49EC10E94DC
:10315000382080FD9AC1F60112820E9432200E941E
:10316000BF1EC6010E94661A0E943220DF91CF91D5
:103170001F910F91FF90EF90DF90CF90BF900C9434
:10318000E01E802F0E945F20D3CFFC2FFF70FF2E08
:10319000C07FC03219F0F29480EFF822DD2369F08D
:1031A000D13049F1112391F1002351F1F6018581CC
:1031B00080FFA8CF8F70858323C0112381F0011178
:1031C00006C00E9479208F290E942818B3CF0130B1
:1031D000C1F70E9479208F290E947F20ABCF011177
:1031E00006C00E9488208F2D0E942F18A3CF013087
:1031F00009F4A0CFF6CF112329F0063008F09ACFBA
:103200008F2DE2CF053008F095CFEDCF002359F395
:10321000D93349F4FFEF27EE33E0F150204030403E
:10322000E1F700C000008D2F0E94BF1783CF8C2FC5
:1032300086958695837069F0813009F07BCF8D2F5C
:103240009C2F9370111102C090E080E00E94EE1557
:1032500071CF8D2F9C2F9370111102C090E080E0F0
:103260000E94D81567CF8D2F112329F00E946E245C
:103270000E9459255FCF0E94D624FACF8C2F8370ED
:1032800009F041C0111156CF4D2F42954695477018
:10329000440F440F0D2F0F7010E030E020E0042E9B
:1032A00004C0000F111F221F331F0A94D2F760E0E1
:1032B00070E0CB01D4FF0FC06FE070E080E090E0E1
:1032C00004C0660F771F881F991F4A95D2F7609533
:1032D000709580959095C695C695C370602B712B9F
:1032E000822B932BC23049F058F4C13019F00E9460
:1032F000531E20CF0E94411E1DCF0E94651E1ACF73
:103300000E943F1E17CF8695112311F08C2F8170DC
:10331000882309F40FCF4D2F429546954770440FEF
:10332000440F0D2F0F7010E030E020E0042E04C099
:10333000000F111F221F331F0A94D2F760E070E0C4
:10334000CB01D4FF0FC06FE070E080E090E004C0DC
:10335000660F771F881F991F4A95D2F76095709561
:1033600080959095C695C695C370602B712B822B66
:10337000932BC23049F058F4C13019F00E94361F27
:10338000D9CE0E94241FD6CE0E94481FD3CE0E94C1
:10339000791ED0CECF70112329F08C2F0E94BF1E32
:1033A0008D2F12CF8D2F0E942F188C2F0E94E01E80
:1033B000C1CED23F89F160F4D03FC9F0D13F29F1AD
:1033C000112309F442C001119DCE8C2F8F7121C0B1
:1033D000D33F39F1D43FA1F7112369F1CF718C2F7D
:1033E0000E94BF1E63E08C2F0E94C820A3CE112331
:1033F00041F0053008F09ECE8C2F8F710E94031F84
:1034000099CE063008F096CEF7CF8C2F8F7111230E
:1034100069F20E94BF1E8ECE8C2F8F711123C9F3CB
:10342000C5CF112329F08C2F8F710E94AA1E82CE46
:103430000E94851E7FCE81E00E94DD20023008F4CC
:1034400079CE82E00E94DD2075CE002359F0D93379
:1034500009F0E9CE8FEF97EEE3E081509040E04035
:10346000E1F7DFCE8C2F8F71A1CF4C2F4F706D2FD6
:10347000C6010E9455070E94B71D5CCE4C2F4F70AD
:103480006D2FC6010E94580755CEDF91CF911F9135
:103490000F91FF90EF90DF90CF90BF9008950F9322
:1034A0001F93CF93DF93EC01688179818A810E9419
:1034B000FA1F8C010E945A1F0E943E1EB801CE01C5
:1034C000DF91CF911F910F910C943618CF93DF931A
:1034D000EC018B819C81892B29F08881998189233A
:1034E0008F3F59F4DF91CF910895CE010E944F1A7A
:1034F000CE01DF91CF910C94B506CE010E94ED066E
:103500008111F3CF0E943C20882361F38A818823B4
:1035100049F382E0DF91CF910C94DD200E94662078
:103520000E9476200E9492200E9402270E94592524
:1035300090E080E00E94D81590E080E00C94EE15B9
:103540000E942C200C948E1A0E9453200C94A01AD6
:10355000E92FE295EF70E250EE3070F4F0E0E457BE
:10356000F04D0C94F52E803F19F020F4883E20F4A5
:1035700081E00895843FE1F380E00895883EC0F340
:10358000813FD1F7F5CF93FB882780F908950E94FA
:10359000F01F0C94A81ACF93DF9300D000D00F92A5
:1035A000CDB7DEB70F900F900F900F900F90DF9177
:1035B000CF910895CF93DF9300D000D000D0CDB746
:1035C000DEB726960FB6F894DEBF0FBECDBFDF91F3
:1035D000CF9108951F93CF93DF93C091DF0116E041
:1035E0008091E0018C1304C0DF91CF911F91089569
:1035F000D0E01C9FF0011D9FF00D1124EF51FE4FF4
:103600004081518162817381848195810E94DA1A9F
:103610002196C770E5CF409111025091120260913E
:1036200013027091140280911502909116020C946D
:10363000DA1A1F93CF93DF9380911602807FA9F44B
:1036400080911302882389F08091DF01C091E0010D
:103650006091110270911202A0911402B0911502B2
:10366000D62FD72316E0C81304C0DF91CF911F9146
:10367000089590E0109711F0DF3F19F401968770DC
:10368000F2CF189F9001199F300D1124F901EF51CD
:10369000FE4F41814713F2CF40814613EFCF428165
:1036A0004111ECCF438154814A1B5B0B483C5105CF
:1036B00028F7809116028F70806180931602F901BD
:1036C000EA51FE4F80818F708061808381E192E0BA
:1036D0000E94661ADF91CF911F910C94EA1AAF9263
:1036E000BF92CF92DF92EF92FF920F931F93CF93EF
:1036F000DF93CDB7DEB761970FB6F894DEBF0FBE8C
:10370000CDBF8C0185E0F801DE011D9601900D9280
:103710008A95E1F7F80140815181E28081E1C82E6C
:1037200082E0D82E60911402709115026115710526
:1037300009F461C19091110220911202892F822314
:103740008F3F09F458C1A380B480F0901302F501B3
:10375000E61BF70BFF2009F4FCC080911602382FFE
:10376000307FE83CF10508F0B2C0311179C0FE2C81
:10377000251323C0941321C0E1101FC08F708061F6
:10378000809316020E940B1BC6010E94661A80914C
:103790001602F80185838F2D61960FB6F894DEBF6F
:1037A0000FBECDBFDF91CF911F910F91FF90EF9092
:1037B000DF90CF90BF90AF900895AB2829F0842F71
:1037C00085238F3F09F033C180E0F82FF170DF2EA1
:1037D00080FF3CC08091DF012091E00136E0821340
:1037E00015C04D875E878D859E850E94F01F292F0D
:1037F00022952F702230F0F0243018F59F70F1F0F0
:10380000F8019581907FD1F4D12C1EC090E0389FB3
:10381000F001399FF00D1124EF51FE4F61816513C6
:1038200006C06081641303C062816E110FC00196EF
:103830008770D5CF9F7011F0882331F3805E883078
:1038400018F3C8010E94661AFD2CA5CFEE2009F4DA
:10385000A2CF80911602816080931602F12C9BCF3B
:10386000251306C0941304C0F801EE2009F48DC09E
:103870004D875E878D859E850E94C71A882319F122
:10388000EE2009F180911602803270F02091110231
:103890003091120238872F831986BB86AA868C87BF
:1038A000CE0107960E94661A86E0F801A1E1B2E017
:1038B00001900D928A95E1F70E94191B0E940B1B43
:1038C000FF24F39468CFC8010E94661AF9CF311122
:1038D00013C07A2DB98AA88A6E2D89890E94CB1AC5
:1038E00081E192E00E94661A86E0F60111928A95C3
:1038F000E9F70E940B1BB2CF25130FC094130DC024
:10390000E1100BC0F8018583C8010E94661A86E0A9
:10391000F60111928A95E9F73ECF4D875E878D8536
:103920009E850E94C71A882371F2EE2061F2809171
:103930001602803208F4B8CF2091110230911202A1
:103940003A8329831B82BD82AC828E83CE0101968D
:10395000A9CFE83CF10508F041C0FE2CEE2009F4A7
:10396000B2CF25132AC0941328C08091160280FD7F
:103970001BC0982F907FC1F0F8018583903F31F0F4
:10398000982F907F905F8F70892B8583C8010E944C
:10399000661A86E0F801A1E1B2E001900D928A95E5
:1039A000E1F70E940B1BF7CE86E0F801A1E1B2E03F
:1039B00001900D928A95E1F7EECE4D875E878D8559
:1039C0009E850E94C71A81116FCF80911602816077
:1039D00080931602C8010E94661ADDCE7A2DB98A3C
:1039E000A88A6E2D89890E94CB1A86E0F601119271
:1039F0008A95E9F7D6CFEE2009F465CF4D875E872B
:103A00008D859E850E94C71AF82E882309F45BCF06
:103A100086E0F801A1E1B2E001900D928A95E1F70C
:103A200081E192E00E9428170E94191BBACF81E021
:103A30008E25CBCE88EC90E008951F93CF93DF9333
:103A4000CDB7DEB72C970FB6F894DEBF0FBECDBF53
:103A50004F83588769877A878B879C87CE01079623
:103A60000E946F1B882369F08A859B85892B39F01A
:103A70004F815885842F85238F3F09F071C016E050
:103A80005FC086E0FE013796DE01119601900D922F
:103A90008A95E1F78A859B85892B89F38F819885A3
:103AA00089238F3F61F32091E00130E0C901019645
:103AB000877099274091DF014817190671F40E9419
:103AC000A41A1092E0011092DF0186E0E1E1F2E039
:103AD000DF011D928A95E9F7D2CF96E0929FD0013F
:103AE000939FB00D1124AF51BE4FFE01319601904E
:103AF0000D929A95E1F78093E0010E94EA1ABFCFF8
:103B0000819FC00111248F519E4F0E946F1B8823FB
:103B1000E9F0E091DF011E9FF0011124EF51FE4F0B
:103B20004081518162817381848195810E94DA1A7A
:103B30008091DF0190E00196877099278093DF01E3
:103B40008091DF019091E0018913DACF2C960FB6B6
:103B5000F894DEBF0FBECDBFDF91CF911F910895C6
:103B600069857A858B859C850E94DA1A88CFEF92C9
:103B7000FF920F931F93CF93DF938C01892B81F0DA
:103B8000F12CEE24E394E8012196F8018491843726
:103B900070F4843008F05FC08130B1F08230A1F160
:103BA000DF91CF911F910F91FF90EF90089585378E
:103BB00009F44CC008F43DC09CE7980F903780F79B
:103BC0008F770E94BF1749C00E5F1F4FFE0184917F
:103BD00090E2980F983060F48770FE2D01C0FF0FBF
:103BE0008A95EAF78F2F0E9469200E94922002C0D6
:103BF0000E942D178F2D815030F2EFE9FFE03197B1
:103C0000F1F700C00000F7CF0E5F1F4FFE01849157
:103C100090E2980F983050F48770FE2D01C0FF0F8E
:103C20008A95EAF78F2F0E946F20DFCF0E94BF177F
:103C3000E1CF0E5F1F4FFE01C491C150D8F28FE952
:103C40009FE00197F1F700C00000F7CF0E5F1F4F14
:103C5000FE01F490CFCF0E942D178E01CBCF089597
:103C60000C942F1E0E94301E60934D0270934E02E2
:103C700080934F02909350020C948E1A08950C94E6
:103C8000321E0F931F9300914D0210914E0220910E
:103C90004F0230915002602B712B822B932B1F917E
:103CA0000F910C94321E0F931F9300914D021091AF
:103CB0004E0220914F0230915002602371238223E3
:103CC00093231F910F910C94321E0F931F93009119
:103CD0004D0210914E0220914F0230915002602708
:103CE0007127822793271F910F910C94321E0C94F9
:103CF00020060E94771E6093490270934A028093C7
:103D00004B0290934C020C948E1A60E070E0CB0151
:103D10000C94791E611571058105910529F481E0E6
:103D2000442361F080E00895DC01CB0104C0B69526
:103D3000A795979587954A95D2F781700895482F52
:103D40006091490270914A0280914B0290914C021D
:103D50000C948A1E0F931F9341E050E060E070E0E6
:103D60008A019B0104C0000F111F221F331F8A9577
:103D7000D2F7C901B8011F910F910C94791E0F93CE
:103D80001F9341E050E060E070E004C0440F551F15
:103D9000661F771F8A95D2F78091490290914A0257
:103DA000A0914B02B0914C028A019B01082B192B68
:103DB0002A2B3B2BC901B8011F910F910C94791E3E
:103DC0000F931F9341E050E060E070E004C0440FA7
:103DD000551F661F771F8A95D2F7CB01BA016095F0
:103DE0007095809590950091490210914A0220911A
:103DF0004B0230914C0260237123822393231F9145
:103E00000F910C94791E0F931F9341E050E060E0F6
:103E100070E004C0440F551F661F771F8A95D2F7C4
:103E20008091490290914A02A0914B02B0914C02BC
:103E30008A019B01082719272A273B27C901B801B6
:103E40001F910F910C94791E0F931F9300914902BB
:103E500010914A0220914B0230914C02602B712B41
:103E6000822B932B1F910F910C94791E0F931F930C
:103E70000091490210914A0220914B0230914C026C
:103E800060237123822393231F910F910C94791E39
:103E90000F931F930091490210914A0220914B0207
:103EA00030914C0260277127822793271F910F9131
:103EB0000C94791E08959295907F890F982F977092
:103EC00041E001C0440F9A95EAF78695869586955C
:103ED00095E0899FF0011124E95EFD4F30E020E07C
:103EE00070E05191DF011197CB01022E02C096952F
:103EF00087950A94E2F78170819585278423852729
:103F00008C932F5F3F4F2530310559F708959295D7
:103F1000907F890F982F977086958695869525E0D6
:103F2000829FF0011124E95EFD4F50E040E080E007
:103F3000219130E0092E02C0369527950A94E2F7C8
:103F400021703327042E01C0220F0A94EAF7822B36
:103F50004F5F5F4F4530510559F70895BF92CF929B
:103F6000DF92EF92FF920F931F93CF93DF938C0119
:103F7000C0904902D0904A02E0904B02F0904C026F
:103F800080914D0290914E02A0914F02B09150024B
:103F9000C82AD92AEA2AFB2ACFE1D0E0BC2ED701D1
:103FA000C6010C2E04C0B695A795979587950A94DF
:103FB000D2F780FD0EC0219788F7B12C8B2DDF91B1
:103FC000CF911F910F91FF90EF90DF90CF90BF9016
:103FD0000895B8018C2F0E947607019761F3EECF08
:103FE000CF93DF93EC010E94AE1FBE01DF91CF9112
:103FF0000C9476071F93CF93DF93EB019091DE0132
:10400000992331F0CB01DF91CF911F910C94F01FD8
:10401000882379F0CB010E94AE1F182F682FCE01A4
:104020000E945B1FBE01812FDF91CF911F910C94E5
:104030007607CB010E94871F182FF4CF682F80913D
:104040001E0190911F010C948822682F80911E01FF
:1040500090911F010C94932280911E0190911F0159
:104060000C949E22809151028595859585950895A1
:10407000809151028770089590915102977081E06C
:1040800009F480E008958091750208959091750279
:10409000892B8093750208958095909175029823DD
:1040A000909375020895109275020895809174029C
:1040B000089590917402892B8093740208958095DD
:1040C0009091740298239093740208951092740250
:1040D000089590917302892B8093730208958095BF
:1040E0009091730298239093730208951092730233
:1040F000089580915202089508950C947C20909127
:104100005202981721F0809352020C947D2008955A
:1041100080915202882329F01092520280E00C9480
:104120007D200895E0911E01F0911F01809175029C
:104130008083E0911E01F0911F01808190917402B3
:10414000892B8083E0911E01F0911F018081909165
:104150007302892B808390915202992381F0E09120
:104160001E01F0911F018081892B808380911E01A7
:1041700090911F010E94D22181110E94882080917C
:104180001E0190911F010C946F1508950C94C52089
:1041900098E0899F90011124622B609351020E9444
:1041A000BF1E809151028595859585950C94C620FA
:1041B0001092510280E00C94C6209091510280959B
:1041C000892380935102282F277071F4282F082EFD
:1041D000000C330B9217130639F08595859585955C
:1041E0000E94E01E0C94D82008959093BD01809306
:1041F000BC010895829590E09C01220F331F220F8D
:10420000331F2C7C95958795959587958373282BDF
:1042100030E0C901880F991F8A7A35952795257551
:10422000822B0895CF93DF93D92F0E94FA20C82FB5
:104230008D2F0E94FA209C2FDF91CF9108956FEF70
:104240007FEF90E080E00C94502F90E080E00E949F
:104250002C2F21E08C3E9E4F09F020E0822F089504
:1042600082E090E00C941E2F83E090E00C941E2FCF
:10427000CF9384E090E00E941E2FC82F81E290E04F
:104280000E941E2F982F8C2FCF910895CF93C92F66
:10429000682F84E090E00E94322F6C2F81E290E042
:1042A000CF910C94322F86E090E00C941E2F682F53
:1042B00086E090E00C94322FAB01BC018FE090E0DF
:1042C0000C94442FAB01BC0183E190E00C94442F8B
:1042D00060E070E0CB010C94622160E070E0CB0103
:1042E0000E945C210C9468216CEE7EEF90E080E0EF
:1042F0000E94502F60E082E090E00E94322F60E048
:1043000083E090E00E94322F10924D0210924E02F4
:1043100010924F021092500260E084E090E00E9400
:10432000322F60E081E290E00E94322F60E085E071
:1043300090E00E94322F60E086E090E00E94322FF1
:104340006FEF87E090E00E94322F40E050E0BA012A
:1043500088E090E00E94442F60E08DE090E00E94B1
:10436000322F40E050E0BA0188E190E00E94442FF3
:1043700060E087E190E00E94322F40E050E0BA0117
:104380008CE190E00E94442F60E080E290E00E9487
:10439000322F0C946D210C947421682F8EE090E0E4
:1043A0000C94322FFC01329680913201882321F047
:1043B0008091AC029EE187FF96E080E0915008F486
:1043C000089521912223D1F38F5FF8CF662301F165
:1043D000209132012223F1F02091AC0227FF1AC074
:1043E000462F4695469546954E3190F4677021E0EC
:1043F00030E002C0220F331F6A95E2F7840F911D4F
:10440000FC01828190E02823392381E0232B69F489
:1044100080E00895FC01329608962191261721F03C
:10442000E817F907D1F7F4CF81E008959C01FC016A
:1044300032969FEF80E04191461751F09F3F19F46B
:10444000411101C0982F8F5F8630A9F79F3F09F473
:104450000895290F311D97FD3A95F901628308955A
:10446000FC01329608962191261303C0DF011197B3
:104470001C92E817F907B9F70895E62FE695E69537
:10448000E695EE3170F4E80FF92FF11D677021E029
:1044900030E001C0220F6A95EAF78281822B828385
:1044A00008958091760280FF0CC01F926F9385EC77
:1044B00097E09F938F930E94F6050F900F900F90B7
:1044C0000F900895E62FE695E695E695EE3178F49F
:1044D000E80FF92FF11D677021E030E001C0220FD5
:1044E0006A95EAF720958281282322830895809196
:1044F000760280FF0CC01F926F9387EA97E09F932C
:104500008F930E94F6050F900F900F900F900895D3
:1045100020913201222329F02091AC0227FD0C9436
:104520003D220C94162220913201222329F0209161
:10453000AC0227FD0C9462220C943022FC013296CE
:1045400080913201882351F08091AC0287FF06C030
:104550008EE1DF011D928A95E9F7089586E0F9CF93
:10456000089508950C94B1220E94B22280910C0308
:10457000843009F43AC01092770288E190E020E498
:104580000FB6F894A895809360000FBE209360004A
:1045900080E00E943D1180E00E94D5068091780263
:1045A00081110AC081E0809378028091C2028170FB
:1045B000809379020E94530D0E94B22283B7817FBB
:1045C000846083BF83B7816083BF7894889583B705
:1045D0008E7F83BF0FB6F894A895809160008861A4
:1045E00080936000109260000FBE08950895CF93ED
:1045F0000E94B0220E94230A0E94F622C0E08C2F63
:104600000E946709892B31F4CF5FC530C1F780E084
:10461000CF91089581E0FCCF08950C940C230E9463
:10462000A41A0E94D30F0E9463150E94D50610920F
:1046300078028091790281110E943E0F0C940D2323
:104640001F921FB61F9211248F939F93AF93BF9316
:1046500080917702811113C080910403909105032A
:10466000A0910603B09107034196A11DB11D80934F
:10467000040390930503A0930603B0930703BF912F
:10468000AF919F918F911F901FBE1F90189582E050
:1046900084BD93E095BD9AEF97BD80936E00089519
:1046A0002FB7F8948091040390910503A09106031D
:1046B000B09107032FBF08959C014FB7F8948091E4
:1046C000040390910503A0910603B09107034FBF27
:1046D000821B930B089578941F921FB61F9211248A
:1046E0008F939F93AF93BF938091040390910503A1
:1046F000A0910603B09107030196A11DB11D8093FF
:10470000040390930503A0930603B0930703BF919E
:10471000AF919F918F911F901FBE1F90189581E0C0
:104720008093E00080E28093D8001092C9008FE16E
:104730009EE40197F1F700C0000087E090EBDC01F8
:104740008093150390931603A0931703B093180357
:1047500088E19CE00FB6F894A895809360000FBEA6
:1047600090936000FFCF0C941F210E94230A8FE3D7
:104770009CE90197F1F700C000000E94230A80E045
:104780000E94670980FF04C00E94B3230C948F230A
:1047900008950E942521811102C00E94CB210E9410
:1047A0003021809376020E9438219093AD0280934D
:1047B000AC020E943421682F70E090E080E00E94FB
:1047C0003F1E6091490270914A0280914B02909184
:1047D0004C020C94771E8091800280FF12C0609181
:1047E000250185E0689FB001112475956795759541
:1047F000679560387105A8F561157105A1F1862FDF
:10480000089581FF09C06091250185E0689FB0018E
:10481000112475956795EDCF6091250182FD0AC041
:1048200080917F028823D1F090912401609125012D
:10483000891728F085E0689FB0011124DACF869FA0
:10484000B001112485E0869F9001879F300D1124CF
:10485000692F70E0C9010E94BF2ECBCF65E070E0E8
:10486000CECF8FE7089581E008958091800280FF88
:104870000CC06091210170E07595679575956795FD
:104880006115710549F1862F089581FF06C0609179
:10489000210170E075956795F3CF6091210182FD4C
:1048A0000BC090917E029923A1F06091200180912C
:1048B0002101961738F0682F70E06038710500F319
:1048C0008FE70895899FC001112470E00E94BF2ED8
:1048D000F4CF61E070E0D7CF81E00895803F31F4FC
:1048E0000E94EB238195809384020895813F19F4FF
:1048F0000E94EB23F8CF823F31F40E94EB23819595
:10490000809383020895833F19F40E94EB23F8CF2C
:10491000893F29F40E9435248093850208958A3FB7
:1049200021F40E9435248195F7CF8B3F31F40E940A
:10493000352481958093860208958C3F19F40E9456
:104940003524F8CF843F31F48091820281608093D6
:1049500082020895853F21F4809182028260F7CF20
:10496000863F21F4809182028460F1CF873F21F459
:10497000809182028860EBCF883F21F4809182028F
:104980008061E5CF8D3F31F480918002816080931A
:10499000800208958E3F21F4809180028260F7CFDB
:1049A0008F3FB9F7809180028460F1CF90918302AC
:1049B000803F59F48091840287FF0DC010928402D9
:1049C00091110BC010927F0208C0813F81F4809149
:1049D000840218169CF3992381F0809185029091AE
:1049E0008602892B09F064C010927E020895823FEE
:1049F00049F497FFF0CF10928302809184028111D5
:104A0000ECCFE0CF833F19F41916ACF3E4CF20913B
:104A10008502893F29F41216F4F610928502DBCF45
:104A20008A3F19F427FFD7CFF8CF209186028B3F1A
:104A300029F427FFD0CF10928602CDCF8C3F19F4F6
:104A40001216CCF3C8CF843F31F4809182028E7F5E
:104A500080938202C0CF853F21F4809182028D7FB6
:104A6000F7CF863F21F4809182028B7FF1CF873F81
:104A700021F480918202877FEBCF883F21F48091DF
:104A800082028F7EE5CF8D3F31F4809180028E7F50
:104A900080938002A0CF8E3F21F4809180028D7F91
:104AA000F7CF8F3F09F097CF809180028B7FF0CFB7
:104AB00008958091760283FF7EC08AE098E00E948C
:104AC0005D05809182021F928F9385E098E09F930D
:104AD0008F930E94F60583E098E00E945D05809127
:104AE0008302282F082E000C330B3F938F9380E016
:104AF00098E09F938F930E94F6058EEF97E00E94B7
:104B00005D0580918402282F082E000C330B3F9303
:104B10008F938BEF97E09F938F930E94F60589EF19
:104B200097E00E945D0580918502282F082E000CD9
:104B3000330B3F938F9386EF97E09F938F930E9461
:104B4000F60584EF97E00E945D0580918602282F8C
:104B5000082E000C330B3F938F9381EF97E09F93C8
:104B60008F930E94F6058EEE97E00E945D0580917E
:104B70007F021F928F938BEE97E09F938F930E94FB
:104B8000F60589EE97E00E945D05809180021F92F4
:104B90008F9386EE97E09F938F930E94F60583EEA6
:104BA00097E00E945D058DB79EB74C960FB6F894BE
:104BB0009EBF0FBE8DBF0E9450239C019091830227
:104BC00080918402982B21F030937D0220937C0207
:104BD0009091850280918602982B21F030937B0280
:104BE00020937A0281E892E00C94CA15EF92FF922A
:104BF0000F931F93CF93DF9300D000D000D0CDB799
:104C0000DEB786E0E1E8F2E0DE01119601900D9258
:104C10008A95E1F7E0908302F0908402009185028A
:104C200010918602109283021092840210928502E3
:104C3000109286028E2D8F2991F080917C029091A6
:104C40007D020E945C23AC0190917F02992309F4BC
:104C50003FC0809126018417150608F447C0802FB5
:104C6000812B91F080917A0290917B020E945C23CB
:104C7000AC0190917E02992309F477C080912201C2
:104C80008417150608F47FC08091830290918402F6
:104C9000892B90918502892B90918602892B11F0A6
:104CA0000E94592586E0FE013196A1E8B2E001900C
:104CB0000D928A95E1F726960FB6F894DEBF0FBEE7
:104CC000CDBFDF91CF911F910F91FF90EF9008958D
:104CD000209127018AE0289F90011124241735078D
:104CE00008F0BDCF9F5F90937F0202C09F3FD1F736
:104CF000EE2059F00E94EB239FEF1E140CF491E07C
:104D0000899F802D112480938302FF2059F00E94F7
:104D1000EB239FEF1F140CF491E0899F802D112449
:104D20008093840230918302332309F498CF209139
:104D30008402222309F493CF45EB3403C0011124EC
:104D4000992359F09093830245EB24039001112499
:104D5000332339F03093840282CF81E08093830241
:104D6000F3CF81E0809384027ACF209123018AE0FF
:104D7000289F900111242417350708F085CF9F5FE5
:104D800090937E0202C09F3FD1F7002359F00E940A
:104D900035249FEF10160CF491E0899F802D11248B
:104DA00080938502112359F00E9435249FEF11163C
:104DB0000CF491E0899F802D11248093860230911C
:104DC0008502332309F460CF20918602222309F45F
:104DD0005BCF45EB3403C0011124992359F0909324
:104DE000850245EB240390011124332339F03093DD
:104DF00086024ACF81E080938502F3CF81E08093E1
:104E0000860242CF86E0E1E8F2E0DF011D928A955A
:104E1000E9F710927F0210927E02109280020895AC
:104E20008091AA0208959FB7F894109289029FBFBB
:104E300090910C03943009F048C02091E9002F7044
:104E40003091EC00932F917030FD90E8922B23E08D
:104E50002093E9002091EB0020FF34C02091EE0068
:104E600027FF30C020918702222321F02091E80003
:104E700025FF28C01092870226E03091E80035FF18
:104E800014C08093F1008091E80085FD27C08091D7
:104E9000E80080FFFCCF8091E8008E778093E800E7
:104EA0009F709093E90080E0089530910C033430B6
:104EB00049F43091EB0035FD05C0215041F481E00B
:104EC000809387029F709093E9008FEF0895EFE938
:104ED000FFE03197F1F700C00000CFCF8FB7F89413
:104EE00021E0209389028FBFDBCFCF93DF9300D0E7
:104EF0000F92CDB7DEB790910C03943019F58983EA
:104F00007B836A8382E08093E9008FEF9091E800D1
:104F1000815095FD06C095ED9A95F1F7000081113D
:104F2000F5CF8091E80085FF0DC050E040E063E0E0
:104F300070E0CE0101960E94FF298091E8008E77F3
:104F40008093E8000F900F900F90DF91CF9108951C
:104F5000BC0184E00C947527BC0183E00C94752798
:104F60009C0182E08093E9009FEF8091E8009150DE
:104F700085FD06C085ED8A95F1F700009111F5CF0A
:104F80008091E80085FF0CC050E040E066E070E0F2
:104F9000C9010E94FF298091E8008E778093E80084
:104FA0000895CF93DF93EC01809132018823B1F112
:104FB0008091AC0287FF32C060E282E08093E9001A
:104FC0008FEF9091E800815095FD06C095ED9A9580
:104FD000F1F700008111F5CF8091E80085FF1BC03B
:104FE0008091320170E050E040E0811104C050E057
:104FF00040E068E070E0CE010E94FF298091E80067
:105000008E778093E80080E2FE01AAE8B2E001908A
:105010000D928A95E1F7DF91CF91089568E081E0E4
:10502000CDCF82E598E00E945D0580910B03811150
:1050300009C00E948F2B0E94EC2B8091E2008460BB
:105040008093E20008958EE498E00E945D0510923E
:105050000B0308958AE498E00C945D0586E498E0DB
:105060000C945D0582E498E00E945D050C940F238A
:10507000209188022F5F822F62E30E949F2E992346
:1050800019F0209388020895109288028091890275
:105090008823F1F080910C038430C1F49091E900F1
:1050A0009F702091EC00822F817020FD80E8892B79
:1050B00093E09093E9009091EB0090FF04C09091F1
:1050C000EE0097FD08C08F708093E900109289026E
:1050D00008951092F1009091E80095FDFACF90911B
:1050E000E80090FFF0CF9091E8009E779093E80061
:1050F000EACF42E061EC81E00E940B2B42E261ECDE
:1051000082E00E940B2B42E261EC83E00C940B2BBB
:1051100080910E03833009F45FC030F48130C1F117
:10512000823009F49BC008958A3009F487C08B301F
:1051300009F46DC0893009F04EC080910D038132B1
:1051400009F049C08091110390911203029708F071
:1051500042C08091E800877F8093E8008091E8005A
:1051600082FF35C09091F3008091F200029729F4FC
:105170008091F1008B7F813021F48091F100809348
:10518000AA028091E8008B778093E8000C943F2B73
:1051900080910D03813AF9F48091E800877F809334
:1051A000E8008091110390911203892B61F460E271
:1051B0008AE892E070E00E944E2A8091E8008B77A6
:1051C0008093E800089560E090E080E0F3CF809164
:1051D0000C038111C3CF089580910D03813AD9F753
:1051E0008091110390911203892BA9F78091E80017
:1051F000877F8093E8008091E80080FFFCCF80915A
:1052000032018093F1008091E8008E77BDCF8091CC
:105210000D03813201F78091110390911203892BC4
:10522000D1F68091E800877F8093E8000E943F2BB1
:1052300080910F03809332010C94A41A80910D0386
:10524000813249F68091E800877F8093E8000E94D0
:105250003F2B809110038093AB02089580910D0342
:10526000813A09F0B8CF8091E800877F8093E80009
:105270008091E80080FFFCCF8091AB02C2CF84B761
:10528000877F84BF0FB6F894A895809160008861ED
:1052900080936000109260000FBE80E890E00FB62F
:1052A000F89480936100909361000FBE0E941116E4
:1052B0000E948F2B0E94EC2B8091E20084608093EF
:1052C000E20083E197E20E94F52078940E94742E18
:1052D0000E941B1688E291E00E945E1581E398E02F
:1052E0000E945D0580910C03853019F00E944F16D5
:1052F000F9CF8DE298E00E945D050E94B422809172
:105300000A03882379F30E94F722882359F30E9425
:10531000E929E8CF0C948C29292F33272330310534
:1053200021F168F42130310509F449C022303105FA
:1053300009F44AC090E080E030E020E029C021324A
:10534000310581F122323105A9F76330710590F7FB
:10535000FB01EE0FFF1FE155FE4F208131816455A7
:105360007E4FFB01808190E013C099278130910529
:1053700099F0009741F08230910589F00397D1F6BA
:10538000E6E5F8E002C0E0E8F8E0849190E09F01F3
:10539000FA01318320830895EEE6F8E0F6CFECE5DC
:1053A000F8E0F3CF6330710528F6660F771FFB0135
:1053B000EB54FE4F2081318189E090E0E9CF82E11A
:1053C00090E02FED38E0E4CF8BE590E024E838E082
:1053D000DFCF80E189BD82E189BD09B400FEFDCF48
:1053E0008091D8008F7D8093D8008091E00082600A
:1053F0008093E0008091E00081FDFCCF0895AF92A2
:10540000BF92CF92DF92FF920F931F93CF93DF93C0
:105410006C01EB018A010E945E2BF82E811123C0E2
:105420000115110539F0F80180819181C81BD90B54
:10543000C80ED91EB12CA12C2097A9F08091E800AC
:1054400085FD22C08091E8008E778093E8000115E9
:105450001105A1F0F80180819181A80EB91EB182D9
:10546000A08285E0F82E8F2DDF91CF911F910F91B3
:10547000FF90DF90CF90BF90AF9008950E945E2B79
:105480008823D1F2F82EEFCFF60181916F0180933E
:10549000F1002197FFEFAF1ABF0ACECFFC01809138
:1054A00013039091140386179707A0F061157105F7
:1054B00029F49091E8009E779093E80090E06115C0
:1054C000710551F4911108C08091E80082FF34C049
:1054D00080E00895BC01F2CF80910C038823C1F1D4
:1054E0008530C1F18091E80083FD30C08091E800F3
:1054F00082FDEACF8091E80080FFE1CF8091F30048
:105500002091F200382F6115710519F0283031050E
:1055100058F091E02830310509F090E02091E80042
:105520002E772093E800CBCF81918093F1006150DA
:1055300071092F5F3F4FE7CF80910C03882341F023
:10554000853041F08091E80083FFBECF81E008956F
:1055500082E0089583E00895FC0180911303909107
:10556000140386179707A0F06115710529F480913F
:10557000E8008E778093E80090E06115710551F4A2
:10558000911108C08091E80082FF35C080E0089545
:10559000BC01F2CF80910C038823C9F18530C9F199
:1055A0008091E80083FD31C08091E80082FDEACF60
:1055B0008091E80080FFE1CF8091F3002091F2001C
:1055C000382F6115710519F02830310558F091E038
:1055D0002830310509F090E08091E8008E778093C3
:1055E000E800CBCF84918093F1003196615071092E
:1055F0002F5F3F4FE6CF80910C03882341F0853029
:1056000041F08091E80083FFBDCF81E0089582E002
:10561000089583E00895982F973028F08F70809335
:10562000E90081E008959093E900242F762F50E05F
:10563000981731F07091EC002091ED005091F0003E
:1056400021FD02C09F5FE8CF3091EB003E7F309399
:10565000EB003091ED003D7F3093ED003091EB0099
:1056600031603093EB007093EC002093ED00509389
:10567000F0002091EE0027FDE5CF80E008958091B5
:105680000D0387FF13C08091E80082FF06C0809160
:10569000E8008B778093E80004C080910C038111AF
:1056A000F2CF089580910C038823D9F38091E8000C
:1056B00080FFF8CF8091E8008E77ECCF2091E40056
:1056C0003091E50095E6A9012091EC00822F8170D0
:1056D00020FF06C08091E80080FF06C080E00895AA
:1056E0002091E80022FD1AC080910C03882389F0E4
:1056F000853089F08091EB0085FD0FC02091E4009A
:105700003091E50042175307F9F29150E1F684E039
:10571000089582E0089583E0089581E008950E944D
:10572000FD2B0E94052CE0EEF0E0808181608083FB
:10573000E8EDF0E080818F77808319BCA7EDB0E0C1
:105740008C918E7F8C9380818F7E808310920B034F
:1057500008950F931F93CF93DF930E94FD2B0E9418
:10576000052CC8EDD0E088818F7788838881806898
:10577000888388818F7D888319BC10920C031092D6
:10578000080310920A031092090300EE10E0F801DA
:1057900080818B7F808388818160888342E060E0A4
:1057A00080E00E940B2BE1EEF0E080818E7F808311
:1057B000E2EEF0E080818160808380818860808378
:1057C000F80180818E7F8083888180618883DF916A
:1057D000CF911F910F910895E8EDF0E080818F7EC9
:1057E0008083E7EDF0E080818160808384E082BF88
:1057F00081E080930B030C94A92BE8EDF0E080810D
:105800008E7F80831092E20008951092DA00109249
:10581000E10008951F920F920FB60F9211242F935B
:105820003F934F935F936F937F938F939F93AF9328
:10583000BF93EF93FF938091E10082FF0BC08091B3
:10584000E20082FF07C08091E1008B7F8093E1003E
:105850000E9438288091DA0080FF19C08091D8001A
:1058600080FF15C08091DA008E7F8093DA008091EE
:10587000D90080FF96C080E189BD82E189BD09B46D
:1058800000FEFDCF81E080930C030E9411288091DF
:10589000E10080FF19C08091E20080FF15C0809177
:1058A000E2008E7F8093E2008091E200806180932D
:1058B000E2008091D80080628093D80019BC85E016
:1058C00080930C030E942E288091E10084FF2BC05E
:1058D0008091E20084FF27C080E189BD82E189BD1B
:1058E00089B5982F917080FFFBCF8091D8008F7D74
:1058F0008093D8008091E1008F7E8093E1008091B9
:10590000E2008F7E8093E2008091E20081608093CC
:10591000E20080910803882309F449C084E0809361
:105920000C030E9432288091E10083FF29C08091FE
:10593000E20083FF25C08091E100877F8093E10032
:1059400082E080930C03109208038091E1008E7F27
:105950008093E1008091E2008E7F8093E20080914D
:10596000E20080618093E20042E060E080E00E941B
:105970000B2B8091F00088608093F0000E942A2811
:10598000FF91EF91BF91AF919F918F917F916F9117
:105990005F914F913F912F910F900FBE0F901F90ED
:1059A000189519BC10920C030E94232870CF809187
:1059B000E30087FD93E090930C03B3CF1F920F9207
:1059C0000FB60F9211242F933F934F935F936F93D2
:1059D0007F938F939F93AF93BF93CF93DF93EF9377
:1059E000FF93D091E900DF708091EC00C82FC17067
:1059F00080FDC0E81092E9008091F000877F8093DD
:105A0000F00078940E94222D1092E9008091F0001D
:105A100088608093F000CD2BCF70C093E900FF9198
:105A2000EF91DF91CF91BF91AF919F918F917F9136
:105A30006F915F914F913F912F910F900FBE0F90FB
:105A40001F9018951F93CF93DF93CDB7DEB7AA971A
:105A50000FB6F894DEBF0FBECDBF8DE093E020916E
:105A6000F100FC012193CF01F3E085319F07B9F7E5
:105A70000E9488288091E80083FF1EC180910D0359
:105A800090910E039A3008F017C1E92FF0E0E65626
:105A9000F04D0C94F52E803899F0823809F00CC145
:105AA000809111038F70873008F006C18093E90060
:105AB0008091EB0085FB882780F91092E90006C0F1
:105AC0008091090390910A03911182609091E800FE
:105AD000977F9093E8008093F1001092F1008091FD
